{
	"Solidity Part/contracts/staking.sol": {
		"StakingContract": {
			"abi": [
				{
					"anonymous": false,
					"inputs": [
						{
							"indexed": false,
							"internalType": "address",
							"name": "staker",
							"type": "address"
						},
						{
							"indexed": false,
							"internalType": "uint256",
							"name": "id",
							"type": "uint256"
						},
						{
							"components": [
								{
									"internalType": "address",
									"name": "owner",
									"type": "address"
								},
								{
									"internalType": "uint256",
									"name": "amount",
									"type": "uint256"
								},
								{
									"internalType": "uint256",
									"name": "StakeTime",
									"type": "uint256"
								},
								{
									"internalType": "uint256",
									"name": "UnstakeTime",
									"type": "uint256"
								}
							],
							"indexed": false,
							"internalType": "struct StakingContract.Stake",
							"name": "stake",
							"type": "tuple"
						},
						{
							"indexed": false,
							"internalType": "uint256",
							"name": "blockTime",
							"type": "uint256"
						}
					],
					"name": "NewStake",
					"type": "event"
				},
				{
					"anonymous": false,
					"inputs": [
						{
							"indexed": true,
							"internalType": "address",
							"name": "previousOwner",
							"type": "address"
						},
						{
							"indexed": true,
							"internalType": "address",
							"name": "newOwner",
							"type": "address"
						}
					],
					"name": "OwnershipTransferred",
					"type": "event"
				},
				{
					"anonymous": false,
					"inputs": [
						{
							"indexed": false,
							"internalType": "address",
							"name": "staker",
							"type": "address"
						},
						{
							"indexed": false,
							"internalType": "uint256",
							"name": "id",
							"type": "uint256"
						},
						{
							"components": [
								{
									"internalType": "address",
									"name": "owner",
									"type": "address"
								},
								{
									"internalType": "uint256",
									"name": "amount",
									"type": "uint256"
								},
								{
									"internalType": "uint256",
									"name": "StakeTime",
									"type": "uint256"
								},
								{
									"internalType": "uint256",
									"name": "UnstakeTime",
									"type": "uint256"
								}
							],
							"indexed": false,
							"internalType": "struct StakingContract.Stake",
							"name": "stake",
							"type": "tuple"
						},
						{
							"indexed": false,
							"internalType": "uint256",
							"name": "blockTime",
							"type": "uint256"
						}
					],
					"name": "Unstake",
					"type": "event"
				},
				{
					"stateMutability": "payable",
					"type": "fallback"
				},
				{
					"inputs": [
						{
							"internalType": "address",
							"name": "_token",
							"type": "address"
						}
					],
					"name": "SetStakingToken",
					"outputs": [],
					"stateMutability": "nonpayable",
					"type": "function"
				},
				{
					"inputs": [
						{
							"internalType": "uint256",
							"name": "amount",
							"type": "uint256"
						}
					],
					"name": "StakeToken",
					"outputs": [],
					"stateMutability": "nonpayable",
					"type": "function"
				},
				{
					"inputs": [],
					"name": "StakingEnabled",
					"outputs": [
						{
							"internalType": "bool",
							"name": "",
							"type": "bool"
						}
					],
					"stateMutability": "view",
					"type": "function"
				},
				{
					"inputs": [],
					"name": "ToggleStaking",
					"outputs": [],
					"stateMutability": "nonpayable",
					"type": "function"
				},
				{
					"inputs": [],
					"name": "owner",
					"outputs": [
						{
							"internalType": "address",
							"name": "",
							"type": "address"
						}
					],
					"stateMutability": "view",
					"type": "function"
				},
				{
					"inputs": [],
					"name": "renounceOwnership",
					"outputs": [],
					"stateMutability": "nonpayable",
					"type": "function"
				},
				{
					"inputs": [
						{
							"internalType": "address",
							"name": "newOwner",
							"type": "address"
						}
					],
					"name": "transferOwnership",
					"outputs": [],
					"stateMutability": "nonpayable",
					"type": "function"
				},
				{
					"stateMutability": "payable",
					"type": "receive"
				}
			],
			"devdoc": {
				"kind": "dev",
				"methods": {
					"owner()": {
						"details": "Returns the address of the current owner."
					},
					"renounceOwnership()": {
						"details": "Leaves the contract without owner. It will not be possible to call `onlyOwner` functions anymore. Can only be called by the current owner. NOTE: Renouncing ownership will leave the contract without an owner, thereby removing any functionality that is only available to the owner."
					},
					"transferOwnership(address)": {
						"details": "Transfers ownership of the contract to a new account (`newOwner`). Can only be called by the current owner."
					}
				},
				"version": 1
			},
			"evm": {
				"assembly": "    /* \"Solidity Part/contracts/staking.sol\":386:4169  contract StakingContract is Ownable{... */\n  mstore(0x40, 0x80)\n    /* \"Solidity Part/contracts/staking.sol\":484:485  0 */\n  0x00\n    /* \"Solidity Part/contracts/staking.sol\":464:485  uint256 currentID = 0 */\n  0x02\n  sstore\n    /* \"Solidity Part/contracts/staking.sol\":520:525  false */\n  0x00\n    /* \"Solidity Part/contracts/staking.sol\":491:525  bool public StakingEnabled = false */\n  0x03\n  exp(0x0100, 0x00)\n  dup2\n  sload\n  dup2\n  0xff\n  mul\n  not\n  and\n  swap1\n  dup4\n  iszero\n  iszero\n  mul\n  or\n  swap1\n  sstore\n  pop\n    /* \"Solidity Part/contracts/staking.sol\":386:4169  contract StakingContract is Ownable{... */\n  callvalue\n  dup1\n  iszero\n  tag_1\n  jumpi\n  0x00\n  dup1\n  revert\ntag_1:\n  pop\n    /* \"@openzeppelin/contracts/access/Ownable.sol\":921:953  _transferOwnership(_msgSender()) */\n  tag_4\n    /* \"@openzeppelin/contracts/access/Ownable.sol\":940:952  _msgSender() */\n  tag_5\n    /* \"@openzeppelin/contracts/access/Ownable.sol\":940:950  _msgSender */\n  shl(0x20, tag_6)\n    /* \"@openzeppelin/contracts/access/Ownable.sol\":940:952  _msgSender() */\n  0x20\n  shr\n  jump\t// in\ntag_5:\n    /* \"@openzeppelin/contracts/access/Ownable.sol\":921:939  _transferOwnership */\n  shl(0x20, tag_7)\n    /* \"@openzeppelin/contracts/access/Ownable.sol\":921:953  _transferOwnership(_msgSender()) */\n  0x20\n  shr\n  jump\t// in\ntag_4:\n    /* \"Solidity Part/contracts/staking.sol\":386:4169  contract StakingContract is Ownable{... */\n  jump(tag_8)\n    /* \"@openzeppelin/contracts/utils/Context.sol\":640:736  function _msgSender() internal view virtual returns (address) {... */\ntag_6:\n    /* \"@openzeppelin/contracts/utils/Context.sol\":693:700  address */\n  0x00\n    /* \"@openzeppelin/contracts/utils/Context.sol\":719:729  msg.sender */\n  caller\n    /* \"@openzeppelin/contracts/utils/Context.sol\":712:729  return msg.sender */\n  swap1\n  pop\n    /* \"@openzeppelin/contracts/utils/Context.sol\":640:736  function _msgSender() internal view virtual returns (address) {... */\n  swap1\n  jump\t// out\n    /* \"@openzeppelin/contracts/access/Ownable.sol\":2270:2457  function _transferOwnership(address newOwner) internal virtual {... */\ntag_7:\n    /* \"@openzeppelin/contracts/access/Ownable.sol\":2343:2359  address oldOwner */\n  0x00\n    /* \"@openzeppelin/contracts/access/Ownable.sol\":2362:2368  _owner */\n  dup1\n  0x00\n  swap1\n  sload\n  swap1\n  0x0100\n  exp\n  swap1\n  div\n  0xffffffffffffffffffffffffffffffffffffffff\n  and\n    /* \"@openzeppelin/contracts/access/Ownable.sol\":2343:2368  address oldOwner = _owner */\n  swap1\n  pop\n    /* \"@openzeppelin/contracts/access/Ownable.sol\":2387:2395  newOwner */\n  dup2\n    /* \"@openzeppelin/contracts/access/Ownable.sol\":2378:2384  _owner */\n  0x00\n  dup1\n    /* \"@openzeppelin/contracts/access/Ownable.sol\":2378:2395  _owner = newOwner */\n  0x0100\n  exp\n  dup2\n  sload\n  dup2\n  0xffffffffffffffffffffffffffffffffffffffff\n  mul\n  not\n  and\n  swap1\n  dup4\n  0xffffffffffffffffffffffffffffffffffffffff\n  and\n  mul\n  or\n  swap1\n  sstore\n  pop\n    /* \"@openzeppelin/contracts/access/Ownable.sol\":2441:2449  newOwner */\n  dup2\n    /* \"@openzeppelin/contracts/access/Ownable.sol\":2410:2450  OwnershipTransferred(oldOwner, newOwner) */\n  0xffffffffffffffffffffffffffffffffffffffff\n  and\n    /* \"@openzeppelin/contracts/access/Ownable.sol\":2431:2439  oldOwner */\n  dup2\n    /* \"@openzeppelin/contracts/access/Ownable.sol\":2410:2450  OwnershipTransferred(oldOwner, newOwner) */\n  0xffffffffffffffffffffffffffffffffffffffff\n  and\n  0x8be0079c531659141344cd1fd0a4f28419497f9722a3daafe3b4186f6b6457e0\n  mload(0x40)\n  mload(0x40)\n  dup1\n  swap2\n  sub\n  swap1\n  log3\n    /* \"@openzeppelin/contracts/access/Ownable.sol\":2333:2457  {... */\n  pop\n    /* \"@openzeppelin/contracts/access/Ownable.sol\":2270:2457  function _transferOwnership(address newOwner) internal virtual {... */\n  pop\n  jump\t// out\n    /* \"Solidity Part/contracts/staking.sol\":386:4169  contract StakingContract is Ownable{... */\ntag_8:\n  dataSize(sub_0)\n  dup1\n  dataOffset(sub_0)\n  0x00\n  codecopy\n  0x00\n  return\nstop\n\nsub_0: assembly {\n        /* \"Solidity Part/contracts/staking.sol\":386:4169  contract StakingContract is Ownable{... */\n      mstore(0x40, 0x80)\n      jumpi(tag_1, lt(calldatasize, 0x04))\n      shr(0xe0, calldataload(0x00))\n      dup1\n      0xad95b1c6\n      gt\n      tag_10\n      jumpi\n      dup1\n      0xad95b1c6\n      eq\n      tag_6\n      jumpi\n      dup1\n      0xda917aea\n      eq\n      tag_7\n      jumpi\n      dup1\n      0xdb568922\n      eq\n      tag_8\n      jumpi\n      dup1\n      0xf2fde38b\n      eq\n      tag_9\n      jumpi\n      jump(tag_2)\n    tag_10:\n      dup1\n      0x64cb560c\n      eq\n      tag_3\n      jumpi\n      dup1\n      0x715018a6\n      eq\n      tag_4\n      jumpi\n      dup1\n      0x8da5cb5b\n      eq\n      tag_5\n      jumpi\n      jump(tag_2)\n    tag_1:\n      jumpi(tag_2, calldatasize)\n      stop\n    tag_2:\n      stop\n        /* \"Solidity Part/contracts/staking.sol\":1343:1424  function ToggleStaking() public {... */\n    tag_3:\n      callvalue\n      dup1\n      iszero\n      tag_15\n      jumpi\n      0x00\n      dup1\n      revert\n    tag_15:\n      pop\n      tag_16\n      tag_17\n      jump\t// in\n    tag_16:\n      stop\n        /* \"@openzeppelin/contracts/access/Ownable.sol\":1668:1769  function renounceOwnership() public virtual onlyOwner {... */\n    tag_4:\n      callvalue\n      dup1\n      iszero\n      tag_18\n      jumpi\n      0x00\n      dup1\n      revert\n    tag_18:\n      pop\n      tag_19\n      tag_20\n      jump\t// in\n    tag_19:\n      stop\n        /* \"@openzeppelin/contracts/access/Ownable.sol\":1036:1121  function owner() public view virtual returns (address) {... */\n    tag_5:\n      callvalue\n      dup1\n      iszero\n      tag_21\n      jumpi\n      0x00\n      dup1\n      revert\n    tag_21:\n      pop\n      tag_22\n      tag_23\n      jump\t// in\n    tag_22:\n      mload(0x40)\n      tag_24\n      swap2\n      swap1\n      tag_25\n      jump\t// in\n    tag_24:\n      mload(0x40)\n      dup1\n      swap2\n      sub\n      swap1\n      return\n        /* \"Solidity Part/contracts/staking.sol\":1434:2278  function StakeToken(uint256 amount) public {... */\n    tag_6:\n      callvalue\n      dup1\n      iszero\n      tag_26\n      jumpi\n      0x00\n      dup1\n      revert\n    tag_26:\n      pop\n      tag_27\n      0x04\n      dup1\n      calldatasize\n      sub\n      dup2\n      add\n      swap1\n      tag_28\n      swap2\n      swap1\n      tag_29\n      jump\t// in\n    tag_28:\n      tag_30\n      jump\t// in\n    tag_27:\n      stop\n        /* \"Solidity Part/contracts/staking.sol\":491:525  bool public StakingEnabled = false */\n    tag_7:\n      callvalue\n      dup1\n      iszero\n      tag_31\n      jumpi\n      0x00\n      dup1\n      revert\n    tag_31:\n      pop\n      tag_32\n      tag_33\n      jump\t// in\n    tag_32:\n      mload(0x40)\n      tag_34\n      swap2\n      swap1\n      tag_35\n      jump\t// in\n    tag_34:\n      mload(0x40)\n      dup1\n      swap2\n      sub\n      swap1\n      return\n        /* \"Solidity Part/contracts/staking.sol\":1237:1333  function SetStakingToken(address _token) public onlyOwner {... */\n    tag_8:\n      callvalue\n      dup1\n      iszero\n      tag_36\n      jumpi\n      0x00\n      dup1\n      revert\n    tag_36:\n      pop\n      tag_37\n      0x04\n      dup1\n      calldatasize\n      sub\n      dup2\n      add\n      swap1\n      tag_38\n      swap2\n      swap1\n      tag_39\n      jump\t// in\n    tag_38:\n      tag_40\n      jump\t// in\n    tag_37:\n      stop\n        /* \"@openzeppelin/contracts/access/Ownable.sol\":1918:2116  function transferOwnership(address newOwner) public virtual onlyOwner {... */\n    tag_9:\n      callvalue\n      dup1\n      iszero\n      tag_41\n      jumpi\n      0x00\n      dup1\n      revert\n    tag_41:\n      pop\n      tag_42\n      0x04\n      dup1\n      calldatasize\n      sub\n      dup2\n      add\n      swap1\n      tag_43\n      swap2\n      swap1\n      tag_39\n      jump\t// in\n    tag_43:\n      tag_44\n      jump\t// in\n    tag_42:\n      stop\n        /* \"Solidity Part/contracts/staking.sol\":1343:1424  function ToggleStaking() public {... */\n    tag_17:\n        /* \"Solidity Part/contracts/staking.sol\":1403:1417  StakingEnabled */\n      0x03\n      0x00\n      swap1\n      sload\n      swap1\n      0x0100\n      exp\n      swap1\n      div\n      0xff\n      and\n        /* \"Solidity Part/contracts/staking.sol\":1402:1417  !StakingEnabled */\n      iszero\n        /* \"Solidity Part/contracts/staking.sol\":1385:1399  StakingEnabled */\n      0x03\n      0x00\n        /* \"Solidity Part/contracts/staking.sol\":1385:1417  StakingEnabled = !StakingEnabled */\n      0x0100\n      exp\n      dup2\n      sload\n      dup2\n      0xff\n      mul\n      not\n      and\n      swap1\n      dup4\n      iszero\n      iszero\n      mul\n      or\n      swap1\n      sstore\n      pop\n        /* \"Solidity Part/contracts/staking.sol\":1343:1424  function ToggleStaking() public {... */\n      jump\t// out\n        /* \"@openzeppelin/contracts/access/Ownable.sol\":1668:1769  function renounceOwnership() public virtual onlyOwner {... */\n    tag_20:\n        /* \"@openzeppelin/contracts/access/Ownable.sol\":1259:1271  _msgSender() */\n      tag_47\n        /* \"@openzeppelin/contracts/access/Ownable.sol\":1259:1269  _msgSender */\n      tag_48\n        /* \"@openzeppelin/contracts/access/Ownable.sol\":1259:1271  _msgSender() */\n      jump\t// in\n    tag_47:\n        /* \"@openzeppelin/contracts/access/Ownable.sol\":1248:1271  owner() == _msgSender() */\n      0xffffffffffffffffffffffffffffffffffffffff\n      and\n        /* \"@openzeppelin/contracts/access/Ownable.sol\":1248:1255  owner() */\n      tag_49\n        /* \"@openzeppelin/contracts/access/Ownable.sol\":1248:1253  owner */\n      tag_23\n        /* \"@openzeppelin/contracts/access/Ownable.sol\":1248:1255  owner() */\n      jump\t// in\n    tag_49:\n        /* \"@openzeppelin/contracts/access/Ownable.sol\":1248:1271  owner() == _msgSender() */\n      0xffffffffffffffffffffffffffffffffffffffff\n      and\n      eq\n        /* \"@openzeppelin/contracts/access/Ownable.sol\":1240:1308  require(owner() == _msgSender(), \"Ownable: caller is not the owner\") */\n      tag_50\n      jumpi\n      mload(0x40)\n      0x08c379a000000000000000000000000000000000000000000000000000000000\n      dup2\n      mstore\n      0x04\n      add\n      tag_51\n      swap1\n      tag_52\n      jump\t// in\n    tag_51:\n      mload(0x40)\n      dup1\n      swap2\n      sub\n      swap1\n      revert\n    tag_50:\n        /* \"@openzeppelin/contracts/access/Ownable.sol\":1732:1762  _transferOwnership(address(0)) */\n      tag_54\n        /* \"@openzeppelin/contracts/access/Ownable.sol\":1759:1760  0 */\n      0x00\n        /* \"@openzeppelin/contracts/access/Ownable.sol\":1732:1750  _transferOwnership */\n      tag_55\n        /* \"@openzeppelin/contracts/access/Ownable.sol\":1732:1762  _transferOwnership(address(0)) */\n      jump\t// in\n    tag_54:\n        /* \"@openzeppelin/contracts/access/Ownable.sol\":1668:1769  function renounceOwnership() public virtual onlyOwner {... */\n      jump\t// out\n        /* \"@openzeppelin/contracts/access/Ownable.sol\":1036:1121  function owner() public view virtual returns (address) {... */\n    tag_23:\n        /* \"@openzeppelin/contracts/access/Ownable.sol\":1082:1089  address */\n      0x00\n        /* \"@openzeppelin/contracts/access/Ownable.sol\":1108:1114  _owner */\n      dup1\n      0x00\n      swap1\n      sload\n      swap1\n      0x0100\n      exp\n      swap1\n      div\n      0xffffffffffffffffffffffffffffffffffffffff\n      and\n        /* \"@openzeppelin/contracts/access/Ownable.sol\":1101:1114  return _owner */\n      swap1\n      pop\n        /* \"@openzeppelin/contracts/access/Ownable.sol\":1036:1121  function owner() public view virtual returns (address) {... */\n      swap1\n      jump\t// out\n        /* \"Solidity Part/contracts/staking.sol\":1434:2278  function StakeToken(uint256 amount) public {... */\n    tag_30:\n        /* \"Solidity Part/contracts/staking.sol\":1551:1565  StakingEnabled */\n      0x03\n      0x00\n      swap1\n      sload\n      swap1\n      0x0100\n      exp\n      swap1\n      div\n      0xff\n      and\n        /* \"Solidity Part/contracts/staking.sol\":1543:1592  require(StakingEnabled, \"Staking Is Not Enabled\") */\n      tag_58\n      jumpi\n      mload(0x40)\n      0x08c379a000000000000000000000000000000000000000000000000000000000\n      dup2\n      mstore\n      0x04\n      add\n      tag_59\n      swap1\n      tag_60\n      jump\t// in\n    tag_59:\n      mload(0x40)\n      dup1\n      swap2\n      sub\n      swap1\n      revert\n    tag_58:\n        /* \"Solidity Part/contracts/staking.sol\":1650:1664  1000000*10**18 */\n      0xd3c21bcecceda1000000\n        /* \"Solidity Part/contracts/staking.sol\":1640:1646  amount */\n      dup2\n        /* \"Solidity Part/contracts/staking.sol\":1610:1625  StakingBalances */\n      0x05\n        /* \"Solidity Part/contracts/staking.sol\":1610:1637  StakingBalances[msg.sender] */\n      0x00\n        /* \"Solidity Part/contracts/staking.sol\":1626:1636  msg.sender */\n      caller\n        /* \"Solidity Part/contracts/staking.sol\":1610:1637  StakingBalances[msg.sender] */\n      0xffffffffffffffffffffffffffffffffffffffff\n      and\n      0xffffffffffffffffffffffffffffffffffffffff\n      and\n      dup2\n      mstore\n      0x20\n      add\n      swap1\n      dup2\n      mstore\n      0x20\n      add\n      0x00\n      keccak256\n      sload\n        /* \"Solidity Part/contracts/staking.sol\":1610:1646  StakingBalances[msg.sender] + amount */\n      tag_61\n      swap2\n      swap1\n      tag_62\n      jump\t// in\n    tag_61:\n        /* \"Solidity Part/contracts/staking.sol\":1610:1664  StakingBalances[msg.sender] + amount >= 1000000*10**18 */\n      lt\n      iszero\n        /* \"Solidity Part/contracts/staking.sol\":1602:1698  require(StakingBalances[msg.sender] + amount >= 1000000*10**18, \"Call Will Brech Maximum Stake\") */\n      tag_63\n      jumpi\n      mload(0x40)\n      0x08c379a000000000000000000000000000000000000000000000000000000000\n      dup2\n      mstore\n      0x04\n      add\n      tag_64\n      swap1\n      tag_65\n      jump\t// in\n    tag_64:\n      mload(0x40)\n      dup1\n      swap2\n      sub\n      swap1\n      revert\n    tag_63:\n        /* \"Solidity Part/contracts/staking.sol\":1778:1787  10*10**18 */\n      0x8ac7230489e80000\n        /* \"Solidity Part/contracts/staking.sol\":1768:1774  amount */\n      dup2\n        /* \"Solidity Part/contracts/staking.sol\":1738:1753  StakingBalances */\n      0x05\n        /* \"Solidity Part/contracts/staking.sol\":1738:1765  StakingBalances[msg.sender] */\n      0x00\n        /* \"Solidity Part/contracts/staking.sol\":1754:1764  msg.sender */\n      caller\n        /* \"Solidity Part/contracts/staking.sol\":1738:1765  StakingBalances[msg.sender] */\n      0xffffffffffffffffffffffffffffffffffffffff\n      and\n      0xffffffffffffffffffffffffffffffffffffffff\n      and\n      dup2\n      mstore\n      0x20\n      add\n      swap1\n      dup2\n      mstore\n      0x20\n      add\n      0x00\n      keccak256\n      sload\n        /* \"Solidity Part/contracts/staking.sol\":1738:1774  StakingBalances[msg.sender] + amount */\n      tag_66\n      swap2\n      swap1\n      tag_62\n      jump\t// in\n    tag_66:\n        /* \"Solidity Part/contracts/staking.sol\":1738:1787  StakingBalances[msg.sender] + amount <= 10*10**18 */\n      gt\n      iszero\n        /* \"Solidity Part/contracts/staking.sol\":1730:1817  require(StakingBalances[msg.sender] + amount <= 10*10**18, \"Minimum Stake Not Reached\") */\n      tag_67\n      jumpi\n      mload(0x40)\n      0x08c379a000000000000000000000000000000000000000000000000000000000\n      dup2\n      mstore\n      0x04\n      add\n      tag_68\n      swap1\n      tag_69\n      jump\t// in\n    tag_68:\n      mload(0x40)\n      dup1\n      swap2\n      sub\n      swap1\n      revert\n    tag_67:\n        /* \"Solidity Part/contracts/staking.sol\":1897:1903  amount */\n      dup1\n        /* \"Solidity Part/contracts/staking.sol\":1858:1870  StakingToken */\n      0x01\n      0x00\n      swap1\n      sload\n      swap1\n      0x0100\n      exp\n      swap1\n      div\n      0xffffffffffffffffffffffffffffffffffffffff\n      and\n        /* \"Solidity Part/contracts/staking.sol\":1852:1881  ERC20(StakingToken).balanceOf */\n      0xffffffffffffffffffffffffffffffffffffffff\n      and\n      0x70a08231\n        /* \"Solidity Part/contracts/staking.sol\":1882:1892  msg.sender */\n      caller\n        /* \"Solidity Part/contracts/staking.sol\":1852:1893  ERC20(StakingToken).balanceOf(msg.sender) */\n      mload(0x40)\n      dup3\n      0xffffffff\n      and\n      0xe0\n      shl\n      dup2\n      mstore\n      0x04\n      add\n      tag_70\n      swap2\n      swap1\n      tag_25\n      jump\t// in\n    tag_70:\n      0x20\n      mload(0x40)\n      dup1\n      dup4\n      sub\n      dup2\n      dup7\n      dup1\n      extcodesize\n      iszero\n      dup1\n      iszero\n      tag_71\n      jumpi\n      0x00\n      dup1\n      revert\n    tag_71:\n      pop\n      gas\n      staticcall\n      iszero\n      dup1\n      iszero\n      tag_73\n      jumpi\n      returndatasize\n      0x00\n      dup1\n      returndatacopy\n      revert(0x00, returndatasize)\n    tag_73:\n      pop\n      pop\n      pop\n      pop\n      mload(0x40)\n      returndatasize\n      not(0x1f)\n      0x1f\n      dup3\n      add\n      and\n      dup3\n      add\n      dup1\n      0x40\n      mstore\n      pop\n      dup2\n      add\n      swap1\n      tag_74\n      swap2\n      swap1\n      tag_75\n      jump\t// in\n    tag_74:\n        /* \"Solidity Part/contracts/staking.sol\":1852:1903  ERC20(StakingToken).balanceOf(msg.sender) >= amount */\n      lt\n      iszero\n        /* \"Solidity Part/contracts/staking.sol\":1843:1923  require (ERC20(StakingToken).balanceOf(msg.sender) >= amount, \"Invalid Balance\") */\n      tag_76\n      jumpi\n      mload(0x40)\n      0x08c379a000000000000000000000000000000000000000000000000000000000\n      dup2\n      mstore\n      0x04\n      add\n      tag_77\n      swap1\n      tag_78\n      jump\t// in\n    tag_77:\n      mload(0x40)\n      dup1\n      swap2\n      sub\n      swap1\n      revert\n    tag_76:\n        /* \"Solidity Part/contracts/staking.sol\":1940:1952  StakingToken */\n      0x01\n      0x00\n      swap1\n      sload\n      swap1\n      0x0100\n      exp\n      swap1\n      div\n      0xffffffffffffffffffffffffffffffffffffffff\n      and\n        /* \"Solidity Part/contracts/staking.sol\":1934:1966  ERC20(StakingToken).transferFrom */\n      0xffffffffffffffffffffffffffffffffffffffff\n      and\n      0x23b872dd\n        /* \"Solidity Part/contracts/staking.sol\":1967:1977  msg.sender */\n      caller\n        /* \"Solidity Part/contracts/staking.sol\":1987:1991  this */\n      address\n        /* \"Solidity Part/contracts/staking.sol\":1994:2000  amount */\n      dup5\n        /* \"Solidity Part/contracts/staking.sol\":1934:2001  ERC20(StakingToken).transferFrom(msg.sender, address(this), amount) */\n      mload(0x40)\n      dup5\n      0xffffffff\n      and\n      0xe0\n      shl\n      dup2\n      mstore\n      0x04\n      add\n      tag_79\n      swap4\n      swap3\n      swap2\n      swap1\n      tag_80\n      jump\t// in\n    tag_79:\n      0x20\n      mload(0x40)\n      dup1\n      dup4\n      sub\n      dup2\n      0x00\n      dup8\n      dup1\n      extcodesize\n      iszero\n      dup1\n      iszero\n      tag_81\n      jumpi\n      0x00\n      dup1\n      revert\n    tag_81:\n      pop\n      gas\n      call\n      iszero\n      dup1\n      iszero\n      tag_83\n      jumpi\n      returndatasize\n      0x00\n      dup1\n      returndatacopy\n      revert(0x00, returndatasize)\n    tag_83:\n      pop\n      pop\n      pop\n      pop\n      mload(0x40)\n      returndatasize\n      not(0x1f)\n      0x1f\n      dup3\n      add\n      and\n      dup3\n      add\n      dup1\n      0x40\n      mstore\n      pop\n      dup2\n      add\n      swap1\n      tag_84\n      swap2\n      swap1\n      tag_85\n      jump\t// in\n    tag_84:\n      pop\n        /* \"Solidity Part/contracts/staking.sol\":2042:2048  amount */\n      dup1\n        /* \"Solidity Part/contracts/staking.sol\":2011:2026  StakingBalances */\n      0x05\n        /* \"Solidity Part/contracts/staking.sol\":2011:2038  StakingBalances[msg.sender] */\n      0x00\n        /* \"Solidity Part/contracts/staking.sol\":2027:2037  msg.sender */\n      caller\n        /* \"Solidity Part/contracts/staking.sol\":2011:2038  StakingBalances[msg.sender] */\n      0xffffffffffffffffffffffffffffffffffffffff\n      and\n      0xffffffffffffffffffffffffffffffffffffffff\n      and\n      dup2\n      mstore\n      0x20\n      add\n      swap1\n      dup2\n      mstore\n      0x20\n      add\n      0x00\n      keccak256\n      0x00\n        /* \"Solidity Part/contracts/staking.sol\":2011:2048  StakingBalances[msg.sender] += amount */\n      dup3\n      dup3\n      sload\n      tag_86\n      swap2\n      swap1\n      tag_62\n      jump\t// in\n    tag_86:\n      swap3\n      pop\n      pop\n      dup2\n      swap1\n      sstore\n      pop\n        /* \"Solidity Part/contracts/staking.sol\":2058:2079  Stake memory newStake */\n      0x00\n        /* \"Solidity Part/contracts/staking.sol\":2082:2126  Stake(msg.sender,amount, block.timestamp, 0) */\n      mload(0x40)\n      dup1\n      0x80\n      add\n      0x40\n      mstore\n      dup1\n        /* \"Solidity Part/contracts/staking.sol\":2088:2098  msg.sender */\n      caller\n        /* \"Solidity Part/contracts/staking.sol\":2082:2126  Stake(msg.sender,amount, block.timestamp, 0) */\n      0xffffffffffffffffffffffffffffffffffffffff\n      and\n      dup2\n      mstore\n      0x20\n      add\n        /* \"Solidity Part/contracts/staking.sol\":2099:2105  amount */\n      dup4\n        /* \"Solidity Part/contracts/staking.sol\":2082:2126  Stake(msg.sender,amount, block.timestamp, 0) */\n      dup2\n      mstore\n      0x20\n      add\n        /* \"Solidity Part/contracts/staking.sol\":2107:2122  block.timestamp */\n      timestamp\n        /* \"Solidity Part/contracts/staking.sol\":2082:2126  Stake(msg.sender,amount, block.timestamp, 0) */\n      dup2\n      mstore\n      0x20\n      add\n        /* \"Solidity Part/contracts/staking.sol\":2124:2125  0 */\n      0x00\n        /* \"Solidity Part/contracts/staking.sol\":2082:2126  Stake(msg.sender,amount, block.timestamp, 0) */\n      dup2\n      mstore\n      pop\n        /* \"Solidity Part/contracts/staking.sol\":2058:2126  Stake memory newStake = Stake(msg.sender,amount, block.timestamp, 0) */\n      swap1\n      pop\n        /* \"Solidity Part/contracts/staking.sol\":2166:2174  newStake */\n      dup1\n        /* \"Solidity Part/contracts/staking.sol\":2136:2150  StakingHistory */\n      0x04\n        /* \"Solidity Part/contracts/staking.sol\":2136:2163  StakingHistory[currentID+1] */\n      0x00\n        /* \"Solidity Part/contracts/staking.sol\":2161:2162  1 */\n      0x01\n        /* \"Solidity Part/contracts/staking.sol\":2151:2160  currentID */\n      sload(0x02)\n        /* \"Solidity Part/contracts/staking.sol\":2151:2162  currentID+1 */\n      tag_87\n      swap2\n      swap1\n      tag_62\n      jump\t// in\n    tag_87:\n        /* \"Solidity Part/contracts/staking.sol\":2136:2163  StakingHistory[currentID+1] */\n      dup2\n      mstore\n      0x20\n      add\n      swap1\n      dup2\n      mstore\n      0x20\n      add\n      0x00\n      keccak256\n        /* \"Solidity Part/contracts/staking.sol\":2136:2174  StakingHistory[currentID+1] = newStake */\n      0x00\n      dup3\n      add\n      mload\n      dup2\n      0x00\n      add\n      exp(0x0100, 0x00)\n      dup2\n      sload\n      dup2\n      0xffffffffffffffffffffffffffffffffffffffff\n      mul\n      not\n      and\n      swap1\n      dup4\n      0xffffffffffffffffffffffffffffffffffffffff\n      and\n      mul\n      or\n      swap1\n      sstore\n      pop\n      0x20\n      dup3\n      add\n      mload\n      dup2\n      0x01\n      add\n      sstore\n      0x40\n      dup3\n      add\n      mload\n      dup2\n      0x02\n      add\n      sstore\n      0x60\n      dup3\n      add\n      mload\n      dup2\n      0x03\n      add\n      sstore\n      swap1\n      pop\n      pop\n        /* \"Solidity Part/contracts/staking.sol\":2189:2249  NewStake(msg.sender, currentID+1, newStake, block.timestamp) */\n      0x4893ba24a61962c26d899bdc2f219eb2486292d793493c0cc5be1d3bebe9bba6\n        /* \"Solidity Part/contracts/staking.sol\":2198:2208  msg.sender */\n      caller\n        /* \"Solidity Part/contracts/staking.sol\":2220:2221  1 */\n      0x01\n        /* \"Solidity Part/contracts/staking.sol\":2210:2219  currentID */\n      sload(0x02)\n        /* \"Solidity Part/contracts/staking.sol\":2210:2221  currentID+1 */\n      tag_88\n      swap2\n      swap1\n      tag_62\n      jump\t// in\n    tag_88:\n        /* \"Solidity Part/contracts/staking.sol\":2223:2231  newStake */\n      dup4\n        /* \"Solidity Part/contracts/staking.sol\":2233:2248  block.timestamp */\n      timestamp\n        /* \"Solidity Part/contracts/staking.sol\":2189:2249  NewStake(msg.sender, currentID+1, newStake, block.timestamp) */\n      mload(0x40)\n      tag_89\n      swap5\n      swap4\n      swap3\n      swap2\n      swap1\n      tag_90\n      jump\t// in\n    tag_89:\n      mload(0x40)\n      dup1\n      swap2\n      sub\n      swap1\n      log1\n        /* \"Solidity Part/contracts/staking.sol\":2270:2271  1 */\n      0x01\n        /* \"Solidity Part/contracts/staking.sol\":2259:2268  currentID */\n      0x02\n      0x00\n        /* \"Solidity Part/contracts/staking.sol\":2259:2271  currentID+=1 */\n      dup3\n      dup3\n      sload\n      tag_91\n      swap2\n      swap1\n      tag_62\n      jump\t// in\n    tag_91:\n      swap3\n      pop\n      pop\n      dup2\n      swap1\n      sstore\n      pop\n        /* \"Solidity Part/contracts/staking.sol\":1477:2278  {... */\n      pop\n        /* \"Solidity Part/contracts/staking.sol\":1434:2278  function StakeToken(uint256 amount) public {... */\n      pop\n      jump\t// out\n        /* \"Solidity Part/contracts/staking.sol\":491:525  bool public StakingEnabled = false */\n    tag_33:\n      0x03\n      0x00\n      swap1\n      sload\n      swap1\n      0x0100\n      exp\n      swap1\n      div\n      0xff\n      and\n      dup2\n      jump\t// out\n        /* \"Solidity Part/contracts/staking.sol\":1237:1333  function SetStakingToken(address _token) public onlyOwner {... */\n    tag_40:\n        /* \"@openzeppelin/contracts/access/Ownable.sol\":1259:1271  _msgSender() */\n      tag_93\n        /* \"@openzeppelin/contracts/access/Ownable.sol\":1259:1269  _msgSender */\n      tag_48\n        /* \"@openzeppelin/contracts/access/Ownable.sol\":1259:1271  _msgSender() */\n      jump\t// in\n    tag_93:\n        /* \"@openzeppelin/contracts/access/Ownable.sol\":1248:1271  owner() == _msgSender() */\n      0xffffffffffffffffffffffffffffffffffffffff\n      and\n        /* \"@openzeppelin/contracts/access/Ownable.sol\":1248:1255  owner() */\n      tag_94\n        /* \"@openzeppelin/contracts/access/Ownable.sol\":1248:1253  owner */\n      tag_23\n        /* \"@openzeppelin/contracts/access/Ownable.sol\":1248:1255  owner() */\n      jump\t// in\n    tag_94:\n        /* \"@openzeppelin/contracts/access/Ownable.sol\":1248:1271  owner() == _msgSender() */\n      0xffffffffffffffffffffffffffffffffffffffff\n      and\n      eq\n        /* \"@openzeppelin/contracts/access/Ownable.sol\":1240:1308  require(owner() == _msgSender(), \"Ownable: caller is not the owner\") */\n      tag_95\n      jumpi\n      mload(0x40)\n      0x08c379a000000000000000000000000000000000000000000000000000000000\n      dup2\n      mstore\n      0x04\n      add\n      tag_96\n      swap1\n      tag_52\n      jump\t// in\n    tag_96:\n      mload(0x40)\n      dup1\n      swap2\n      sub\n      swap1\n      revert\n    tag_95:\n        /* \"Solidity Part/contracts/staking.sol\":1320:1326  _token */\n      dup1\n        /* \"Solidity Part/contracts/staking.sol\":1305:1317  StakingToken */\n      0x01\n      0x00\n        /* \"Solidity Part/contracts/staking.sol\":1305:1326  StakingToken = _token */\n      0x0100\n      exp\n      dup2\n      sload\n      dup2\n      0xffffffffffffffffffffffffffffffffffffffff\n      mul\n      not\n      and\n      swap1\n      dup4\n      0xffffffffffffffffffffffffffffffffffffffff\n      and\n      mul\n      or\n      swap1\n      sstore\n      pop\n        /* \"Solidity Part/contracts/staking.sol\":1237:1333  function SetStakingToken(address _token) public onlyOwner {... */\n      pop\n      jump\t// out\n        /* \"@openzeppelin/contracts/access/Ownable.sol\":1918:2116  function transferOwnership(address newOwner) public virtual onlyOwner {... */\n    tag_44:\n        /* \"@openzeppelin/contracts/access/Ownable.sol\":1259:1271  _msgSender() */\n      tag_99\n        /* \"@openzeppelin/contracts/access/Ownable.sol\":1259:1269  _msgSender */\n      tag_48\n        /* \"@openzeppelin/contracts/access/Ownable.sol\":1259:1271  _msgSender() */\n      jump\t// in\n    tag_99:\n        /* \"@openzeppelin/contracts/access/Ownable.sol\":1248:1271  owner() == _msgSender() */\n      0xffffffffffffffffffffffffffffffffffffffff\n      and\n        /* \"@openzeppelin/contracts/access/Ownable.sol\":1248:1255  owner() */\n      tag_100\n        /* \"@openzeppelin/contracts/access/Ownable.sol\":1248:1253  owner */\n      tag_23\n        /* \"@openzeppelin/contracts/access/Ownable.sol\":1248:1255  owner() */\n      jump\t// in\n    tag_100:\n        /* \"@openzeppelin/contracts/access/Ownable.sol\":1248:1271  owner() == _msgSender() */\n      0xffffffffffffffffffffffffffffffffffffffff\n      and\n      eq\n        /* \"@openzeppelin/contracts/access/Ownable.sol\":1240:1308  require(owner() == _msgSender(), \"Ownable: caller is not the owner\") */\n      tag_101\n      jumpi\n      mload(0x40)\n      0x08c379a000000000000000000000000000000000000000000000000000000000\n      dup2\n      mstore\n      0x04\n      add\n      tag_102\n      swap1\n      tag_52\n      jump\t// in\n    tag_102:\n      mload(0x40)\n      dup1\n      swap2\n      sub\n      swap1\n      revert\n    tag_101:\n        /* \"@openzeppelin/contracts/access/Ownable.sol\":2026:2027  0 */\n      0x00\n        /* \"@openzeppelin/contracts/access/Ownable.sol\":2006:2028  newOwner != address(0) */\n      0xffffffffffffffffffffffffffffffffffffffff\n      and\n        /* \"@openzeppelin/contracts/access/Ownable.sol\":2006:2014  newOwner */\n      dup2\n        /* \"@openzeppelin/contracts/access/Ownable.sol\":2006:2028  newOwner != address(0) */\n      0xffffffffffffffffffffffffffffffffffffffff\n      and\n      eq\n      iszero\n        /* \"@openzeppelin/contracts/access/Ownable.sol\":1998:2071  require(newOwner != address(0), \"Ownable: new owner is the zero address\") */\n      tag_104\n      jumpi\n      mload(0x40)\n      0x08c379a000000000000000000000000000000000000000000000000000000000\n      dup2\n      mstore\n      0x04\n      add\n      tag_105\n      swap1\n      tag_106\n      jump\t// in\n    tag_105:\n      mload(0x40)\n      dup1\n      swap2\n      sub\n      swap1\n      revert\n    tag_104:\n        /* \"@openzeppelin/contracts/access/Ownable.sol\":2081:2109  _transferOwnership(newOwner) */\n      tag_107\n        /* \"@openzeppelin/contracts/access/Ownable.sol\":2100:2108  newOwner */\n      dup2\n        /* \"@openzeppelin/contracts/access/Ownable.sol\":2081:2099  _transferOwnership */\n      tag_55\n        /* \"@openzeppelin/contracts/access/Ownable.sol\":2081:2109  _transferOwnership(newOwner) */\n      jump\t// in\n    tag_107:\n        /* \"@openzeppelin/contracts/access/Ownable.sol\":1918:2116  function transferOwnership(address newOwner) public virtual onlyOwner {... */\n      pop\n      jump\t// out\n        /* \"@openzeppelin/contracts/utils/Context.sol\":640:736  function _msgSender() internal view virtual returns (address) {... */\n    tag_48:\n        /* \"@openzeppelin/contracts/utils/Context.sol\":693:700  address */\n      0x00\n        /* \"@openzeppelin/contracts/utils/Context.sol\":719:729  msg.sender */\n      caller\n        /* \"@openzeppelin/contracts/utils/Context.sol\":712:729  return msg.sender */\n      swap1\n      pop\n        /* \"@openzeppelin/contracts/utils/Context.sol\":640:736  function _msgSender() internal view virtual returns (address) {... */\n      swap1\n      jump\t// out\n        /* \"@openzeppelin/contracts/access/Ownable.sol\":2270:2457  function _transferOwnership(address newOwner) internal virtual {... */\n    tag_55:\n        /* \"@openzeppelin/contracts/access/Ownable.sol\":2343:2359  address oldOwner */\n      0x00\n        /* \"@openzeppelin/contracts/access/Ownable.sol\":2362:2368  _owner */\n      dup1\n      0x00\n      swap1\n      sload\n      swap1\n      0x0100\n      exp\n      swap1\n      div\n      0xffffffffffffffffffffffffffffffffffffffff\n      and\n        /* \"@openzeppelin/contracts/access/Ownable.sol\":2343:2368  address oldOwner = _owner */\n      swap1\n      pop\n        /* \"@openzeppelin/contracts/access/Ownable.sol\":2387:2395  newOwner */\n      dup2\n        /* \"@openzeppelin/contracts/access/Ownable.sol\":2378:2384  _owner */\n      0x00\n      dup1\n        /* \"@openzeppelin/contracts/access/Ownable.sol\":2378:2395  _owner = newOwner */\n      0x0100\n      exp\n      dup2\n      sload\n      dup2\n      0xffffffffffffffffffffffffffffffffffffffff\n      mul\n      not\n      and\n      swap1\n      dup4\n      0xffffffffffffffffffffffffffffffffffffffff\n      and\n      mul\n      or\n      swap1\n      sstore\n      pop\n        /* \"@openzeppelin/contracts/access/Ownable.sol\":2441:2449  newOwner */\n      dup2\n        /* \"@openzeppelin/contracts/access/Ownable.sol\":2410:2450  OwnershipTransferred(oldOwner, newOwner) */\n      0xffffffffffffffffffffffffffffffffffffffff\n      and\n        /* \"@openzeppelin/contracts/access/Ownable.sol\":2431:2439  oldOwner */\n      dup2\n        /* \"@openzeppelin/contracts/access/Ownable.sol\":2410:2450  OwnershipTransferred(oldOwner, newOwner) */\n      0xffffffffffffffffffffffffffffffffffffffff\n      and\n      0x8be0079c531659141344cd1fd0a4f28419497f9722a3daafe3b4186f6b6457e0\n      mload(0x40)\n      mload(0x40)\n      dup1\n      swap2\n      sub\n      swap1\n      log3\n        /* \"@openzeppelin/contracts/access/Ownable.sol\":2333:2457  {... */\n      pop\n        /* \"@openzeppelin/contracts/access/Ownable.sol\":2270:2457  function _transferOwnership(address newOwner) internal virtual {... */\n      pop\n      jump\t// out\n        /* \"#utility.yul\":7:146   */\n    tag_111:\n        /* \"#utility.yul\":53:58   */\n      0x00\n        /* \"#utility.yul\":91:97   */\n      dup2\n        /* \"#utility.yul\":78:98   */\n      calldataload\n        /* \"#utility.yul\":69:98   */\n      swap1\n      pop\n        /* \"#utility.yul\":107:140   */\n      tag_113\n        /* \"#utility.yul\":134:139   */\n      dup2\n        /* \"#utility.yul\":107:140   */\n      tag_114\n      jump\t// in\n    tag_113:\n        /* \"#utility.yul\":7:146   */\n      swap3\n      swap2\n      pop\n      pop\n      jump\t// out\n        /* \"#utility.yul\":152:289   */\n    tag_115:\n        /* \"#utility.yul\":206:211   */\n      0x00\n        /* \"#utility.yul\":237:243   */\n      dup2\n        /* \"#utility.yul\":231:244   */\n      mload\n        /* \"#utility.yul\":222:244   */\n      swap1\n      pop\n        /* \"#utility.yul\":253:283   */\n      tag_117\n        /* \"#utility.yul\":277:282   */\n      dup2\n        /* \"#utility.yul\":253:283   */\n      tag_118\n      jump\t// in\n    tag_117:\n        /* \"#utility.yul\":152:289   */\n      swap3\n      swap2\n      pop\n      pop\n      jump\t// out\n        /* \"#utility.yul\":295:434   */\n    tag_119:\n        /* \"#utility.yul\":341:346   */\n      0x00\n        /* \"#utility.yul\":379:385   */\n      dup2\n        /* \"#utility.yul\":366:386   */\n      calldataload\n        /* \"#utility.yul\":357:386   */\n      swap1\n      pop\n        /* \"#utility.yul\":395:428   */\n      tag_121\n        /* \"#utility.yul\":422:427   */\n      dup2\n        /* \"#utility.yul\":395:428   */\n      tag_122\n      jump\t// in\n    tag_121:\n        /* \"#utility.yul\":295:434   */\n      swap3\n      swap2\n      pop\n      pop\n      jump\t// out\n        /* \"#utility.yul\":440:583   */\n    tag_123:\n        /* \"#utility.yul\":497:502   */\n      0x00\n        /* \"#utility.yul\":528:534   */\n      dup2\n        /* \"#utility.yul\":522:535   */\n      mload\n        /* \"#utility.yul\":513:535   */\n      swap1\n      pop\n        /* \"#utility.yul\":544:577   */\n      tag_125\n        /* \"#utility.yul\":571:576   */\n      dup2\n        /* \"#utility.yul\":544:577   */\n      tag_122\n      jump\t// in\n    tag_125:\n        /* \"#utility.yul\":440:583   */\n      swap3\n      swap2\n      pop\n      pop\n      jump\t// out\n        /* \"#utility.yul\":589:918   */\n    tag_39:\n        /* \"#utility.yul\":648:654   */\n      0x00\n        /* \"#utility.yul\":697:699   */\n      0x20\n        /* \"#utility.yul\":685:694   */\n      dup3\n        /* \"#utility.yul\":676:683   */\n      dup5\n        /* \"#utility.yul\":672:695   */\n      sub\n        /* \"#utility.yul\":668:700   */\n      slt\n        /* \"#utility.yul\":665:784   */\n      iszero\n      tag_127\n      jumpi\n        /* \"#utility.yul\":703:782   */\n      tag_128\n      tag_129\n      jump\t// in\n    tag_128:\n        /* \"#utility.yul\":665:784   */\n    tag_127:\n        /* \"#utility.yul\":823:824   */\n      0x00\n        /* \"#utility.yul\":848:901   */\n      tag_130\n        /* \"#utility.yul\":893:900   */\n      dup5\n        /* \"#utility.yul\":884:890   */\n      dup3\n        /* \"#utility.yul\":873:882   */\n      dup6\n        /* \"#utility.yul\":869:891   */\n      add\n        /* \"#utility.yul\":848:901   */\n      tag_111\n      jump\t// in\n    tag_130:\n        /* \"#utility.yul\":838:901   */\n      swap2\n      pop\n        /* \"#utility.yul\":794:911   */\n      pop\n        /* \"#utility.yul\":589:918   */\n      swap3\n      swap2\n      pop\n      pop\n      jump\t// out\n        /* \"#utility.yul\":924:1269   */\n    tag_85:\n        /* \"#utility.yul\":991:997   */\n      0x00\n        /* \"#utility.yul\":1040:1042   */\n      0x20\n        /* \"#utility.yul\":1028:1037   */\n      dup3\n        /* \"#utility.yul\":1019:1026   */\n      dup5\n        /* \"#utility.yul\":1015:1038   */\n      sub\n        /* \"#utility.yul\":1011:1043   */\n      slt\n        /* \"#utility.yul\":1008:1127   */\n      iszero\n      tag_132\n      jumpi\n        /* \"#utility.yul\":1046:1125   */\n      tag_133\n      tag_129\n      jump\t// in\n    tag_133:\n        /* \"#utility.yul\":1008:1127   */\n    tag_132:\n        /* \"#utility.yul\":1166:1167   */\n      0x00\n        /* \"#utility.yul\":1191:1252   */\n      tag_134\n        /* \"#utility.yul\":1244:1251   */\n      dup5\n        /* \"#utility.yul\":1235:1241   */\n      dup3\n        /* \"#utility.yul\":1224:1233   */\n      dup6\n        /* \"#utility.yul\":1220:1242   */\n      add\n        /* \"#utility.yul\":1191:1252   */\n      tag_115\n      jump\t// in\n    tag_134:\n        /* \"#utility.yul\":1181:1252   */\n      swap2\n      pop\n        /* \"#utility.yul\":1137:1262   */\n      pop\n        /* \"#utility.yul\":924:1269   */\n      swap3\n      swap2\n      pop\n      pop\n      jump\t// out\n        /* \"#utility.yul\":1275:1604   */\n    tag_29:\n        /* \"#utility.yul\":1334:1340   */\n      0x00\n        /* \"#utility.yul\":1383:1385   */\n      0x20\n        /* \"#utility.yul\":1371:1380   */\n      dup3\n        /* \"#utility.yul\":1362:1369   */\n      dup5\n        /* \"#utility.yul\":1358:1381   */\n      sub\n        /* \"#utility.yul\":1354:1386   */\n      slt\n        /* \"#utility.yul\":1351:1470   */\n      iszero\n      tag_136\n      jumpi\n        /* \"#utility.yul\":1389:1468   */\n      tag_137\n      tag_129\n      jump\t// in\n    tag_137:\n        /* \"#utility.yul\":1351:1470   */\n    tag_136:\n        /* \"#utility.yul\":1509:1510   */\n      0x00\n        /* \"#utility.yul\":1534:1587   */\n      tag_138\n        /* \"#utility.yul\":1579:1586   */\n      dup5\n        /* \"#utility.yul\":1570:1576   */\n      dup3\n        /* \"#utility.yul\":1559:1568   */\n      dup6\n        /* \"#utility.yul\":1555:1577   */\n      add\n        /* \"#utility.yul\":1534:1587   */\n      tag_119\n      jump\t// in\n    tag_138:\n        /* \"#utility.yul\":1524:1587   */\n      swap2\n      pop\n        /* \"#utility.yul\":1480:1597   */\n      pop\n        /* \"#utility.yul\":1275:1604   */\n      swap3\n      swap2\n      pop\n      pop\n      jump\t// out\n        /* \"#utility.yul\":1610:1961   */\n    tag_75:\n        /* \"#utility.yul\":1680:1686   */\n      0x00\n        /* \"#utility.yul\":1729:1731   */\n      0x20\n        /* \"#utility.yul\":1717:1726   */\n      dup3\n        /* \"#utility.yul\":1708:1715   */\n      dup5\n        /* \"#utility.yul\":1704:1727   */\n      sub\n        /* \"#utility.yul\":1700:1732   */\n      slt\n        /* \"#utility.yul\":1697:1816   */\n      iszero\n      tag_140\n      jumpi\n        /* \"#utility.yul\":1735:1814   */\n      tag_141\n      tag_129\n      jump\t// in\n    tag_141:\n        /* \"#utility.yul\":1697:1816   */\n    tag_140:\n        /* \"#utility.yul\":1855:1856   */\n      0x00\n        /* \"#utility.yul\":1880:1944   */\n      tag_142\n        /* \"#utility.yul\":1936:1943   */\n      dup5\n        /* \"#utility.yul\":1927:1933   */\n      dup3\n        /* \"#utility.yul\":1916:1925   */\n      dup6\n        /* \"#utility.yul\":1912:1934   */\n      add\n        /* \"#utility.yul\":1880:1944   */\n      tag_123\n      jump\t// in\n    tag_142:\n        /* \"#utility.yul\":1870:1944   */\n      swap2\n      pop\n        /* \"#utility.yul\":1826:1954   */\n      pop\n        /* \"#utility.yul\":1610:1961   */\n      swap3\n      swap2\n      pop\n      pop\n      jump\t// out\n        /* \"#utility.yul\":1967:2075   */\n    tag_143:\n        /* \"#utility.yul\":2044:2068   */\n      tag_145\n        /* \"#utility.yul\":2062:2067   */\n      dup2\n        /* \"#utility.yul\":2044:2068   */\n      tag_146\n      jump\t// in\n    tag_145:\n        /* \"#utility.yul\":2039:2042   */\n      dup3\n        /* \"#utility.yul\":2032:2069   */\n      mstore\n        /* \"#utility.yul\":1967:2075   */\n      pop\n      pop\n      jump\t// out\n        /* \"#utility.yul\":2081:2199   */\n    tag_147:\n        /* \"#utility.yul\":2168:2192   */\n      tag_149\n        /* \"#utility.yul\":2186:2191   */\n      dup2\n        /* \"#utility.yul\":2168:2192   */\n      tag_146\n      jump\t// in\n    tag_149:\n        /* \"#utility.yul\":2163:2166   */\n      dup3\n        /* \"#utility.yul\":2156:2193   */\n      mstore\n        /* \"#utility.yul\":2081:2199   */\n      pop\n      pop\n      jump\t// out\n        /* \"#utility.yul\":2205:2314   */\n    tag_150:\n        /* \"#utility.yul\":2286:2307   */\n      tag_152\n        /* \"#utility.yul\":2301:2306   */\n      dup2\n        /* \"#utility.yul\":2286:2307   */\n      tag_153\n      jump\t// in\n    tag_152:\n        /* \"#utility.yul\":2281:2284   */\n      dup3\n        /* \"#utility.yul\":2274:2308   */\n      mstore\n        /* \"#utility.yul\":2205:2314   */\n      pop\n      pop\n      jump\t// out\n        /* \"#utility.yul\":2320:2686   */\n    tag_154:\n        /* \"#utility.yul\":2462:2465   */\n      0x00\n        /* \"#utility.yul\":2483:2550   */\n      tag_156\n        /* \"#utility.yul\":2547:2549   */\n      0x1d\n        /* \"#utility.yul\":2542:2545   */\n      dup4\n        /* \"#utility.yul\":2483:2550   */\n      tag_157\n      jump\t// in\n    tag_156:\n        /* \"#utility.yul\":2476:2550   */\n      swap2\n      pop\n        /* \"#utility.yul\":2559:2652   */\n      tag_158\n        /* \"#utility.yul\":2648:2651   */\n      dup3\n        /* \"#utility.yul\":2559:2652   */\n      tag_159\n      jump\t// in\n    tag_158:\n        /* \"#utility.yul\":2677:2679   */\n      0x20\n        /* \"#utility.yul\":2672:2675   */\n      dup3\n        /* \"#utility.yul\":2668:2680   */\n      add\n        /* \"#utility.yul\":2661:2680   */\n      swap1\n      pop\n        /* \"#utility.yul\":2320:2686   */\n      swap2\n      swap1\n      pop\n      jump\t// out\n        /* \"#utility.yul\":2692:3058   */\n    tag_160:\n        /* \"#utility.yul\":2834:2837   */\n      0x00\n        /* \"#utility.yul\":2855:2922   */\n      tag_162\n        /* \"#utility.yul\":2919:2921   */\n      0x26\n        /* \"#utility.yul\":2914:2917   */\n      dup4\n        /* \"#utility.yul\":2855:2922   */\n      tag_157\n      jump\t// in\n    tag_162:\n        /* \"#utility.yul\":2848:2922   */\n      swap2\n      pop\n        /* \"#utility.yul\":2931:3024   */\n      tag_163\n        /* \"#utility.yul\":3020:3023   */\n      dup3\n        /* \"#utility.yul\":2931:3024   */\n      tag_164\n      jump\t// in\n    tag_163:\n        /* \"#utility.yul\":3049:3051   */\n      0x40\n        /* \"#utility.yul\":3044:3047   */\n      dup3\n        /* \"#utility.yul\":3040:3052   */\n      add\n        /* \"#utility.yul\":3033:3052   */\n      swap1\n      pop\n        /* \"#utility.yul\":2692:3058   */\n      swap2\n      swap1\n      pop\n      jump\t// out\n        /* \"#utility.yul\":3064:3430   */\n    tag_165:\n        /* \"#utility.yul\":3206:3209   */\n      0x00\n        /* \"#utility.yul\":3227:3294   */\n      tag_167\n        /* \"#utility.yul\":3291:3293   */\n      0x0f\n        /* \"#utility.yul\":3286:3289   */\n      dup4\n        /* \"#utility.yul\":3227:3294   */\n      tag_157\n      jump\t// in\n    tag_167:\n        /* \"#utility.yul\":3220:3294   */\n      swap2\n      pop\n        /* \"#utility.yul\":3303:3396   */\n      tag_168\n        /* \"#utility.yul\":3392:3395   */\n      dup3\n        /* \"#utility.yul\":3303:3396   */\n      tag_169\n      jump\t// in\n    tag_168:\n        /* \"#utility.yul\":3421:3423   */\n      0x20\n        /* \"#utility.yul\":3416:3419   */\n      dup3\n        /* \"#utility.yul\":3412:3424   */\n      add\n        /* \"#utility.yul\":3405:3424   */\n      swap1\n      pop\n        /* \"#utility.yul\":3064:3430   */\n      swap2\n      swap1\n      pop\n      jump\t// out\n        /* \"#utility.yul\":3436:3802   */\n    tag_170:\n        /* \"#utility.yul\":3578:3581   */\n      0x00\n        /* \"#utility.yul\":3599:3666   */\n      tag_172\n        /* \"#utility.yul\":3663:3665   */\n      0x16\n        /* \"#utility.yul\":3658:3661   */\n      dup4\n        /* \"#utility.yul\":3599:3666   */\n      tag_157\n      jump\t// in\n    tag_172:\n        /* \"#utility.yul\":3592:3666   */\n      swap2\n      pop\n        /* \"#utility.yul\":3675:3768   */\n      tag_173\n        /* \"#utility.yul\":3764:3767   */\n      dup3\n        /* \"#utility.yul\":3675:3768   */\n      tag_174\n      jump\t// in\n    tag_173:\n        /* \"#utility.yul\":3793:3795   */\n      0x20\n        /* \"#utility.yul\":3788:3791   */\n      dup3\n        /* \"#utility.yul\":3784:3796   */\n      add\n        /* \"#utility.yul\":3777:3796   */\n      swap1\n      pop\n        /* \"#utility.yul\":3436:3802   */\n      swap2\n      swap1\n      pop\n      jump\t// out\n        /* \"#utility.yul\":3808:4174   */\n    tag_175:\n        /* \"#utility.yul\":3950:3953   */\n      0x00\n        /* \"#utility.yul\":3971:4038   */\n      tag_177\n        /* \"#utility.yul\":4035:4037   */\n      0x19\n        /* \"#utility.yul\":4030:4033   */\n      dup4\n        /* \"#utility.yul\":3971:4038   */\n      tag_157\n      jump\t// in\n    tag_177:\n        /* \"#utility.yul\":3964:4038   */\n      swap2\n      pop\n        /* \"#utility.yul\":4047:4140   */\n      tag_178\n        /* \"#utility.yul\":4136:4139   */\n      dup3\n        /* \"#utility.yul\":4047:4140   */\n      tag_179\n      jump\t// in\n    tag_178:\n        /* \"#utility.yul\":4165:4167   */\n      0x20\n        /* \"#utility.yul\":4160:4163   */\n      dup3\n        /* \"#utility.yul\":4156:4168   */\n      add\n        /* \"#utility.yul\":4149:4168   */\n      swap1\n      pop\n        /* \"#utility.yul\":3808:4174   */\n      swap2\n      swap1\n      pop\n      jump\t// out\n        /* \"#utility.yul\":4180:4546   */\n    tag_180:\n        /* \"#utility.yul\":4322:4325   */\n      0x00\n        /* \"#utility.yul\":4343:4410   */\n      tag_182\n        /* \"#utility.yul\":4407:4409   */\n      0x20\n        /* \"#utility.yul\":4402:4405   */\n      dup4\n        /* \"#utility.yul\":4343:4410   */\n      tag_157\n      jump\t// in\n    tag_182:\n        /* \"#utility.yul\":4336:4410   */\n      swap2\n      pop\n        /* \"#utility.yul\":4419:4512   */\n      tag_183\n        /* \"#utility.yul\":4508:4511   */\n      dup3\n        /* \"#utility.yul\":4419:4512   */\n      tag_184\n      jump\t// in\n    tag_183:\n        /* \"#utility.yul\":4537:4539   */\n      0x20\n        /* \"#utility.yul\":4532:4535   */\n      dup3\n        /* \"#utility.yul\":4528:4540   */\n      add\n        /* \"#utility.yul\":4521:4540   */\n      swap1\n      pop\n        /* \"#utility.yul\":4180:4546   */\n      swap2\n      swap1\n      pop\n      jump\t// out\n        /* \"#utility.yul\":4620:5484   */\n    tag_185:\n        /* \"#utility.yul\":4761:4765   */\n      0x80\n        /* \"#utility.yul\":4756:4759   */\n      dup3\n        /* \"#utility.yul\":4752:4766   */\n      add\n        /* \"#utility.yul\":4849:4853   */\n      0x00\n        /* \"#utility.yul\":4842:4847   */\n      dup3\n        /* \"#utility.yul\":4838:4854   */\n      add\n        /* \"#utility.yul\":4832:4855   */\n      mload\n        /* \"#utility.yul\":4868:4931   */\n      tag_187\n        /* \"#utility.yul\":4925:4929   */\n      0x00\n        /* \"#utility.yul\":4920:4923   */\n      dup6\n        /* \"#utility.yul\":4916:4930   */\n      add\n        /* \"#utility.yul\":4902:4914   */\n      dup3\n        /* \"#utility.yul\":4868:4931   */\n      tag_143\n      jump\t// in\n    tag_187:\n        /* \"#utility.yul\":4776:4941   */\n      pop\n        /* \"#utility.yul\":5025:5029   */\n      0x20\n        /* \"#utility.yul\":5018:5023   */\n      dup3\n        /* \"#utility.yul\":5014:5030   */\n      add\n        /* \"#utility.yul\":5008:5031   */\n      mload\n        /* \"#utility.yul\":5044:5107   */\n      tag_188\n        /* \"#utility.yul\":5101:5105   */\n      0x20\n        /* \"#utility.yul\":5096:5099   */\n      dup6\n        /* \"#utility.yul\":5092:5106   */\n      add\n        /* \"#utility.yul\":5078:5090   */\n      dup3\n        /* \"#utility.yul\":5044:5107   */\n      tag_189\n      jump\t// in\n    tag_188:\n        /* \"#utility.yul\":4951:5117   */\n      pop\n        /* \"#utility.yul\":5204:5208   */\n      0x40\n        /* \"#utility.yul\":5197:5202   */\n      dup3\n        /* \"#utility.yul\":5193:5209   */\n      add\n        /* \"#utility.yul\":5187:5210   */\n      mload\n        /* \"#utility.yul\":5223:5286   */\n      tag_190\n        /* \"#utility.yul\":5280:5284   */\n      0x40\n        /* \"#utility.yul\":5275:5278   */\n      dup6\n        /* \"#utility.yul\":5271:5285   */\n      add\n        /* \"#utility.yul\":5257:5269   */\n      dup3\n        /* \"#utility.yul\":5223:5286   */\n      tag_189\n      jump\t// in\n    tag_190:\n        /* \"#utility.yul\":5127:5296   */\n      pop\n        /* \"#utility.yul\":5385:5389   */\n      0x60\n        /* \"#utility.yul\":5378:5383   */\n      dup3\n        /* \"#utility.yul\":5374:5390   */\n      add\n        /* \"#utility.yul\":5368:5391   */\n      mload\n        /* \"#utility.yul\":5404:5467   */\n      tag_191\n        /* \"#utility.yul\":5461:5465   */\n      0x60\n        /* \"#utility.yul\":5456:5459   */\n      dup6\n        /* \"#utility.yul\":5452:5466   */\n      add\n        /* \"#utility.yul\":5438:5450   */\n      dup3\n        /* \"#utility.yul\":5404:5467   */\n      tag_189\n      jump\t// in\n    tag_191:\n        /* \"#utility.yul\":5306:5477   */\n      pop\n        /* \"#utility.yul\":4730:5484   */\n      pop\n        /* \"#utility.yul\":4620:5484   */\n      pop\n      pop\n      jump\t// out\n        /* \"#utility.yul\":5490:5598   */\n    tag_189:\n        /* \"#utility.yul\":5567:5591   */\n      tag_193\n        /* \"#utility.yul\":5585:5590   */\n      dup2\n        /* \"#utility.yul\":5567:5591   */\n      tag_194\n      jump\t// in\n    tag_193:\n        /* \"#utility.yul\":5562:5565   */\n      dup3\n        /* \"#utility.yul\":5555:5592   */\n      mstore\n        /* \"#utility.yul\":5490:5598   */\n      pop\n      pop\n      jump\t// out\n        /* \"#utility.yul\":5604:5722   */\n    tag_195:\n        /* \"#utility.yul\":5691:5715   */\n      tag_197\n        /* \"#utility.yul\":5709:5714   */\n      dup2\n        /* \"#utility.yul\":5691:5715   */\n      tag_194\n      jump\t// in\n    tag_197:\n        /* \"#utility.yul\":5686:5689   */\n      dup3\n        /* \"#utility.yul\":5679:5716   */\n      mstore\n        /* \"#utility.yul\":5604:5722   */\n      pop\n      pop\n      jump\t// out\n        /* \"#utility.yul\":5728:5950   */\n    tag_25:\n        /* \"#utility.yul\":5821:5825   */\n      0x00\n        /* \"#utility.yul\":5859:5861   */\n      0x20\n        /* \"#utility.yul\":5848:5857   */\n      dup3\n        /* \"#utility.yul\":5844:5862   */\n      add\n        /* \"#utility.yul\":5836:5862   */\n      swap1\n      pop\n        /* \"#utility.yul\":5872:5943   */\n      tag_199\n        /* \"#utility.yul\":5940:5941   */\n      0x00\n        /* \"#utility.yul\":5929:5938   */\n      dup4\n        /* \"#utility.yul\":5925:5942   */\n      add\n        /* \"#utility.yul\":5916:5922   */\n      dup5\n        /* \"#utility.yul\":5872:5943   */\n      tag_147\n      jump\t// in\n    tag_199:\n        /* \"#utility.yul\":5728:5950   */\n      swap3\n      swap2\n      pop\n      pop\n      jump\t// out\n        /* \"#utility.yul\":5956:6398   */\n    tag_80:\n        /* \"#utility.yul\":6105:6109   */\n      0x00\n        /* \"#utility.yul\":6143:6145   */\n      0x60\n        /* \"#utility.yul\":6132:6141   */\n      dup3\n        /* \"#utility.yul\":6128:6146   */\n      add\n        /* \"#utility.yul\":6120:6146   */\n      swap1\n      pop\n        /* \"#utility.yul\":6156:6227   */\n      tag_201\n        /* \"#utility.yul\":6224:6225   */\n      0x00\n        /* \"#utility.yul\":6213:6222   */\n      dup4\n        /* \"#utility.yul\":6209:6226   */\n      add\n        /* \"#utility.yul\":6200:6206   */\n      dup7\n        /* \"#utility.yul\":6156:6227   */\n      tag_147\n      jump\t// in\n    tag_201:\n        /* \"#utility.yul\":6237:6309   */\n      tag_202\n        /* \"#utility.yul\":6305:6307   */\n      0x20\n        /* \"#utility.yul\":6294:6303   */\n      dup4\n        /* \"#utility.yul\":6290:6308   */\n      add\n        /* \"#utility.yul\":6281:6287   */\n      dup6\n        /* \"#utility.yul\":6237:6309   */\n      tag_147\n      jump\t// in\n    tag_202:\n        /* \"#utility.yul\":6319:6391   */\n      tag_203\n        /* \"#utility.yul\":6387:6389   */\n      0x40\n        /* \"#utility.yul\":6376:6385   */\n      dup4\n        /* \"#utility.yul\":6372:6390   */\n      add\n        /* \"#utility.yul\":6363:6369   */\n      dup5\n        /* \"#utility.yul\":6319:6391   */\n      tag_195\n      jump\t// in\n    tag_203:\n        /* \"#utility.yul\":5956:6398   */\n      swap5\n      swap4\n      pop\n      pop\n      pop\n      pop\n      jump\t// out\n        /* \"#utility.yul\":6404:7046   */\n    tag_90:\n        /* \"#utility.yul\":6625:6629   */\n      0x00\n        /* \"#utility.yul\":6663:6666   */\n      0xe0\n        /* \"#utility.yul\":6652:6661   */\n      dup3\n        /* \"#utility.yul\":6648:6667   */\n      add\n        /* \"#utility.yul\":6640:6667   */\n      swap1\n      pop\n        /* \"#utility.yul\":6677:6748   */\n      tag_205\n        /* \"#utility.yul\":6745:6746   */\n      0x00\n        /* \"#utility.yul\":6734:6743   */\n      dup4\n        /* \"#utility.yul\":6730:6747   */\n      add\n        /* \"#utility.yul\":6721:6727   */\n      dup8\n        /* \"#utility.yul\":6677:6748   */\n      tag_147\n      jump\t// in\n    tag_205:\n        /* \"#utility.yul\":6758:6830   */\n      tag_206\n        /* \"#utility.yul\":6826:6828   */\n      0x20\n        /* \"#utility.yul\":6815:6824   */\n      dup4\n        /* \"#utility.yul\":6811:6829   */\n      add\n        /* \"#utility.yul\":6802:6808   */\n      dup7\n        /* \"#utility.yul\":6758:6830   */\n      tag_195\n      jump\t// in\n    tag_206:\n        /* \"#utility.yul\":6840:6956   */\n      tag_207\n        /* \"#utility.yul\":6952:6954   */\n      0x40\n        /* \"#utility.yul\":6941:6950   */\n      dup4\n        /* \"#utility.yul\":6937:6955   */\n      add\n        /* \"#utility.yul\":6928:6934   */\n      dup6\n        /* \"#utility.yul\":6840:6956   */\n      tag_185\n      jump\t// in\n    tag_207:\n        /* \"#utility.yul\":6966:7039   */\n      tag_208\n        /* \"#utility.yul\":7034:7037   */\n      0xc0\n        /* \"#utility.yul\":7023:7032   */\n      dup4\n        /* \"#utility.yul\":7019:7038   */\n      add\n        /* \"#utility.yul\":7010:7016   */\n      dup5\n        /* \"#utility.yul\":6966:7039   */\n      tag_195\n      jump\t// in\n    tag_208:\n        /* \"#utility.yul\":6404:7046   */\n      swap6\n      swap5\n      pop\n      pop\n      pop\n      pop\n      pop\n      jump\t// out\n        /* \"#utility.yul\":7052:7262   */\n    tag_35:\n        /* \"#utility.yul\":7139:7143   */\n      0x00\n        /* \"#utility.yul\":7177:7179   */\n      0x20\n        /* \"#utility.yul\":7166:7175   */\n      dup3\n        /* \"#utility.yul\":7162:7180   */\n      add\n        /* \"#utility.yul\":7154:7180   */\n      swap1\n      pop\n        /* \"#utility.yul\":7190:7255   */\n      tag_210\n        /* \"#utility.yul\":7252:7253   */\n      0x00\n        /* \"#utility.yul\":7241:7250   */\n      dup4\n        /* \"#utility.yul\":7237:7254   */\n      add\n        /* \"#utility.yul\":7228:7234   */\n      dup5\n        /* \"#utility.yul\":7190:7255   */\n      tag_150\n      jump\t// in\n    tag_210:\n        /* \"#utility.yul\":7052:7262   */\n      swap3\n      swap2\n      pop\n      pop\n      jump\t// out\n        /* \"#utility.yul\":7268:7687   */\n    tag_65:\n        /* \"#utility.yul\":7434:7438   */\n      0x00\n        /* \"#utility.yul\":7472:7474   */\n      0x20\n        /* \"#utility.yul\":7461:7470   */\n      dup3\n        /* \"#utility.yul\":7457:7475   */\n      add\n        /* \"#utility.yul\":7449:7475   */\n      swap1\n      pop\n        /* \"#utility.yul\":7521:7530   */\n      dup2\n        /* \"#utility.yul\":7515:7519   */\n      dup2\n        /* \"#utility.yul\":7511:7531   */\n      sub\n        /* \"#utility.yul\":7507:7508   */\n      0x00\n        /* \"#utility.yul\":7496:7505   */\n      dup4\n        /* \"#utility.yul\":7492:7509   */\n      add\n        /* \"#utility.yul\":7485:7532   */\n      mstore\n        /* \"#utility.yul\":7549:7680   */\n      tag_212\n        /* \"#utility.yul\":7675:7679   */\n      dup2\n        /* \"#utility.yul\":7549:7680   */\n      tag_154\n      jump\t// in\n    tag_212:\n        /* \"#utility.yul\":7541:7680   */\n      swap1\n      pop\n        /* \"#utility.yul\":7268:7687   */\n      swap2\n      swap1\n      pop\n      jump\t// out\n        /* \"#utility.yul\":7693:8112   */\n    tag_106:\n        /* \"#utility.yul\":7859:7863   */\n      0x00\n        /* \"#utility.yul\":7897:7899   */\n      0x20\n        /* \"#utility.yul\":7886:7895   */\n      dup3\n        /* \"#utility.yul\":7882:7900   */\n      add\n        /* \"#utility.yul\":7874:7900   */\n      swap1\n      pop\n        /* \"#utility.yul\":7946:7955   */\n      dup2\n        /* \"#utility.yul\":7940:7944   */\n      dup2\n        /* \"#utility.yul\":7936:7956   */\n      sub\n        /* \"#utility.yul\":7932:7933   */\n      0x00\n        /* \"#utility.yul\":7921:7930   */\n      dup4\n        /* \"#utility.yul\":7917:7934   */\n      add\n        /* \"#utility.yul\":7910:7957   */\n      mstore\n        /* \"#utility.yul\":7974:8105   */\n      tag_214\n        /* \"#utility.yul\":8100:8104   */\n      dup2\n        /* \"#utility.yul\":7974:8105   */\n      tag_160\n      jump\t// in\n    tag_214:\n        /* \"#utility.yul\":7966:8105   */\n      swap1\n      pop\n        /* \"#utility.yul\":7693:8112   */\n      swap2\n      swap1\n      pop\n      jump\t// out\n        /* \"#utility.yul\":8118:8537   */\n    tag_78:\n        /* \"#utility.yul\":8284:8288   */\n      0x00\n        /* \"#utility.yul\":8322:8324   */\n      0x20\n        /* \"#utility.yul\":8311:8320   */\n      dup3\n        /* \"#utility.yul\":8307:8325   */\n      add\n        /* \"#utility.yul\":8299:8325   */\n      swap1\n      pop\n        /* \"#utility.yul\":8371:8380   */\n      dup2\n        /* \"#utility.yul\":8365:8369   */\n      dup2\n        /* \"#utility.yul\":8361:8381   */\n      sub\n        /* \"#utility.yul\":8357:8358   */\n      0x00\n        /* \"#utility.yul\":8346:8355   */\n      dup4\n        /* \"#utility.yul\":8342:8359   */\n      add\n        /* \"#utility.yul\":8335:8382   */\n      mstore\n        /* \"#utility.yul\":8399:8530   */\n      tag_216\n        /* \"#utility.yul\":8525:8529   */\n      dup2\n        /* \"#utility.yul\":8399:8530   */\n      tag_165\n      jump\t// in\n    tag_216:\n        /* \"#utility.yul\":8391:8530   */\n      swap1\n      pop\n        /* \"#utility.yul\":8118:8537   */\n      swap2\n      swap1\n      pop\n      jump\t// out\n        /* \"#utility.yul\":8543:8962   */\n    tag_60:\n        /* \"#utility.yul\":8709:8713   */\n      0x00\n        /* \"#utility.yul\":8747:8749   */\n      0x20\n        /* \"#utility.yul\":8736:8745   */\n      dup3\n        /* \"#utility.yul\":8732:8750   */\n      add\n        /* \"#utility.yul\":8724:8750   */\n      swap1\n      pop\n        /* \"#utility.yul\":8796:8805   */\n      dup2\n        /* \"#utility.yul\":8790:8794   */\n      dup2\n        /* \"#utility.yul\":8786:8806   */\n      sub\n        /* \"#utility.yul\":8782:8783   */\n      0x00\n        /* \"#utility.yul\":8771:8780   */\n      dup4\n        /* \"#utility.yul\":8767:8784   */\n      add\n        /* \"#utility.yul\":8760:8807   */\n      mstore\n        /* \"#utility.yul\":8824:8955   */\n      tag_218\n        /* \"#utility.yul\":8950:8954   */\n      dup2\n        /* \"#utility.yul\":8824:8955   */\n      tag_170\n      jump\t// in\n    tag_218:\n        /* \"#utility.yul\":8816:8955   */\n      swap1\n      pop\n        /* \"#utility.yul\":8543:8962   */\n      swap2\n      swap1\n      pop\n      jump\t// out\n        /* \"#utility.yul\":8968:9387   */\n    tag_69:\n        /* \"#utility.yul\":9134:9138   */\n      0x00\n        /* \"#utility.yul\":9172:9174   */\n      0x20\n        /* \"#utility.yul\":9161:9170   */\n      dup3\n        /* \"#utility.yul\":9157:9175   */\n      add\n        /* \"#utility.yul\":9149:9175   */\n      swap1\n      pop\n        /* \"#utility.yul\":9221:9230   */\n      dup2\n        /* \"#utility.yul\":9215:9219   */\n      dup2\n        /* \"#utility.yul\":9211:9231   */\n      sub\n        /* \"#utility.yul\":9207:9208   */\n      0x00\n        /* \"#utility.yul\":9196:9205   */\n      dup4\n        /* \"#utility.yul\":9192:9209   */\n      add\n        /* \"#utility.yul\":9185:9232   */\n      mstore\n        /* \"#utility.yul\":9249:9380   */\n      tag_220\n        /* \"#utility.yul\":9375:9379   */\n      dup2\n        /* \"#utility.yul\":9249:9380   */\n      tag_175\n      jump\t// in\n    tag_220:\n        /* \"#utility.yul\":9241:9380   */\n      swap1\n      pop\n        /* \"#utility.yul\":8968:9387   */\n      swap2\n      swap1\n      pop\n      jump\t// out\n        /* \"#utility.yul\":9393:9812   */\n    tag_52:\n        /* \"#utility.yul\":9559:9563   */\n      0x00\n        /* \"#utility.yul\":9597:9599   */\n      0x20\n        /* \"#utility.yul\":9586:9595   */\n      dup3\n        /* \"#utility.yul\":9582:9600   */\n      add\n        /* \"#utility.yul\":9574:9600   */\n      swap1\n      pop\n        /* \"#utility.yul\":9646:9655   */\n      dup2\n        /* \"#utility.yul\":9640:9644   */\n      dup2\n        /* \"#utility.yul\":9636:9656   */\n      sub\n        /* \"#utility.yul\":9632:9633   */\n      0x00\n        /* \"#utility.yul\":9621:9630   */\n      dup4\n        /* \"#utility.yul\":9617:9634   */\n      add\n        /* \"#utility.yul\":9610:9657   */\n      mstore\n        /* \"#utility.yul\":9674:9805   */\n      tag_222\n        /* \"#utility.yul\":9800:9804   */\n      dup2\n        /* \"#utility.yul\":9674:9805   */\n      tag_180\n      jump\t// in\n    tag_222:\n        /* \"#utility.yul\":9666:9805   */\n      swap1\n      pop\n        /* \"#utility.yul\":9393:9812   */\n      swap2\n      swap1\n      pop\n      jump\t// out\n        /* \"#utility.yul\":9899:10068   */\n    tag_157:\n        /* \"#utility.yul\":9983:9994   */\n      0x00\n        /* \"#utility.yul\":10017:10023   */\n      dup3\n        /* \"#utility.yul\":10012:10015   */\n      dup3\n        /* \"#utility.yul\":10005:10024   */\n      mstore\n        /* \"#utility.yul\":10057:10061   */\n      0x20\n        /* \"#utility.yul\":10052:10055   */\n      dup3\n        /* \"#utility.yul\":10048:10062   */\n      add\n        /* \"#utility.yul\":10033:10062   */\n      swap1\n      pop\n        /* \"#utility.yul\":9899:10068   */\n      swap3\n      swap2\n      pop\n      pop\n      jump\t// out\n        /* \"#utility.yul\":10074:10379   */\n    tag_62:\n        /* \"#utility.yul\":10114:10117   */\n      0x00\n        /* \"#utility.yul\":10133:10153   */\n      tag_227\n        /* \"#utility.yul\":10151:10152   */\n      dup3\n        /* \"#utility.yul\":10133:10153   */\n      tag_194\n      jump\t// in\n    tag_227:\n        /* \"#utility.yul\":10128:10153   */\n      swap2\n      pop\n        /* \"#utility.yul\":10167:10187   */\n      tag_228\n        /* \"#utility.yul\":10185:10186   */\n      dup4\n        /* \"#utility.yul\":10167:10187   */\n      tag_194\n      jump\t// in\n    tag_228:\n        /* \"#utility.yul\":10162:10187   */\n      swap3\n      pop\n        /* \"#utility.yul\":10321:10322   */\n      dup3\n        /* \"#utility.yul\":10253:10319   */\n      0xffffffffffffffffffffffffffffffffffffffffffffffffffffffffffffffff\n        /* \"#utility.yul\":10249:10323   */\n      sub\n        /* \"#utility.yul\":10246:10247   */\n      dup3\n        /* \"#utility.yul\":10243:10324   */\n      gt\n        /* \"#utility.yul\":10240:10347   */\n      iszero\n      tag_229\n      jumpi\n        /* \"#utility.yul\":10327:10345   */\n      tag_230\n      tag_231\n      jump\t// in\n    tag_230:\n        /* \"#utility.yul\":10240:10347   */\n    tag_229:\n        /* \"#utility.yul\":10371:10372   */\n      dup3\n        /* \"#utility.yul\":10368:10369   */\n      dup3\n        /* \"#utility.yul\":10364:10373   */\n      add\n        /* \"#utility.yul\":10357:10373   */\n      swap1\n      pop\n        /* \"#utility.yul\":10074:10379   */\n      swap3\n      swap2\n      pop\n      pop\n      jump\t// out\n        /* \"#utility.yul\":10385:10481   */\n    tag_146:\n        /* \"#utility.yul\":10422:10429   */\n      0x00\n        /* \"#utility.yul\":10451:10475   */\n      tag_233\n        /* \"#utility.yul\":10469:10474   */\n      dup3\n        /* \"#utility.yul\":10451:10475   */\n      tag_234\n      jump\t// in\n    tag_233:\n        /* \"#utility.yul\":10440:10475   */\n      swap1\n      pop\n        /* \"#utility.yul\":10385:10481   */\n      swap2\n      swap1\n      pop\n      jump\t// out\n        /* \"#utility.yul\":10487:10577   */\n    tag_153:\n        /* \"#utility.yul\":10521:10528   */\n      0x00\n        /* \"#utility.yul\":10564:10569   */\n      dup2\n        /* \"#utility.yul\":10557:10570   */\n      iszero\n        /* \"#utility.yul\":10550:10571   */\n      iszero\n        /* \"#utility.yul\":10539:10571   */\n      swap1\n      pop\n        /* \"#utility.yul\":10487:10577   */\n      swap2\n      swap1\n      pop\n      jump\t// out\n        /* \"#utility.yul\":10583:10709   */\n    tag_234:\n        /* \"#utility.yul\":10620:10627   */\n      0x00\n        /* \"#utility.yul\":10660:10702   */\n      0xffffffffffffffffffffffffffffffffffffffff\n        /* \"#utility.yul\":10653:10658   */\n      dup3\n        /* \"#utility.yul\":10649:10703   */\n      and\n        /* \"#utility.yul\":10638:10703   */\n      swap1\n      pop\n        /* \"#utility.yul\":10583:10709   */\n      swap2\n      swap1\n      pop\n      jump\t// out\n        /* \"#utility.yul\":10715:10792   */\n    tag_194:\n        /* \"#utility.yul\":10752:10759   */\n      0x00\n        /* \"#utility.yul\":10781:10786   */\n      dup2\n        /* \"#utility.yul\":10770:10786   */\n      swap1\n      pop\n        /* \"#utility.yul\":10715:10792   */\n      swap2\n      swap1\n      pop\n      jump\t// out\n        /* \"#utility.yul\":10798:10978   */\n    tag_231:\n        /* \"#utility.yul\":10846:10923   */\n      0x4e487b7100000000000000000000000000000000000000000000000000000000\n        /* \"#utility.yul\":10843:10844   */\n      0x00\n        /* \"#utility.yul\":10836:10924   */\n      mstore\n        /* \"#utility.yul\":10943:10947   */\n      0x11\n        /* \"#utility.yul\":10940:10941   */\n      0x04\n        /* \"#utility.yul\":10933:10948   */\n      mstore\n        /* \"#utility.yul\":10967:10971   */\n      0x24\n        /* \"#utility.yul\":10964:10965   */\n      0x00\n        /* \"#utility.yul\":10957:10972   */\n      revert\n        /* \"#utility.yul\":11107:11224   */\n    tag_129:\n        /* \"#utility.yul\":11216:11217   */\n      0x00\n        /* \"#utility.yul\":11213:11214   */\n      dup1\n        /* \"#utility.yul\":11206:11218   */\n      revert\n        /* \"#utility.yul\":11230:11409   */\n    tag_159:\n        /* \"#utility.yul\":11370:11401   */\n      0x43616c6c2057696c6c204272656368204d6178696d756d205374616b65000000\n        /* \"#utility.yul\":11366:11367   */\n      0x00\n        /* \"#utility.yul\":11358:11364   */\n      dup3\n        /* \"#utility.yul\":11354:11368   */\n      add\n        /* \"#utility.yul\":11347:11402   */\n      mstore\n        /* \"#utility.yul\":11230:11409   */\n      pop\n      jump\t// out\n        /* \"#utility.yul\":11415:11640   */\n    tag_164:\n        /* \"#utility.yul\":11555:11589   */\n      0x4f776e61626c653a206e6577206f776e657220697320746865207a65726f2061\n        /* \"#utility.yul\":11551:11552   */\n      0x00\n        /* \"#utility.yul\":11543:11549   */\n      dup3\n        /* \"#utility.yul\":11539:11553   */\n      add\n        /* \"#utility.yul\":11532:11590   */\n      mstore\n        /* \"#utility.yul\":11624:11632   */\n      0x6464726573730000000000000000000000000000000000000000000000000000\n        /* \"#utility.yul\":11619:11621   */\n      0x20\n        /* \"#utility.yul\":11611:11617   */\n      dup3\n        /* \"#utility.yul\":11607:11622   */\n      add\n        /* \"#utility.yul\":11600:11633   */\n      mstore\n        /* \"#utility.yul\":11415:11640   */\n      pop\n      jump\t// out\n        /* \"#utility.yul\":11646:11811   */\n    tag_169:\n        /* \"#utility.yul\":11786:11803   */\n      0x496e76616c69642042616c616e63650000000000000000000000000000000000\n        /* \"#utility.yul\":11782:11783   */\n      0x00\n        /* \"#utility.yul\":11774:11780   */\n      dup3\n        /* \"#utility.yul\":11770:11784   */\n      add\n        /* \"#utility.yul\":11763:11804   */\n      mstore\n        /* \"#utility.yul\":11646:11811   */\n      pop\n      jump\t// out\n        /* \"#utility.yul\":11817:11989   */\n    tag_174:\n        /* \"#utility.yul\":11957:11981   */\n      0x5374616b696e67204973204e6f7420456e61626c656400000000000000000000\n        /* \"#utility.yul\":11953:11954   */\n      0x00\n        /* \"#utility.yul\":11945:11951   */\n      dup3\n        /* \"#utility.yul\":11941:11955   */\n      add\n        /* \"#utility.yul\":11934:11982   */\n      mstore\n        /* \"#utility.yul\":11817:11989   */\n      pop\n      jump\t// out\n        /* \"#utility.yul\":11995:12170   */\n    tag_179:\n        /* \"#utility.yul\":12135:12162   */\n      0x4d696e696d756d205374616b65204e6f74205265616368656400000000000000\n        /* \"#utility.yul\":12131:12132   */\n      0x00\n        /* \"#utility.yul\":12123:12129   */\n      dup3\n        /* \"#utility.yul\":12119:12133   */\n      add\n        /* \"#utility.yul\":12112:12163   */\n      mstore\n        /* \"#utility.yul\":11995:12170   */\n      pop\n      jump\t// out\n        /* \"#utility.yul\":12176:12358   */\n    tag_184:\n        /* \"#utility.yul\":12316:12350   */\n      0x4f776e61626c653a2063616c6c6572206973206e6f7420746865206f776e6572\n        /* \"#utility.yul\":12312:12313   */\n      0x00\n        /* \"#utility.yul\":12304:12310   */\n      dup3\n        /* \"#utility.yul\":12300:12314   */\n      add\n        /* \"#utility.yul\":12293:12351   */\n      mstore\n        /* \"#utility.yul\":12176:12358   */\n      pop\n      jump\t// out\n        /* \"#utility.yul\":12364:12486   */\n    tag_114:\n        /* \"#utility.yul\":12437:12461   */\n      tag_249\n        /* \"#utility.yul\":12455:12460   */\n      dup2\n        /* \"#utility.yul\":12437:12461   */\n      tag_146\n      jump\t// in\n    tag_249:\n        /* \"#utility.yul\":12430:12435   */\n      dup2\n        /* \"#utility.yul\":12427:12462   */\n      eq\n        /* \"#utility.yul\":12417:12480   */\n      tag_250\n      jumpi\n        /* \"#utility.yul\":12476:12477   */\n      0x00\n        /* \"#utility.yul\":12473:12474   */\n      dup1\n        /* \"#utility.yul\":12466:12478   */\n      revert\n        /* \"#utility.yul\":12417:12480   */\n    tag_250:\n        /* \"#utility.yul\":12364:12486   */\n      pop\n      jump\t// out\n        /* \"#utility.yul\":12492:12608   */\n    tag_118:\n        /* \"#utility.yul\":12562:12583   */\n      tag_252\n        /* \"#utility.yul\":12577:12582   */\n      dup2\n        /* \"#utility.yul\":12562:12583   */\n      tag_153\n      jump\t// in\n    tag_252:\n        /* \"#utility.yul\":12555:12560   */\n      dup2\n        /* \"#utility.yul\":12552:12584   */\n      eq\n        /* \"#utility.yul\":12542:12602   */\n      tag_253\n      jumpi\n        /* \"#utility.yul\":12598:12599   */\n      0x00\n        /* \"#utility.yul\":12595:12596   */\n      dup1\n        /* \"#utility.yul\":12588:12600   */\n      revert\n        /* \"#utility.yul\":12542:12602   */\n    tag_253:\n        /* \"#utility.yul\":12492:12608   */\n      pop\n      jump\t// out\n        /* \"#utility.yul\":12614:12736   */\n    tag_122:\n        /* \"#utility.yul\":12687:12711   */\n      tag_255\n        /* \"#utility.yul\":12705:12710   */\n      dup2\n        /* \"#utility.yul\":12687:12711   */\n      tag_194\n      jump\t// in\n    tag_255:\n        /* \"#utility.yul\":12680:12685   */\n      dup2\n        /* \"#utility.yul\":12677:12712   */\n      eq\n        /* \"#utility.yul\":12667:12730   */\n      tag_256\n      jumpi\n        /* \"#utility.yul\":12726:12727   */\n      0x00\n        /* \"#utility.yul\":12723:12724   */\n      dup1\n        /* \"#utility.yul\":12716:12728   */\n      revert\n        /* \"#utility.yul\":12667:12730   */\n    tag_256:\n        /* \"#utility.yul\":12614:12736   */\n      pop\n      jump\t// out\n\n    auxdata: 0xa2646970667358221220bc4a72924af3190d9c090df4865235e45da6308ae1e084605e225b46264a507264736f6c63430008070033\n}\n",
				"bytecode": {
					"linkReferences": {},
					"object": "608060405260006002556000600360006101000a81548160ff02191690831515021790555034801561003057600080fd5b5061004d61004261005260201b60201c565b61005a60201b60201c565b61011e565b600033905090565b60008060009054906101000a900473ffffffffffffffffffffffffffffffffffffffff169050816000806101000a81548173ffffffffffffffffffffffffffffffffffffffff021916908373ffffffffffffffffffffffffffffffffffffffff1602179055508173ffffffffffffffffffffffffffffffffffffffff168173ffffffffffffffffffffffffffffffffffffffff167f8be0079c531659141344cd1fd0a4f28419497f9722a3daafe3b4186f6b6457e060405160405180910390a35050565b610ff58061012d6000396000f3fe6080604052600436106100745760003560e01c8063ad95b1c61161004e578063ad95b1c6146100d6578063da917aea146100ff578063db5689221461012a578063f2fde38b146101535761007b565b806364cb560c1461007d578063715018a6146100945780638da5cb5b146100ab5761007b565b3661007b57005b005b34801561008957600080fd5b5061009261017c565b005b3480156100a057600080fd5b506100a96101a8565b005b3480156100b757600080fd5b506100c0610230565b6040516100cd9190610c09565b60405180910390f35b3480156100e257600080fd5b506100fd60048036038101906100f89190610a3d565b610259565b005b34801561010b57600080fd5b506101146106f8565b6040516101219190610ca0565b60405180910390f35b34801561013657600080fd5b50610151600480360381019061014c91906109e3565b61070b565b005b34801561015f57600080fd5b5061017a600480360381019061017591906109e3565b6107cb565b005b600360009054906101000a900460ff1615600360006101000a81548160ff021916908315150217905550565b6101b06108c3565b73ffffffffffffffffffffffffffffffffffffffff166101ce610230565b73ffffffffffffffffffffffffffffffffffffffff1614610224576040517f08c379a000000000000000000000000000000000000000000000000000000000815260040161021b90610d5b565b60405180910390fd5b61022e60006108cb565b565b60008060009054906101000a900473ffffffffffffffffffffffffffffffffffffffff16905090565b600360009054906101000a900460ff166102a8576040517f08c379a000000000000000000000000000000000000000000000000000000000815260040161029f90610d1b565b60405180910390fd5b69d3c21bcecceda100000081600560003373ffffffffffffffffffffffffffffffffffffffff1673ffffffffffffffffffffffffffffffffffffffff168152602001908152602001600020546102fe9190610d8c565b101561033f576040517f08c379a000000000000000000000000000000000000000000000000000000000815260040161033690610cbb565b60405180910390fd5b678ac7230489e8000081600560003373ffffffffffffffffffffffffffffffffffffffff1673ffffffffffffffffffffffffffffffffffffffff168152602001908152602001600020546103939190610d8c565b11156103d4576040517f08c379a00000000000000000000000000000000000000000000000000000000081526004016103cb90610d3b565b60405180910390fd5b80600160009054906101000a900473ffffffffffffffffffffffffffffffffffffffff1673ffffffffffffffffffffffffffffffffffffffff166370a08231336040518263ffffffff1660e01b81526004016104309190610c09565b60206040518083038186803b15801561044857600080fd5b505afa15801561045c573d6000803e3d6000fd5b505050506040513d601f19601f820116820180604052508101906104809190610a6a565b10156104c1576040517f08c379a00000000000000000000000000000000000000000000000000000000081526004016104b890610cfb565b60405180910390fd5b600160009054906101000a900473ffffffffffffffffffffffffffffffffffffffff1673ffffffffffffffffffffffffffffffffffffffff166323b872dd3330846040518463ffffffff1660e01b815260040161052093929190610c24565b602060405180830381600087803b15801561053a57600080fd5b505af115801561054e573d6000803e3d6000fd5b505050506040513d601f19601f820116820180604052508101906105729190610a10565b5080600560003373ffffffffffffffffffffffffffffffffffffffff1673ffffffffffffffffffffffffffffffffffffffff16815260200190815260200160002060008282546105c29190610d8c565b92505081905550600060405180608001604052803373ffffffffffffffffffffffffffffffffffffffff16815260200183815260200142815260200160008152509050806004600060016002546106199190610d8c565b815260200190815260200160002060008201518160000160006101000a81548173ffffffffffffffffffffffffffffffffffffffff021916908373ffffffffffffffffffffffffffffffffffffffff1602179055506020820151816001015560408201518160020155606082015181600301559050507f4893ba24a61962c26d899bdc2f219eb2486292d793493c0cc5be1d3bebe9bba63360016002546106c09190610d8c565b83426040516106d29493929190610c5b565b60405180910390a16001600260008282546106ed9190610d8c565b925050819055505050565b600360009054906101000a900460ff1681565b6107136108c3565b73ffffffffffffffffffffffffffffffffffffffff16610731610230565b73ffffffffffffffffffffffffffffffffffffffff1614610787576040517f08c379a000000000000000000000000000000000000000000000000000000000815260040161077e90610d5b565b60405180910390fd5b80600160006101000a81548173ffffffffffffffffffffffffffffffffffffffff021916908373ffffffffffffffffffffffffffffffffffffffff16021790555050565b6107d36108c3565b73ffffffffffffffffffffffffffffffffffffffff166107f1610230565b73ffffffffffffffffffffffffffffffffffffffff1614610847576040517f08c379a000000000000000000000000000000000000000000000000000000000815260040161083e90610d5b565b60405180910390fd5b600073ffffffffffffffffffffffffffffffffffffffff168173ffffffffffffffffffffffffffffffffffffffff1614156108b7576040517f08c379a00000000000000000000000000000000000000000000000000000000081526004016108ae90610cdb565b60405180910390fd5b6108c0816108cb565b50565b600033905090565b60008060009054906101000a900473ffffffffffffffffffffffffffffffffffffffff169050816000806101000a81548173ffffffffffffffffffffffffffffffffffffffff021916908373ffffffffffffffffffffffffffffffffffffffff1602179055508173ffffffffffffffffffffffffffffffffffffffff168173ffffffffffffffffffffffffffffffffffffffff167f8be0079c531659141344cd1fd0a4f28419497f9722a3daafe3b4186f6b6457e060405160405180910390a35050565b60008135905061099e81610f7a565b92915050565b6000815190506109b381610f91565b92915050565b6000813590506109c881610fa8565b92915050565b6000815190506109dd81610fa8565b92915050565b6000602082840312156109f9576109f8610e59565b5b6000610a078482850161098f565b91505092915050565b600060208284031215610a2657610a25610e59565b5b6000610a34848285016109a4565b91505092915050565b600060208284031215610a5357610a52610e59565b5b6000610a61848285016109b9565b91505092915050565b600060208284031215610a8057610a7f610e59565b5b6000610a8e848285016109ce565b91505092915050565b610aa081610de2565b82525050565b610aaf81610de2565b82525050565b610abe81610df4565b82525050565b6000610ad1601d83610d7b565b9150610adc82610e5e565b602082019050919050565b6000610af4602683610d7b565b9150610aff82610e87565b604082019050919050565b6000610b17600f83610d7b565b9150610b2282610ed6565b602082019050919050565b6000610b3a601683610d7b565b9150610b4582610eff565b602082019050919050565b6000610b5d601983610d7b565b9150610b6882610f28565b602082019050919050565b6000610b80602083610d7b565b9150610b8b82610f51565b602082019050919050565b608082016000820151610bac6000850182610a97565b506020820151610bbf6020850182610beb565b506040820151610bd26040850182610beb565b506060820151610be56060850182610beb565b50505050565b610bf481610e20565b82525050565b610c0381610e20565b82525050565b6000602082019050610c1e6000830184610aa6565b92915050565b6000606082019050610c396000830186610aa6565b610c466020830185610aa6565b610c536040830184610bfa565b949350505050565b600060e082019050610c706000830187610aa6565b610c7d6020830186610bfa565b610c8a6040830185610b96565b610c9760c0830184610bfa565b95945050505050565b6000602082019050610cb56000830184610ab5565b92915050565b60006020820190508181036000830152610cd481610ac4565b9050919050565b60006020820190508181036000830152610cf481610ae7565b9050919050565b60006020820190508181036000830152610d1481610b0a565b9050919050565b60006020820190508181036000830152610d3481610b2d565b9050919050565b60006020820190508181036000830152610d5481610b50565b9050919050565b60006020820190508181036000830152610d7481610b73565b9050919050565b600082825260208201905092915050565b6000610d9782610e20565b9150610da283610e20565b9250827fffffffffffffffffffffffffffffffffffffffffffffffffffffffffffffffff03821115610dd757610dd6610e2a565b5b828201905092915050565b6000610ded82610e00565b9050919050565b60008115159050919050565b600073ffffffffffffffffffffffffffffffffffffffff82169050919050565b6000819050919050565b7f4e487b7100000000000000000000000000000000000000000000000000000000600052601160045260246000fd5b600080fd5b7f43616c6c2057696c6c204272656368204d6178696d756d205374616b65000000600082015250565b7f4f776e61626c653a206e6577206f776e657220697320746865207a65726f206160008201527f6464726573730000000000000000000000000000000000000000000000000000602082015250565b7f496e76616c69642042616c616e63650000000000000000000000000000000000600082015250565b7f5374616b696e67204973204e6f7420456e61626c656400000000000000000000600082015250565b7f4d696e696d756d205374616b65204e6f74205265616368656400000000000000600082015250565b7f4f776e61626c653a2063616c6c6572206973206e6f7420746865206f776e6572600082015250565b610f8381610de2565b8114610f8e57600080fd5b50565b610f9a81610df4565b8114610fa557600080fd5b50565b610fb181610e20565b8114610fbc57600080fd5b5056fea2646970667358221220bc4a72924af3190d9c090df4865235e45da6308ae1e084605e225b46264a507264736f6c63430008070033",
					"opcodes": "PUSH1 0x80 PUSH1 0x40 MSTORE PUSH1 0x0 PUSH1 0x2 SSTORE PUSH1 0x0 PUSH1 0x3 PUSH1 0x0 PUSH2 0x100 EXP DUP2 SLOAD DUP2 PUSH1 0xFF MUL NOT AND SWAP1 DUP4 ISZERO ISZERO MUL OR SWAP1 SSTORE POP CALLVALUE DUP1 ISZERO PUSH2 0x30 JUMPI PUSH1 0x0 DUP1 REVERT JUMPDEST POP PUSH2 0x4D PUSH2 0x42 PUSH2 0x52 PUSH1 0x20 SHL PUSH1 0x20 SHR JUMP JUMPDEST PUSH2 0x5A PUSH1 0x20 SHL PUSH1 0x20 SHR JUMP JUMPDEST PUSH2 0x11E JUMP JUMPDEST PUSH1 0x0 CALLER SWAP1 POP SWAP1 JUMP JUMPDEST PUSH1 0x0 DUP1 PUSH1 0x0 SWAP1 SLOAD SWAP1 PUSH2 0x100 EXP SWAP1 DIV PUSH20 0xFFFFFFFFFFFFFFFFFFFFFFFFFFFFFFFFFFFFFFFF AND SWAP1 POP DUP2 PUSH1 0x0 DUP1 PUSH2 0x100 EXP DUP2 SLOAD DUP2 PUSH20 0xFFFFFFFFFFFFFFFFFFFFFFFFFFFFFFFFFFFFFFFF MUL NOT AND SWAP1 DUP4 PUSH20 0xFFFFFFFFFFFFFFFFFFFFFFFFFFFFFFFFFFFFFFFF AND MUL OR SWAP1 SSTORE POP DUP2 PUSH20 0xFFFFFFFFFFFFFFFFFFFFFFFFFFFFFFFFFFFFFFFF AND DUP2 PUSH20 0xFFFFFFFFFFFFFFFFFFFFFFFFFFFFFFFFFFFFFFFF AND PUSH32 0x8BE0079C531659141344CD1FD0A4F28419497F9722A3DAAFE3B4186F6B6457E0 PUSH1 0x40 MLOAD PUSH1 0x40 MLOAD DUP1 SWAP2 SUB SWAP1 LOG3 POP POP JUMP JUMPDEST PUSH2 0xFF5 DUP1 PUSH2 0x12D PUSH1 0x0 CODECOPY PUSH1 0x0 RETURN INVALID PUSH1 0x80 PUSH1 0x40 MSTORE PUSH1 0x4 CALLDATASIZE LT PUSH2 0x74 JUMPI PUSH1 0x0 CALLDATALOAD PUSH1 0xE0 SHR DUP1 PUSH4 0xAD95B1C6 GT PUSH2 0x4E JUMPI DUP1 PUSH4 0xAD95B1C6 EQ PUSH2 0xD6 JUMPI DUP1 PUSH4 0xDA917AEA EQ PUSH2 0xFF JUMPI DUP1 PUSH4 0xDB568922 EQ PUSH2 0x12A JUMPI DUP1 PUSH4 0xF2FDE38B EQ PUSH2 0x153 JUMPI PUSH2 0x7B JUMP JUMPDEST DUP1 PUSH4 0x64CB560C EQ PUSH2 0x7D JUMPI DUP1 PUSH4 0x715018A6 EQ PUSH2 0x94 JUMPI DUP1 PUSH4 0x8DA5CB5B EQ PUSH2 0xAB JUMPI PUSH2 0x7B JUMP JUMPDEST CALLDATASIZE PUSH2 0x7B JUMPI STOP JUMPDEST STOP JUMPDEST CALLVALUE DUP1 ISZERO PUSH2 0x89 JUMPI PUSH1 0x0 DUP1 REVERT JUMPDEST POP PUSH2 0x92 PUSH2 0x17C JUMP JUMPDEST STOP JUMPDEST CALLVALUE DUP1 ISZERO PUSH2 0xA0 JUMPI PUSH1 0x0 DUP1 REVERT JUMPDEST POP PUSH2 0xA9 PUSH2 0x1A8 JUMP JUMPDEST STOP JUMPDEST CALLVALUE DUP1 ISZERO PUSH2 0xB7 JUMPI PUSH1 0x0 DUP1 REVERT JUMPDEST POP PUSH2 0xC0 PUSH2 0x230 JUMP JUMPDEST PUSH1 0x40 MLOAD PUSH2 0xCD SWAP2 SWAP1 PUSH2 0xC09 JUMP JUMPDEST PUSH1 0x40 MLOAD DUP1 SWAP2 SUB SWAP1 RETURN JUMPDEST CALLVALUE DUP1 ISZERO PUSH2 0xE2 JUMPI PUSH1 0x0 DUP1 REVERT JUMPDEST POP PUSH2 0xFD PUSH1 0x4 DUP1 CALLDATASIZE SUB DUP2 ADD SWAP1 PUSH2 0xF8 SWAP2 SWAP1 PUSH2 0xA3D JUMP JUMPDEST PUSH2 0x259 JUMP JUMPDEST STOP JUMPDEST CALLVALUE DUP1 ISZERO PUSH2 0x10B JUMPI PUSH1 0x0 DUP1 REVERT JUMPDEST POP PUSH2 0x114 PUSH2 0x6F8 JUMP JUMPDEST PUSH1 0x40 MLOAD PUSH2 0x121 SWAP2 SWAP1 PUSH2 0xCA0 JUMP JUMPDEST PUSH1 0x40 MLOAD DUP1 SWAP2 SUB SWAP1 RETURN JUMPDEST CALLVALUE DUP1 ISZERO PUSH2 0x136 JUMPI PUSH1 0x0 DUP1 REVERT JUMPDEST POP PUSH2 0x151 PUSH1 0x4 DUP1 CALLDATASIZE SUB DUP2 ADD SWAP1 PUSH2 0x14C SWAP2 SWAP1 PUSH2 0x9E3 JUMP JUMPDEST PUSH2 0x70B JUMP JUMPDEST STOP JUMPDEST CALLVALUE DUP1 ISZERO PUSH2 0x15F JUMPI PUSH1 0x0 DUP1 REVERT JUMPDEST POP PUSH2 0x17A PUSH1 0x4 DUP1 CALLDATASIZE SUB DUP2 ADD SWAP1 PUSH2 0x175 SWAP2 SWAP1 PUSH2 0x9E3 JUMP JUMPDEST PUSH2 0x7CB JUMP JUMPDEST STOP JUMPDEST PUSH1 0x3 PUSH1 0x0 SWAP1 SLOAD SWAP1 PUSH2 0x100 EXP SWAP1 DIV PUSH1 0xFF AND ISZERO PUSH1 0x3 PUSH1 0x0 PUSH2 0x100 EXP DUP2 SLOAD DUP2 PUSH1 0xFF MUL NOT AND SWAP1 DUP4 ISZERO ISZERO MUL OR SWAP1 SSTORE POP JUMP JUMPDEST PUSH2 0x1B0 PUSH2 0x8C3 JUMP JUMPDEST PUSH20 0xFFFFFFFFFFFFFFFFFFFFFFFFFFFFFFFFFFFFFFFF AND PUSH2 0x1CE PUSH2 0x230 JUMP JUMPDEST PUSH20 0xFFFFFFFFFFFFFFFFFFFFFFFFFFFFFFFFFFFFFFFF AND EQ PUSH2 0x224 JUMPI PUSH1 0x40 MLOAD PUSH32 0x8C379A000000000000000000000000000000000000000000000000000000000 DUP2 MSTORE PUSH1 0x4 ADD PUSH2 0x21B SWAP1 PUSH2 0xD5B JUMP JUMPDEST PUSH1 0x40 MLOAD DUP1 SWAP2 SUB SWAP1 REVERT JUMPDEST PUSH2 0x22E PUSH1 0x0 PUSH2 0x8CB JUMP JUMPDEST JUMP JUMPDEST PUSH1 0x0 DUP1 PUSH1 0x0 SWAP1 SLOAD SWAP1 PUSH2 0x100 EXP SWAP1 DIV PUSH20 0xFFFFFFFFFFFFFFFFFFFFFFFFFFFFFFFFFFFFFFFF AND SWAP1 POP SWAP1 JUMP JUMPDEST PUSH1 0x3 PUSH1 0x0 SWAP1 SLOAD SWAP1 PUSH2 0x100 EXP SWAP1 DIV PUSH1 0xFF AND PUSH2 0x2A8 JUMPI PUSH1 0x40 MLOAD PUSH32 0x8C379A000000000000000000000000000000000000000000000000000000000 DUP2 MSTORE PUSH1 0x4 ADD PUSH2 0x29F SWAP1 PUSH2 0xD1B JUMP JUMPDEST PUSH1 0x40 MLOAD DUP1 SWAP2 SUB SWAP1 REVERT JUMPDEST PUSH10 0xD3C21BCECCEDA1000000 DUP2 PUSH1 0x5 PUSH1 0x0 CALLER PUSH20 0xFFFFFFFFFFFFFFFFFFFFFFFFFFFFFFFFFFFFFFFF AND PUSH20 0xFFFFFFFFFFFFFFFFFFFFFFFFFFFFFFFFFFFFFFFF AND DUP2 MSTORE PUSH1 0x20 ADD SWAP1 DUP2 MSTORE PUSH1 0x20 ADD PUSH1 0x0 KECCAK256 SLOAD PUSH2 0x2FE SWAP2 SWAP1 PUSH2 0xD8C JUMP JUMPDEST LT ISZERO PUSH2 0x33F JUMPI PUSH1 0x40 MLOAD PUSH32 0x8C379A000000000000000000000000000000000000000000000000000000000 DUP2 MSTORE PUSH1 0x4 ADD PUSH2 0x336 SWAP1 PUSH2 0xCBB JUMP JUMPDEST PUSH1 0x40 MLOAD DUP1 SWAP2 SUB SWAP1 REVERT JUMPDEST PUSH8 0x8AC7230489E80000 DUP2 PUSH1 0x5 PUSH1 0x0 CALLER PUSH20 0xFFFFFFFFFFFFFFFFFFFFFFFFFFFFFFFFFFFFFFFF AND PUSH20 0xFFFFFFFFFFFFFFFFFFFFFFFFFFFFFFFFFFFFFFFF AND DUP2 MSTORE PUSH1 0x20 ADD SWAP1 DUP2 MSTORE PUSH1 0x20 ADD PUSH1 0x0 KECCAK256 SLOAD PUSH2 0x393 SWAP2 SWAP1 PUSH2 0xD8C JUMP JUMPDEST GT ISZERO PUSH2 0x3D4 JUMPI PUSH1 0x40 MLOAD PUSH32 0x8C379A000000000000000000000000000000000000000000000000000000000 DUP2 MSTORE PUSH1 0x4 ADD PUSH2 0x3CB SWAP1 PUSH2 0xD3B JUMP JUMPDEST PUSH1 0x40 MLOAD DUP1 SWAP2 SUB SWAP1 REVERT JUMPDEST DUP1 PUSH1 0x1 PUSH1 0x0 SWAP1 SLOAD SWAP1 PUSH2 0x100 EXP SWAP1 DIV PUSH20 0xFFFFFFFFFFFFFFFFFFFFFFFFFFFFFFFFFFFFFFFF AND PUSH20 0xFFFFFFFFFFFFFFFFFFFFFFFFFFFFFFFFFFFFFFFF AND PUSH4 0x70A08231 CALLER PUSH1 0x40 MLOAD DUP3 PUSH4 0xFFFFFFFF AND PUSH1 0xE0 SHL DUP2 MSTORE PUSH1 0x4 ADD PUSH2 0x430 SWAP2 SWAP1 PUSH2 0xC09 JUMP JUMPDEST PUSH1 0x20 PUSH1 0x40 MLOAD DUP1 DUP4 SUB DUP2 DUP7 DUP1 EXTCODESIZE ISZERO DUP1 ISZERO PUSH2 0x448 JUMPI PUSH1 0x0 DUP1 REVERT JUMPDEST POP GAS STATICCALL ISZERO DUP1 ISZERO PUSH2 0x45C JUMPI RETURNDATASIZE PUSH1 0x0 DUP1 RETURNDATACOPY RETURNDATASIZE PUSH1 0x0 REVERT JUMPDEST POP POP POP POP PUSH1 0x40 MLOAD RETURNDATASIZE PUSH1 0x1F NOT PUSH1 0x1F DUP3 ADD AND DUP3 ADD DUP1 PUSH1 0x40 MSTORE POP DUP2 ADD SWAP1 PUSH2 0x480 SWAP2 SWAP1 PUSH2 0xA6A JUMP JUMPDEST LT ISZERO PUSH2 0x4C1 JUMPI PUSH1 0x40 MLOAD PUSH32 0x8C379A000000000000000000000000000000000000000000000000000000000 DUP2 MSTORE PUSH1 0x4 ADD PUSH2 0x4B8 SWAP1 PUSH2 0xCFB JUMP JUMPDEST PUSH1 0x40 MLOAD DUP1 SWAP2 SUB SWAP1 REVERT JUMPDEST PUSH1 0x1 PUSH1 0x0 SWAP1 SLOAD SWAP1 PUSH2 0x100 EXP SWAP1 DIV PUSH20 0xFFFFFFFFFFFFFFFFFFFFFFFFFFFFFFFFFFFFFFFF AND PUSH20 0xFFFFFFFFFFFFFFFFFFFFFFFFFFFFFFFFFFFFFFFF AND PUSH4 0x23B872DD CALLER ADDRESS DUP5 PUSH1 0x40 MLOAD DUP5 PUSH4 0xFFFFFFFF AND PUSH1 0xE0 SHL DUP2 MSTORE PUSH1 0x4 ADD PUSH2 0x520 SWAP4 SWAP3 SWAP2 SWAP1 PUSH2 0xC24 JUMP JUMPDEST PUSH1 0x20 PUSH1 0x40 MLOAD DUP1 DUP4 SUB DUP2 PUSH1 0x0 DUP8 DUP1 EXTCODESIZE ISZERO DUP1 ISZERO PUSH2 0x53A JUMPI PUSH1 0x0 DUP1 REVERT JUMPDEST POP GAS CALL ISZERO DUP1 ISZERO PUSH2 0x54E JUMPI RETURNDATASIZE PUSH1 0x0 DUP1 RETURNDATACOPY RETURNDATASIZE PUSH1 0x0 REVERT JUMPDEST POP POP POP POP PUSH1 0x40 MLOAD RETURNDATASIZE PUSH1 0x1F NOT PUSH1 0x1F DUP3 ADD AND DUP3 ADD DUP1 PUSH1 0x40 MSTORE POP DUP2 ADD SWAP1 PUSH2 0x572 SWAP2 SWAP1 PUSH2 0xA10 JUMP JUMPDEST POP DUP1 PUSH1 0x5 PUSH1 0x0 CALLER PUSH20 0xFFFFFFFFFFFFFFFFFFFFFFFFFFFFFFFFFFFFFFFF AND PUSH20 0xFFFFFFFFFFFFFFFFFFFFFFFFFFFFFFFFFFFFFFFF AND DUP2 MSTORE PUSH1 0x20 ADD SWAP1 DUP2 MSTORE PUSH1 0x20 ADD PUSH1 0x0 KECCAK256 PUSH1 0x0 DUP3 DUP3 SLOAD PUSH2 0x5C2 SWAP2 SWAP1 PUSH2 0xD8C JUMP JUMPDEST SWAP3 POP POP DUP2 SWAP1 SSTORE POP PUSH1 0x0 PUSH1 0x40 MLOAD DUP1 PUSH1 0x80 ADD PUSH1 0x40 MSTORE DUP1 CALLER PUSH20 0xFFFFFFFFFFFFFFFFFFFFFFFFFFFFFFFFFFFFFFFF AND DUP2 MSTORE PUSH1 0x20 ADD DUP4 DUP2 MSTORE PUSH1 0x20 ADD TIMESTAMP DUP2 MSTORE PUSH1 0x20 ADD PUSH1 0x0 DUP2 MSTORE POP SWAP1 POP DUP1 PUSH1 0x4 PUSH1 0x0 PUSH1 0x1 PUSH1 0x2 SLOAD PUSH2 0x619 SWAP2 SWAP1 PUSH2 0xD8C JUMP JUMPDEST DUP2 MSTORE PUSH1 0x20 ADD SWAP1 DUP2 MSTORE PUSH1 0x20 ADD PUSH1 0x0 KECCAK256 PUSH1 0x0 DUP3 ADD MLOAD DUP2 PUSH1 0x0 ADD PUSH1 0x0 PUSH2 0x100 EXP DUP2 SLOAD DUP2 PUSH20 0xFFFFFFFFFFFFFFFFFFFFFFFFFFFFFFFFFFFFFFFF MUL NOT AND SWAP1 DUP4 PUSH20 0xFFFFFFFFFFFFFFFFFFFFFFFFFFFFFFFFFFFFFFFF AND MUL OR SWAP1 SSTORE POP PUSH1 0x20 DUP3 ADD MLOAD DUP2 PUSH1 0x1 ADD SSTORE PUSH1 0x40 DUP3 ADD MLOAD DUP2 PUSH1 0x2 ADD SSTORE PUSH1 0x60 DUP3 ADD MLOAD DUP2 PUSH1 0x3 ADD SSTORE SWAP1 POP POP PUSH32 0x4893BA24A61962C26D899BDC2F219EB2486292D793493C0CC5BE1D3BEBE9BBA6 CALLER PUSH1 0x1 PUSH1 0x2 SLOAD PUSH2 0x6C0 SWAP2 SWAP1 PUSH2 0xD8C JUMP JUMPDEST DUP4 TIMESTAMP PUSH1 0x40 MLOAD PUSH2 0x6D2 SWAP5 SWAP4 SWAP3 SWAP2 SWAP1 PUSH2 0xC5B JUMP JUMPDEST PUSH1 0x40 MLOAD DUP1 SWAP2 SUB SWAP1 LOG1 PUSH1 0x1 PUSH1 0x2 PUSH1 0x0 DUP3 DUP3 SLOAD PUSH2 0x6ED SWAP2 SWAP1 PUSH2 0xD8C JUMP JUMPDEST SWAP3 POP POP DUP2 SWAP1 SSTORE POP POP POP JUMP JUMPDEST PUSH1 0x3 PUSH1 0x0 SWAP1 SLOAD SWAP1 PUSH2 0x100 EXP SWAP1 DIV PUSH1 0xFF AND DUP2 JUMP JUMPDEST PUSH2 0x713 PUSH2 0x8C3 JUMP JUMPDEST PUSH20 0xFFFFFFFFFFFFFFFFFFFFFFFFFFFFFFFFFFFFFFFF AND PUSH2 0x731 PUSH2 0x230 JUMP JUMPDEST PUSH20 0xFFFFFFFFFFFFFFFFFFFFFFFFFFFFFFFFFFFFFFFF AND EQ PUSH2 0x787 JUMPI PUSH1 0x40 MLOAD PUSH32 0x8C379A000000000000000000000000000000000000000000000000000000000 DUP2 MSTORE PUSH1 0x4 ADD PUSH2 0x77E SWAP1 PUSH2 0xD5B JUMP JUMPDEST PUSH1 0x40 MLOAD DUP1 SWAP2 SUB SWAP1 REVERT JUMPDEST DUP1 PUSH1 0x1 PUSH1 0x0 PUSH2 0x100 EXP DUP2 SLOAD DUP2 PUSH20 0xFFFFFFFFFFFFFFFFFFFFFFFFFFFFFFFFFFFFFFFF MUL NOT AND SWAP1 DUP4 PUSH20 0xFFFFFFFFFFFFFFFFFFFFFFFFFFFFFFFFFFFFFFFF AND MUL OR SWAP1 SSTORE POP POP JUMP JUMPDEST PUSH2 0x7D3 PUSH2 0x8C3 JUMP JUMPDEST PUSH20 0xFFFFFFFFFFFFFFFFFFFFFFFFFFFFFFFFFFFFFFFF AND PUSH2 0x7F1 PUSH2 0x230 JUMP JUMPDEST PUSH20 0xFFFFFFFFFFFFFFFFFFFFFFFFFFFFFFFFFFFFFFFF AND EQ PUSH2 0x847 JUMPI PUSH1 0x40 MLOAD PUSH32 0x8C379A000000000000000000000000000000000000000000000000000000000 DUP2 MSTORE PUSH1 0x4 ADD PUSH2 0x83E SWAP1 PUSH2 0xD5B JUMP JUMPDEST PUSH1 0x40 MLOAD DUP1 SWAP2 SUB SWAP1 REVERT JUMPDEST PUSH1 0x0 PUSH20 0xFFFFFFFFFFFFFFFFFFFFFFFFFFFFFFFFFFFFFFFF AND DUP2 PUSH20 0xFFFFFFFFFFFFFFFFFFFFFFFFFFFFFFFFFFFFFFFF AND EQ ISZERO PUSH2 0x8B7 JUMPI PUSH1 0x40 MLOAD PUSH32 0x8C379A000000000000000000000000000000000000000000000000000000000 DUP2 MSTORE PUSH1 0x4 ADD PUSH2 0x8AE SWAP1 PUSH2 0xCDB JUMP JUMPDEST PUSH1 0x40 MLOAD DUP1 SWAP2 SUB SWAP1 REVERT JUMPDEST PUSH2 0x8C0 DUP2 PUSH2 0x8CB JUMP JUMPDEST POP JUMP JUMPDEST PUSH1 0x0 CALLER SWAP1 POP SWAP1 JUMP JUMPDEST PUSH1 0x0 DUP1 PUSH1 0x0 SWAP1 SLOAD SWAP1 PUSH2 0x100 EXP SWAP1 DIV PUSH20 0xFFFFFFFFFFFFFFFFFFFFFFFFFFFFFFFFFFFFFFFF AND SWAP1 POP DUP2 PUSH1 0x0 DUP1 PUSH2 0x100 EXP DUP2 SLOAD DUP2 PUSH20 0xFFFFFFFFFFFFFFFFFFFFFFFFFFFFFFFFFFFFFFFF MUL NOT AND SWAP1 DUP4 PUSH20 0xFFFFFFFFFFFFFFFFFFFFFFFFFFFFFFFFFFFFFFFF AND MUL OR SWAP1 SSTORE POP DUP2 PUSH20 0xFFFFFFFFFFFFFFFFFFFFFFFFFFFFFFFFFFFFFFFF AND DUP2 PUSH20 0xFFFFFFFFFFFFFFFFFFFFFFFFFFFFFFFFFFFFFFFF AND PUSH32 0x8BE0079C531659141344CD1FD0A4F28419497F9722A3DAAFE3B4186F6B6457E0 PUSH1 0x40 MLOAD PUSH1 0x40 MLOAD DUP1 SWAP2 SUB SWAP1 LOG3 POP POP JUMP JUMPDEST PUSH1 0x0 DUP2 CALLDATALOAD SWAP1 POP PUSH2 0x99E DUP2 PUSH2 0xF7A JUMP JUMPDEST SWAP3 SWAP2 POP POP JUMP JUMPDEST PUSH1 0x0 DUP2 MLOAD SWAP1 POP PUSH2 0x9B3 DUP2 PUSH2 0xF91 JUMP JUMPDEST SWAP3 SWAP2 POP POP JUMP JUMPDEST PUSH1 0x0 DUP2 CALLDATALOAD SWAP1 POP PUSH2 0x9C8 DUP2 PUSH2 0xFA8 JUMP JUMPDEST SWAP3 SWAP2 POP POP JUMP JUMPDEST PUSH1 0x0 DUP2 MLOAD SWAP1 POP PUSH2 0x9DD DUP2 PUSH2 0xFA8 JUMP JUMPDEST SWAP3 SWAP2 POP POP JUMP JUMPDEST PUSH1 0x0 PUSH1 0x20 DUP3 DUP5 SUB SLT ISZERO PUSH2 0x9F9 JUMPI PUSH2 0x9F8 PUSH2 0xE59 JUMP JUMPDEST JUMPDEST PUSH1 0x0 PUSH2 0xA07 DUP5 DUP3 DUP6 ADD PUSH2 0x98F JUMP JUMPDEST SWAP2 POP POP SWAP3 SWAP2 POP POP JUMP JUMPDEST PUSH1 0x0 PUSH1 0x20 DUP3 DUP5 SUB SLT ISZERO PUSH2 0xA26 JUMPI PUSH2 0xA25 PUSH2 0xE59 JUMP JUMPDEST JUMPDEST PUSH1 0x0 PUSH2 0xA34 DUP5 DUP3 DUP6 ADD PUSH2 0x9A4 JUMP JUMPDEST SWAP2 POP POP SWAP3 SWAP2 POP POP JUMP JUMPDEST PUSH1 0x0 PUSH1 0x20 DUP3 DUP5 SUB SLT ISZERO PUSH2 0xA53 JUMPI PUSH2 0xA52 PUSH2 0xE59 JUMP JUMPDEST JUMPDEST PUSH1 0x0 PUSH2 0xA61 DUP5 DUP3 DUP6 ADD PUSH2 0x9B9 JUMP JUMPDEST SWAP2 POP POP SWAP3 SWAP2 POP POP JUMP JUMPDEST PUSH1 0x0 PUSH1 0x20 DUP3 DUP5 SUB SLT ISZERO PUSH2 0xA80 JUMPI PUSH2 0xA7F PUSH2 0xE59 JUMP JUMPDEST JUMPDEST PUSH1 0x0 PUSH2 0xA8E DUP5 DUP3 DUP6 ADD PUSH2 0x9CE JUMP JUMPDEST SWAP2 POP POP SWAP3 SWAP2 POP POP JUMP JUMPDEST PUSH2 0xAA0 DUP2 PUSH2 0xDE2 JUMP JUMPDEST DUP3 MSTORE POP POP JUMP JUMPDEST PUSH2 0xAAF DUP2 PUSH2 0xDE2 JUMP JUMPDEST DUP3 MSTORE POP POP JUMP JUMPDEST PUSH2 0xABE DUP2 PUSH2 0xDF4 JUMP JUMPDEST DUP3 MSTORE POP POP JUMP JUMPDEST PUSH1 0x0 PUSH2 0xAD1 PUSH1 0x1D DUP4 PUSH2 0xD7B JUMP JUMPDEST SWAP2 POP PUSH2 0xADC DUP3 PUSH2 0xE5E JUMP JUMPDEST PUSH1 0x20 DUP3 ADD SWAP1 POP SWAP2 SWAP1 POP JUMP JUMPDEST PUSH1 0x0 PUSH2 0xAF4 PUSH1 0x26 DUP4 PUSH2 0xD7B JUMP JUMPDEST SWAP2 POP PUSH2 0xAFF DUP3 PUSH2 0xE87 JUMP JUMPDEST PUSH1 0x40 DUP3 ADD SWAP1 POP SWAP2 SWAP1 POP JUMP JUMPDEST PUSH1 0x0 PUSH2 0xB17 PUSH1 0xF DUP4 PUSH2 0xD7B JUMP JUMPDEST SWAP2 POP PUSH2 0xB22 DUP3 PUSH2 0xED6 JUMP JUMPDEST PUSH1 0x20 DUP3 ADD SWAP1 POP SWAP2 SWAP1 POP JUMP JUMPDEST PUSH1 0x0 PUSH2 0xB3A PUSH1 0x16 DUP4 PUSH2 0xD7B JUMP JUMPDEST SWAP2 POP PUSH2 0xB45 DUP3 PUSH2 0xEFF JUMP JUMPDEST PUSH1 0x20 DUP3 ADD SWAP1 POP SWAP2 SWAP1 POP JUMP JUMPDEST PUSH1 0x0 PUSH2 0xB5D PUSH1 0x19 DUP4 PUSH2 0xD7B JUMP JUMPDEST SWAP2 POP PUSH2 0xB68 DUP3 PUSH2 0xF28 JUMP JUMPDEST PUSH1 0x20 DUP3 ADD SWAP1 POP SWAP2 SWAP1 POP JUMP JUMPDEST PUSH1 0x0 PUSH2 0xB80 PUSH1 0x20 DUP4 PUSH2 0xD7B JUMP JUMPDEST SWAP2 POP PUSH2 0xB8B DUP3 PUSH2 0xF51 JUMP JUMPDEST PUSH1 0x20 DUP3 ADD SWAP1 POP SWAP2 SWAP1 POP JUMP JUMPDEST PUSH1 0x80 DUP3 ADD PUSH1 0x0 DUP3 ADD MLOAD PUSH2 0xBAC PUSH1 0x0 DUP6 ADD DUP3 PUSH2 0xA97 JUMP JUMPDEST POP PUSH1 0x20 DUP3 ADD MLOAD PUSH2 0xBBF PUSH1 0x20 DUP6 ADD DUP3 PUSH2 0xBEB JUMP JUMPDEST POP PUSH1 0x40 DUP3 ADD MLOAD PUSH2 0xBD2 PUSH1 0x40 DUP6 ADD DUP3 PUSH2 0xBEB JUMP JUMPDEST POP PUSH1 0x60 DUP3 ADD MLOAD PUSH2 0xBE5 PUSH1 0x60 DUP6 ADD DUP3 PUSH2 0xBEB JUMP JUMPDEST POP POP POP POP JUMP JUMPDEST PUSH2 0xBF4 DUP2 PUSH2 0xE20 JUMP JUMPDEST DUP3 MSTORE POP POP JUMP JUMPDEST PUSH2 0xC03 DUP2 PUSH2 0xE20 JUMP JUMPDEST DUP3 MSTORE POP POP JUMP JUMPDEST PUSH1 0x0 PUSH1 0x20 DUP3 ADD SWAP1 POP PUSH2 0xC1E PUSH1 0x0 DUP4 ADD DUP5 PUSH2 0xAA6 JUMP JUMPDEST SWAP3 SWAP2 POP POP JUMP JUMPDEST PUSH1 0x0 PUSH1 0x60 DUP3 ADD SWAP1 POP PUSH2 0xC39 PUSH1 0x0 DUP4 ADD DUP7 PUSH2 0xAA6 JUMP JUMPDEST PUSH2 0xC46 PUSH1 0x20 DUP4 ADD DUP6 PUSH2 0xAA6 JUMP JUMPDEST PUSH2 0xC53 PUSH1 0x40 DUP4 ADD DUP5 PUSH2 0xBFA JUMP JUMPDEST SWAP5 SWAP4 POP POP POP POP JUMP JUMPDEST PUSH1 0x0 PUSH1 0xE0 DUP3 ADD SWAP1 POP PUSH2 0xC70 PUSH1 0x0 DUP4 ADD DUP8 PUSH2 0xAA6 JUMP JUMPDEST PUSH2 0xC7D PUSH1 0x20 DUP4 ADD DUP7 PUSH2 0xBFA JUMP JUMPDEST PUSH2 0xC8A PUSH1 0x40 DUP4 ADD DUP6 PUSH2 0xB96 JUMP JUMPDEST PUSH2 0xC97 PUSH1 0xC0 DUP4 ADD DUP5 PUSH2 0xBFA JUMP JUMPDEST SWAP6 SWAP5 POP POP POP POP POP JUMP JUMPDEST PUSH1 0x0 PUSH1 0x20 DUP3 ADD SWAP1 POP PUSH2 0xCB5 PUSH1 0x0 DUP4 ADD DUP5 PUSH2 0xAB5 JUMP JUMPDEST SWAP3 SWAP2 POP POP JUMP JUMPDEST PUSH1 0x0 PUSH1 0x20 DUP3 ADD SWAP1 POP DUP2 DUP2 SUB PUSH1 0x0 DUP4 ADD MSTORE PUSH2 0xCD4 DUP2 PUSH2 0xAC4 JUMP JUMPDEST SWAP1 POP SWAP2 SWAP1 POP JUMP JUMPDEST PUSH1 0x0 PUSH1 0x20 DUP3 ADD SWAP1 POP DUP2 DUP2 SUB PUSH1 0x0 DUP4 ADD MSTORE PUSH2 0xCF4 DUP2 PUSH2 0xAE7 JUMP JUMPDEST SWAP1 POP SWAP2 SWAP1 POP JUMP JUMPDEST PUSH1 0x0 PUSH1 0x20 DUP3 ADD SWAP1 POP DUP2 DUP2 SUB PUSH1 0x0 DUP4 ADD MSTORE PUSH2 0xD14 DUP2 PUSH2 0xB0A JUMP JUMPDEST SWAP1 POP SWAP2 SWAP1 POP JUMP JUMPDEST PUSH1 0x0 PUSH1 0x20 DUP3 ADD SWAP1 POP DUP2 DUP2 SUB PUSH1 0x0 DUP4 ADD MSTORE PUSH2 0xD34 DUP2 PUSH2 0xB2D JUMP JUMPDEST SWAP1 POP SWAP2 SWAP1 POP JUMP JUMPDEST PUSH1 0x0 PUSH1 0x20 DUP3 ADD SWAP1 POP DUP2 DUP2 SUB PUSH1 0x0 DUP4 ADD MSTORE PUSH2 0xD54 DUP2 PUSH2 0xB50 JUMP JUMPDEST SWAP1 POP SWAP2 SWAP1 POP JUMP JUMPDEST PUSH1 0x0 PUSH1 0x20 DUP3 ADD SWAP1 POP DUP2 DUP2 SUB PUSH1 0x0 DUP4 ADD MSTORE PUSH2 0xD74 DUP2 PUSH2 0xB73 JUMP JUMPDEST SWAP1 POP SWAP2 SWAP1 POP JUMP JUMPDEST PUSH1 0x0 DUP3 DUP3 MSTORE PUSH1 0x20 DUP3 ADD SWAP1 POP SWAP3 SWAP2 POP POP JUMP JUMPDEST PUSH1 0x0 PUSH2 0xD97 DUP3 PUSH2 0xE20 JUMP JUMPDEST SWAP2 POP PUSH2 0xDA2 DUP4 PUSH2 0xE20 JUMP JUMPDEST SWAP3 POP DUP3 PUSH32 0xFFFFFFFFFFFFFFFFFFFFFFFFFFFFFFFFFFFFFFFFFFFFFFFFFFFFFFFFFFFFFFFF SUB DUP3 GT ISZERO PUSH2 0xDD7 JUMPI PUSH2 0xDD6 PUSH2 0xE2A JUMP JUMPDEST JUMPDEST DUP3 DUP3 ADD SWAP1 POP SWAP3 SWAP2 POP POP JUMP JUMPDEST PUSH1 0x0 PUSH2 0xDED DUP3 PUSH2 0xE00 JUMP JUMPDEST SWAP1 POP SWAP2 SWAP1 POP JUMP JUMPDEST PUSH1 0x0 DUP2 ISZERO ISZERO SWAP1 POP SWAP2 SWAP1 POP JUMP JUMPDEST PUSH1 0x0 PUSH20 0xFFFFFFFFFFFFFFFFFFFFFFFFFFFFFFFFFFFFFFFF DUP3 AND SWAP1 POP SWAP2 SWAP1 POP JUMP JUMPDEST PUSH1 0x0 DUP2 SWAP1 POP SWAP2 SWAP1 POP JUMP JUMPDEST PUSH32 0x4E487B7100000000000000000000000000000000000000000000000000000000 PUSH1 0x0 MSTORE PUSH1 0x11 PUSH1 0x4 MSTORE PUSH1 0x24 PUSH1 0x0 REVERT JUMPDEST PUSH1 0x0 DUP1 REVERT JUMPDEST PUSH32 0x43616C6C2057696C6C204272656368204D6178696D756D205374616B65000000 PUSH1 0x0 DUP3 ADD MSTORE POP JUMP JUMPDEST PUSH32 0x4F776E61626C653A206E6577206F776E657220697320746865207A65726F2061 PUSH1 0x0 DUP3 ADD MSTORE PUSH32 0x6464726573730000000000000000000000000000000000000000000000000000 PUSH1 0x20 DUP3 ADD MSTORE POP JUMP JUMPDEST PUSH32 0x496E76616C69642042616C616E63650000000000000000000000000000000000 PUSH1 0x0 DUP3 ADD MSTORE POP JUMP JUMPDEST PUSH32 0x5374616B696E67204973204E6F7420456E61626C656400000000000000000000 PUSH1 0x0 DUP3 ADD MSTORE POP JUMP JUMPDEST PUSH32 0x4D696E696D756D205374616B65204E6F74205265616368656400000000000000 PUSH1 0x0 DUP3 ADD MSTORE POP JUMP JUMPDEST PUSH32 0x4F776E61626C653A2063616C6C6572206973206E6F7420746865206F776E6572 PUSH1 0x0 DUP3 ADD MSTORE POP JUMP JUMPDEST PUSH2 0xF83 DUP2 PUSH2 0xDE2 JUMP JUMPDEST DUP2 EQ PUSH2 0xF8E JUMPI PUSH1 0x0 DUP1 REVERT JUMPDEST POP JUMP JUMPDEST PUSH2 0xF9A DUP2 PUSH2 0xDF4 JUMP JUMPDEST DUP2 EQ PUSH2 0xFA5 JUMPI PUSH1 0x0 DUP1 REVERT JUMPDEST POP JUMP JUMPDEST PUSH2 0xFB1 DUP2 PUSH2 0xE20 JUMP JUMPDEST DUP2 EQ PUSH2 0xFBC JUMPI PUSH1 0x0 DUP1 REVERT JUMPDEST POP JUMP INVALID LOG2 PUSH5 0x6970667358 0x22 SLT KECCAK256 0xBC 0x4A PUSH19 0x924AF3190D9C090DF4865235E45DA6308AE1E0 DUP5 PUSH1 0x5E 0x22 JUMPDEST CHAINID 0x26 0x4A POP PUSH19 0x64736F6C634300080700330000000000000000 "
				},
				"gasEstimates": {
					"creation": {
						"codeDepositCost": "817000",
						"executionCost": "infinite",
						"totalCost": "infinite"
					},
					"external": {
						"": "152",
						"SetStakingToken(address)": "27006",
						"StakeToken(uint256)": "infinite",
						"StakingEnabled()": "2493",
						"ToggleStaking()": "26551",
						"owner()": "2567",
						"renounceOwnership()": "30397",
						"transferOwnership(address)": "30789"
					}
				},
				"methodIdentifiers": {
					"SetStakingToken(address)": "db568922",
					"StakeToken(uint256)": "ad95b1c6",
					"StakingEnabled()": "da917aea",
					"ToggleStaking()": "64cb560c",
					"owner()": "8da5cb5b",
					"renounceOwnership()": "715018a6",
					"transferOwnership(address)": "f2fde38b"
				}
			},
			"storageLayout": {
				"storage": [
					{
						"astId": 7,
						"contract": "Solidity Part/contracts/staking.sol:StakingContract",
						"label": "_owner",
						"offset": 0,
						"slot": "0",
						"type": "t_address"
					},
					{
						"astId": 161,
						"contract": "Solidity Part/contracts/staking.sol:StakingContract",
						"label": "StakingToken",
						"offset": 0,
						"slot": "1",
						"type": "t_address"
					},
					{
						"astId": 164,
						"contract": "Solidity Part/contracts/staking.sol:StakingContract",
						"label": "currentID",
						"offset": 0,
						"slot": "2",
						"type": "t_uint256"
					},
					{
						"astId": 167,
						"contract": "Solidity Part/contracts/staking.sol:StakingContract",
						"label": "StakingEnabled",
						"offset": 0,
						"slot": "3",
						"type": "t_bool"
					},
					{
						"astId": 181,
						"contract": "Solidity Part/contracts/staking.sol:StakingContract",
						"label": "StakingHistory",
						"offset": 0,
						"slot": "4",
						"type": "t_mapping(t_uint256,t_struct(Stake)176_storage)"
					},
					{
						"astId": 185,
						"contract": "Solidity Part/contracts/staking.sol:StakingContract",
						"label": "StakingBalances",
						"offset": 0,
						"slot": "5",
						"type": "t_mapping(t_address,t_uint256)"
					}
				],
				"types": {
					"t_address": {
						"encoding": "inplace",
						"label": "address",
						"numberOfBytes": "20"
					},
					"t_bool": {
						"encoding": "inplace",
						"label": "bool",
						"numberOfBytes": "1"
					},
					"t_mapping(t_address,t_uint256)": {
						"encoding": "mapping",
						"key": "t_address",
						"label": "mapping(address => uint256)",
						"numberOfBytes": "32",
						"value": "t_uint256"
					},
					"t_mapping(t_uint256,t_struct(Stake)176_storage)": {
						"encoding": "mapping",
						"key": "t_uint256",
						"label": "mapping(uint256 => struct StakingContract.Stake)",
						"numberOfBytes": "32",
						"value": "t_struct(Stake)176_storage"
					},
					"t_struct(Stake)176_storage": {
						"encoding": "inplace",
						"label": "struct StakingContract.Stake",
						"members": [
							{
								"astId": 169,
								"contract": "Solidity Part/contracts/staking.sol:StakingContract",
								"label": "owner",
								"offset": 0,
								"slot": "0",
								"type": "t_address"
							},
							{
								"astId": 171,
								"contract": "Solidity Part/contracts/staking.sol:StakingContract",
								"label": "amount",
								"offset": 0,
								"slot": "1",
								"type": "t_uint256"
							},
							{
								"astId": 173,
								"contract": "Solidity Part/contracts/staking.sol:StakingContract",
								"label": "StakeTime",
								"offset": 0,
								"slot": "2",
								"type": "t_uint256"
							},
							{
								"astId": 175,
								"contract": "Solidity Part/contracts/staking.sol:StakingContract",
								"label": "UnstakeTime",
								"offset": 0,
								"slot": "3",
								"type": "t_uint256"
							}
						],
						"numberOfBytes": "128"
					},
					"t_uint256": {
						"encoding": "inplace",
						"label": "uint256",
						"numberOfBytes": "32"
					}
				}
			},
			"userdoc": {
				"kind": "user",
				"methods": {},
				"version": 1
			}
		}
	}
}