{
	"Solidity Part/contracts/staking.sol": {
		"StakingContract": {
			"abi": [
				{
					"anonymous": false,
					"inputs": [
						{
							"indexed": false,
							"internalType": "address",
							"name": "staker",
							"type": "address"
						},
						{
							"indexed": false,
							"internalType": "uint256",
							"name": "id",
							"type": "uint256"
						},
						{
							"components": [
								{
									"internalType": "address",
									"name": "owner",
									"type": "address"
								},
								{
									"internalType": "uint256",
									"name": "amount",
									"type": "uint256"
								},
								{
									"internalType": "uint256",
									"name": "EventTime",
									"type": "uint256"
								},
								{
									"internalType": "uint8",
									"name": "eventType",
									"type": "uint8"
								}
							],
							"indexed": false,
							"internalType": "struct StakingContract.Stake",
							"name": "stake",
							"type": "tuple"
						},
						{
							"indexed": false,
							"internalType": "uint256",
							"name": "blockTime",
							"type": "uint256"
						}
					],
					"name": "NewStake",
					"type": "event"
				},
				{
					"anonymous": false,
					"inputs": [
						{
							"indexed": true,
							"internalType": "address",
							"name": "previousOwner",
							"type": "address"
						},
						{
							"indexed": true,
							"internalType": "address",
							"name": "newOwner",
							"type": "address"
						}
					],
					"name": "OwnershipTransferred",
					"type": "event"
				},
				{
					"anonymous": false,
					"inputs": [
						{
							"indexed": false,
							"internalType": "address",
							"name": "staker",
							"type": "address"
						},
						{
							"indexed": false,
							"internalType": "uint256",
							"name": "id",
							"type": "uint256"
						},
						{
							"components": [
								{
									"internalType": "address",
									"name": "owner",
									"type": "address"
								},
								{
									"internalType": "uint256",
									"name": "amount",
									"type": "uint256"
								},
								{
									"internalType": "uint256",
									"name": "EventTime",
									"type": "uint256"
								},
								{
									"internalType": "uint8",
									"name": "eventType",
									"type": "uint8"
								}
							],
							"indexed": false,
							"internalType": "struct StakingContract.Stake",
							"name": "stake",
							"type": "tuple"
						},
						{
							"indexed": false,
							"internalType": "uint256",
							"name": "blockTime",
							"type": "uint256"
						}
					],
					"name": "Unstake",
					"type": "event"
				},
				{
					"stateMutability": "payable",
					"type": "fallback"
				},
				{
					"inputs": [],
					"name": "GetStakingHistory",
					"outputs": [
						{
							"components": [
								{
									"internalType": "address",
									"name": "owner",
									"type": "address"
								},
								{
									"internalType": "uint256",
									"name": "amount",
									"type": "uint256"
								},
								{
									"internalType": "uint256",
									"name": "EventTime",
									"type": "uint256"
								},
								{
									"internalType": "uint8",
									"name": "eventType",
									"type": "uint8"
								}
							],
							"internalType": "struct StakingContract.Stake[]",
							"name": "",
							"type": "tuple[]"
						}
					],
					"stateMutability": "view",
					"type": "function"
				},
				{
					"inputs": [
						{
							"internalType": "address",
							"name": "_token",
							"type": "address"
						}
					],
					"name": "SetStakingToken",
					"outputs": [],
					"stateMutability": "nonpayable",
					"type": "function"
				},
				{
					"inputs": [
						{
							"internalType": "uint256",
							"name": "amount",
							"type": "uint256"
						}
					],
					"name": "StakeToken",
					"outputs": [],
					"stateMutability": "nonpayable",
					"type": "function"
				},
				{
					"inputs": [],
					"name": "StakingEnabled",
					"outputs": [
						{
							"internalType": "bool",
							"name": "",
							"type": "bool"
						}
					],
					"stateMutability": "view",
					"type": "function"
				},
				{
					"inputs": [],
					"name": "ToggleStaking",
					"outputs": [],
					"stateMutability": "nonpayable",
					"type": "function"
				},
				{
					"inputs": [
						{
							"internalType": "uint256",
							"name": "amount",
							"type": "uint256"
						}
					],
					"name": "UnstakeToken",
					"outputs": [],
					"stateMutability": "nonpayable",
					"type": "function"
				},
				{
					"inputs": [],
					"name": "owner",
					"outputs": [
						{
							"internalType": "address",
							"name": "",
							"type": "address"
						}
					],
					"stateMutability": "view",
					"type": "function"
				},
				{
					"inputs": [],
					"name": "renounceOwnership",
					"outputs": [],
					"stateMutability": "nonpayable",
					"type": "function"
				},
				{
					"inputs": [
						{
							"internalType": "address",
							"name": "newOwner",
							"type": "address"
						}
					],
					"name": "transferOwnership",
					"outputs": [],
					"stateMutability": "nonpayable",
					"type": "function"
				},
				{
					"stateMutability": "payable",
					"type": "receive"
				}
			],
			"devdoc": {
				"kind": "dev",
				"methods": {
					"owner()": {
						"details": "Returns the address of the current owner."
					},
					"renounceOwnership()": {
						"details": "Leaves the contract without owner. It will not be possible to call `onlyOwner` functions anymore. Can only be called by the current owner. NOTE: Renouncing ownership will leave the contract without an owner, thereby removing any functionality that is only available to the owner."
					},
					"transferOwnership(address)": {
						"details": "Transfers ownership of the contract to a new account (`newOwner`). Can only be called by the current owner."
					}
				},
				"version": 1
			},
			"evm": {
				"assembly": "    /* \"Solidity Part/contracts/staking.sol\":386:5044  contract StakingContract is Ownable{... */\n  mstore(0x40, 0x80)\n    /* \"Solidity Part/contracts/staking.sol\":484:485  0 */\n  0x00\n    /* \"Solidity Part/contracts/staking.sol\":464:485  uint256 currentID = 0 */\n  0x02\n  sstore\n    /* \"Solidity Part/contracts/staking.sol\":520:525  false */\n  0x00\n    /* \"Solidity Part/contracts/staking.sol\":491:525  bool public StakingEnabled = false */\n  0x03\n  exp(0x0100, 0x00)\n  dup2\n  sload\n  dup2\n  0xff\n  mul\n  not\n  and\n  swap1\n  dup4\n  iszero\n  iszero\n  mul\n  or\n  swap1\n  sstore\n  pop\n    /* \"Solidity Part/contracts/staking.sol\":386:5044  contract StakingContract is Ownable{... */\n  callvalue\n  dup1\n  iszero\n  tag_1\n  jumpi\n  0x00\n  dup1\n  revert\ntag_1:\n  pop\n    /* \"@openzeppelin/contracts/access/Ownable.sol\":921:953  _transferOwnership(_msgSender()) */\n  tag_4\n    /* \"@openzeppelin/contracts/access/Ownable.sol\":940:952  _msgSender() */\n  tag_5\n    /* \"@openzeppelin/contracts/access/Ownable.sol\":940:950  _msgSender */\n  shl(0x20, tag_6)\n    /* \"@openzeppelin/contracts/access/Ownable.sol\":940:952  _msgSender() */\n  0x20\n  shr\n  jump\t// in\ntag_5:\n    /* \"@openzeppelin/contracts/access/Ownable.sol\":921:939  _transferOwnership */\n  shl(0x20, tag_7)\n    /* \"@openzeppelin/contracts/access/Ownable.sol\":921:953  _transferOwnership(_msgSender()) */\n  0x20\n  shr\n  jump\t// in\ntag_4:\n    /* \"Solidity Part/contracts/staking.sol\":386:5044  contract StakingContract is Ownable{... */\n  jump(tag_8)\n    /* \"@openzeppelin/contracts/utils/Context.sol\":640:736  function _msgSender() internal view virtual returns (address) {... */\ntag_6:\n    /* \"@openzeppelin/contracts/utils/Context.sol\":693:700  address */\n  0x00\n    /* \"@openzeppelin/contracts/utils/Context.sol\":719:729  msg.sender */\n  caller\n    /* \"@openzeppelin/contracts/utils/Context.sol\":712:729  return msg.sender */\n  swap1\n  pop\n    /* \"@openzeppelin/contracts/utils/Context.sol\":640:736  function _msgSender() internal view virtual returns (address) {... */\n  swap1\n  jump\t// out\n    /* \"@openzeppelin/contracts/access/Ownable.sol\":2270:2457  function _transferOwnership(address newOwner) internal virtual {... */\ntag_7:\n    /* \"@openzeppelin/contracts/access/Ownable.sol\":2343:2359  address oldOwner */\n  0x00\n    /* \"@openzeppelin/contracts/access/Ownable.sol\":2362:2368  _owner */\n  dup1\n  0x00\n  swap1\n  sload\n  swap1\n  0x0100\n  exp\n  swap1\n  div\n  0xffffffffffffffffffffffffffffffffffffffff\n  and\n    /* \"@openzeppelin/contracts/access/Ownable.sol\":2343:2368  address oldOwner = _owner */\n  swap1\n  pop\n    /* \"@openzeppelin/contracts/access/Ownable.sol\":2387:2395  newOwner */\n  dup2\n    /* \"@openzeppelin/contracts/access/Ownable.sol\":2378:2384  _owner */\n  0x00\n  dup1\n    /* \"@openzeppelin/contracts/access/Ownable.sol\":2378:2395  _owner = newOwner */\n  0x0100\n  exp\n  dup2\n  sload\n  dup2\n  0xffffffffffffffffffffffffffffffffffffffff\n  mul\n  not\n  and\n  swap1\n  dup4\n  0xffffffffffffffffffffffffffffffffffffffff\n  and\n  mul\n  or\n  swap1\n  sstore\n  pop\n    /* \"@openzeppelin/contracts/access/Ownable.sol\":2441:2449  newOwner */\n  dup2\n    /* \"@openzeppelin/contracts/access/Ownable.sol\":2410:2450  OwnershipTransferred(oldOwner, newOwner) */\n  0xffffffffffffffffffffffffffffffffffffffff\n  and\n    /* \"@openzeppelin/contracts/access/Ownable.sol\":2431:2439  oldOwner */\n  dup2\n    /* \"@openzeppelin/contracts/access/Ownable.sol\":2410:2450  OwnershipTransferred(oldOwner, newOwner) */\n  0xffffffffffffffffffffffffffffffffffffffff\n  and\n  0x8be0079c531659141344cd1fd0a4f28419497f9722a3daafe3b4186f6b6457e0\n  mload(0x40)\n  mload(0x40)\n  dup1\n  swap2\n  sub\n  swap1\n  log3\n    /* \"@openzeppelin/contracts/access/Ownable.sol\":2333:2457  {... */\n  pop\n    /* \"@openzeppelin/contracts/access/Ownable.sol\":2270:2457  function _transferOwnership(address newOwner) internal virtual {... */\n  pop\n  jump\t// out\n    /* \"Solidity Part/contracts/staking.sol\":386:5044  contract StakingContract is Ownable{... */\ntag_8:\n  dataSize(sub_0)\n  dup1\n  dataOffset(sub_0)\n  0x00\n  codecopy\n  0x00\n  return\nstop\n\nsub_0: assembly {\n        /* \"Solidity Part/contracts/staking.sol\":386:5044  contract StakingContract is Ownable{... */\n      mstore(0x40, 0x80)\n      jumpi(tag_1, lt(calldatasize, 0x04))\n      shr(0xe0, calldataload(0x00))\n      dup1\n      0xb0adfa09\n      gt\n      tag_12\n      jumpi\n      dup1\n      0xb0adfa09\n      eq\n      tag_7\n      jumpi\n      dup1\n      0xda917aea\n      eq\n      tag_8\n      jumpi\n      dup1\n      0xdb568922\n      eq\n      tag_9\n      jumpi\n      dup1\n      0xdf6a8a15\n      eq\n      tag_10\n      jumpi\n      dup1\n      0xf2fde38b\n      eq\n      tag_11\n      jumpi\n      jump(tag_2)\n    tag_12:\n      dup1\n      0x64cb560c\n      eq\n      tag_3\n      jumpi\n      dup1\n      0x715018a6\n      eq\n      tag_4\n      jumpi\n      dup1\n      0x8da5cb5b\n      eq\n      tag_5\n      jumpi\n      dup1\n      0xad95b1c6\n      eq\n      tag_6\n      jumpi\n      jump(tag_2)\n    tag_1:\n      jumpi(tag_2, calldatasize)\n      stop\n    tag_2:\n      stop\n        /* \"Solidity Part/contracts/staking.sol\":1392:1483  function ToggleStaking() public onlyOwner {... */\n    tag_3:\n      callvalue\n      dup1\n      iszero\n      tag_17\n      jumpi\n      0x00\n      dup1\n      revert\n    tag_17:\n      pop\n      tag_18\n      tag_19\n      jump\t// in\n    tag_18:\n      stop\n        /* \"@openzeppelin/contracts/access/Ownable.sol\":1668:1769  function renounceOwnership() public virtual onlyOwner {... */\n    tag_4:\n      callvalue\n      dup1\n      iszero\n      tag_20\n      jumpi\n      0x00\n      dup1\n      revert\n    tag_20:\n      pop\n      tag_21\n      tag_22\n      jump\t// in\n    tag_21:\n      stop\n        /* \"@openzeppelin/contracts/access/Ownable.sol\":1036:1121  function owner() public view virtual returns (address) {... */\n    tag_5:\n      callvalue\n      dup1\n      iszero\n      tag_23\n      jumpi\n      0x00\n      dup1\n      revert\n    tag_23:\n      pop\n      tag_24\n      tag_25\n      jump\t// in\n    tag_24:\n      mload(0x40)\n      tag_26\n      swap2\n      swap1\n      tag_27\n      jump\t// in\n    tag_26:\n      mload(0x40)\n      dup1\n      swap2\n      sub\n      swap1\n      return\n        /* \"Solidity Part/contracts/staking.sol\":1545:2331  function StakeToken(uint256 amount) public {... */\n    tag_6:\n      callvalue\n      dup1\n      iszero\n      tag_28\n      jumpi\n      0x00\n      dup1\n      revert\n    tag_28:\n      pop\n      tag_29\n      0x04\n      dup1\n      calldatasize\n      sub\n      dup2\n      add\n      swap1\n      tag_30\n      swap2\n      swap1\n      tag_31\n      jump\t// in\n    tag_30:\n      tag_32\n      jump\t// in\n    tag_29:\n      stop\n        /* \"Solidity Part/contracts/staking.sol\":2897:3153  function GetStakingHistory() public view returns(Stake[] memory) {... */\n    tag_7:\n      callvalue\n      dup1\n      iszero\n      tag_33\n      jumpi\n      0x00\n      dup1\n      revert\n    tag_33:\n      pop\n      tag_34\n      tag_35\n      jump\t// in\n    tag_34:\n      mload(0x40)\n      tag_36\n      swap2\n      swap1\n      tag_37\n      jump\t// in\n    tag_36:\n      mload(0x40)\n      dup1\n      swap2\n      sub\n      swap1\n      return\n        /* \"Solidity Part/contracts/staking.sol\":491:525  bool public StakingEnabled = false */\n    tag_8:\n      callvalue\n      dup1\n      iszero\n      tag_38\n      jumpi\n      0x00\n      dup1\n      revert\n    tag_38:\n      pop\n      tag_39\n      tag_40\n      jump\t// in\n    tag_39:\n      mload(0x40)\n      tag_41\n      swap2\n      swap1\n      tag_42\n      jump\t// in\n    tag_41:\n      mload(0x40)\n      dup1\n      swap2\n      sub\n      swap1\n      return\n        /* \"Solidity Part/contracts/staking.sol\":1286:1382  function SetStakingToken(address _token) public onlyOwner {... */\n    tag_9:\n      callvalue\n      dup1\n      iszero\n      tag_43\n      jumpi\n      0x00\n      dup1\n      revert\n    tag_43:\n      pop\n      tag_44\n      0x04\n      dup1\n      calldatasize\n      sub\n      dup2\n      add\n      swap1\n      tag_45\n      swap2\n      swap1\n      tag_46\n      jump\t// in\n    tag_45:\n      tag_47\n      jump\t// in\n    tag_44:\n      stop\n        /* \"Solidity Part/contracts/staking.sol\":2389:2891  function UnstakeToken(uint256 amount) public {... */\n    tag_10:\n      callvalue\n      dup1\n      iszero\n      tag_48\n      jumpi\n      0x00\n      dup1\n      revert\n    tag_48:\n      pop\n      tag_49\n      0x04\n      dup1\n      calldatasize\n      sub\n      dup2\n      add\n      swap1\n      tag_50\n      swap2\n      swap1\n      tag_31\n      jump\t// in\n    tag_50:\n      tag_51\n      jump\t// in\n    tag_49:\n      stop\n        /* \"@openzeppelin/contracts/access/Ownable.sol\":1918:2116  function transferOwnership(address newOwner) public virtual onlyOwner {... */\n    tag_11:\n      callvalue\n      dup1\n      iszero\n      tag_52\n      jumpi\n      0x00\n      dup1\n      revert\n    tag_52:\n      pop\n      tag_53\n      0x04\n      dup1\n      calldatasize\n      sub\n      dup2\n      add\n      swap1\n      tag_54\n      swap2\n      swap1\n      tag_46\n      jump\t// in\n    tag_54:\n      tag_55\n      jump\t// in\n    tag_53:\n      stop\n        /* \"Solidity Part/contracts/staking.sol\":1392:1483  function ToggleStaking() public onlyOwner {... */\n    tag_19:\n        /* \"@openzeppelin/contracts/access/Ownable.sol\":1259:1271  _msgSender() */\n      tag_57\n        /* \"@openzeppelin/contracts/access/Ownable.sol\":1259:1269  _msgSender */\n      tag_58\n        /* \"@openzeppelin/contracts/access/Ownable.sol\":1259:1271  _msgSender() */\n      jump\t// in\n    tag_57:\n        /* \"@openzeppelin/contracts/access/Ownable.sol\":1248:1271  owner() == _msgSender() */\n      0xffffffffffffffffffffffffffffffffffffffff\n      and\n        /* \"@openzeppelin/contracts/access/Ownable.sol\":1248:1255  owner() */\n      tag_59\n        /* \"@openzeppelin/contracts/access/Ownable.sol\":1248:1253  owner */\n      tag_25\n        /* \"@openzeppelin/contracts/access/Ownable.sol\":1248:1255  owner() */\n      jump\t// in\n    tag_59:\n        /* \"@openzeppelin/contracts/access/Ownable.sol\":1248:1271  owner() == _msgSender() */\n      0xffffffffffffffffffffffffffffffffffffffff\n      and\n      eq\n        /* \"@openzeppelin/contracts/access/Ownable.sol\":1240:1308  require(owner() == _msgSender(), \"Ownable: caller is not the owner\") */\n      tag_60\n      jumpi\n      mload(0x40)\n      0x08c379a000000000000000000000000000000000000000000000000000000000\n      dup2\n      mstore\n      0x04\n      add\n      tag_61\n      swap1\n      tag_62\n      jump\t// in\n    tag_61:\n      mload(0x40)\n      dup1\n      swap2\n      sub\n      swap1\n      revert\n    tag_60:\n        /* \"Solidity Part/contracts/staking.sol\":1462:1476  StakingEnabled */\n      0x03\n      0x00\n      swap1\n      sload\n      swap1\n      0x0100\n      exp\n      swap1\n      div\n      0xff\n      and\n        /* \"Solidity Part/contracts/staking.sol\":1461:1476  !StakingEnabled */\n      iszero\n        /* \"Solidity Part/contracts/staking.sol\":1444:1458  StakingEnabled */\n      0x03\n      0x00\n        /* \"Solidity Part/contracts/staking.sol\":1444:1476  StakingEnabled = !StakingEnabled */\n      0x0100\n      exp\n      dup2\n      sload\n      dup2\n      0xff\n      mul\n      not\n      and\n      swap1\n      dup4\n      iszero\n      iszero\n      mul\n      or\n      swap1\n      sstore\n      pop\n        /* \"Solidity Part/contracts/staking.sol\":1392:1483  function ToggleStaking() public onlyOwner {... */\n      jump\t// out\n        /* \"@openzeppelin/contracts/access/Ownable.sol\":1668:1769  function renounceOwnership() public virtual onlyOwner {... */\n    tag_22:\n        /* \"@openzeppelin/contracts/access/Ownable.sol\":1259:1271  _msgSender() */\n      tag_65\n        /* \"@openzeppelin/contracts/access/Ownable.sol\":1259:1269  _msgSender */\n      tag_58\n        /* \"@openzeppelin/contracts/access/Ownable.sol\":1259:1271  _msgSender() */\n      jump\t// in\n    tag_65:\n        /* \"@openzeppelin/contracts/access/Ownable.sol\":1248:1271  owner() == _msgSender() */\n      0xffffffffffffffffffffffffffffffffffffffff\n      and\n        /* \"@openzeppelin/contracts/access/Ownable.sol\":1248:1255  owner() */\n      tag_66\n        /* \"@openzeppelin/contracts/access/Ownable.sol\":1248:1253  owner */\n      tag_25\n        /* \"@openzeppelin/contracts/access/Ownable.sol\":1248:1255  owner() */\n      jump\t// in\n    tag_66:\n        /* \"@openzeppelin/contracts/access/Ownable.sol\":1248:1271  owner() == _msgSender() */\n      0xffffffffffffffffffffffffffffffffffffffff\n      and\n      eq\n        /* \"@openzeppelin/contracts/access/Ownable.sol\":1240:1308  require(owner() == _msgSender(), \"Ownable: caller is not the owner\") */\n      tag_67\n      jumpi\n      mload(0x40)\n      0x08c379a000000000000000000000000000000000000000000000000000000000\n      dup2\n      mstore\n      0x04\n      add\n      tag_68\n      swap1\n      tag_62\n      jump\t// in\n    tag_68:\n      mload(0x40)\n      dup1\n      swap2\n      sub\n      swap1\n      revert\n    tag_67:\n        /* \"@openzeppelin/contracts/access/Ownable.sol\":1732:1762  _transferOwnership(address(0)) */\n      tag_70\n        /* \"@openzeppelin/contracts/access/Ownable.sol\":1759:1760  0 */\n      0x00\n        /* \"@openzeppelin/contracts/access/Ownable.sol\":1732:1750  _transferOwnership */\n      tag_71\n        /* \"@openzeppelin/contracts/access/Ownable.sol\":1732:1762  _transferOwnership(address(0)) */\n      jump\t// in\n    tag_70:\n        /* \"@openzeppelin/contracts/access/Ownable.sol\":1668:1769  function renounceOwnership() public virtual onlyOwner {... */\n      jump\t// out\n        /* \"@openzeppelin/contracts/access/Ownable.sol\":1036:1121  function owner() public view virtual returns (address) {... */\n    tag_25:\n        /* \"@openzeppelin/contracts/access/Ownable.sol\":1082:1089  address */\n      0x00\n        /* \"@openzeppelin/contracts/access/Ownable.sol\":1108:1114  _owner */\n      dup1\n      0x00\n      swap1\n      sload\n      swap1\n      0x0100\n      exp\n      swap1\n      div\n      0xffffffffffffffffffffffffffffffffffffffff\n      and\n        /* \"@openzeppelin/contracts/access/Ownable.sol\":1101:1114  return _owner */\n      swap1\n      pop\n        /* \"@openzeppelin/contracts/access/Ownable.sol\":1036:1121  function owner() public view virtual returns (address) {... */\n      swap1\n      jump\t// out\n        /* \"Solidity Part/contracts/staking.sol\":1545:2331  function StakeToken(uint256 amount) public {... */\n    tag_32:\n        /* \"Solidity Part/contracts/staking.sol\":1606:1620  StakingEnabled */\n      0x03\n      0x00\n      swap1\n      sload\n      swap1\n      0x0100\n      exp\n      swap1\n      div\n      0xff\n      and\n        /* \"Solidity Part/contracts/staking.sol\":1598:1647  require(StakingEnabled, \"Staking Is Not Enabled\") */\n      tag_74\n      jumpi\n      mload(0x40)\n      0x08c379a000000000000000000000000000000000000000000000000000000000\n      dup2\n      mstore\n      0x04\n      add\n      tag_75\n      swap1\n      tag_76\n      jump\t// in\n    tag_75:\n      mload(0x40)\n      dup1\n      swap2\n      sub\n      swap1\n      revert\n    tag_74:\n        /* \"Solidity Part/contracts/staking.sol\":1705:1719  1000000*10**18 */\n      0xd3c21bcecceda1000000\n        /* \"Solidity Part/contracts/staking.sol\":1695:1701  amount */\n      dup2\n        /* \"Solidity Part/contracts/staking.sol\":1665:1680  StakingBalances */\n      0x05\n        /* \"Solidity Part/contracts/staking.sol\":1665:1692  StakingBalances[msg.sender] */\n      0x00\n        /* \"Solidity Part/contracts/staking.sol\":1681:1691  msg.sender */\n      caller\n        /* \"Solidity Part/contracts/staking.sol\":1665:1692  StakingBalances[msg.sender] */\n      0xffffffffffffffffffffffffffffffffffffffff\n      and\n      0xffffffffffffffffffffffffffffffffffffffff\n      and\n      dup2\n      mstore\n      0x20\n      add\n      swap1\n      dup2\n      mstore\n      0x20\n      add\n      0x00\n      keccak256\n      sload\n        /* \"Solidity Part/contracts/staking.sol\":1665:1701  StakingBalances[msg.sender] + amount */\n      tag_77\n      swap2\n      swap1\n      tag_78\n      jump\t// in\n    tag_77:\n        /* \"Solidity Part/contracts/staking.sol\":1665:1719  StakingBalances[msg.sender] + amount <= 1000000*10**18 */\n      gt\n      iszero\n        /* \"Solidity Part/contracts/staking.sol\":1657:1744  require(StakingBalances[msg.sender] + amount <= 1000000*10**18, \"ERROR: MAXIMUM STAKE\") */\n      tag_79\n      jumpi\n      mload(0x40)\n      0x08c379a000000000000000000000000000000000000000000000000000000000\n      dup2\n      mstore\n      0x04\n      add\n      tag_80\n      swap1\n      tag_81\n      jump\t// in\n    tag_80:\n      mload(0x40)\n      dup1\n      swap2\n      sub\n      swap1\n      revert\n    tag_79:\n        /* \"Solidity Part/contracts/staking.sol\":1824:1833  10*10**18 */\n      0x8ac7230489e80000\n        /* \"Solidity Part/contracts/staking.sol\":1814:1820  amount */\n      dup2\n        /* \"Solidity Part/contracts/staking.sol\":1784:1799  StakingBalances */\n      0x05\n        /* \"Solidity Part/contracts/staking.sol\":1784:1811  StakingBalances[msg.sender] */\n      0x00\n        /* \"Solidity Part/contracts/staking.sol\":1800:1810  msg.sender */\n      caller\n        /* \"Solidity Part/contracts/staking.sol\":1784:1811  StakingBalances[msg.sender] */\n      0xffffffffffffffffffffffffffffffffffffffff\n      and\n      0xffffffffffffffffffffffffffffffffffffffff\n      and\n      dup2\n      mstore\n      0x20\n      add\n      swap1\n      dup2\n      mstore\n      0x20\n      add\n      0x00\n      keccak256\n      sload\n        /* \"Solidity Part/contracts/staking.sol\":1784:1820  StakingBalances[msg.sender] + amount */\n      tag_82\n      swap2\n      swap1\n      tag_78\n      jump\t// in\n    tag_82:\n        /* \"Solidity Part/contracts/staking.sol\":1784:1833  StakingBalances[msg.sender] + amount >= 10*10**18 */\n      lt\n      iszero\n        /* \"Solidity Part/contracts/staking.sol\":1776:1858  require(StakingBalances[msg.sender] + amount >= 10*10**18, \"ERROR: MINIMUM STAKE\") */\n      tag_83\n      jumpi\n      mload(0x40)\n      0x08c379a000000000000000000000000000000000000000000000000000000000\n      dup2\n      mstore\n      0x04\n      add\n      tag_84\n      swap1\n      tag_85\n      jump\t// in\n    tag_84:\n      mload(0x40)\n      dup1\n      swap2\n      sub\n      swap1\n      revert\n    tag_83:\n        /* \"Solidity Part/contracts/staking.sol\":1938:1944  amount */\n      dup1\n        /* \"Solidity Part/contracts/staking.sol\":1899:1911  StakingToken */\n      0x01\n      0x00\n      swap1\n      sload\n      swap1\n      0x0100\n      exp\n      swap1\n      div\n      0xffffffffffffffffffffffffffffffffffffffff\n      and\n        /* \"Solidity Part/contracts/staking.sol\":1893:1922  ERC20(StakingToken).balanceOf */\n      0xffffffffffffffffffffffffffffffffffffffff\n      and\n      0x70a08231\n        /* \"Solidity Part/contracts/staking.sol\":1923:1933  msg.sender */\n      caller\n        /* \"Solidity Part/contracts/staking.sol\":1893:1934  ERC20(StakingToken).balanceOf(msg.sender) */\n      mload(0x40)\n      dup3\n      0xffffffff\n      and\n      0xe0\n      shl\n      dup2\n      mstore\n      0x04\n      add\n      tag_86\n      swap2\n      swap1\n      tag_27\n      jump\t// in\n    tag_86:\n      0x20\n      mload(0x40)\n      dup1\n      dup4\n      sub\n      dup2\n      dup7\n      dup1\n      extcodesize\n      iszero\n      dup1\n      iszero\n      tag_87\n      jumpi\n      0x00\n      dup1\n      revert\n    tag_87:\n      pop\n      gas\n      staticcall\n      iszero\n      dup1\n      iszero\n      tag_89\n      jumpi\n      returndatasize\n      0x00\n      dup1\n      returndatacopy\n      revert(0x00, returndatasize)\n    tag_89:\n      pop\n      pop\n      pop\n      pop\n      mload(0x40)\n      returndatasize\n      not(0x1f)\n      0x1f\n      dup3\n      add\n      and\n      dup3\n      add\n      dup1\n      0x40\n      mstore\n      pop\n      dup2\n      add\n      swap1\n      tag_90\n      swap2\n      swap1\n      tag_91\n      jump\t// in\n    tag_90:\n        /* \"Solidity Part/contracts/staking.sol\":1893:1944  ERC20(StakingToken).balanceOf(msg.sender) >= amount */\n      lt\n      iszero\n        /* \"Solidity Part/contracts/staking.sol\":1884:1976  require (ERC20(StakingToken).balanceOf(msg.sender) >= amount, \"ERROR: INSUFFICIENT BALANCE\") */\n      tag_92\n      jumpi\n      mload(0x40)\n      0x08c379a000000000000000000000000000000000000000000000000000000000\n      dup2\n      mstore\n      0x04\n      add\n      tag_93\n      swap1\n      tag_94\n      jump\t// in\n    tag_93:\n      mload(0x40)\n      dup1\n      swap2\n      sub\n      swap1\n      revert\n    tag_92:\n        /* \"Solidity Part/contracts/staking.sol\":1993:2005  StakingToken */\n      0x01\n      0x00\n      swap1\n      sload\n      swap1\n      0x0100\n      exp\n      swap1\n      div\n      0xffffffffffffffffffffffffffffffffffffffff\n      and\n        /* \"Solidity Part/contracts/staking.sol\":1987:2019  ERC20(StakingToken).transferFrom */\n      0xffffffffffffffffffffffffffffffffffffffff\n      and\n      0x23b872dd\n        /* \"Solidity Part/contracts/staking.sol\":2020:2030  msg.sender */\n      caller\n        /* \"Solidity Part/contracts/staking.sol\":2040:2044  this */\n      address\n        /* \"Solidity Part/contracts/staking.sol\":2047:2053  amount */\n      dup5\n        /* \"Solidity Part/contracts/staking.sol\":1987:2054  ERC20(StakingToken).transferFrom(msg.sender, address(this), amount) */\n      mload(0x40)\n      dup5\n      0xffffffff\n      and\n      0xe0\n      shl\n      dup2\n      mstore\n      0x04\n      add\n      tag_95\n      swap4\n      swap3\n      swap2\n      swap1\n      tag_96\n      jump\t// in\n    tag_95:\n      0x20\n      mload(0x40)\n      dup1\n      dup4\n      sub\n      dup2\n      0x00\n      dup8\n      dup1\n      extcodesize\n      iszero\n      dup1\n      iszero\n      tag_97\n      jumpi\n      0x00\n      dup1\n      revert\n    tag_97:\n      pop\n      gas\n      call\n      iszero\n      dup1\n      iszero\n      tag_99\n      jumpi\n      returndatasize\n      0x00\n      dup1\n      returndatacopy\n      revert(0x00, returndatasize)\n    tag_99:\n      pop\n      pop\n      pop\n      pop\n      mload(0x40)\n      returndatasize\n      not(0x1f)\n      0x1f\n      dup3\n      add\n      and\n      dup3\n      add\n      dup1\n      0x40\n      mstore\n      pop\n      dup2\n      add\n      swap1\n      tag_100\n      swap2\n      swap1\n      tag_101\n      jump\t// in\n    tag_100:\n      pop\n        /* \"Solidity Part/contracts/staking.sol\":2095:2101  amount */\n      dup1\n        /* \"Solidity Part/contracts/staking.sol\":2064:2079  StakingBalances */\n      0x05\n        /* \"Solidity Part/contracts/staking.sol\":2064:2091  StakingBalances[msg.sender] */\n      0x00\n        /* \"Solidity Part/contracts/staking.sol\":2080:2090  msg.sender */\n      caller\n        /* \"Solidity Part/contracts/staking.sol\":2064:2091  StakingBalances[msg.sender] */\n      0xffffffffffffffffffffffffffffffffffffffff\n      and\n      0xffffffffffffffffffffffffffffffffffffffff\n      and\n      dup2\n      mstore\n      0x20\n      add\n      swap1\n      dup2\n      mstore\n      0x20\n      add\n      0x00\n      keccak256\n      0x00\n        /* \"Solidity Part/contracts/staking.sol\":2064:2101  StakingBalances[msg.sender] += amount */\n      dup3\n      dup3\n      sload\n      tag_102\n      swap2\n      swap1\n      tag_78\n      jump\t// in\n    tag_102:\n      swap3\n      pop\n      pop\n      dup2\n      swap1\n      sstore\n      pop\n        /* \"Solidity Part/contracts/staking.sol\":2111:2132  Stake memory newStake */\n      0x00\n        /* \"Solidity Part/contracts/staking.sol\":2135:2179  Stake(msg.sender,amount, block.timestamp, 0) */\n      mload(0x40)\n      dup1\n      0x80\n      add\n      0x40\n      mstore\n      dup1\n        /* \"Solidity Part/contracts/staking.sol\":2141:2151  msg.sender */\n      caller\n        /* \"Solidity Part/contracts/staking.sol\":2135:2179  Stake(msg.sender,amount, block.timestamp, 0) */\n      0xffffffffffffffffffffffffffffffffffffffff\n      and\n      dup2\n      mstore\n      0x20\n      add\n        /* \"Solidity Part/contracts/staking.sol\":2152:2158  amount */\n      dup4\n        /* \"Solidity Part/contracts/staking.sol\":2135:2179  Stake(msg.sender,amount, block.timestamp, 0) */\n      dup2\n      mstore\n      0x20\n      add\n        /* \"Solidity Part/contracts/staking.sol\":2160:2175  block.timestamp */\n      timestamp\n        /* \"Solidity Part/contracts/staking.sol\":2135:2179  Stake(msg.sender,amount, block.timestamp, 0) */\n      dup2\n      mstore\n      0x20\n      add\n        /* \"Solidity Part/contracts/staking.sol\":2177:2178  0 */\n      0x00\n        /* \"Solidity Part/contracts/staking.sol\":2135:2179  Stake(msg.sender,amount, block.timestamp, 0) */\n      0xff\n      and\n      dup2\n      mstore\n      pop\n        /* \"Solidity Part/contracts/staking.sol\":2111:2179  Stake memory newStake = Stake(msg.sender,amount, block.timestamp, 0) */\n      swap1\n      pop\n        /* \"Solidity Part/contracts/staking.sol\":2219:2227  newStake */\n      dup1\n        /* \"Solidity Part/contracts/staking.sol\":2189:2203  StakingHistory */\n      0x04\n        /* \"Solidity Part/contracts/staking.sol\":2189:2216  StakingHistory[currentID+1] */\n      0x00\n        /* \"Solidity Part/contracts/staking.sol\":2214:2215  1 */\n      0x01\n        /* \"Solidity Part/contracts/staking.sol\":2204:2213  currentID */\n      sload(0x02)\n        /* \"Solidity Part/contracts/staking.sol\":2204:2215  currentID+1 */\n      tag_103\n      swap2\n      swap1\n      tag_78\n      jump\t// in\n    tag_103:\n        /* \"Solidity Part/contracts/staking.sol\":2189:2216  StakingHistory[currentID+1] */\n      dup2\n      mstore\n      0x20\n      add\n      swap1\n      dup2\n      mstore\n      0x20\n      add\n      0x00\n      keccak256\n        /* \"Solidity Part/contracts/staking.sol\":2189:2227  StakingHistory[currentID+1] = newStake */\n      0x00\n      dup3\n      add\n      mload\n      dup2\n      0x00\n      add\n      exp(0x0100, 0x00)\n      dup2\n      sload\n      dup2\n      0xffffffffffffffffffffffffffffffffffffffff\n      mul\n      not\n      and\n      swap1\n      dup4\n      0xffffffffffffffffffffffffffffffffffffffff\n      and\n      mul\n      or\n      swap1\n      sstore\n      pop\n      0x20\n      dup3\n      add\n      mload\n      dup2\n      0x01\n      add\n      sstore\n      0x40\n      dup3\n      add\n      mload\n      dup2\n      0x02\n      add\n      sstore\n      0x60\n      dup3\n      add\n      mload\n      dup2\n      0x03\n      add\n      exp(0x0100, 0x00)\n      dup2\n      sload\n      dup2\n      0xff\n      mul\n      not\n      and\n      swap1\n      dup4\n      0xff\n      and\n      mul\n      or\n      swap1\n      sstore\n      pop\n      swap1\n      pop\n      pop\n        /* \"Solidity Part/contracts/staking.sol\":2242:2302  NewStake(msg.sender, currentID+1, newStake, block.timestamp) */\n      0x62cb55e360f9d0014feeb0753042d6fc5798187ede3ddadbf54c03881f53b612\n        /* \"Solidity Part/contracts/staking.sol\":2251:2261  msg.sender */\n      caller\n        /* \"Solidity Part/contracts/staking.sol\":2273:2274  1 */\n      0x01\n        /* \"Solidity Part/contracts/staking.sol\":2263:2272  currentID */\n      sload(0x02)\n        /* \"Solidity Part/contracts/staking.sol\":2263:2274  currentID+1 */\n      tag_104\n      swap2\n      swap1\n      tag_78\n      jump\t// in\n    tag_104:\n        /* \"Solidity Part/contracts/staking.sol\":2276:2284  newStake */\n      dup4\n        /* \"Solidity Part/contracts/staking.sol\":2286:2301  block.timestamp */\n      timestamp\n        /* \"Solidity Part/contracts/staking.sol\":2242:2302  NewStake(msg.sender, currentID+1, newStake, block.timestamp) */\n      mload(0x40)\n      tag_105\n      swap5\n      swap4\n      swap3\n      swap2\n      swap1\n      tag_106\n      jump\t// in\n    tag_105:\n      mload(0x40)\n      dup1\n      swap2\n      sub\n      swap1\n      log1\n        /* \"Solidity Part/contracts/staking.sol\":2323:2324  1 */\n      0x01\n        /* \"Solidity Part/contracts/staking.sol\":2312:2321  currentID */\n      0x02\n      0x00\n        /* \"Solidity Part/contracts/staking.sol\":2312:2324  currentID+=1 */\n      dup3\n      dup3\n      sload\n      tag_107\n      swap2\n      swap1\n      tag_78\n      jump\t// in\n    tag_107:\n      swap3\n      pop\n      pop\n      dup2\n      swap1\n      sstore\n      pop\n        /* \"Solidity Part/contracts/staking.sol\":1588:2331  {... */\n      pop\n        /* \"Solidity Part/contracts/staking.sol\":1545:2331  function StakeToken(uint256 amount) public {... */\n      pop\n      jump\t// out\n        /* \"Solidity Part/contracts/staking.sol\":2897:3153  function GetStakingHistory() public view returns(Stake[] memory) {... */\n    tag_35:\n        /* \"Solidity Part/contracts/staking.sol\":2946:2960  Stake[] memory */\n      0x60\n        /* \"Solidity Part/contracts/staking.sol\":2972:2993  Stake[] memory stakes */\n      0x00\n        /* \"Solidity Part/contracts/staking.sol\":3018:3019  1 */\n      0x01\n        /* \"Solidity Part/contracts/staking.sol\":3008:3017  currentID */\n      sload(0x02)\n        /* \"Solidity Part/contracts/staking.sol\":3008:3019  currentID-1 */\n      tag_109\n      swap2\n      swap1\n      tag_110\n      jump\t// in\n    tag_109:\n        /* \"Solidity Part/contracts/staking.sol\":2996:3020  new Stake[](currentID-1) */\n      0xffffffffffffffff\n      dup2\n      gt\n      iszero\n      tag_111\n      jumpi\n      tag_112\n      tag_113\n      jump\t// in\n    tag_112:\n    tag_111:\n      mload(0x40)\n      swap1\n      dup1\n      dup3\n      mstore\n      dup1\n      0x20\n      mul\n      0x20\n      add\n      dup3\n      add\n      0x40\n      mstore\n      dup1\n      iszero\n      tag_114\n      jumpi\n      dup2\n      0x20\n      add\n    tag_115:\n      tag_116\n      tag_117\n      jump\t// in\n    tag_116:\n      dup2\n      mstore\n      0x20\n      add\n      swap1\n      0x01\n      swap1\n      sub\n      swap1\n      dup2\n      tag_115\n      jumpi\n      swap1\n      pop\n    tag_114:\n      pop\n        /* \"Solidity Part/contracts/staking.sol\":2972:3020  Stake[] memory stakes = new Stake[](currentID-1) */\n      swap1\n      pop\n        /* \"Solidity Part/contracts/staking.sol\":3035:3042  uint8 i */\n      0x00\n        /* \"Solidity Part/contracts/staking.sol\":3045:3046  1 */\n      0x01\n        /* \"Solidity Part/contracts/staking.sol\":3035:3046  uint8 i = 1 */\n      swap1\n      pop\n        /* \"Solidity Part/contracts/staking.sol\":3030:3124  for (uint8 i = 1; i < currentID; i++) {... */\n    tag_118:\n        /* \"Solidity Part/contracts/staking.sol\":3052:3061  currentID */\n      sload(0x02)\n        /* \"Solidity Part/contracts/staking.sol\":3048:3049  i */\n      dup2\n        /* \"Solidity Part/contracts/staking.sol\":3048:3061  i < currentID */\n      0xff\n      and\n      lt\n        /* \"Solidity Part/contracts/staking.sol\":3030:3124  for (uint8 i = 1; i < currentID; i++) {... */\n      iszero\n      tag_119\n      jumpi\n        /* \"Solidity Part/contracts/staking.sol\":3096:3110  StakingHistory */\n      0x04\n        /* \"Solidity Part/contracts/staking.sol\":3096:3113  StakingHistory[i] */\n      0x00\n        /* \"Solidity Part/contracts/staking.sol\":3111:3112  i */\n      dup3\n        /* \"Solidity Part/contracts/staking.sol\":3096:3113  StakingHistory[i] */\n      0xff\n      and\n      dup2\n      mstore\n      0x20\n      add\n      swap1\n      dup2\n      mstore\n      0x20\n      add\n      0x00\n      keccak256\n        /* \"Solidity Part/contracts/staking.sol\":3082:3113  stakes[i-1] = StakingHistory[i] */\n      mload(0x40)\n      dup1\n      0x80\n      add\n      0x40\n      mstore\n      swap1\n      dup2\n      0x00\n      dup3\n      add\n      0x00\n      swap1\n      sload\n      swap1\n      0x0100\n      exp\n      swap1\n      div\n      0xffffffffffffffffffffffffffffffffffffffff\n      and\n      0xffffffffffffffffffffffffffffffffffffffff\n      and\n      0xffffffffffffffffffffffffffffffffffffffff\n      and\n      dup2\n      mstore\n      0x20\n      add\n      0x01\n      dup3\n      add\n      sload\n      dup2\n      mstore\n      0x20\n      add\n      0x02\n      dup3\n      add\n      sload\n      dup2\n      mstore\n      0x20\n      add\n      0x03\n      dup3\n      add\n      0x00\n      swap1\n      sload\n      swap1\n      0x0100\n      exp\n      swap1\n      div\n      0xff\n      and\n      0xff\n      and\n      0xff\n      and\n      dup2\n      mstore\n      pop\n      pop\n        /* \"Solidity Part/contracts/staking.sol\":3082:3088  stakes */\n      dup3\n        /* \"Solidity Part/contracts/staking.sol\":3091:3092  1 */\n      0x01\n        /* \"Solidity Part/contracts/staking.sol\":3089:3090  i */\n      dup4\n        /* \"Solidity Part/contracts/staking.sol\":3089:3092  i-1 */\n      tag_121\n      swap2\n      swap1\n      tag_122\n      jump\t// in\n    tag_121:\n        /* \"Solidity Part/contracts/staking.sol\":3082:3093  stakes[i-1] */\n      0xff\n      and\n      dup2\n      mload\n      dup2\n      lt\n      tag_123\n      jumpi\n      tag_124\n      tag_125\n      jump\t// in\n    tag_124:\n    tag_123:\n      0x20\n      mul\n      0x20\n      add\n      add\n        /* \"Solidity Part/contracts/staking.sol\":3082:3113  stakes[i-1] = StakingHistory[i] */\n      dup2\n      swap1\n      mstore\n      pop\n        /* \"Solidity Part/contracts/staking.sol\":3063:3066  i++ */\n      dup1\n      dup1\n      tag_126\n      swap1\n      tag_127\n      jump\t// in\n    tag_126:\n      swap2\n      pop\n      pop\n        /* \"Solidity Part/contracts/staking.sol\":3030:3124  for (uint8 i = 1; i < currentID; i++) {... */\n      jump(tag_118)\n    tag_119:\n      pop\n        /* \"Solidity Part/contracts/staking.sol\":3140:3146  stakes */\n      dup1\n        /* \"Solidity Part/contracts/staking.sol\":3133:3146  return stakes */\n      swap2\n      pop\n      pop\n        /* \"Solidity Part/contracts/staking.sol\":2897:3153  function GetStakingHistory() public view returns(Stake[] memory) {... */\n      swap1\n      jump\t// out\n        /* \"Solidity Part/contracts/staking.sol\":491:525  bool public StakingEnabled = false */\n    tag_40:\n      0x03\n      0x00\n      swap1\n      sload\n      swap1\n      0x0100\n      exp\n      swap1\n      div\n      0xff\n      and\n      dup2\n      jump\t// out\n        /* \"Solidity Part/contracts/staking.sol\":1286:1382  function SetStakingToken(address _token) public onlyOwner {... */\n    tag_47:\n        /* \"@openzeppelin/contracts/access/Ownable.sol\":1259:1271  _msgSender() */\n      tag_129\n        /* \"@openzeppelin/contracts/access/Ownable.sol\":1259:1269  _msgSender */\n      tag_58\n        /* \"@openzeppelin/contracts/access/Ownable.sol\":1259:1271  _msgSender() */\n      jump\t// in\n    tag_129:\n        /* \"@openzeppelin/contracts/access/Ownable.sol\":1248:1271  owner() == _msgSender() */\n      0xffffffffffffffffffffffffffffffffffffffff\n      and\n        /* \"@openzeppelin/contracts/access/Ownable.sol\":1248:1255  owner() */\n      tag_130\n        /* \"@openzeppelin/contracts/access/Ownable.sol\":1248:1253  owner */\n      tag_25\n        /* \"@openzeppelin/contracts/access/Ownable.sol\":1248:1255  owner() */\n      jump\t// in\n    tag_130:\n        /* \"@openzeppelin/contracts/access/Ownable.sol\":1248:1271  owner() == _msgSender() */\n      0xffffffffffffffffffffffffffffffffffffffff\n      and\n      eq\n        /* \"@openzeppelin/contracts/access/Ownable.sol\":1240:1308  require(owner() == _msgSender(), \"Ownable: caller is not the owner\") */\n      tag_131\n      jumpi\n      mload(0x40)\n      0x08c379a000000000000000000000000000000000000000000000000000000000\n      dup2\n      mstore\n      0x04\n      add\n      tag_132\n      swap1\n      tag_62\n      jump\t// in\n    tag_132:\n      mload(0x40)\n      dup1\n      swap2\n      sub\n      swap1\n      revert\n    tag_131:\n        /* \"Solidity Part/contracts/staking.sol\":1369:1375  _token */\n      dup1\n        /* \"Solidity Part/contracts/staking.sol\":1354:1366  StakingToken */\n      0x01\n      0x00\n        /* \"Solidity Part/contracts/staking.sol\":1354:1375  StakingToken = _token */\n      0x0100\n      exp\n      dup2\n      sload\n      dup2\n      0xffffffffffffffffffffffffffffffffffffffff\n      mul\n      not\n      and\n      swap1\n      dup4\n      0xffffffffffffffffffffffffffffffffffffffff\n      and\n      mul\n      or\n      swap1\n      sstore\n      pop\n        /* \"Solidity Part/contracts/staking.sol\":1286:1382  function SetStakingToken(address _token) public onlyOwner {... */\n      pop\n      jump\t// out\n        /* \"Solidity Part/contracts/staking.sol\":2389:2891  function UnstakeToken(uint256 amount) public {... */\n    tag_51:\n        /* \"Solidity Part/contracts/staking.sol\":2483:2489  amount */\n      dup1\n        /* \"Solidity Part/contracts/staking.sol\":2452:2467  StakingBalances */\n      0x05\n        /* \"Solidity Part/contracts/staking.sol\":2452:2479  StakingBalances[msg.sender] */\n      0x00\n        /* \"Solidity Part/contracts/staking.sol\":2468:2478  msg.sender */\n      caller\n        /* \"Solidity Part/contracts/staking.sol\":2452:2479  StakingBalances[msg.sender] */\n      0xffffffffffffffffffffffffffffffffffffffff\n      and\n      0xffffffffffffffffffffffffffffffffffffffff\n      and\n      dup2\n      mstore\n      0x20\n      add\n      swap1\n      dup2\n      mstore\n      0x20\n      add\n      0x00\n      keccak256\n      sload\n        /* \"Solidity Part/contracts/staking.sol\":2452:2489  StakingBalances[msg.sender] >= amount */\n      lt\n      iszero\n        /* \"Solidity Part/contracts/staking.sol\":2444:2521  require(StakingBalances[msg.sender] >= amount, \"ERROR: INSUFFICIENT BALANCE\") */\n      tag_135\n      jumpi\n      mload(0x40)\n      0x08c379a000000000000000000000000000000000000000000000000000000000\n      dup2\n      mstore\n      0x04\n      add\n      tag_136\n      swap1\n      tag_94\n      jump\t// in\n    tag_136:\n      mload(0x40)\n      dup1\n      swap2\n      sub\n      swap1\n      revert\n    tag_135:\n        /* \"Solidity Part/contracts/staking.sol\":2567:2579  StakingToken */\n      0x01\n      0x00\n      swap1\n      sload\n      swap1\n      0x0100\n      exp\n      swap1\n      div\n      0xffffffffffffffffffffffffffffffffffffffff\n      and\n        /* \"Solidity Part/contracts/staking.sol\":2561:2589  ERC20(StakingToken).transfer */\n      0xffffffffffffffffffffffffffffffffffffffff\n      and\n      0xa9059cbb\n        /* \"Solidity Part/contracts/staking.sol\":2590:2600  msg.sender */\n      caller\n        /* \"Solidity Part/contracts/staking.sol\":2602:2608  amount */\n      dup4\n        /* \"Solidity Part/contracts/staking.sol\":2561:2609  ERC20(StakingToken).transfer(msg.sender, amount) */\n      mload(0x40)\n      dup4\n      0xffffffff\n      and\n      0xe0\n      shl\n      dup2\n      mstore\n      0x04\n      add\n      tag_137\n      swap3\n      swap2\n      swap1\n      tag_138\n      jump\t// in\n    tag_137:\n      0x20\n      mload(0x40)\n      dup1\n      dup4\n      sub\n      dup2\n      0x00\n      dup8\n      dup1\n      extcodesize\n      iszero\n      dup1\n      iszero\n      tag_139\n      jumpi\n      0x00\n      dup1\n      revert\n    tag_139:\n      pop\n      gas\n      call\n      iszero\n      dup1\n      iszero\n      tag_141\n      jumpi\n      returndatasize\n      0x00\n      dup1\n      returndatacopy\n      revert(0x00, returndatasize)\n    tag_141:\n      pop\n      pop\n      pop\n      pop\n      mload(0x40)\n      returndatasize\n      not(0x1f)\n      0x1f\n      dup3\n      add\n      and\n      dup3\n      add\n      dup1\n      0x40\n      mstore\n      pop\n      dup2\n      add\n      swap1\n      tag_142\n      swap2\n      swap1\n      tag_101\n      jump\t// in\n    tag_142:\n      pop\n        /* \"Solidity Part/contracts/staking.sol\":2650:2656  amount */\n      dup1\n        /* \"Solidity Part/contracts/staking.sol\":2619:2634  StakingBalances */\n      0x05\n        /* \"Solidity Part/contracts/staking.sol\":2619:2646  StakingBalances[msg.sender] */\n      0x00\n        /* \"Solidity Part/contracts/staking.sol\":2635:2645  msg.sender */\n      caller\n        /* \"Solidity Part/contracts/staking.sol\":2619:2646  StakingBalances[msg.sender] */\n      0xffffffffffffffffffffffffffffffffffffffff\n      and\n      0xffffffffffffffffffffffffffffffffffffffff\n      and\n      dup2\n      mstore\n      0x20\n      add\n      swap1\n      dup2\n      mstore\n      0x20\n      add\n      0x00\n      keccak256\n      0x00\n        /* \"Solidity Part/contracts/staking.sol\":2619:2656  StakingBalances[msg.sender] -= amount */\n      dup3\n      dup3\n      sload\n      tag_143\n      swap2\n      swap1\n      tag_110\n      jump\t// in\n    tag_143:\n      swap3\n      pop\n      pop\n      dup2\n      swap1\n      sstore\n      pop\n        /* \"Solidity Part/contracts/staking.sol\":2666:2689  Stake memory newUnstake */\n      0x00\n        /* \"Solidity Part/contracts/staking.sol\":2692:2736  Stake(msg.sender,amount, block.timestamp, 1) */\n      mload(0x40)\n      dup1\n      0x80\n      add\n      0x40\n      mstore\n      dup1\n        /* \"Solidity Part/contracts/staking.sol\":2698:2708  msg.sender */\n      caller\n        /* \"Solidity Part/contracts/staking.sol\":2692:2736  Stake(msg.sender,amount, block.timestamp, 1) */\n      0xffffffffffffffffffffffffffffffffffffffff\n      and\n      dup2\n      mstore\n      0x20\n      add\n        /* \"Solidity Part/contracts/staking.sol\":2709:2715  amount */\n      dup4\n        /* \"Solidity Part/contracts/staking.sol\":2692:2736  Stake(msg.sender,amount, block.timestamp, 1) */\n      dup2\n      mstore\n      0x20\n      add\n        /* \"Solidity Part/contracts/staking.sol\":2717:2732  block.timestamp */\n      timestamp\n        /* \"Solidity Part/contracts/staking.sol\":2692:2736  Stake(msg.sender,amount, block.timestamp, 1) */\n      dup2\n      mstore\n      0x20\n      add\n        /* \"Solidity Part/contracts/staking.sol\":2734:2735  1 */\n      0x01\n        /* \"Solidity Part/contracts/staking.sol\":2692:2736  Stake(msg.sender,amount, block.timestamp, 1) */\n      0xff\n      and\n      dup2\n      mstore\n      pop\n        /* \"Solidity Part/contracts/staking.sol\":2666:2736  Stake memory newUnstake = Stake(msg.sender,amount, block.timestamp, 1) */\n      swap1\n      pop\n        /* \"Solidity Part/contracts/staking.sol\":2776:2786  newUnstake */\n      dup1\n        /* \"Solidity Part/contracts/staking.sol\":2746:2760  StakingHistory */\n      0x04\n        /* \"Solidity Part/contracts/staking.sol\":2746:2773  StakingHistory[currentID+1] */\n      0x00\n        /* \"Solidity Part/contracts/staking.sol\":2771:2772  1 */\n      0x01\n        /* \"Solidity Part/contracts/staking.sol\":2761:2770  currentID */\n      sload(0x02)\n        /* \"Solidity Part/contracts/staking.sol\":2761:2772  currentID+1 */\n      tag_144\n      swap2\n      swap1\n      tag_78\n      jump\t// in\n    tag_144:\n        /* \"Solidity Part/contracts/staking.sol\":2746:2773  StakingHistory[currentID+1] */\n      dup2\n      mstore\n      0x20\n      add\n      swap1\n      dup2\n      mstore\n      0x20\n      add\n      0x00\n      keccak256\n        /* \"Solidity Part/contracts/staking.sol\":2746:2786  StakingHistory[currentID+1] = newUnstake */\n      0x00\n      dup3\n      add\n      mload\n      dup2\n      0x00\n      add\n      exp(0x0100, 0x00)\n      dup2\n      sload\n      dup2\n      0xffffffffffffffffffffffffffffffffffffffff\n      mul\n      not\n      and\n      swap1\n      dup4\n      0xffffffffffffffffffffffffffffffffffffffff\n      and\n      mul\n      or\n      swap1\n      sstore\n      pop\n      0x20\n      dup3\n      add\n      mload\n      dup2\n      0x01\n      add\n      sstore\n      0x40\n      dup3\n      add\n      mload\n      dup2\n      0x02\n      add\n      sstore\n      0x60\n      dup3\n      add\n      mload\n      dup2\n      0x03\n      add\n      exp(0x0100, 0x00)\n      dup2\n      sload\n      dup2\n      0xff\n      mul\n      not\n      and\n      swap1\n      dup4\n      0xff\n      and\n      mul\n      or\n      swap1\n      sstore\n      pop\n      swap1\n      pop\n      pop\n        /* \"Solidity Part/contracts/staking.sol\":2801:2862  Unstake(msg.sender, currentID+1, newUnstake, block.timestamp) */\n      0x27e09d0dfd4290ba6bbad99e9ed98fce69333c5281617ea1333041d739705b24\n        /* \"Solidity Part/contracts/staking.sol\":2809:2819  msg.sender */\n      caller\n        /* \"Solidity Part/contracts/staking.sol\":2831:2832  1 */\n      0x01\n        /* \"Solidity Part/contracts/staking.sol\":2821:2830  currentID */\n      sload(0x02)\n        /* \"Solidity Part/contracts/staking.sol\":2821:2832  currentID+1 */\n      tag_145\n      swap2\n      swap1\n      tag_78\n      jump\t// in\n    tag_145:\n        /* \"Solidity Part/contracts/staking.sol\":2834:2844  newUnstake */\n      dup4\n        /* \"Solidity Part/contracts/staking.sol\":2846:2861  block.timestamp */\n      timestamp\n        /* \"Solidity Part/contracts/staking.sol\":2801:2862  Unstake(msg.sender, currentID+1, newUnstake, block.timestamp) */\n      mload(0x40)\n      tag_146\n      swap5\n      swap4\n      swap3\n      swap2\n      swap1\n      tag_106\n      jump\t// in\n    tag_146:\n      mload(0x40)\n      dup1\n      swap2\n      sub\n      swap1\n      log1\n        /* \"Solidity Part/contracts/staking.sol\":2883:2884  1 */\n      0x01\n        /* \"Solidity Part/contracts/staking.sol\":2872:2881  currentID */\n      0x02\n      0x00\n        /* \"Solidity Part/contracts/staking.sol\":2872:2884  currentID+=1 */\n      dup3\n      dup3\n      sload\n      tag_147\n      swap2\n      swap1\n      tag_78\n      jump\t// in\n    tag_147:\n      swap3\n      pop\n      pop\n      dup2\n      swap1\n      sstore\n      pop\n        /* \"Solidity Part/contracts/staking.sol\":2434:2891  {... */\n      pop\n        /* \"Solidity Part/contracts/staking.sol\":2389:2891  function UnstakeToken(uint256 amount) public {... */\n      pop\n      jump\t// out\n        /* \"@openzeppelin/contracts/access/Ownable.sol\":1918:2116  function transferOwnership(address newOwner) public virtual onlyOwner {... */\n    tag_55:\n        /* \"@openzeppelin/contracts/access/Ownable.sol\":1259:1271  _msgSender() */\n      tag_149\n        /* \"@openzeppelin/contracts/access/Ownable.sol\":1259:1269  _msgSender */\n      tag_58\n        /* \"@openzeppelin/contracts/access/Ownable.sol\":1259:1271  _msgSender() */\n      jump\t// in\n    tag_149:\n        /* \"@openzeppelin/contracts/access/Ownable.sol\":1248:1271  owner() == _msgSender() */\n      0xffffffffffffffffffffffffffffffffffffffff\n      and\n        /* \"@openzeppelin/contracts/access/Ownable.sol\":1248:1255  owner() */\n      tag_150\n        /* \"@openzeppelin/contracts/access/Ownable.sol\":1248:1253  owner */\n      tag_25\n        /* \"@openzeppelin/contracts/access/Ownable.sol\":1248:1255  owner() */\n      jump\t// in\n    tag_150:\n        /* \"@openzeppelin/contracts/access/Ownable.sol\":1248:1271  owner() == _msgSender() */\n      0xffffffffffffffffffffffffffffffffffffffff\n      and\n      eq\n        /* \"@openzeppelin/contracts/access/Ownable.sol\":1240:1308  require(owner() == _msgSender(), \"Ownable: caller is not the owner\") */\n      tag_151\n      jumpi\n      mload(0x40)\n      0x08c379a000000000000000000000000000000000000000000000000000000000\n      dup2\n      mstore\n      0x04\n      add\n      tag_152\n      swap1\n      tag_62\n      jump\t// in\n    tag_152:\n      mload(0x40)\n      dup1\n      swap2\n      sub\n      swap1\n      revert\n    tag_151:\n        /* \"@openzeppelin/contracts/access/Ownable.sol\":2026:2027  0 */\n      0x00\n        /* \"@openzeppelin/contracts/access/Ownable.sol\":2006:2028  newOwner != address(0) */\n      0xffffffffffffffffffffffffffffffffffffffff\n      and\n        /* \"@openzeppelin/contracts/access/Ownable.sol\":2006:2014  newOwner */\n      dup2\n        /* \"@openzeppelin/contracts/access/Ownable.sol\":2006:2028  newOwner != address(0) */\n      0xffffffffffffffffffffffffffffffffffffffff\n      and\n      eq\n      iszero\n        /* \"@openzeppelin/contracts/access/Ownable.sol\":1998:2071  require(newOwner != address(0), \"Ownable: new owner is the zero address\") */\n      tag_154\n      jumpi\n      mload(0x40)\n      0x08c379a000000000000000000000000000000000000000000000000000000000\n      dup2\n      mstore\n      0x04\n      add\n      tag_155\n      swap1\n      tag_156\n      jump\t// in\n    tag_155:\n      mload(0x40)\n      dup1\n      swap2\n      sub\n      swap1\n      revert\n    tag_154:\n        /* \"@openzeppelin/contracts/access/Ownable.sol\":2081:2109  _transferOwnership(newOwner) */\n      tag_157\n        /* \"@openzeppelin/contracts/access/Ownable.sol\":2100:2108  newOwner */\n      dup2\n        /* \"@openzeppelin/contracts/access/Ownable.sol\":2081:2099  _transferOwnership */\n      tag_71\n        /* \"@openzeppelin/contracts/access/Ownable.sol\":2081:2109  _transferOwnership(newOwner) */\n      jump\t// in\n    tag_157:\n        /* \"@openzeppelin/contracts/access/Ownable.sol\":1918:2116  function transferOwnership(address newOwner) public virtual onlyOwner {... */\n      pop\n      jump\t// out\n        /* \"@openzeppelin/contracts/utils/Context.sol\":640:736  function _msgSender() internal view virtual returns (address) {... */\n    tag_58:\n        /* \"@openzeppelin/contracts/utils/Context.sol\":693:700  address */\n      0x00\n        /* \"@openzeppelin/contracts/utils/Context.sol\":719:729  msg.sender */\n      caller\n        /* \"@openzeppelin/contracts/utils/Context.sol\":712:729  return msg.sender */\n      swap1\n      pop\n        /* \"@openzeppelin/contracts/utils/Context.sol\":640:736  function _msgSender() internal view virtual returns (address) {... */\n      swap1\n      jump\t// out\n        /* \"@openzeppelin/contracts/access/Ownable.sol\":2270:2457  function _transferOwnership(address newOwner) internal virtual {... */\n    tag_71:\n        /* \"@openzeppelin/contracts/access/Ownable.sol\":2343:2359  address oldOwner */\n      0x00\n        /* \"@openzeppelin/contracts/access/Ownable.sol\":2362:2368  _owner */\n      dup1\n      0x00\n      swap1\n      sload\n      swap1\n      0x0100\n      exp\n      swap1\n      div\n      0xffffffffffffffffffffffffffffffffffffffff\n      and\n        /* \"@openzeppelin/contracts/access/Ownable.sol\":2343:2368  address oldOwner = _owner */\n      swap1\n      pop\n        /* \"@openzeppelin/contracts/access/Ownable.sol\":2387:2395  newOwner */\n      dup2\n        /* \"@openzeppelin/contracts/access/Ownable.sol\":2378:2384  _owner */\n      0x00\n      dup1\n        /* \"@openzeppelin/contracts/access/Ownable.sol\":2378:2395  _owner = newOwner */\n      0x0100\n      exp\n      dup2\n      sload\n      dup2\n      0xffffffffffffffffffffffffffffffffffffffff\n      mul\n      not\n      and\n      swap1\n      dup4\n      0xffffffffffffffffffffffffffffffffffffffff\n      and\n      mul\n      or\n      swap1\n      sstore\n      pop\n        /* \"@openzeppelin/contracts/access/Ownable.sol\":2441:2449  newOwner */\n      dup2\n        /* \"@openzeppelin/contracts/access/Ownable.sol\":2410:2450  OwnershipTransferred(oldOwner, newOwner) */\n      0xffffffffffffffffffffffffffffffffffffffff\n      and\n        /* \"@openzeppelin/contracts/access/Ownable.sol\":2431:2439  oldOwner */\n      dup2\n        /* \"@openzeppelin/contracts/access/Ownable.sol\":2410:2450  OwnershipTransferred(oldOwner, newOwner) */\n      0xffffffffffffffffffffffffffffffffffffffff\n      and\n      0x8be0079c531659141344cd1fd0a4f28419497f9722a3daafe3b4186f6b6457e0\n      mload(0x40)\n      mload(0x40)\n      dup1\n      swap2\n      sub\n      swap1\n      log3\n        /* \"@openzeppelin/contracts/access/Ownable.sol\":2333:2457  {... */\n      pop\n        /* \"@openzeppelin/contracts/access/Ownable.sol\":2270:2457  function _transferOwnership(address newOwner) internal virtual {... */\n      pop\n      jump\t// out\n    tag_117:\n      mload(0x40)\n      dup1\n      0x80\n      add\n      0x40\n      mstore\n      dup1\n      and(0xffffffffffffffffffffffffffffffffffffffff, 0x00)\n      dup2\n      mstore\n      0x20\n      add\n      0x00\n      dup2\n      mstore\n      0x20\n      add\n      0x00\n      dup2\n      mstore\n      0x20\n      add\n      and(0xff, 0x00)\n      dup2\n      mstore\n      pop\n      swap1\n      jump\t// out\n        /* \"#utility.yul\":7:146   */\n    tag_161:\n        /* \"#utility.yul\":53:58   */\n      0x00\n        /* \"#utility.yul\":91:97   */\n      dup2\n        /* \"#utility.yul\":78:98   */\n      calldataload\n        /* \"#utility.yul\":69:98   */\n      swap1\n      pop\n        /* \"#utility.yul\":107:140   */\n      tag_163\n        /* \"#utility.yul\":134:139   */\n      dup2\n        /* \"#utility.yul\":107:140   */\n      tag_164\n      jump\t// in\n    tag_163:\n        /* \"#utility.yul\":7:146   */\n      swap3\n      swap2\n      pop\n      pop\n      jump\t// out\n        /* \"#utility.yul\":152:289   */\n    tag_165:\n        /* \"#utility.yul\":206:211   */\n      0x00\n        /* \"#utility.yul\":237:243   */\n      dup2\n        /* \"#utility.yul\":231:244   */\n      mload\n        /* \"#utility.yul\":222:244   */\n      swap1\n      pop\n        /* \"#utility.yul\":253:283   */\n      tag_167\n        /* \"#utility.yul\":277:282   */\n      dup2\n        /* \"#utility.yul\":253:283   */\n      tag_168\n      jump\t// in\n    tag_167:\n        /* \"#utility.yul\":152:289   */\n      swap3\n      swap2\n      pop\n      pop\n      jump\t// out\n        /* \"#utility.yul\":295:434   */\n    tag_169:\n        /* \"#utility.yul\":341:346   */\n      0x00\n        /* \"#utility.yul\":379:385   */\n      dup2\n        /* \"#utility.yul\":366:386   */\n      calldataload\n        /* \"#utility.yul\":357:386   */\n      swap1\n      pop\n        /* \"#utility.yul\":395:428   */\n      tag_171\n        /* \"#utility.yul\":422:427   */\n      dup2\n        /* \"#utility.yul\":395:428   */\n      tag_172\n      jump\t// in\n    tag_171:\n        /* \"#utility.yul\":295:434   */\n      swap3\n      swap2\n      pop\n      pop\n      jump\t// out\n        /* \"#utility.yul\":440:583   */\n    tag_173:\n        /* \"#utility.yul\":497:502   */\n      0x00\n        /* \"#utility.yul\":528:534   */\n      dup2\n        /* \"#utility.yul\":522:535   */\n      mload\n        /* \"#utility.yul\":513:535   */\n      swap1\n      pop\n        /* \"#utility.yul\":544:577   */\n      tag_175\n        /* \"#utility.yul\":571:576   */\n      dup2\n        /* \"#utility.yul\":544:577   */\n      tag_172\n      jump\t// in\n    tag_175:\n        /* \"#utility.yul\":440:583   */\n      swap3\n      swap2\n      pop\n      pop\n      jump\t// out\n        /* \"#utility.yul\":589:918   */\n    tag_46:\n        /* \"#utility.yul\":648:654   */\n      0x00\n        /* \"#utility.yul\":697:699   */\n      0x20\n        /* \"#utility.yul\":685:694   */\n      dup3\n        /* \"#utility.yul\":676:683   */\n      dup5\n        /* \"#utility.yul\":672:695   */\n      sub\n        /* \"#utility.yul\":668:700   */\n      slt\n        /* \"#utility.yul\":665:784   */\n      iszero\n      tag_177\n      jumpi\n        /* \"#utility.yul\":703:782   */\n      tag_178\n      tag_179\n      jump\t// in\n    tag_178:\n        /* \"#utility.yul\":665:784   */\n    tag_177:\n        /* \"#utility.yul\":823:824   */\n      0x00\n        /* \"#utility.yul\":848:901   */\n      tag_180\n        /* \"#utility.yul\":893:900   */\n      dup5\n        /* \"#utility.yul\":884:890   */\n      dup3\n        /* \"#utility.yul\":873:882   */\n      dup6\n        /* \"#utility.yul\":869:891   */\n      add\n        /* \"#utility.yul\":848:901   */\n      tag_161\n      jump\t// in\n    tag_180:\n        /* \"#utility.yul\":838:901   */\n      swap2\n      pop\n        /* \"#utility.yul\":794:911   */\n      pop\n        /* \"#utility.yul\":589:918   */\n      swap3\n      swap2\n      pop\n      pop\n      jump\t// out\n        /* \"#utility.yul\":924:1269   */\n    tag_101:\n        /* \"#utility.yul\":991:997   */\n      0x00\n        /* \"#utility.yul\":1040:1042   */\n      0x20\n        /* \"#utility.yul\":1028:1037   */\n      dup3\n        /* \"#utility.yul\":1019:1026   */\n      dup5\n        /* \"#utility.yul\":1015:1038   */\n      sub\n        /* \"#utility.yul\":1011:1043   */\n      slt\n        /* \"#utility.yul\":1008:1127   */\n      iszero\n      tag_182\n      jumpi\n        /* \"#utility.yul\":1046:1125   */\n      tag_183\n      tag_179\n      jump\t// in\n    tag_183:\n        /* \"#utility.yul\":1008:1127   */\n    tag_182:\n        /* \"#utility.yul\":1166:1167   */\n      0x00\n        /* \"#utility.yul\":1191:1252   */\n      tag_184\n        /* \"#utility.yul\":1244:1251   */\n      dup5\n        /* \"#utility.yul\":1235:1241   */\n      dup3\n        /* \"#utility.yul\":1224:1233   */\n      dup6\n        /* \"#utility.yul\":1220:1242   */\n      add\n        /* \"#utility.yul\":1191:1252   */\n      tag_165\n      jump\t// in\n    tag_184:\n        /* \"#utility.yul\":1181:1252   */\n      swap2\n      pop\n        /* \"#utility.yul\":1137:1262   */\n      pop\n        /* \"#utility.yul\":924:1269   */\n      swap3\n      swap2\n      pop\n      pop\n      jump\t// out\n        /* \"#utility.yul\":1275:1604   */\n    tag_31:\n        /* \"#utility.yul\":1334:1340   */\n      0x00\n        /* \"#utility.yul\":1383:1385   */\n      0x20\n        /* \"#utility.yul\":1371:1380   */\n      dup3\n        /* \"#utility.yul\":1362:1369   */\n      dup5\n        /* \"#utility.yul\":1358:1381   */\n      sub\n        /* \"#utility.yul\":1354:1386   */\n      slt\n        /* \"#utility.yul\":1351:1470   */\n      iszero\n      tag_186\n      jumpi\n        /* \"#utility.yul\":1389:1468   */\n      tag_187\n      tag_179\n      jump\t// in\n    tag_187:\n        /* \"#utility.yul\":1351:1470   */\n    tag_186:\n        /* \"#utility.yul\":1509:1510   */\n      0x00\n        /* \"#utility.yul\":1534:1587   */\n      tag_188\n        /* \"#utility.yul\":1579:1586   */\n      dup5\n        /* \"#utility.yul\":1570:1576   */\n      dup3\n        /* \"#utility.yul\":1559:1568   */\n      dup6\n        /* \"#utility.yul\":1555:1577   */\n      add\n        /* \"#utility.yul\":1534:1587   */\n      tag_169\n      jump\t// in\n    tag_188:\n        /* \"#utility.yul\":1524:1587   */\n      swap2\n      pop\n        /* \"#utility.yul\":1480:1597   */\n      pop\n        /* \"#utility.yul\":1275:1604   */\n      swap3\n      swap2\n      pop\n      pop\n      jump\t// out\n        /* \"#utility.yul\":1610:1961   */\n    tag_91:\n        /* \"#utility.yul\":1680:1686   */\n      0x00\n        /* \"#utility.yul\":1729:1731   */\n      0x20\n        /* \"#utility.yul\":1717:1726   */\n      dup3\n        /* \"#utility.yul\":1708:1715   */\n      dup5\n        /* \"#utility.yul\":1704:1727   */\n      sub\n        /* \"#utility.yul\":1700:1732   */\n      slt\n        /* \"#utility.yul\":1697:1816   */\n      iszero\n      tag_190\n      jumpi\n        /* \"#utility.yul\":1735:1814   */\n      tag_191\n      tag_179\n      jump\t// in\n    tag_191:\n        /* \"#utility.yul\":1697:1816   */\n    tag_190:\n        /* \"#utility.yul\":1855:1856   */\n      0x00\n        /* \"#utility.yul\":1880:1944   */\n      tag_192\n        /* \"#utility.yul\":1936:1943   */\n      dup5\n        /* \"#utility.yul\":1927:1933   */\n      dup3\n        /* \"#utility.yul\":1916:1925   */\n      dup6\n        /* \"#utility.yul\":1912:1934   */\n      add\n        /* \"#utility.yul\":1880:1944   */\n      tag_173\n      jump\t// in\n    tag_192:\n        /* \"#utility.yul\":1870:1944   */\n      swap2\n      pop\n        /* \"#utility.yul\":1826:1954   */\n      pop\n        /* \"#utility.yul\":1610:1961   */\n      swap3\n      swap2\n      pop\n      pop\n      jump\t// out\n        /* \"#utility.yul\":1967:2234   */\n    tag_193:\n        /* \"#utility.yul\":2080:2090   */\n      0x00\n        /* \"#utility.yul\":2101:2191   */\n      tag_195\n        /* \"#utility.yul\":2187:2190   */\n      dup4\n        /* \"#utility.yul\":2179:2185   */\n      dup4\n        /* \"#utility.yul\":2101:2191   */\n      tag_196\n      jump\t// in\n    tag_195:\n        /* \"#utility.yul\":2223:2227   */\n      0x80\n        /* \"#utility.yul\":2218:2221   */\n      dup4\n        /* \"#utility.yul\":2214:2228   */\n      add\n        /* \"#utility.yul\":2200:2228   */\n      swap1\n      pop\n        /* \"#utility.yul\":1967:2234   */\n      swap3\n      swap2\n      pop\n      pop\n      jump\t// out\n        /* \"#utility.yul\":2240:2348   */\n    tag_197:\n        /* \"#utility.yul\":2317:2341   */\n      tag_199\n        /* \"#utility.yul\":2335:2340   */\n      dup2\n        /* \"#utility.yul\":2317:2341   */\n      tag_200\n      jump\t// in\n    tag_199:\n        /* \"#utility.yul\":2312:2315   */\n      dup3\n        /* \"#utility.yul\":2305:2342   */\n      mstore\n        /* \"#utility.yul\":2240:2348   */\n      pop\n      pop\n      jump\t// out\n        /* \"#utility.yul\":2354:2472   */\n    tag_201:\n        /* \"#utility.yul\":2441:2465   */\n      tag_203\n        /* \"#utility.yul\":2459:2464   */\n      dup2\n        /* \"#utility.yul\":2441:2465   */\n      tag_200\n      jump\t// in\n    tag_203:\n        /* \"#utility.yul\":2436:2439   */\n      dup3\n        /* \"#utility.yul\":2429:2466   */\n      mstore\n        /* \"#utility.yul\":2354:2472   */\n      pop\n      pop\n      jump\t// out\n        /* \"#utility.yul\":2550:3458   */\n    tag_204:\n        /* \"#utility.yul\":2713:2716   */\n      0x00\n        /* \"#utility.yul\":2742:2818   */\n      tag_206\n        /* \"#utility.yul\":2812:2817   */\n      dup3\n        /* \"#utility.yul\":2742:2818   */\n      tag_207\n      jump\t// in\n    tag_206:\n        /* \"#utility.yul\":2834:2942   */\n      tag_208\n        /* \"#utility.yul\":2935:2941   */\n      dup2\n        /* \"#utility.yul\":2930:2933   */\n      dup6\n        /* \"#utility.yul\":2834:2942   */\n      tag_209\n      jump\t// in\n    tag_208:\n        /* \"#utility.yul\":2827:2942   */\n      swap4\n      pop\n        /* \"#utility.yul\":2966:3044   */\n      tag_210\n        /* \"#utility.yul\":3038:3043   */\n      dup4\n        /* \"#utility.yul\":2966:3044   */\n      tag_211\n      jump\t// in\n    tag_210:\n        /* \"#utility.yul\":3067:3074   */\n      dup1\n        /* \"#utility.yul\":3098:3099   */\n      0x00\n        /* \"#utility.yul\":3083:3433   */\n    tag_212:\n        /* \"#utility.yul\":3108:3114   */\n      dup4\n        /* \"#utility.yul\":3105:3106   */\n      dup2\n        /* \"#utility.yul\":3102:3115   */\n      lt\n        /* \"#utility.yul\":3083:3433   */\n      iszero\n      tag_214\n      jumpi\n        /* \"#utility.yul\":3184:3190   */\n      dup2\n        /* \"#utility.yul\":3178:3191   */\n      mload\n        /* \"#utility.yul\":3211:3318   */\n      tag_215\n        /* \"#utility.yul\":3314:3317   */\n      dup9\n        /* \"#utility.yul\":3299:3312   */\n      dup3\n        /* \"#utility.yul\":3211:3318   */\n      tag_193\n      jump\t// in\n    tag_215:\n        /* \"#utility.yul\":3204:3318   */\n      swap8\n      pop\n        /* \"#utility.yul\":3341:3423   */\n      tag_216\n        /* \"#utility.yul\":3416:3422   */\n      dup4\n        /* \"#utility.yul\":3341:3423   */\n      tag_217\n      jump\t// in\n    tag_216:\n        /* \"#utility.yul\":3331:3423   */\n      swap3\n      pop\n        /* \"#utility.yul\":3143:3433   */\n      pop\n        /* \"#utility.yul\":3130:3131   */\n      0x01\n        /* \"#utility.yul\":3127:3128   */\n      dup2\n        /* \"#utility.yul\":3123:3132   */\n      add\n        /* \"#utility.yul\":3118:3132   */\n      swap1\n      pop\n        /* \"#utility.yul\":3083:3433   */\n      jump(tag_212)\n    tag_214:\n        /* \"#utility.yul\":3087:3101   */\n      pop\n        /* \"#utility.yul\":3449:3452   */\n      dup6\n        /* \"#utility.yul\":3442:3452   */\n      swap4\n      pop\n        /* \"#utility.yul\":2718:3458   */\n      pop\n      pop\n      pop\n        /* \"#utility.yul\":2550:3458   */\n      swap3\n      swap2\n      pop\n      pop\n      jump\t// out\n        /* \"#utility.yul\":3464:3573   */\n    tag_218:\n        /* \"#utility.yul\":3545:3566   */\n      tag_220\n        /* \"#utility.yul\":3560:3565   */\n      dup2\n        /* \"#utility.yul\":3545:3566   */\n      tag_221\n      jump\t// in\n    tag_220:\n        /* \"#utility.yul\":3540:3543   */\n      dup3\n        /* \"#utility.yul\":3533:3567   */\n      mstore\n        /* \"#utility.yul\":3464:3573   */\n      pop\n      pop\n      jump\t// out\n        /* \"#utility.yul\":3579:3945   */\n    tag_222:\n        /* \"#utility.yul\":3721:3724   */\n      0x00\n        /* \"#utility.yul\":3742:3809   */\n      tag_224\n        /* \"#utility.yul\":3806:3808   */\n      0x1b\n        /* \"#utility.yul\":3801:3804   */\n      dup4\n        /* \"#utility.yul\":3742:3809   */\n      tag_225\n      jump\t// in\n    tag_224:\n        /* \"#utility.yul\":3735:3809   */\n      swap2\n      pop\n        /* \"#utility.yul\":3818:3911   */\n      tag_226\n        /* \"#utility.yul\":3907:3910   */\n      dup3\n        /* \"#utility.yul\":3818:3911   */\n      tag_227\n      jump\t// in\n    tag_226:\n        /* \"#utility.yul\":3936:3938   */\n      0x20\n        /* \"#utility.yul\":3931:3934   */\n      dup3\n        /* \"#utility.yul\":3927:3939   */\n      add\n        /* \"#utility.yul\":3920:3939   */\n      swap1\n      pop\n        /* \"#utility.yul\":3579:3945   */\n      swap2\n      swap1\n      pop\n      jump\t// out\n        /* \"#utility.yul\":3951:4317   */\n    tag_228:\n        /* \"#utility.yul\":4093:4096   */\n      0x00\n        /* \"#utility.yul\":4114:4181   */\n      tag_230\n        /* \"#utility.yul\":4178:4180   */\n      0x26\n        /* \"#utility.yul\":4173:4176   */\n      dup4\n        /* \"#utility.yul\":4114:4181   */\n      tag_225\n      jump\t// in\n    tag_230:\n        /* \"#utility.yul\":4107:4181   */\n      swap2\n      pop\n        /* \"#utility.yul\":4190:4283   */\n      tag_231\n        /* \"#utility.yul\":4279:4282   */\n      dup3\n        /* \"#utility.yul\":4190:4283   */\n      tag_232\n      jump\t// in\n    tag_231:\n        /* \"#utility.yul\":4308:4310   */\n      0x40\n        /* \"#utility.yul\":4303:4306   */\n      dup3\n        /* \"#utility.yul\":4299:4311   */\n      add\n        /* \"#utility.yul\":4292:4311   */\n      swap1\n      pop\n        /* \"#utility.yul\":3951:4317   */\n      swap2\n      swap1\n      pop\n      jump\t// out\n        /* \"#utility.yul\":4323:4689   */\n    tag_233:\n        /* \"#utility.yul\":4465:4468   */\n      0x00\n        /* \"#utility.yul\":4486:4553   */\n      tag_235\n        /* \"#utility.yul\":4550:4552   */\n      0x16\n        /* \"#utility.yul\":4545:4548   */\n      dup4\n        /* \"#utility.yul\":4486:4553   */\n      tag_225\n      jump\t// in\n    tag_235:\n        /* \"#utility.yul\":4479:4553   */\n      swap2\n      pop\n        /* \"#utility.yul\":4562:4655   */\n      tag_236\n        /* \"#utility.yul\":4651:4654   */\n      dup3\n        /* \"#utility.yul\":4562:4655   */\n      tag_237\n      jump\t// in\n    tag_236:\n        /* \"#utility.yul\":4680:4682   */\n      0x20\n        /* \"#utility.yul\":4675:4678   */\n      dup3\n        /* \"#utility.yul\":4671:4683   */\n      add\n        /* \"#utility.yul\":4664:4683   */\n      swap1\n      pop\n        /* \"#utility.yul\":4323:4689   */\n      swap2\n      swap1\n      pop\n      jump\t// out\n        /* \"#utility.yul\":4695:5061   */\n    tag_238:\n        /* \"#utility.yul\":4837:4840   */\n      0x00\n        /* \"#utility.yul\":4858:4925   */\n      tag_240\n        /* \"#utility.yul\":4922:4924   */\n      0x14\n        /* \"#utility.yul\":4917:4920   */\n      dup4\n        /* \"#utility.yul\":4858:4925   */\n      tag_225\n      jump\t// in\n    tag_240:\n        /* \"#utility.yul\":4851:4925   */\n      swap2\n      pop\n        /* \"#utility.yul\":4934:5027   */\n      tag_241\n        /* \"#utility.yul\":5023:5026   */\n      dup3\n        /* \"#utility.yul\":4934:5027   */\n      tag_242\n      jump\t// in\n    tag_241:\n        /* \"#utility.yul\":5052:5054   */\n      0x20\n        /* \"#utility.yul\":5047:5050   */\n      dup3\n        /* \"#utility.yul\":5043:5055   */\n      add\n        /* \"#utility.yul\":5036:5055   */\n      swap1\n      pop\n        /* \"#utility.yul\":4695:5061   */\n      swap2\n      swap1\n      pop\n      jump\t// out\n        /* \"#utility.yul\":5067:5433   */\n    tag_243:\n        /* \"#utility.yul\":5209:5212   */\n      0x00\n        /* \"#utility.yul\":5230:5297   */\n      tag_245\n        /* \"#utility.yul\":5294:5296   */\n      0x20\n        /* \"#utility.yul\":5289:5292   */\n      dup4\n        /* \"#utility.yul\":5230:5297   */\n      tag_225\n      jump\t// in\n    tag_245:\n        /* \"#utility.yul\":5223:5297   */\n      swap2\n      pop\n        /* \"#utility.yul\":5306:5399   */\n      tag_246\n        /* \"#utility.yul\":5395:5398   */\n      dup3\n        /* \"#utility.yul\":5306:5399   */\n      tag_247\n      jump\t// in\n    tag_246:\n        /* \"#utility.yul\":5424:5426   */\n      0x20\n        /* \"#utility.yul\":5419:5422   */\n      dup3\n        /* \"#utility.yul\":5415:5427   */\n      add\n        /* \"#utility.yul\":5408:5427   */\n      swap1\n      pop\n        /* \"#utility.yul\":5067:5433   */\n      swap2\n      swap1\n      pop\n      jump\t// out\n        /* \"#utility.yul\":5439:5805   */\n    tag_248:\n        /* \"#utility.yul\":5581:5584   */\n      0x00\n        /* \"#utility.yul\":5602:5669   */\n      tag_250\n        /* \"#utility.yul\":5666:5668   */\n      0x14\n        /* \"#utility.yul\":5661:5664   */\n      dup4\n        /* \"#utility.yul\":5602:5669   */\n      tag_225\n      jump\t// in\n    tag_250:\n        /* \"#utility.yul\":5595:5669   */\n      swap2\n      pop\n        /* \"#utility.yul\":5678:5771   */\n      tag_251\n        /* \"#utility.yul\":5767:5770   */\n      dup3\n        /* \"#utility.yul\":5678:5771   */\n      tag_252\n      jump\t// in\n    tag_251:\n        /* \"#utility.yul\":5796:5798   */\n      0x20\n        /* \"#utility.yul\":5791:5794   */\n      dup3\n        /* \"#utility.yul\":5787:5799   */\n      add\n        /* \"#utility.yul\":5780:5799   */\n      swap1\n      pop\n        /* \"#utility.yul\":5439:5805   */\n      swap2\n      swap1\n      pop\n      jump\t// out\n        /* \"#utility.yul\":5879:6727   */\n    tag_196:\n        /* \"#utility.yul\":6010:6014   */\n      0x80\n        /* \"#utility.yul\":6005:6008   */\n      dup3\n        /* \"#utility.yul\":6001:6015   */\n      add\n        /* \"#utility.yul\":6098:6102   */\n      0x00\n        /* \"#utility.yul\":6091:6096   */\n      dup3\n        /* \"#utility.yul\":6087:6103   */\n      add\n        /* \"#utility.yul\":6081:6104   */\n      mload\n        /* \"#utility.yul\":6117:6180   */\n      tag_254\n        /* \"#utility.yul\":6174:6178   */\n      0x00\n        /* \"#utility.yul\":6169:6172   */\n      dup6\n        /* \"#utility.yul\":6165:6179   */\n      add\n        /* \"#utility.yul\":6151:6163   */\n      dup3\n        /* \"#utility.yul\":6117:6180   */\n      tag_197\n      jump\t// in\n    tag_254:\n        /* \"#utility.yul\":6025:6190   */\n      pop\n        /* \"#utility.yul\":6274:6278   */\n      0x20\n        /* \"#utility.yul\":6267:6272   */\n      dup3\n        /* \"#utility.yul\":6263:6279   */\n      add\n        /* \"#utility.yul\":6257:6280   */\n      mload\n        /* \"#utility.yul\":6293:6356   */\n      tag_255\n        /* \"#utility.yul\":6350:6354   */\n      0x20\n        /* \"#utility.yul\":6345:6348   */\n      dup6\n        /* \"#utility.yul\":6341:6355   */\n      add\n        /* \"#utility.yul\":6327:6339   */\n      dup3\n        /* \"#utility.yul\":6293:6356   */\n      tag_256\n      jump\t// in\n    tag_255:\n        /* \"#utility.yul\":6200:6366   */\n      pop\n        /* \"#utility.yul\":6453:6457   */\n      0x40\n        /* \"#utility.yul\":6446:6451   */\n      dup3\n        /* \"#utility.yul\":6442:6458   */\n      add\n        /* \"#utility.yul\":6436:6459   */\n      mload\n        /* \"#utility.yul\":6472:6535   */\n      tag_257\n        /* \"#utility.yul\":6529:6533   */\n      0x40\n        /* \"#utility.yul\":6524:6527   */\n      dup6\n        /* \"#utility.yul\":6520:6534   */\n      add\n        /* \"#utility.yul\":6506:6518   */\n      dup3\n        /* \"#utility.yul\":6472:6535   */\n      tag_256\n      jump\t// in\n    tag_257:\n        /* \"#utility.yul\":6376:6545   */\n      pop\n        /* \"#utility.yul\":6632:6636   */\n      0x60\n        /* \"#utility.yul\":6625:6630   */\n      dup3\n        /* \"#utility.yul\":6621:6637   */\n      add\n        /* \"#utility.yul\":6615:6638   */\n      mload\n        /* \"#utility.yul\":6651:6710   */\n      tag_258\n        /* \"#utility.yul\":6704:6708   */\n      0x60\n        /* \"#utility.yul\":6699:6702   */\n      dup6\n        /* \"#utility.yul\":6695:6709   */\n      add\n        /* \"#utility.yul\":6681:6693   */\n      dup3\n        /* \"#utility.yul\":6651:6710   */\n      tag_259\n      jump\t// in\n    tag_258:\n        /* \"#utility.yul\":6555:6720   */\n      pop\n        /* \"#utility.yul\":5979:6727   */\n      pop\n        /* \"#utility.yul\":5879:6727   */\n      pop\n      pop\n      jump\t// out\n        /* \"#utility.yul\":6801:7659   */\n    tag_260:\n        /* \"#utility.yul\":6942:6946   */\n      0x80\n        /* \"#utility.yul\":6937:6940   */\n      dup3\n        /* \"#utility.yul\":6933:6947   */\n      add\n        /* \"#utility.yul\":7030:7034   */\n      0x00\n        /* \"#utility.yul\":7023:7028   */\n      dup3\n        /* \"#utility.yul\":7019:7035   */\n      add\n        /* \"#utility.yul\":7013:7036   */\n      mload\n        /* \"#utility.yul\":7049:7112   */\n      tag_262\n        /* \"#utility.yul\":7106:7110   */\n      0x00\n        /* \"#utility.yul\":7101:7104   */\n      dup6\n        /* \"#utility.yul\":7097:7111   */\n      add\n        /* \"#utility.yul\":7083:7095   */\n      dup3\n        /* \"#utility.yul\":7049:7112   */\n      tag_197\n      jump\t// in\n    tag_262:\n        /* \"#utility.yul\":6957:7122   */\n      pop\n        /* \"#utility.yul\":7206:7210   */\n      0x20\n        /* \"#utility.yul\":7199:7204   */\n      dup3\n        /* \"#utility.yul\":7195:7211   */\n      add\n        /* \"#utility.yul\":7189:7212   */\n      mload\n        /* \"#utility.yul\":7225:7288   */\n      tag_263\n        /* \"#utility.yul\":7282:7286   */\n      0x20\n        /* \"#utility.yul\":7277:7280   */\n      dup6\n        /* \"#utility.yul\":7273:7287   */\n      add\n        /* \"#utility.yul\":7259:7271   */\n      dup3\n        /* \"#utility.yul\":7225:7288   */\n      tag_256\n      jump\t// in\n    tag_263:\n        /* \"#utility.yul\":7132:7298   */\n      pop\n        /* \"#utility.yul\":7385:7389   */\n      0x40\n        /* \"#utility.yul\":7378:7383   */\n      dup3\n        /* \"#utility.yul\":7374:7390   */\n      add\n        /* \"#utility.yul\":7368:7391   */\n      mload\n        /* \"#utility.yul\":7404:7467   */\n      tag_264\n        /* \"#utility.yul\":7461:7465   */\n      0x40\n        /* \"#utility.yul\":7456:7459   */\n      dup6\n        /* \"#utility.yul\":7452:7466   */\n      add\n        /* \"#utility.yul\":7438:7450   */\n      dup3\n        /* \"#utility.yul\":7404:7467   */\n      tag_256\n      jump\t// in\n    tag_264:\n        /* \"#utility.yul\":7308:7477   */\n      pop\n        /* \"#utility.yul\":7564:7568   */\n      0x60\n        /* \"#utility.yul\":7557:7562   */\n      dup3\n        /* \"#utility.yul\":7553:7569   */\n      add\n        /* \"#utility.yul\":7547:7570   */\n      mload\n        /* \"#utility.yul\":7583:7642   */\n      tag_265\n        /* \"#utility.yul\":7636:7640   */\n      0x60\n        /* \"#utility.yul\":7631:7634   */\n      dup6\n        /* \"#utility.yul\":7627:7641   */\n      add\n        /* \"#utility.yul\":7613:7625   */\n      dup3\n        /* \"#utility.yul\":7583:7642   */\n      tag_259\n      jump\t// in\n    tag_265:\n        /* \"#utility.yul\":7487:7652   */\n      pop\n        /* \"#utility.yul\":6911:7659   */\n      pop\n        /* \"#utility.yul\":6801:7659   */\n      pop\n      pop\n      jump\t// out\n        /* \"#utility.yul\":7665:7773   */\n    tag_256:\n        /* \"#utility.yul\":7742:7766   */\n      tag_267\n        /* \"#utility.yul\":7760:7765   */\n      dup2\n        /* \"#utility.yul\":7742:7766   */\n      tag_268\n      jump\t// in\n    tag_267:\n        /* \"#utility.yul\":7737:7740   */\n      dup3\n        /* \"#utility.yul\":7730:7767   */\n      mstore\n        /* \"#utility.yul\":7665:7773   */\n      pop\n      pop\n      jump\t// out\n        /* \"#utility.yul\":7779:7897   */\n    tag_269:\n        /* \"#utility.yul\":7866:7890   */\n      tag_271\n        /* \"#utility.yul\":7884:7889   */\n      dup2\n        /* \"#utility.yul\":7866:7890   */\n      tag_268\n      jump\t// in\n    tag_271:\n        /* \"#utility.yul\":7861:7864   */\n      dup3\n        /* \"#utility.yul\":7854:7891   */\n      mstore\n        /* \"#utility.yul\":7779:7897   */\n      pop\n      pop\n      jump\t// out\n        /* \"#utility.yul\":7903:8005   */\n    tag_259:\n        /* \"#utility.yul\":7976:7998   */\n      tag_273\n        /* \"#utility.yul\":7992:7997   */\n      dup2\n        /* \"#utility.yul\":7976:7998   */\n      tag_274\n      jump\t// in\n    tag_273:\n        /* \"#utility.yul\":7971:7974   */\n      dup3\n        /* \"#utility.yul\":7964:7999   */\n      mstore\n        /* \"#utility.yul\":7903:8005   */\n      pop\n      pop\n      jump\t// out\n        /* \"#utility.yul\":8011:8233   */\n    tag_27:\n        /* \"#utility.yul\":8104:8108   */\n      0x00\n        /* \"#utility.yul\":8142:8144   */\n      0x20\n        /* \"#utility.yul\":8131:8140   */\n      dup3\n        /* \"#utility.yul\":8127:8145   */\n      add\n        /* \"#utility.yul\":8119:8145   */\n      swap1\n      pop\n        /* \"#utility.yul\":8155:8226   */\n      tag_276\n        /* \"#utility.yul\":8223:8224   */\n      0x00\n        /* \"#utility.yul\":8212:8221   */\n      dup4\n        /* \"#utility.yul\":8208:8225   */\n      add\n        /* \"#utility.yul\":8199:8205   */\n      dup5\n        /* \"#utility.yul\":8155:8226   */\n      tag_201\n      jump\t// in\n    tag_276:\n        /* \"#utility.yul\":8011:8233   */\n      swap3\n      swap2\n      pop\n      pop\n      jump\t// out\n        /* \"#utility.yul\":8239:8681   */\n    tag_96:\n        /* \"#utility.yul\":8388:8392   */\n      0x00\n        /* \"#utility.yul\":8426:8428   */\n      0x60\n        /* \"#utility.yul\":8415:8424   */\n      dup3\n        /* \"#utility.yul\":8411:8429   */\n      add\n        /* \"#utility.yul\":8403:8429   */\n      swap1\n      pop\n        /* \"#utility.yul\":8439:8510   */\n      tag_278\n        /* \"#utility.yul\":8507:8508   */\n      0x00\n        /* \"#utility.yul\":8496:8505   */\n      dup4\n        /* \"#utility.yul\":8492:8509   */\n      add\n        /* \"#utility.yul\":8483:8489   */\n      dup7\n        /* \"#utility.yul\":8439:8510   */\n      tag_201\n      jump\t// in\n    tag_278:\n        /* \"#utility.yul\":8520:8592   */\n      tag_279\n        /* \"#utility.yul\":8588:8590   */\n      0x20\n        /* \"#utility.yul\":8577:8586   */\n      dup4\n        /* \"#utility.yul\":8573:8591   */\n      add\n        /* \"#utility.yul\":8564:8570   */\n      dup6\n        /* \"#utility.yul\":8520:8592   */\n      tag_201\n      jump\t// in\n    tag_279:\n        /* \"#utility.yul\":8602:8674   */\n      tag_280\n        /* \"#utility.yul\":8670:8672   */\n      0x40\n        /* \"#utility.yul\":8659:8668   */\n      dup4\n        /* \"#utility.yul\":8655:8673   */\n      add\n        /* \"#utility.yul\":8646:8652   */\n      dup5\n        /* \"#utility.yul\":8602:8674   */\n      tag_269\n      jump\t// in\n    tag_280:\n        /* \"#utility.yul\":8239:8681   */\n      swap5\n      swap4\n      pop\n      pop\n      pop\n      pop\n      jump\t// out\n        /* \"#utility.yul\":8687:9019   */\n    tag_138:\n        /* \"#utility.yul\":8808:8812   */\n      0x00\n        /* \"#utility.yul\":8846:8848   */\n      0x40\n        /* \"#utility.yul\":8835:8844   */\n      dup3\n        /* \"#utility.yul\":8831:8849   */\n      add\n        /* \"#utility.yul\":8823:8849   */\n      swap1\n      pop\n        /* \"#utility.yul\":8859:8930   */\n      tag_282\n        /* \"#utility.yul\":8927:8928   */\n      0x00\n        /* \"#utility.yul\":8916:8925   */\n      dup4\n        /* \"#utility.yul\":8912:8929   */\n      add\n        /* \"#utility.yul\":8903:8909   */\n      dup6\n        /* \"#utility.yul\":8859:8930   */\n      tag_201\n      jump\t// in\n    tag_282:\n        /* \"#utility.yul\":8940:9012   */\n      tag_283\n        /* \"#utility.yul\":9008:9010   */\n      0x20\n        /* \"#utility.yul\":8997:9006   */\n      dup4\n        /* \"#utility.yul\":8993:9011   */\n      add\n        /* \"#utility.yul\":8984:8990   */\n      dup5\n        /* \"#utility.yul\":8940:9012   */\n      tag_269\n      jump\t// in\n    tag_283:\n        /* \"#utility.yul\":8687:9019   */\n      swap4\n      swap3\n      pop\n      pop\n      pop\n      jump\t// out\n        /* \"#utility.yul\":9025:9667   */\n    tag_106:\n        /* \"#utility.yul\":9246:9250   */\n      0x00\n        /* \"#utility.yul\":9284:9287   */\n      0xe0\n        /* \"#utility.yul\":9273:9282   */\n      dup3\n        /* \"#utility.yul\":9269:9288   */\n      add\n        /* \"#utility.yul\":9261:9288   */\n      swap1\n      pop\n        /* \"#utility.yul\":9298:9369   */\n      tag_285\n        /* \"#utility.yul\":9366:9367   */\n      0x00\n        /* \"#utility.yul\":9355:9364   */\n      dup4\n        /* \"#utility.yul\":9351:9368   */\n      add\n        /* \"#utility.yul\":9342:9348   */\n      dup8\n        /* \"#utility.yul\":9298:9369   */\n      tag_201\n      jump\t// in\n    tag_285:\n        /* \"#utility.yul\":9379:9451   */\n      tag_286\n        /* \"#utility.yul\":9447:9449   */\n      0x20\n        /* \"#utility.yul\":9436:9445   */\n      dup4\n        /* \"#utility.yul\":9432:9450   */\n      add\n        /* \"#utility.yul\":9423:9429   */\n      dup7\n        /* \"#utility.yul\":9379:9451   */\n      tag_269\n      jump\t// in\n    tag_286:\n        /* \"#utility.yul\":9461:9577   */\n      tag_287\n        /* \"#utility.yul\":9573:9575   */\n      0x40\n        /* \"#utility.yul\":9562:9571   */\n      dup4\n        /* \"#utility.yul\":9558:9576   */\n      add\n        /* \"#utility.yul\":9549:9555   */\n      dup6\n        /* \"#utility.yul\":9461:9577   */\n      tag_260\n      jump\t// in\n    tag_287:\n        /* \"#utility.yul\":9587:9660   */\n      tag_288\n        /* \"#utility.yul\":9655:9658   */\n      0xc0\n        /* \"#utility.yul\":9644:9653   */\n      dup4\n        /* \"#utility.yul\":9640:9659   */\n      add\n        /* \"#utility.yul\":9631:9637   */\n      dup5\n        /* \"#utility.yul\":9587:9660   */\n      tag_269\n      jump\t// in\n    tag_288:\n        /* \"#utility.yul\":9025:9667   */\n      swap6\n      swap5\n      pop\n      pop\n      pop\n      pop\n      pop\n      jump\t// out\n        /* \"#utility.yul\":9673:10134   */\n    tag_37:\n        /* \"#utility.yul\":9860:9864   */\n      0x00\n        /* \"#utility.yul\":9898:9900   */\n      0x20\n        /* \"#utility.yul\":9887:9896   */\n      dup3\n        /* \"#utility.yul\":9883:9901   */\n      add\n        /* \"#utility.yul\":9875:9901   */\n      swap1\n      pop\n        /* \"#utility.yul\":9947:9956   */\n      dup2\n        /* \"#utility.yul\":9941:9945   */\n      dup2\n        /* \"#utility.yul\":9937:9957   */\n      sub\n        /* \"#utility.yul\":9933:9934   */\n      0x00\n        /* \"#utility.yul\":9922:9931   */\n      dup4\n        /* \"#utility.yul\":9918:9935   */\n      add\n        /* \"#utility.yul\":9911:9958   */\n      mstore\n        /* \"#utility.yul\":9975:10127   */\n      tag_290\n        /* \"#utility.yul\":10122:10126   */\n      dup2\n        /* \"#utility.yul\":10113:10119   */\n      dup5\n        /* \"#utility.yul\":9975:10127   */\n      tag_204\n      jump\t// in\n    tag_290:\n        /* \"#utility.yul\":9967:10127   */\n      swap1\n      pop\n        /* \"#utility.yul\":9673:10134   */\n      swap3\n      swap2\n      pop\n      pop\n      jump\t// out\n        /* \"#utility.yul\":10140:10350   */\n    tag_42:\n        /* \"#utility.yul\":10227:10231   */\n      0x00\n        /* \"#utility.yul\":10265:10267   */\n      0x20\n        /* \"#utility.yul\":10254:10263   */\n      dup3\n        /* \"#utility.yul\":10250:10268   */\n      add\n        /* \"#utility.yul\":10242:10268   */\n      swap1\n      pop\n        /* \"#utility.yul\":10278:10343   */\n      tag_292\n        /* \"#utility.yul\":10340:10341   */\n      0x00\n        /* \"#utility.yul\":10329:10338   */\n      dup4\n        /* \"#utility.yul\":10325:10342   */\n      add\n        /* \"#utility.yul\":10316:10322   */\n      dup5\n        /* \"#utility.yul\":10278:10343   */\n      tag_218\n      jump\t// in\n    tag_292:\n        /* \"#utility.yul\":10140:10350   */\n      swap3\n      swap2\n      pop\n      pop\n      jump\t// out\n        /* \"#utility.yul\":10356:10775   */\n    tag_94:\n        /* \"#utility.yul\":10522:10526   */\n      0x00\n        /* \"#utility.yul\":10560:10562   */\n      0x20\n        /* \"#utility.yul\":10549:10558   */\n      dup3\n        /* \"#utility.yul\":10545:10563   */\n      add\n        /* \"#utility.yul\":10537:10563   */\n      swap1\n      pop\n        /* \"#utility.yul\":10609:10618   */\n      dup2\n        /* \"#utility.yul\":10603:10607   */\n      dup2\n        /* \"#utility.yul\":10599:10619   */\n      sub\n        /* \"#utility.yul\":10595:10596   */\n      0x00\n        /* \"#utility.yul\":10584:10593   */\n      dup4\n        /* \"#utility.yul\":10580:10597   */\n      add\n        /* \"#utility.yul\":10573:10620   */\n      mstore\n        /* \"#utility.yul\":10637:10768   */\n      tag_294\n        /* \"#utility.yul\":10763:10767   */\n      dup2\n        /* \"#utility.yul\":10637:10768   */\n      tag_222\n      jump\t// in\n    tag_294:\n        /* \"#utility.yul\":10629:10768   */\n      swap1\n      pop\n        /* \"#utility.yul\":10356:10775   */\n      swap2\n      swap1\n      pop\n      jump\t// out\n        /* \"#utility.yul\":10781:11200   */\n    tag_156:\n        /* \"#utility.yul\":10947:10951   */\n      0x00\n        /* \"#utility.yul\":10985:10987   */\n      0x20\n        /* \"#utility.yul\":10974:10983   */\n      dup3\n        /* \"#utility.yul\":10970:10988   */\n      add\n        /* \"#utility.yul\":10962:10988   */\n      swap1\n      pop\n        /* \"#utility.yul\":11034:11043   */\n      dup2\n        /* \"#utility.yul\":11028:11032   */\n      dup2\n        /* \"#utility.yul\":11024:11044   */\n      sub\n        /* \"#utility.yul\":11020:11021   */\n      0x00\n        /* \"#utility.yul\":11009:11018   */\n      dup4\n        /* \"#utility.yul\":11005:11022   */\n      add\n        /* \"#utility.yul\":10998:11045   */\n      mstore\n        /* \"#utility.yul\":11062:11193   */\n      tag_296\n        /* \"#utility.yul\":11188:11192   */\n      dup2\n        /* \"#utility.yul\":11062:11193   */\n      tag_228\n      jump\t// in\n    tag_296:\n        /* \"#utility.yul\":11054:11193   */\n      swap1\n      pop\n        /* \"#utility.yul\":10781:11200   */\n      swap2\n      swap1\n      pop\n      jump\t// out\n        /* \"#utility.yul\":11206:11625   */\n    tag_76:\n        /* \"#utility.yul\":11372:11376   */\n      0x00\n        /* \"#utility.yul\":11410:11412   */\n      0x20\n        /* \"#utility.yul\":11399:11408   */\n      dup3\n        /* \"#utility.yul\":11395:11413   */\n      add\n        /* \"#utility.yul\":11387:11413   */\n      swap1\n      pop\n        /* \"#utility.yul\":11459:11468   */\n      dup2\n        /* \"#utility.yul\":11453:11457   */\n      dup2\n        /* \"#utility.yul\":11449:11469   */\n      sub\n        /* \"#utility.yul\":11445:11446   */\n      0x00\n        /* \"#utility.yul\":11434:11443   */\n      dup4\n        /* \"#utility.yul\":11430:11447   */\n      add\n        /* \"#utility.yul\":11423:11470   */\n      mstore\n        /* \"#utility.yul\":11487:11618   */\n      tag_298\n        /* \"#utility.yul\":11613:11617   */\n      dup2\n        /* \"#utility.yul\":11487:11618   */\n      tag_233\n      jump\t// in\n    tag_298:\n        /* \"#utility.yul\":11479:11618   */\n      swap1\n      pop\n        /* \"#utility.yul\":11206:11625   */\n      swap2\n      swap1\n      pop\n      jump\t// out\n        /* \"#utility.yul\":11631:12050   */\n    tag_81:\n        /* \"#utility.yul\":11797:11801   */\n      0x00\n        /* \"#utility.yul\":11835:11837   */\n      0x20\n        /* \"#utility.yul\":11824:11833   */\n      dup3\n        /* \"#utility.yul\":11820:11838   */\n      add\n        /* \"#utility.yul\":11812:11838   */\n      swap1\n      pop\n        /* \"#utility.yul\":11884:11893   */\n      dup2\n        /* \"#utility.yul\":11878:11882   */\n      dup2\n        /* \"#utility.yul\":11874:11894   */\n      sub\n        /* \"#utility.yul\":11870:11871   */\n      0x00\n        /* \"#utility.yul\":11859:11868   */\n      dup4\n        /* \"#utility.yul\":11855:11872   */\n      add\n        /* \"#utility.yul\":11848:11895   */\n      mstore\n        /* \"#utility.yul\":11912:12043   */\n      tag_300\n        /* \"#utility.yul\":12038:12042   */\n      dup2\n        /* \"#utility.yul\":11912:12043   */\n      tag_238\n      jump\t// in\n    tag_300:\n        /* \"#utility.yul\":11904:12043   */\n      swap1\n      pop\n        /* \"#utility.yul\":11631:12050   */\n      swap2\n      swap1\n      pop\n      jump\t// out\n        /* \"#utility.yul\":12056:12475   */\n    tag_62:\n        /* \"#utility.yul\":12222:12226   */\n      0x00\n        /* \"#utility.yul\":12260:12262   */\n      0x20\n        /* \"#utility.yul\":12249:12258   */\n      dup3\n        /* \"#utility.yul\":12245:12263   */\n      add\n        /* \"#utility.yul\":12237:12263   */\n      swap1\n      pop\n        /* \"#utility.yul\":12309:12318   */\n      dup2\n        /* \"#utility.yul\":12303:12307   */\n      dup2\n        /* \"#utility.yul\":12299:12319   */\n      sub\n        /* \"#utility.yul\":12295:12296   */\n      0x00\n        /* \"#utility.yul\":12284:12293   */\n      dup4\n        /* \"#utility.yul\":12280:12297   */\n      add\n        /* \"#utility.yul\":12273:12320   */\n      mstore\n        /* \"#utility.yul\":12337:12468   */\n      tag_302\n        /* \"#utility.yul\":12463:12467   */\n      dup2\n        /* \"#utility.yul\":12337:12468   */\n      tag_243\n      jump\t// in\n    tag_302:\n        /* \"#utility.yul\":12329:12468   */\n      swap1\n      pop\n        /* \"#utility.yul\":12056:12475   */\n      swap2\n      swap1\n      pop\n      jump\t// out\n        /* \"#utility.yul\":12481:12900   */\n    tag_85:\n        /* \"#utility.yul\":12647:12651   */\n      0x00\n        /* \"#utility.yul\":12685:12687   */\n      0x20\n        /* \"#utility.yul\":12674:12683   */\n      dup3\n        /* \"#utility.yul\":12670:12688   */\n      add\n        /* \"#utility.yul\":12662:12688   */\n      swap1\n      pop\n        /* \"#utility.yul\":12734:12743   */\n      dup2\n        /* \"#utility.yul\":12728:12732   */\n      dup2\n        /* \"#utility.yul\":12724:12744   */\n      sub\n        /* \"#utility.yul\":12720:12721   */\n      0x00\n        /* \"#utility.yul\":12709:12718   */\n      dup4\n        /* \"#utility.yul\":12705:12722   */\n      add\n        /* \"#utility.yul\":12698:12745   */\n      mstore\n        /* \"#utility.yul\":12762:12893   */\n      tag_304\n        /* \"#utility.yul\":12888:12892   */\n      dup2\n        /* \"#utility.yul\":12762:12893   */\n      tag_248\n      jump\t// in\n    tag_304:\n        /* \"#utility.yul\":12754:12893   */\n      swap1\n      pop\n        /* \"#utility.yul\":12481:12900   */\n      swap2\n      swap1\n      pop\n      jump\t// out\n        /* \"#utility.yul\":12987:13141   */\n    tag_211:\n        /* \"#utility.yul\":13076:13080   */\n      0x00\n        /* \"#utility.yul\":13099:13102   */\n      dup2\n        /* \"#utility.yul\":13091:13102   */\n      swap1\n      pop\n        /* \"#utility.yul\":13129:13133   */\n      0x20\n        /* \"#utility.yul\":13124:13127   */\n      dup3\n        /* \"#utility.yul\":13120:13134   */\n      add\n        /* \"#utility.yul\":13112:13134   */\n      swap1\n      pop\n        /* \"#utility.yul\":12987:13141   */\n      swap2\n      swap1\n      pop\n      jump\t// out\n        /* \"#utility.yul\":13147:13283   */\n    tag_207:\n        /* \"#utility.yul\":13236:13242   */\n      0x00\n        /* \"#utility.yul\":13270:13275   */\n      dup2\n        /* \"#utility.yul\":13264:13276   */\n      mload\n        /* \"#utility.yul\":13254:13276   */\n      swap1\n      pop\n        /* \"#utility.yul\":13147:13283   */\n      swap2\n      swap1\n      pop\n      jump\t// out\n        /* \"#utility.yul\":13289:13424   */\n    tag_217:\n        /* \"#utility.yul\":13381:13385   */\n      0x00\n        /* \"#utility.yul\":13413:13417   */\n      0x20\n        /* \"#utility.yul\":13408:13411   */\n      dup3\n        /* \"#utility.yul\":13404:13418   */\n      add\n        /* \"#utility.yul\":13396:13418   */\n      swap1\n      pop\n        /* \"#utility.yul\":13289:13424   */\n      swap2\n      swap1\n      pop\n      jump\t// out\n        /* \"#utility.yul\":13430:13636   */\n    tag_209:\n        /* \"#utility.yul\":13551:13562   */\n      0x00\n        /* \"#utility.yul\":13585:13591   */\n      dup3\n        /* \"#utility.yul\":13580:13583   */\n      dup3\n        /* \"#utility.yul\":13573:13592   */\n      mstore\n        /* \"#utility.yul\":13625:13629   */\n      0x20\n        /* \"#utility.yul\":13620:13623   */\n      dup3\n        /* \"#utility.yul\":13616:13630   */\n      add\n        /* \"#utility.yul\":13601:13630   */\n      swap1\n      pop\n        /* \"#utility.yul\":13430:13636   */\n      swap3\n      swap2\n      pop\n      pop\n      jump\t// out\n        /* \"#utility.yul\":13642:13811   */\n    tag_225:\n        /* \"#utility.yul\":13726:13737   */\n      0x00\n        /* \"#utility.yul\":13760:13766   */\n      dup3\n        /* \"#utility.yul\":13755:13758   */\n      dup3\n        /* \"#utility.yul\":13748:13767   */\n      mstore\n        /* \"#utility.yul\":13800:13804   */\n      0x20\n        /* \"#utility.yul\":13795:13798   */\n      dup3\n        /* \"#utility.yul\":13791:13805   */\n      add\n        /* \"#utility.yul\":13776:13805   */\n      swap1\n      pop\n        /* \"#utility.yul\":13642:13811   */\n      swap3\n      swap2\n      pop\n      pop\n      jump\t// out\n        /* \"#utility.yul\":13817:14122   */\n    tag_78:\n        /* \"#utility.yul\":13857:13860   */\n      0x00\n        /* \"#utility.yul\":13876:13896   */\n      tag_313\n        /* \"#utility.yul\":13894:13895   */\n      dup3\n        /* \"#utility.yul\":13876:13896   */\n      tag_268\n      jump\t// in\n    tag_313:\n        /* \"#utility.yul\":13871:13896   */\n      swap2\n      pop\n        /* \"#utility.yul\":13910:13930   */\n      tag_314\n        /* \"#utility.yul\":13928:13929   */\n      dup4\n        /* \"#utility.yul\":13910:13930   */\n      tag_268\n      jump\t// in\n    tag_314:\n        /* \"#utility.yul\":13905:13930   */\n      swap3\n      pop\n        /* \"#utility.yul\":14064:14065   */\n      dup3\n        /* \"#utility.yul\":13996:14062   */\n      0xffffffffffffffffffffffffffffffffffffffffffffffffffffffffffffffff\n        /* \"#utility.yul\":13992:14066   */\n      sub\n        /* \"#utility.yul\":13989:13990   */\n      dup3\n        /* \"#utility.yul\":13986:14067   */\n      gt\n        /* \"#utility.yul\":13983:14090   */\n      iszero\n      tag_315\n      jumpi\n        /* \"#utility.yul\":14070:14088   */\n      tag_316\n      tag_317\n      jump\t// in\n    tag_316:\n        /* \"#utility.yul\":13983:14090   */\n    tag_315:\n        /* \"#utility.yul\":14114:14115   */\n      dup3\n        /* \"#utility.yul\":14111:14112   */\n      dup3\n        /* \"#utility.yul\":14107:14116   */\n      add\n        /* \"#utility.yul\":14100:14116   */\n      swap1\n      pop\n        /* \"#utility.yul\":13817:14122   */\n      swap3\n      swap2\n      pop\n      pop\n      jump\t// out\n        /* \"#utility.yul\":14128:14319   */\n    tag_110:\n        /* \"#utility.yul\":14168:14172   */\n      0x00\n        /* \"#utility.yul\":14188:14208   */\n      tag_319\n        /* \"#utility.yul\":14206:14207   */\n      dup3\n        /* \"#utility.yul\":14188:14208   */\n      tag_268\n      jump\t// in\n    tag_319:\n        /* \"#utility.yul\":14183:14208   */\n      swap2\n      pop\n        /* \"#utility.yul\":14222:14242   */\n      tag_320\n        /* \"#utility.yul\":14240:14241   */\n      dup4\n        /* \"#utility.yul\":14222:14242   */\n      tag_268\n      jump\t// in\n    tag_320:\n        /* \"#utility.yul\":14217:14242   */\n      swap3\n      pop\n        /* \"#utility.yul\":14261:14262   */\n      dup3\n        /* \"#utility.yul\":14258:14259   */\n      dup3\n        /* \"#utility.yul\":14255:14263   */\n      lt\n        /* \"#utility.yul\":14252:14286   */\n      iszero\n      tag_321\n      jumpi\n        /* \"#utility.yul\":14266:14284   */\n      tag_322\n      tag_317\n      jump\t// in\n    tag_322:\n        /* \"#utility.yul\":14252:14286   */\n    tag_321:\n        /* \"#utility.yul\":14311:14312   */\n      dup3\n        /* \"#utility.yul\":14308:14309   */\n      dup3\n        /* \"#utility.yul\":14304:14313   */\n      sub\n        /* \"#utility.yul\":14296:14313   */\n      swap1\n      pop\n        /* \"#utility.yul\":14128:14319   */\n      swap3\n      swap2\n      pop\n      pop\n      jump\t// out\n        /* \"#utility.yul\":14325:14510   */\n    tag_122:\n        /* \"#utility.yul\":14363:14367   */\n      0x00\n        /* \"#utility.yul\":14383:14401   */\n      tag_324\n        /* \"#utility.yul\":14399:14400   */\n      dup3\n        /* \"#utility.yul\":14383:14401   */\n      tag_274\n      jump\t// in\n    tag_324:\n        /* \"#utility.yul\":14378:14401   */\n      swap2\n      pop\n        /* \"#utility.yul\":14415:14433   */\n      tag_325\n        /* \"#utility.yul\":14431:14432   */\n      dup4\n        /* \"#utility.yul\":14415:14433   */\n      tag_274\n      jump\t// in\n    tag_325:\n        /* \"#utility.yul\":14410:14433   */\n      swap3\n      pop\n        /* \"#utility.yul\":14452:14453   */\n      dup3\n        /* \"#utility.yul\":14449:14450   */\n      dup3\n        /* \"#utility.yul\":14446:14454   */\n      lt\n        /* \"#utility.yul\":14443:14477   */\n      iszero\n      tag_326\n      jumpi\n        /* \"#utility.yul\":14457:14475   */\n      tag_327\n      tag_317\n      jump\t// in\n    tag_327:\n        /* \"#utility.yul\":14443:14477   */\n    tag_326:\n        /* \"#utility.yul\":14502:14503   */\n      dup3\n        /* \"#utility.yul\":14499:14500   */\n      dup3\n        /* \"#utility.yul\":14495:14504   */\n      sub\n        /* \"#utility.yul\":14487:14504   */\n      swap1\n      pop\n        /* \"#utility.yul\":14325:14510   */\n      swap3\n      swap2\n      pop\n      pop\n      jump\t// out\n        /* \"#utility.yul\":14516:14612   */\n    tag_200:\n        /* \"#utility.yul\":14553:14560   */\n      0x00\n        /* \"#utility.yul\":14582:14606   */\n      tag_329\n        /* \"#utility.yul\":14600:14605   */\n      dup3\n        /* \"#utility.yul\":14582:14606   */\n      tag_330\n      jump\t// in\n    tag_329:\n        /* \"#utility.yul\":14571:14606   */\n      swap1\n      pop\n        /* \"#utility.yul\":14516:14612   */\n      swap2\n      swap1\n      pop\n      jump\t// out\n        /* \"#utility.yul\":14618:14708   */\n    tag_221:\n        /* \"#utility.yul\":14652:14659   */\n      0x00\n        /* \"#utility.yul\":14695:14700   */\n      dup2\n        /* \"#utility.yul\":14688:14701   */\n      iszero\n        /* \"#utility.yul\":14681:14702   */\n      iszero\n        /* \"#utility.yul\":14670:14702   */\n      swap1\n      pop\n        /* \"#utility.yul\":14618:14708   */\n      swap2\n      swap1\n      pop\n      jump\t// out\n        /* \"#utility.yul\":14714:14840   */\n    tag_330:\n        /* \"#utility.yul\":14751:14758   */\n      0x00\n        /* \"#utility.yul\":14791:14833   */\n      0xffffffffffffffffffffffffffffffffffffffff\n        /* \"#utility.yul\":14784:14789   */\n      dup3\n        /* \"#utility.yul\":14780:14834   */\n      and\n        /* \"#utility.yul\":14769:14834   */\n      swap1\n      pop\n        /* \"#utility.yul\":14714:14840   */\n      swap2\n      swap1\n      pop\n      jump\t// out\n        /* \"#utility.yul\":14846:14923   */\n    tag_268:\n        /* \"#utility.yul\":14883:14890   */\n      0x00\n        /* \"#utility.yul\":14912:14917   */\n      dup2\n        /* \"#utility.yul\":14901:14917   */\n      swap1\n      pop\n        /* \"#utility.yul\":14846:14923   */\n      swap2\n      swap1\n      pop\n      jump\t// out\n        /* \"#utility.yul\":14929:15015   */\n    tag_274:\n        /* \"#utility.yul\":14964:14971   */\n      0x00\n        /* \"#utility.yul\":15004:15008   */\n      0xff\n        /* \"#utility.yul\":14997:15002   */\n      dup3\n        /* \"#utility.yul\":14993:15009   */\n      and\n        /* \"#utility.yul\":14982:15009   */\n      swap1\n      pop\n        /* \"#utility.yul\":14929:15015   */\n      swap2\n      swap1\n      pop\n      jump\t// out\n        /* \"#utility.yul\":15021:15188   */\n    tag_127:\n        /* \"#utility.yul\":15058:15061   */\n      0x00\n        /* \"#utility.yul\":15081:15103   */\n      tag_336\n        /* \"#utility.yul\":15097:15102   */\n      dup3\n        /* \"#utility.yul\":15081:15103   */\n      tag_274\n      jump\t// in\n    tag_336:\n        /* \"#utility.yul\":15072:15103   */\n      swap2\n      pop\n        /* \"#utility.yul\":15125:15129   */\n      0xff\n        /* \"#utility.yul\":15118:15123   */\n      dup3\n        /* \"#utility.yul\":15115:15130   */\n      eq\n        /* \"#utility.yul\":15112:15153   */\n      iszero\n      tag_337\n      jumpi\n        /* \"#utility.yul\":15133:15151   */\n      tag_338\n      tag_317\n      jump\t// in\n    tag_338:\n        /* \"#utility.yul\":15112:15153   */\n    tag_337:\n        /* \"#utility.yul\":15180:15181   */\n      0x01\n        /* \"#utility.yul\":15173:15178   */\n      dup3\n        /* \"#utility.yul\":15169:15182   */\n      add\n        /* \"#utility.yul\":15162:15182   */\n      swap1\n      pop\n        /* \"#utility.yul\":15021:15188   */\n      swap2\n      swap1\n      pop\n      jump\t// out\n        /* \"#utility.yul\":15194:15374   */\n    tag_317:\n        /* \"#utility.yul\":15242:15319   */\n      0x4e487b7100000000000000000000000000000000000000000000000000000000\n        /* \"#utility.yul\":15239:15240   */\n      0x00\n        /* \"#utility.yul\":15232:15320   */\n      mstore\n        /* \"#utility.yul\":15339:15343   */\n      0x11\n        /* \"#utility.yul\":15336:15337   */\n      0x04\n        /* \"#utility.yul\":15329:15344   */\n      mstore\n        /* \"#utility.yul\":15363:15367   */\n      0x24\n        /* \"#utility.yul\":15360:15361   */\n      0x00\n        /* \"#utility.yul\":15353:15368   */\n      revert\n        /* \"#utility.yul\":15380:15560   */\n    tag_125:\n        /* \"#utility.yul\":15428:15505   */\n      0x4e487b7100000000000000000000000000000000000000000000000000000000\n        /* \"#utility.yul\":15425:15426   */\n      0x00\n        /* \"#utility.yul\":15418:15506   */\n      mstore\n        /* \"#utility.yul\":15525:15529   */\n      0x32\n        /* \"#utility.yul\":15522:15523   */\n      0x04\n        /* \"#utility.yul\":15515:15530   */\n      mstore\n        /* \"#utility.yul\":15549:15553   */\n      0x24\n        /* \"#utility.yul\":15546:15547   */\n      0x00\n        /* \"#utility.yul\":15539:15554   */\n      revert\n        /* \"#utility.yul\":15566:15746   */\n    tag_113:\n        /* \"#utility.yul\":15614:15691   */\n      0x4e487b7100000000000000000000000000000000000000000000000000000000\n        /* \"#utility.yul\":15611:15612   */\n      0x00\n        /* \"#utility.yul\":15604:15692   */\n      mstore\n        /* \"#utility.yul\":15711:15715   */\n      0x41\n        /* \"#utility.yul\":15708:15709   */\n      0x04\n        /* \"#utility.yul\":15701:15716   */\n      mstore\n        /* \"#utility.yul\":15735:15739   */\n      0x24\n        /* \"#utility.yul\":15732:15733   */\n      0x00\n        /* \"#utility.yul\":15725:15740   */\n      revert\n        /* \"#utility.yul\":15875:15992   */\n    tag_179:\n        /* \"#utility.yul\":15984:15985   */\n      0x00\n        /* \"#utility.yul\":15981:15982   */\n      dup1\n        /* \"#utility.yul\":15974:15986   */\n      revert\n        /* \"#utility.yul\":15998:16175   */\n    tag_227:\n        /* \"#utility.yul\":16138:16167   */\n      0x4552524f523a20494e53554646494349454e542042414c414e43450000000000\n        /* \"#utility.yul\":16134:16135   */\n      0x00\n        /* \"#utility.yul\":16126:16132   */\n      dup3\n        /* \"#utility.yul\":16122:16136   */\n      add\n        /* \"#utility.yul\":16115:16168   */\n      mstore\n        /* \"#utility.yul\":15998:16175   */\n      pop\n      jump\t// out\n        /* \"#utility.yul\":16181:16406   */\n    tag_232:\n        /* \"#utility.yul\":16321:16355   */\n      0x4f776e61626c653a206e6577206f776e657220697320746865207a65726f2061\n        /* \"#utility.yul\":16317:16318   */\n      0x00\n        /* \"#utility.yul\":16309:16315   */\n      dup3\n        /* \"#utility.yul\":16305:16319   */\n      add\n        /* \"#utility.yul\":16298:16356   */\n      mstore\n        /* \"#utility.yul\":16390:16398   */\n      0x6464726573730000000000000000000000000000000000000000000000000000\n        /* \"#utility.yul\":16385:16387   */\n      0x20\n        /* \"#utility.yul\":16377:16383   */\n      dup3\n        /* \"#utility.yul\":16373:16388   */\n      add\n        /* \"#utility.yul\":16366:16399   */\n      mstore\n        /* \"#utility.yul\":16181:16406   */\n      pop\n      jump\t// out\n        /* \"#utility.yul\":16412:16584   */\n    tag_237:\n        /* \"#utility.yul\":16552:16576   */\n      0x5374616b696e67204973204e6f7420456e61626c656400000000000000000000\n        /* \"#utility.yul\":16548:16549   */\n      0x00\n        /* \"#utility.yul\":16540:16546   */\n      dup3\n        /* \"#utility.yul\":16536:16550   */\n      add\n        /* \"#utility.yul\":16529:16577   */\n      mstore\n        /* \"#utility.yul\":16412:16584   */\n      pop\n      jump\t// out\n        /* \"#utility.yul\":16590:16760   */\n    tag_242:\n        /* \"#utility.yul\":16730:16752   */\n      0x4552524f523a204d4158494d554d205354414b45000000000000000000000000\n        /* \"#utility.yul\":16726:16727   */\n      0x00\n        /* \"#utility.yul\":16718:16724   */\n      dup3\n        /* \"#utility.yul\":16714:16728   */\n      add\n        /* \"#utility.yul\":16707:16753   */\n      mstore\n        /* \"#utility.yul\":16590:16760   */\n      pop\n      jump\t// out\n        /* \"#utility.yul\":16766:16948   */\n    tag_247:\n        /* \"#utility.yul\":16906:16940   */\n      0x4f776e61626c653a2063616c6c6572206973206e6f7420746865206f776e6572\n        /* \"#utility.yul\":16902:16903   */\n      0x00\n        /* \"#utility.yul\":16894:16900   */\n      dup3\n        /* \"#utility.yul\":16890:16904   */\n      add\n        /* \"#utility.yul\":16883:16941   */\n      mstore\n        /* \"#utility.yul\":16766:16948   */\n      pop\n      jump\t// out\n        /* \"#utility.yul\":16954:17124   */\n    tag_252:\n        /* \"#utility.yul\":17094:17116   */\n      0x4552524f523a204d494e494d554d205354414b45000000000000000000000000\n        /* \"#utility.yul\":17090:17091   */\n      0x00\n        /* \"#utility.yul\":17082:17088   */\n      dup3\n        /* \"#utility.yul\":17078:17092   */\n      add\n        /* \"#utility.yul\":17071:17117   */\n      mstore\n        /* \"#utility.yul\":16954:17124   */\n      pop\n      jump\t// out\n        /* \"#utility.yul\":17130:17252   */\n    tag_164:\n        /* \"#utility.yul\":17203:17227   */\n      tag_352\n        /* \"#utility.yul\":17221:17226   */\n      dup2\n        /* \"#utility.yul\":17203:17227   */\n      tag_200\n      jump\t// in\n    tag_352:\n        /* \"#utility.yul\":17196:17201   */\n      dup2\n        /* \"#utility.yul\":17193:17228   */\n      eq\n        /* \"#utility.yul\":17183:17246   */\n      tag_353\n      jumpi\n        /* \"#utility.yul\":17242:17243   */\n      0x00\n        /* \"#utility.yul\":17239:17240   */\n      dup1\n        /* \"#utility.yul\":17232:17244   */\n      revert\n        /* \"#utility.yul\":17183:17246   */\n    tag_353:\n        /* \"#utility.yul\":17130:17252   */\n      pop\n      jump\t// out\n        /* \"#utility.yul\":17258:17374   */\n    tag_168:\n        /* \"#utility.yul\":17328:17349   */\n      tag_355\n        /* \"#utility.yul\":17343:17348   */\n      dup2\n        /* \"#utility.yul\":17328:17349   */\n      tag_221\n      jump\t// in\n    tag_355:\n        /* \"#utility.yul\":17321:17326   */\n      dup2\n        /* \"#utility.yul\":17318:17350   */\n      eq\n        /* \"#utility.yul\":17308:17368   */\n      tag_356\n      jumpi\n        /* \"#utility.yul\":17364:17365   */\n      0x00\n        /* \"#utility.yul\":17361:17362   */\n      dup1\n        /* \"#utility.yul\":17354:17366   */\n      revert\n        /* \"#utility.yul\":17308:17368   */\n    tag_356:\n        /* \"#utility.yul\":17258:17374   */\n      pop\n      jump\t// out\n        /* \"#utility.yul\":17380:17502   */\n    tag_172:\n        /* \"#utility.yul\":17453:17477   */\n      tag_358\n        /* \"#utility.yul\":17471:17476   */\n      dup2\n        /* \"#utility.yul\":17453:17477   */\n      tag_268\n      jump\t// in\n    tag_358:\n        /* \"#utility.yul\":17446:17451   */\n      dup2\n        /* \"#utility.yul\":17443:17478   */\n      eq\n        /* \"#utility.yul\":17433:17496   */\n      tag_359\n      jumpi\n        /* \"#utility.yul\":17492:17493   */\n      0x00\n        /* \"#utility.yul\":17489:17490   */\n      dup1\n        /* \"#utility.yul\":17482:17494   */\n      revert\n        /* \"#utility.yul\":17433:17496   */\n    tag_359:\n        /* \"#utility.yul\":17380:17502   */\n      pop\n      jump\t// out\n\n    auxdata: 0xa26469706673582212206ad391c68e294b83de53995806b5226da70238b63a5d6dc976fab378f98ea59364736f6c63430008070033\n}\n",
				"bytecode": {
					"linkReferences": {},
					"object": "608060405260006002556000600360006101000a81548160ff02191690831515021790555034801561003057600080fd5b5061004d61004261005260201b60201c565b61005a60201b60201c565b61011e565b600033905090565b60008060009054906101000a900473ffffffffffffffffffffffffffffffffffffffff169050816000806101000a81548173ffffffffffffffffffffffffffffffffffffffff021916908373ffffffffffffffffffffffffffffffffffffffff1602179055508173ffffffffffffffffffffffffffffffffffffffff168173ffffffffffffffffffffffffffffffffffffffff167f8be0079c531659141344cd1fd0a4f28419497f9722a3daafe3b4186f6b6457e060405160405180910390a35050565b6117ce8061012d6000396000f3fe60806040526004361061008a5760003560e01c8063b0adfa0911610059578063b0adfa0914610115578063da917aea14610140578063db5689221461016b578063df6a8a1514610194578063f2fde38b146101bd57610091565b806364cb560c14610093578063715018a6146100aa5780638da5cb5b146100c1578063ad95b1c6146100ec57610091565b3661009157005b005b34801561009f57600080fd5b506100a86101e6565b005b3480156100b657600080fd5b506100bf61028e565b005b3480156100cd57600080fd5b506100d6610316565b6040516100e39190611261565b60405180910390f35b3480156100f857600080fd5b50610113600480360381019061010e9190610fbb565b61033f565b005b34801561012157600080fd5b5061012a6107f8565b6040516101379190611321565b60405180910390f35b34801561014c57600080fd5b50610155610964565b6040516101629190611343565b60405180910390f35b34801561017757600080fd5b50610192600480360381019061018d9190610f61565b610977565b005b3480156101a057600080fd5b506101bb60048036038101906101b69190610fbb565b610a37565b005b3480156101c957600080fd5b506101e460048036038101906101df9190610f61565b610d08565b005b6101ee610e00565b73ffffffffffffffffffffffffffffffffffffffff1661020c610316565b73ffffffffffffffffffffffffffffffffffffffff1614610262576040517f08c379a0000000000000000000000000000000000000000000000000000000008152600401610259906113de565b60405180910390fd5b600360009054906101000a900460ff1615600360006101000a81548160ff021916908315150217905550565b610296610e00565b73ffffffffffffffffffffffffffffffffffffffff166102b4610316565b73ffffffffffffffffffffffffffffffffffffffff161461030a576040517f08c379a0000000000000000000000000000000000000000000000000000000008152600401610301906113de565b60405180910390fd5b6103146000610e08565b565b60008060009054906101000a900473ffffffffffffffffffffffffffffffffffffffff16905090565b600360009054906101000a900460ff1661038e576040517f08c379a00000000000000000000000000000000000000000000000000000000081526004016103859061139e565b60405180910390fd5b69d3c21bcecceda100000081600560003373ffffffffffffffffffffffffffffffffffffffff1673ffffffffffffffffffffffffffffffffffffffff168152602001908152602001600020546103e49190611468565b1115610425576040517f08c379a000000000000000000000000000000000000000000000000000000000815260040161041c906113be565b60405180910390fd5b678ac7230489e8000081600560003373ffffffffffffffffffffffffffffffffffffffff1673ffffffffffffffffffffffffffffffffffffffff168152602001908152602001600020546104799190611468565b10156104ba576040517f08c379a00000000000000000000000000000000000000000000000000000000081526004016104b1906113fe565b60405180910390fd5b80600160009054906101000a900473ffffffffffffffffffffffffffffffffffffffff1673ffffffffffffffffffffffffffffffffffffffff166370a08231336040518263ffffffff1660e01b81526004016105169190611261565b60206040518083038186803b15801561052e57600080fd5b505afa158015610542573d6000803e3d6000fd5b505050506040513d601f19601f820116820180604052508101906105669190610fe8565b10156105a7576040517f08c379a000000000000000000000000000000000000000000000000000000000815260040161059e9061135e565b60405180910390fd5b600160009054906101000a900473ffffffffffffffffffffffffffffffffffffffff1673ffffffffffffffffffffffffffffffffffffffff166323b872dd3330846040518463ffffffff1660e01b81526004016106069392919061127c565b602060405180830381600087803b15801561062057600080fd5b505af1158015610634573d6000803e3d6000fd5b505050506040513d601f19601f820116820180604052508101906106589190610f8e565b5080600560003373ffffffffffffffffffffffffffffffffffffffff1673ffffffffffffffffffffffffffffffffffffffff16815260200190815260200160002060008282546106a89190611468565b92505081905550600060405180608001604052803373ffffffffffffffffffffffffffffffffffffffff168152602001838152602001428152602001600060ff168152509050806004600060016002546107029190611468565b815260200190815260200160002060008201518160000160006101000a81548173ffffffffffffffffffffffffffffffffffffffff021916908373ffffffffffffffffffffffffffffffffffffffff160217905550602082015181600101556040820151816002015560608201518160030160006101000a81548160ff021916908360ff1602179055509050507f62cb55e360f9d0014feeb0753042d6fc5798187ede3ddadbf54c03881f53b6123360016002546107c09190611468565b83426040516107d294939291906112dc565b60405180910390a16001600260008282546107ed9190611468565b925050819055505050565b60606000600160025461080b91906114be565b67ffffffffffffffff81111561082457610823611603565b5b60405190808252806020026020018201604052801561085d57816020015b61084a610ecc565b8152602001906001900390816108425790505b5090506000600190505b6002548160ff16101561095c57600460008260ff1681526020019081526020016000206040518060800160405290816000820160009054906101000a900473ffffffffffffffffffffffffffffffffffffffff1673ffffffffffffffffffffffffffffffffffffffff1673ffffffffffffffffffffffffffffffffffffffff16815260200160018201548152602001600282015481526020016003820160009054906101000a900460ff1660ff1660ff16815250508260018361092a91906114f2565b60ff168151811061093e5761093d6115d4565b5b602002602001018190525080806109549061157b565b915050610867565b508091505090565b600360009054906101000a900460ff1681565b61097f610e00565b73ffffffffffffffffffffffffffffffffffffffff1661099d610316565b73ffffffffffffffffffffffffffffffffffffffff16146109f3576040517f08c379a00000000000000000000000000000000000000000000000000000000081526004016109ea906113de565b60405180910390fd5b80600160006101000a81548173ffffffffffffffffffffffffffffffffffffffff021916908373ffffffffffffffffffffffffffffffffffffffff16021790555050565b80600560003373ffffffffffffffffffffffffffffffffffffffff1673ffffffffffffffffffffffffffffffffffffffff168152602001908152602001600020541015610ab9576040517f08c379a0000000000000000000000000000000000000000000000000000000008152600401610ab09061135e565b60405180910390fd5b600160009054906101000a900473ffffffffffffffffffffffffffffffffffffffff1673ffffffffffffffffffffffffffffffffffffffff1663a9059cbb33836040518363ffffffff1660e01b8152600401610b169291906112b3565b602060405180830381600087803b158015610b3057600080fd5b505af1158015610b44573d6000803e3d6000fd5b505050506040513d601f19601f82011682018060405250810190610b689190610f8e565b5080600560003373ffffffffffffffffffffffffffffffffffffffff1673ffffffffffffffffffffffffffffffffffffffff1681526020019081526020016000206000828254610bb891906114be565b92505081905550600060405180608001604052803373ffffffffffffffffffffffffffffffffffffffff168152602001838152602001428152602001600160ff16815250905080600460006001600254610c129190611468565b815260200190815260200160002060008201518160000160006101000a81548173ffffffffffffffffffffffffffffffffffffffff021916908373ffffffffffffffffffffffffffffffffffffffff160217905550602082015181600101556040820151816002015560608201518160030160006101000a81548160ff021916908360ff1602179055509050507f27e09d0dfd4290ba6bbad99e9ed98fce69333c5281617ea1333041d739705b24336001600254610cd09190611468565b8342604051610ce294939291906112dc565b60405180910390a1600160026000828254610cfd9190611468565b925050819055505050565b610d10610e00565b73ffffffffffffffffffffffffffffffffffffffff16610d2e610316565b73ffffffffffffffffffffffffffffffffffffffff1614610d84576040517f08c379a0000000000000000000000000000000000000000000000000000000008152600401610d7b906113de565b60405180910390fd5b600073ffffffffffffffffffffffffffffffffffffffff168173ffffffffffffffffffffffffffffffffffffffff161415610df4576040517f08c379a0000000000000000000000000000000000000000000000000000000008152600401610deb9061137e565b60405180910390fd5b610dfd81610e08565b50565b600033905090565b60008060009054906101000a900473ffffffffffffffffffffffffffffffffffffffff169050816000806101000a81548173ffffffffffffffffffffffffffffffffffffffff021916908373ffffffffffffffffffffffffffffffffffffffff1602179055508173ffffffffffffffffffffffffffffffffffffffff168173ffffffffffffffffffffffffffffffffffffffff167f8be0079c531659141344cd1fd0a4f28419497f9722a3daafe3b4186f6b6457e060405160405180910390a35050565b6040518060800160405280600073ffffffffffffffffffffffffffffffffffffffff1681526020016000815260200160008152602001600060ff1681525090565b600081359050610f1c81611753565b92915050565b600081519050610f318161176a565b92915050565b600081359050610f4681611781565b92915050565b600081519050610f5b81611781565b92915050565b600060208284031215610f7757610f76611632565b5b6000610f8584828501610f0d565b91505092915050565b600060208284031215610fa457610fa3611632565b5b6000610fb284828501610f22565b91505092915050565b600060208284031215610fd157610fd0611632565b5b6000610fdf84828501610f37565b91505092915050565b600060208284031215610ffe57610ffd611632565b5b600061100c84828501610f4c565b91505092915050565b6000611021838361118a565b60808301905092915050565b61103681611526565b82525050565b61104581611526565b82525050565b60006110568261142e565b6110608185611446565b935061106b8361141e565b8060005b8381101561109c5781516110838882611015565b975061108e83611439565b92505060018101905061106f565b5085935050505092915050565b6110b281611538565b82525050565b60006110c5601b83611457565b91506110d082611637565b602082019050919050565b60006110e8602683611457565b91506110f382611660565b604082019050919050565b600061110b601683611457565b9150611116826116af565b602082019050919050565b600061112e601483611457565b9150611139826116d8565b602082019050919050565b6000611151602083611457565b915061115c82611701565b602082019050919050565b6000611174601483611457565b915061117f8261172a565b602082019050919050565b6080820160008201516111a0600085018261102d565b5060208201516111b36020850182611234565b5060408201516111c66040850182611234565b5060608201516111d96060850182611252565b50505050565b6080820160008201516111f5600085018261102d565b5060208201516112086020850182611234565b50604082015161121b6040850182611234565b50606082015161122e6060850182611252565b50505050565b61123d81611564565b82525050565b61124c81611564565b82525050565b61125b8161156e565b82525050565b6000602082019050611276600083018461103c565b92915050565b6000606082019050611291600083018661103c565b61129e602083018561103c565b6112ab6040830184611243565b949350505050565b60006040820190506112c8600083018561103c565b6112d56020830184611243565b9392505050565b600060e0820190506112f1600083018761103c565b6112fe6020830186611243565b61130b60408301856111df565b61131860c0830184611243565b95945050505050565b6000602082019050818103600083015261133b818461104b565b905092915050565b600060208201905061135860008301846110a9565b92915050565b60006020820190508181036000830152611377816110b8565b9050919050565b60006020820190508181036000830152611397816110db565b9050919050565b600060208201905081810360008301526113b7816110fe565b9050919050565b600060208201905081810360008301526113d781611121565b9050919050565b600060208201905081810360008301526113f781611144565b9050919050565b6000602082019050818103600083015261141781611167565b9050919050565b6000819050602082019050919050565b600081519050919050565b6000602082019050919050565b600082825260208201905092915050565b600082825260208201905092915050565b600061147382611564565b915061147e83611564565b9250827fffffffffffffffffffffffffffffffffffffffffffffffffffffffffffffffff038211156114b3576114b26115a5565b5b828201905092915050565b60006114c982611564565b91506114d483611564565b9250828210156114e7576114e66115a5565b5b828203905092915050565b60006114fd8261156e565b91506115088361156e565b92508282101561151b5761151a6115a5565b5b828203905092915050565b600061153182611544565b9050919050565b60008115159050919050565b600073ffffffffffffffffffffffffffffffffffffffff82169050919050565b6000819050919050565b600060ff82169050919050565b60006115868261156e565b915060ff82141561159a576115996115a5565b5b600182019050919050565b7f4e487b7100000000000000000000000000000000000000000000000000000000600052601160045260246000fd5b7f4e487b7100000000000000000000000000000000000000000000000000000000600052603260045260246000fd5b7f4e487b7100000000000000000000000000000000000000000000000000000000600052604160045260246000fd5b600080fd5b7f4552524f523a20494e53554646494349454e542042414c414e43450000000000600082015250565b7f4f776e61626c653a206e6577206f776e657220697320746865207a65726f206160008201527f6464726573730000000000000000000000000000000000000000000000000000602082015250565b7f5374616b696e67204973204e6f7420456e61626c656400000000000000000000600082015250565b7f4552524f523a204d4158494d554d205354414b45000000000000000000000000600082015250565b7f4f776e61626c653a2063616c6c6572206973206e6f7420746865206f776e6572600082015250565b7f4552524f523a204d494e494d554d205354414b45000000000000000000000000600082015250565b61175c81611526565b811461176757600080fd5b50565b61177381611538565b811461177e57600080fd5b50565b61178a81611564565b811461179557600080fd5b5056fea26469706673582212206ad391c68e294b83de53995806b5226da70238b63a5d6dc976fab378f98ea59364736f6c63430008070033",
					"opcodes": "PUSH1 0x80 PUSH1 0x40 MSTORE PUSH1 0x0 PUSH1 0x2 SSTORE PUSH1 0x0 PUSH1 0x3 PUSH1 0x0 PUSH2 0x100 EXP DUP2 SLOAD DUP2 PUSH1 0xFF MUL NOT AND SWAP1 DUP4 ISZERO ISZERO MUL OR SWAP1 SSTORE POP CALLVALUE DUP1 ISZERO PUSH2 0x30 JUMPI PUSH1 0x0 DUP1 REVERT JUMPDEST POP PUSH2 0x4D PUSH2 0x42 PUSH2 0x52 PUSH1 0x20 SHL PUSH1 0x20 SHR JUMP JUMPDEST PUSH2 0x5A PUSH1 0x20 SHL PUSH1 0x20 SHR JUMP JUMPDEST PUSH2 0x11E JUMP JUMPDEST PUSH1 0x0 CALLER SWAP1 POP SWAP1 JUMP JUMPDEST PUSH1 0x0 DUP1 PUSH1 0x0 SWAP1 SLOAD SWAP1 PUSH2 0x100 EXP SWAP1 DIV PUSH20 0xFFFFFFFFFFFFFFFFFFFFFFFFFFFFFFFFFFFFFFFF AND SWAP1 POP DUP2 PUSH1 0x0 DUP1 PUSH2 0x100 EXP DUP2 SLOAD DUP2 PUSH20 0xFFFFFFFFFFFFFFFFFFFFFFFFFFFFFFFFFFFFFFFF MUL NOT AND SWAP1 DUP4 PUSH20 0xFFFFFFFFFFFFFFFFFFFFFFFFFFFFFFFFFFFFFFFF AND MUL OR SWAP1 SSTORE POP DUP2 PUSH20 0xFFFFFFFFFFFFFFFFFFFFFFFFFFFFFFFFFFFFFFFF AND DUP2 PUSH20 0xFFFFFFFFFFFFFFFFFFFFFFFFFFFFFFFFFFFFFFFF AND PUSH32 0x8BE0079C531659141344CD1FD0A4F28419497F9722A3DAAFE3B4186F6B6457E0 PUSH1 0x40 MLOAD PUSH1 0x40 MLOAD DUP1 SWAP2 SUB SWAP1 LOG3 POP POP JUMP JUMPDEST PUSH2 0x17CE DUP1 PUSH2 0x12D PUSH1 0x0 CODECOPY PUSH1 0x0 RETURN INVALID PUSH1 0x80 PUSH1 0x40 MSTORE PUSH1 0x4 CALLDATASIZE LT PUSH2 0x8A JUMPI PUSH1 0x0 CALLDATALOAD PUSH1 0xE0 SHR DUP1 PUSH4 0xB0ADFA09 GT PUSH2 0x59 JUMPI DUP1 PUSH4 0xB0ADFA09 EQ PUSH2 0x115 JUMPI DUP1 PUSH4 0xDA917AEA EQ PUSH2 0x140 JUMPI DUP1 PUSH4 0xDB568922 EQ PUSH2 0x16B JUMPI DUP1 PUSH4 0xDF6A8A15 EQ PUSH2 0x194 JUMPI DUP1 PUSH4 0xF2FDE38B EQ PUSH2 0x1BD JUMPI PUSH2 0x91 JUMP JUMPDEST DUP1 PUSH4 0x64CB560C EQ PUSH2 0x93 JUMPI DUP1 PUSH4 0x715018A6 EQ PUSH2 0xAA JUMPI DUP1 PUSH4 0x8DA5CB5B EQ PUSH2 0xC1 JUMPI DUP1 PUSH4 0xAD95B1C6 EQ PUSH2 0xEC JUMPI PUSH2 0x91 JUMP JUMPDEST CALLDATASIZE PUSH2 0x91 JUMPI STOP JUMPDEST STOP JUMPDEST CALLVALUE DUP1 ISZERO PUSH2 0x9F JUMPI PUSH1 0x0 DUP1 REVERT JUMPDEST POP PUSH2 0xA8 PUSH2 0x1E6 JUMP JUMPDEST STOP JUMPDEST CALLVALUE DUP1 ISZERO PUSH2 0xB6 JUMPI PUSH1 0x0 DUP1 REVERT JUMPDEST POP PUSH2 0xBF PUSH2 0x28E JUMP JUMPDEST STOP JUMPDEST CALLVALUE DUP1 ISZERO PUSH2 0xCD JUMPI PUSH1 0x0 DUP1 REVERT JUMPDEST POP PUSH2 0xD6 PUSH2 0x316 JUMP JUMPDEST PUSH1 0x40 MLOAD PUSH2 0xE3 SWAP2 SWAP1 PUSH2 0x1261 JUMP JUMPDEST PUSH1 0x40 MLOAD DUP1 SWAP2 SUB SWAP1 RETURN JUMPDEST CALLVALUE DUP1 ISZERO PUSH2 0xF8 JUMPI PUSH1 0x0 DUP1 REVERT JUMPDEST POP PUSH2 0x113 PUSH1 0x4 DUP1 CALLDATASIZE SUB DUP2 ADD SWAP1 PUSH2 0x10E SWAP2 SWAP1 PUSH2 0xFBB JUMP JUMPDEST PUSH2 0x33F JUMP JUMPDEST STOP JUMPDEST CALLVALUE DUP1 ISZERO PUSH2 0x121 JUMPI PUSH1 0x0 DUP1 REVERT JUMPDEST POP PUSH2 0x12A PUSH2 0x7F8 JUMP JUMPDEST PUSH1 0x40 MLOAD PUSH2 0x137 SWAP2 SWAP1 PUSH2 0x1321 JUMP JUMPDEST PUSH1 0x40 MLOAD DUP1 SWAP2 SUB SWAP1 RETURN JUMPDEST CALLVALUE DUP1 ISZERO PUSH2 0x14C JUMPI PUSH1 0x0 DUP1 REVERT JUMPDEST POP PUSH2 0x155 PUSH2 0x964 JUMP JUMPDEST PUSH1 0x40 MLOAD PUSH2 0x162 SWAP2 SWAP1 PUSH2 0x1343 JUMP JUMPDEST PUSH1 0x40 MLOAD DUP1 SWAP2 SUB SWAP1 RETURN JUMPDEST CALLVALUE DUP1 ISZERO PUSH2 0x177 JUMPI PUSH1 0x0 DUP1 REVERT JUMPDEST POP PUSH2 0x192 PUSH1 0x4 DUP1 CALLDATASIZE SUB DUP2 ADD SWAP1 PUSH2 0x18D SWAP2 SWAP1 PUSH2 0xF61 JUMP JUMPDEST PUSH2 0x977 JUMP JUMPDEST STOP JUMPDEST CALLVALUE DUP1 ISZERO PUSH2 0x1A0 JUMPI PUSH1 0x0 DUP1 REVERT JUMPDEST POP PUSH2 0x1BB PUSH1 0x4 DUP1 CALLDATASIZE SUB DUP2 ADD SWAP1 PUSH2 0x1B6 SWAP2 SWAP1 PUSH2 0xFBB JUMP JUMPDEST PUSH2 0xA37 JUMP JUMPDEST STOP JUMPDEST CALLVALUE DUP1 ISZERO PUSH2 0x1C9 JUMPI PUSH1 0x0 DUP1 REVERT JUMPDEST POP PUSH2 0x1E4 PUSH1 0x4 DUP1 CALLDATASIZE SUB DUP2 ADD SWAP1 PUSH2 0x1DF SWAP2 SWAP1 PUSH2 0xF61 JUMP JUMPDEST PUSH2 0xD08 JUMP JUMPDEST STOP JUMPDEST PUSH2 0x1EE PUSH2 0xE00 JUMP JUMPDEST PUSH20 0xFFFFFFFFFFFFFFFFFFFFFFFFFFFFFFFFFFFFFFFF AND PUSH2 0x20C PUSH2 0x316 JUMP JUMPDEST PUSH20 0xFFFFFFFFFFFFFFFFFFFFFFFFFFFFFFFFFFFFFFFF AND EQ PUSH2 0x262 JUMPI PUSH1 0x40 MLOAD PUSH32 0x8C379A000000000000000000000000000000000000000000000000000000000 DUP2 MSTORE PUSH1 0x4 ADD PUSH2 0x259 SWAP1 PUSH2 0x13DE JUMP JUMPDEST PUSH1 0x40 MLOAD DUP1 SWAP2 SUB SWAP1 REVERT JUMPDEST PUSH1 0x3 PUSH1 0x0 SWAP1 SLOAD SWAP1 PUSH2 0x100 EXP SWAP1 DIV PUSH1 0xFF AND ISZERO PUSH1 0x3 PUSH1 0x0 PUSH2 0x100 EXP DUP2 SLOAD DUP2 PUSH1 0xFF MUL NOT AND SWAP1 DUP4 ISZERO ISZERO MUL OR SWAP1 SSTORE POP JUMP JUMPDEST PUSH2 0x296 PUSH2 0xE00 JUMP JUMPDEST PUSH20 0xFFFFFFFFFFFFFFFFFFFFFFFFFFFFFFFFFFFFFFFF AND PUSH2 0x2B4 PUSH2 0x316 JUMP JUMPDEST PUSH20 0xFFFFFFFFFFFFFFFFFFFFFFFFFFFFFFFFFFFFFFFF AND EQ PUSH2 0x30A JUMPI PUSH1 0x40 MLOAD PUSH32 0x8C379A000000000000000000000000000000000000000000000000000000000 DUP2 MSTORE PUSH1 0x4 ADD PUSH2 0x301 SWAP1 PUSH2 0x13DE JUMP JUMPDEST PUSH1 0x40 MLOAD DUP1 SWAP2 SUB SWAP1 REVERT JUMPDEST PUSH2 0x314 PUSH1 0x0 PUSH2 0xE08 JUMP JUMPDEST JUMP JUMPDEST PUSH1 0x0 DUP1 PUSH1 0x0 SWAP1 SLOAD SWAP1 PUSH2 0x100 EXP SWAP1 DIV PUSH20 0xFFFFFFFFFFFFFFFFFFFFFFFFFFFFFFFFFFFFFFFF AND SWAP1 POP SWAP1 JUMP JUMPDEST PUSH1 0x3 PUSH1 0x0 SWAP1 SLOAD SWAP1 PUSH2 0x100 EXP SWAP1 DIV PUSH1 0xFF AND PUSH2 0x38E JUMPI PUSH1 0x40 MLOAD PUSH32 0x8C379A000000000000000000000000000000000000000000000000000000000 DUP2 MSTORE PUSH1 0x4 ADD PUSH2 0x385 SWAP1 PUSH2 0x139E JUMP JUMPDEST PUSH1 0x40 MLOAD DUP1 SWAP2 SUB SWAP1 REVERT JUMPDEST PUSH10 0xD3C21BCECCEDA1000000 DUP2 PUSH1 0x5 PUSH1 0x0 CALLER PUSH20 0xFFFFFFFFFFFFFFFFFFFFFFFFFFFFFFFFFFFFFFFF AND PUSH20 0xFFFFFFFFFFFFFFFFFFFFFFFFFFFFFFFFFFFFFFFF AND DUP2 MSTORE PUSH1 0x20 ADD SWAP1 DUP2 MSTORE PUSH1 0x20 ADD PUSH1 0x0 KECCAK256 SLOAD PUSH2 0x3E4 SWAP2 SWAP1 PUSH2 0x1468 JUMP JUMPDEST GT ISZERO PUSH2 0x425 JUMPI PUSH1 0x40 MLOAD PUSH32 0x8C379A000000000000000000000000000000000000000000000000000000000 DUP2 MSTORE PUSH1 0x4 ADD PUSH2 0x41C SWAP1 PUSH2 0x13BE JUMP JUMPDEST PUSH1 0x40 MLOAD DUP1 SWAP2 SUB SWAP1 REVERT JUMPDEST PUSH8 0x8AC7230489E80000 DUP2 PUSH1 0x5 PUSH1 0x0 CALLER PUSH20 0xFFFFFFFFFFFFFFFFFFFFFFFFFFFFFFFFFFFFFFFF AND PUSH20 0xFFFFFFFFFFFFFFFFFFFFFFFFFFFFFFFFFFFFFFFF AND DUP2 MSTORE PUSH1 0x20 ADD SWAP1 DUP2 MSTORE PUSH1 0x20 ADD PUSH1 0x0 KECCAK256 SLOAD PUSH2 0x479 SWAP2 SWAP1 PUSH2 0x1468 JUMP JUMPDEST LT ISZERO PUSH2 0x4BA JUMPI PUSH1 0x40 MLOAD PUSH32 0x8C379A000000000000000000000000000000000000000000000000000000000 DUP2 MSTORE PUSH1 0x4 ADD PUSH2 0x4B1 SWAP1 PUSH2 0x13FE JUMP JUMPDEST PUSH1 0x40 MLOAD DUP1 SWAP2 SUB SWAP1 REVERT JUMPDEST DUP1 PUSH1 0x1 PUSH1 0x0 SWAP1 SLOAD SWAP1 PUSH2 0x100 EXP SWAP1 DIV PUSH20 0xFFFFFFFFFFFFFFFFFFFFFFFFFFFFFFFFFFFFFFFF AND PUSH20 0xFFFFFFFFFFFFFFFFFFFFFFFFFFFFFFFFFFFFFFFF AND PUSH4 0x70A08231 CALLER PUSH1 0x40 MLOAD DUP3 PUSH4 0xFFFFFFFF AND PUSH1 0xE0 SHL DUP2 MSTORE PUSH1 0x4 ADD PUSH2 0x516 SWAP2 SWAP1 PUSH2 0x1261 JUMP JUMPDEST PUSH1 0x20 PUSH1 0x40 MLOAD DUP1 DUP4 SUB DUP2 DUP7 DUP1 EXTCODESIZE ISZERO DUP1 ISZERO PUSH2 0x52E JUMPI PUSH1 0x0 DUP1 REVERT JUMPDEST POP GAS STATICCALL ISZERO DUP1 ISZERO PUSH2 0x542 JUMPI RETURNDATASIZE PUSH1 0x0 DUP1 RETURNDATACOPY RETURNDATASIZE PUSH1 0x0 REVERT JUMPDEST POP POP POP POP PUSH1 0x40 MLOAD RETURNDATASIZE PUSH1 0x1F NOT PUSH1 0x1F DUP3 ADD AND DUP3 ADD DUP1 PUSH1 0x40 MSTORE POP DUP2 ADD SWAP1 PUSH2 0x566 SWAP2 SWAP1 PUSH2 0xFE8 JUMP JUMPDEST LT ISZERO PUSH2 0x5A7 JUMPI PUSH1 0x40 MLOAD PUSH32 0x8C379A000000000000000000000000000000000000000000000000000000000 DUP2 MSTORE PUSH1 0x4 ADD PUSH2 0x59E SWAP1 PUSH2 0x135E JUMP JUMPDEST PUSH1 0x40 MLOAD DUP1 SWAP2 SUB SWAP1 REVERT JUMPDEST PUSH1 0x1 PUSH1 0x0 SWAP1 SLOAD SWAP1 PUSH2 0x100 EXP SWAP1 DIV PUSH20 0xFFFFFFFFFFFFFFFFFFFFFFFFFFFFFFFFFFFFFFFF AND PUSH20 0xFFFFFFFFFFFFFFFFFFFFFFFFFFFFFFFFFFFFFFFF AND PUSH4 0x23B872DD CALLER ADDRESS DUP5 PUSH1 0x40 MLOAD DUP5 PUSH4 0xFFFFFFFF AND PUSH1 0xE0 SHL DUP2 MSTORE PUSH1 0x4 ADD PUSH2 0x606 SWAP4 SWAP3 SWAP2 SWAP1 PUSH2 0x127C JUMP JUMPDEST PUSH1 0x20 PUSH1 0x40 MLOAD DUP1 DUP4 SUB DUP2 PUSH1 0x0 DUP8 DUP1 EXTCODESIZE ISZERO DUP1 ISZERO PUSH2 0x620 JUMPI PUSH1 0x0 DUP1 REVERT JUMPDEST POP GAS CALL ISZERO DUP1 ISZERO PUSH2 0x634 JUMPI RETURNDATASIZE PUSH1 0x0 DUP1 RETURNDATACOPY RETURNDATASIZE PUSH1 0x0 REVERT JUMPDEST POP POP POP POP PUSH1 0x40 MLOAD RETURNDATASIZE PUSH1 0x1F NOT PUSH1 0x1F DUP3 ADD AND DUP3 ADD DUP1 PUSH1 0x40 MSTORE POP DUP2 ADD SWAP1 PUSH2 0x658 SWAP2 SWAP1 PUSH2 0xF8E JUMP JUMPDEST POP DUP1 PUSH1 0x5 PUSH1 0x0 CALLER PUSH20 0xFFFFFFFFFFFFFFFFFFFFFFFFFFFFFFFFFFFFFFFF AND PUSH20 0xFFFFFFFFFFFFFFFFFFFFFFFFFFFFFFFFFFFFFFFF AND DUP2 MSTORE PUSH1 0x20 ADD SWAP1 DUP2 MSTORE PUSH1 0x20 ADD PUSH1 0x0 KECCAK256 PUSH1 0x0 DUP3 DUP3 SLOAD PUSH2 0x6A8 SWAP2 SWAP1 PUSH2 0x1468 JUMP JUMPDEST SWAP3 POP POP DUP2 SWAP1 SSTORE POP PUSH1 0x0 PUSH1 0x40 MLOAD DUP1 PUSH1 0x80 ADD PUSH1 0x40 MSTORE DUP1 CALLER PUSH20 0xFFFFFFFFFFFFFFFFFFFFFFFFFFFFFFFFFFFFFFFF AND DUP2 MSTORE PUSH1 0x20 ADD DUP4 DUP2 MSTORE PUSH1 0x20 ADD TIMESTAMP DUP2 MSTORE PUSH1 0x20 ADD PUSH1 0x0 PUSH1 0xFF AND DUP2 MSTORE POP SWAP1 POP DUP1 PUSH1 0x4 PUSH1 0x0 PUSH1 0x1 PUSH1 0x2 SLOAD PUSH2 0x702 SWAP2 SWAP1 PUSH2 0x1468 JUMP JUMPDEST DUP2 MSTORE PUSH1 0x20 ADD SWAP1 DUP2 MSTORE PUSH1 0x20 ADD PUSH1 0x0 KECCAK256 PUSH1 0x0 DUP3 ADD MLOAD DUP2 PUSH1 0x0 ADD PUSH1 0x0 PUSH2 0x100 EXP DUP2 SLOAD DUP2 PUSH20 0xFFFFFFFFFFFFFFFFFFFFFFFFFFFFFFFFFFFFFFFF MUL NOT AND SWAP1 DUP4 PUSH20 0xFFFFFFFFFFFFFFFFFFFFFFFFFFFFFFFFFFFFFFFF AND MUL OR SWAP1 SSTORE POP PUSH1 0x20 DUP3 ADD MLOAD DUP2 PUSH1 0x1 ADD SSTORE PUSH1 0x40 DUP3 ADD MLOAD DUP2 PUSH1 0x2 ADD SSTORE PUSH1 0x60 DUP3 ADD MLOAD DUP2 PUSH1 0x3 ADD PUSH1 0x0 PUSH2 0x100 EXP DUP2 SLOAD DUP2 PUSH1 0xFF MUL NOT AND SWAP1 DUP4 PUSH1 0xFF AND MUL OR SWAP1 SSTORE POP SWAP1 POP POP PUSH32 0x62CB55E360F9D0014FEEB0753042D6FC5798187EDE3DDADBF54C03881F53B612 CALLER PUSH1 0x1 PUSH1 0x2 SLOAD PUSH2 0x7C0 SWAP2 SWAP1 PUSH2 0x1468 JUMP JUMPDEST DUP4 TIMESTAMP PUSH1 0x40 MLOAD PUSH2 0x7D2 SWAP5 SWAP4 SWAP3 SWAP2 SWAP1 PUSH2 0x12DC JUMP JUMPDEST PUSH1 0x40 MLOAD DUP1 SWAP2 SUB SWAP1 LOG1 PUSH1 0x1 PUSH1 0x2 PUSH1 0x0 DUP3 DUP3 SLOAD PUSH2 0x7ED SWAP2 SWAP1 PUSH2 0x1468 JUMP JUMPDEST SWAP3 POP POP DUP2 SWAP1 SSTORE POP POP POP JUMP JUMPDEST PUSH1 0x60 PUSH1 0x0 PUSH1 0x1 PUSH1 0x2 SLOAD PUSH2 0x80B SWAP2 SWAP1 PUSH2 0x14BE JUMP JUMPDEST PUSH8 0xFFFFFFFFFFFFFFFF DUP2 GT ISZERO PUSH2 0x824 JUMPI PUSH2 0x823 PUSH2 0x1603 JUMP JUMPDEST JUMPDEST PUSH1 0x40 MLOAD SWAP1 DUP1 DUP3 MSTORE DUP1 PUSH1 0x20 MUL PUSH1 0x20 ADD DUP3 ADD PUSH1 0x40 MSTORE DUP1 ISZERO PUSH2 0x85D JUMPI DUP2 PUSH1 0x20 ADD JUMPDEST PUSH2 0x84A PUSH2 0xECC JUMP JUMPDEST DUP2 MSTORE PUSH1 0x20 ADD SWAP1 PUSH1 0x1 SWAP1 SUB SWAP1 DUP2 PUSH2 0x842 JUMPI SWAP1 POP JUMPDEST POP SWAP1 POP PUSH1 0x0 PUSH1 0x1 SWAP1 POP JUMPDEST PUSH1 0x2 SLOAD DUP2 PUSH1 0xFF AND LT ISZERO PUSH2 0x95C JUMPI PUSH1 0x4 PUSH1 0x0 DUP3 PUSH1 0xFF AND DUP2 MSTORE PUSH1 0x20 ADD SWAP1 DUP2 MSTORE PUSH1 0x20 ADD PUSH1 0x0 KECCAK256 PUSH1 0x40 MLOAD DUP1 PUSH1 0x80 ADD PUSH1 0x40 MSTORE SWAP1 DUP2 PUSH1 0x0 DUP3 ADD PUSH1 0x0 SWAP1 SLOAD SWAP1 PUSH2 0x100 EXP SWAP1 DIV PUSH20 0xFFFFFFFFFFFFFFFFFFFFFFFFFFFFFFFFFFFFFFFF AND PUSH20 0xFFFFFFFFFFFFFFFFFFFFFFFFFFFFFFFFFFFFFFFF AND PUSH20 0xFFFFFFFFFFFFFFFFFFFFFFFFFFFFFFFFFFFFFFFF AND DUP2 MSTORE PUSH1 0x20 ADD PUSH1 0x1 DUP3 ADD SLOAD DUP2 MSTORE PUSH1 0x20 ADD PUSH1 0x2 DUP3 ADD SLOAD DUP2 MSTORE PUSH1 0x20 ADD PUSH1 0x3 DUP3 ADD PUSH1 0x0 SWAP1 SLOAD SWAP1 PUSH2 0x100 EXP SWAP1 DIV PUSH1 0xFF AND PUSH1 0xFF AND PUSH1 0xFF AND DUP2 MSTORE POP POP DUP3 PUSH1 0x1 DUP4 PUSH2 0x92A SWAP2 SWAP1 PUSH2 0x14F2 JUMP JUMPDEST PUSH1 0xFF AND DUP2 MLOAD DUP2 LT PUSH2 0x93E JUMPI PUSH2 0x93D PUSH2 0x15D4 JUMP JUMPDEST JUMPDEST PUSH1 0x20 MUL PUSH1 0x20 ADD ADD DUP2 SWAP1 MSTORE POP DUP1 DUP1 PUSH2 0x954 SWAP1 PUSH2 0x157B JUMP JUMPDEST SWAP2 POP POP PUSH2 0x867 JUMP JUMPDEST POP DUP1 SWAP2 POP POP SWAP1 JUMP JUMPDEST PUSH1 0x3 PUSH1 0x0 SWAP1 SLOAD SWAP1 PUSH2 0x100 EXP SWAP1 DIV PUSH1 0xFF AND DUP2 JUMP JUMPDEST PUSH2 0x97F PUSH2 0xE00 JUMP JUMPDEST PUSH20 0xFFFFFFFFFFFFFFFFFFFFFFFFFFFFFFFFFFFFFFFF AND PUSH2 0x99D PUSH2 0x316 JUMP JUMPDEST PUSH20 0xFFFFFFFFFFFFFFFFFFFFFFFFFFFFFFFFFFFFFFFF AND EQ PUSH2 0x9F3 JUMPI PUSH1 0x40 MLOAD PUSH32 0x8C379A000000000000000000000000000000000000000000000000000000000 DUP2 MSTORE PUSH1 0x4 ADD PUSH2 0x9EA SWAP1 PUSH2 0x13DE JUMP JUMPDEST PUSH1 0x40 MLOAD DUP1 SWAP2 SUB SWAP1 REVERT JUMPDEST DUP1 PUSH1 0x1 PUSH1 0x0 PUSH2 0x100 EXP DUP2 SLOAD DUP2 PUSH20 0xFFFFFFFFFFFFFFFFFFFFFFFFFFFFFFFFFFFFFFFF MUL NOT AND SWAP1 DUP4 PUSH20 0xFFFFFFFFFFFFFFFFFFFFFFFFFFFFFFFFFFFFFFFF AND MUL OR SWAP1 SSTORE POP POP JUMP JUMPDEST DUP1 PUSH1 0x5 PUSH1 0x0 CALLER PUSH20 0xFFFFFFFFFFFFFFFFFFFFFFFFFFFFFFFFFFFFFFFF AND PUSH20 0xFFFFFFFFFFFFFFFFFFFFFFFFFFFFFFFFFFFFFFFF AND DUP2 MSTORE PUSH1 0x20 ADD SWAP1 DUP2 MSTORE PUSH1 0x20 ADD PUSH1 0x0 KECCAK256 SLOAD LT ISZERO PUSH2 0xAB9 JUMPI PUSH1 0x40 MLOAD PUSH32 0x8C379A000000000000000000000000000000000000000000000000000000000 DUP2 MSTORE PUSH1 0x4 ADD PUSH2 0xAB0 SWAP1 PUSH2 0x135E JUMP JUMPDEST PUSH1 0x40 MLOAD DUP1 SWAP2 SUB SWAP1 REVERT JUMPDEST PUSH1 0x1 PUSH1 0x0 SWAP1 SLOAD SWAP1 PUSH2 0x100 EXP SWAP1 DIV PUSH20 0xFFFFFFFFFFFFFFFFFFFFFFFFFFFFFFFFFFFFFFFF AND PUSH20 0xFFFFFFFFFFFFFFFFFFFFFFFFFFFFFFFFFFFFFFFF AND PUSH4 0xA9059CBB CALLER DUP4 PUSH1 0x40 MLOAD DUP4 PUSH4 0xFFFFFFFF AND PUSH1 0xE0 SHL DUP2 MSTORE PUSH1 0x4 ADD PUSH2 0xB16 SWAP3 SWAP2 SWAP1 PUSH2 0x12B3 JUMP JUMPDEST PUSH1 0x20 PUSH1 0x40 MLOAD DUP1 DUP4 SUB DUP2 PUSH1 0x0 DUP8 DUP1 EXTCODESIZE ISZERO DUP1 ISZERO PUSH2 0xB30 JUMPI PUSH1 0x0 DUP1 REVERT JUMPDEST POP GAS CALL ISZERO DUP1 ISZERO PUSH2 0xB44 JUMPI RETURNDATASIZE PUSH1 0x0 DUP1 RETURNDATACOPY RETURNDATASIZE PUSH1 0x0 REVERT JUMPDEST POP POP POP POP PUSH1 0x40 MLOAD RETURNDATASIZE PUSH1 0x1F NOT PUSH1 0x1F DUP3 ADD AND DUP3 ADD DUP1 PUSH1 0x40 MSTORE POP DUP2 ADD SWAP1 PUSH2 0xB68 SWAP2 SWAP1 PUSH2 0xF8E JUMP JUMPDEST POP DUP1 PUSH1 0x5 PUSH1 0x0 CALLER PUSH20 0xFFFFFFFFFFFFFFFFFFFFFFFFFFFFFFFFFFFFFFFF AND PUSH20 0xFFFFFFFFFFFFFFFFFFFFFFFFFFFFFFFFFFFFFFFF AND DUP2 MSTORE PUSH1 0x20 ADD SWAP1 DUP2 MSTORE PUSH1 0x20 ADD PUSH1 0x0 KECCAK256 PUSH1 0x0 DUP3 DUP3 SLOAD PUSH2 0xBB8 SWAP2 SWAP1 PUSH2 0x14BE JUMP JUMPDEST SWAP3 POP POP DUP2 SWAP1 SSTORE POP PUSH1 0x0 PUSH1 0x40 MLOAD DUP1 PUSH1 0x80 ADD PUSH1 0x40 MSTORE DUP1 CALLER PUSH20 0xFFFFFFFFFFFFFFFFFFFFFFFFFFFFFFFFFFFFFFFF AND DUP2 MSTORE PUSH1 0x20 ADD DUP4 DUP2 MSTORE PUSH1 0x20 ADD TIMESTAMP DUP2 MSTORE PUSH1 0x20 ADD PUSH1 0x1 PUSH1 0xFF AND DUP2 MSTORE POP SWAP1 POP DUP1 PUSH1 0x4 PUSH1 0x0 PUSH1 0x1 PUSH1 0x2 SLOAD PUSH2 0xC12 SWAP2 SWAP1 PUSH2 0x1468 JUMP JUMPDEST DUP2 MSTORE PUSH1 0x20 ADD SWAP1 DUP2 MSTORE PUSH1 0x20 ADD PUSH1 0x0 KECCAK256 PUSH1 0x0 DUP3 ADD MLOAD DUP2 PUSH1 0x0 ADD PUSH1 0x0 PUSH2 0x100 EXP DUP2 SLOAD DUP2 PUSH20 0xFFFFFFFFFFFFFFFFFFFFFFFFFFFFFFFFFFFFFFFF MUL NOT AND SWAP1 DUP4 PUSH20 0xFFFFFFFFFFFFFFFFFFFFFFFFFFFFFFFFFFFFFFFF AND MUL OR SWAP1 SSTORE POP PUSH1 0x20 DUP3 ADD MLOAD DUP2 PUSH1 0x1 ADD SSTORE PUSH1 0x40 DUP3 ADD MLOAD DUP2 PUSH1 0x2 ADD SSTORE PUSH1 0x60 DUP3 ADD MLOAD DUP2 PUSH1 0x3 ADD PUSH1 0x0 PUSH2 0x100 EXP DUP2 SLOAD DUP2 PUSH1 0xFF MUL NOT AND SWAP1 DUP4 PUSH1 0xFF AND MUL OR SWAP1 SSTORE POP SWAP1 POP POP PUSH32 0x27E09D0DFD4290BA6BBAD99E9ED98FCE69333C5281617EA1333041D739705B24 CALLER PUSH1 0x1 PUSH1 0x2 SLOAD PUSH2 0xCD0 SWAP2 SWAP1 PUSH2 0x1468 JUMP JUMPDEST DUP4 TIMESTAMP PUSH1 0x40 MLOAD PUSH2 0xCE2 SWAP5 SWAP4 SWAP3 SWAP2 SWAP1 PUSH2 0x12DC JUMP JUMPDEST PUSH1 0x40 MLOAD DUP1 SWAP2 SUB SWAP1 LOG1 PUSH1 0x1 PUSH1 0x2 PUSH1 0x0 DUP3 DUP3 SLOAD PUSH2 0xCFD SWAP2 SWAP1 PUSH2 0x1468 JUMP JUMPDEST SWAP3 POP POP DUP2 SWAP1 SSTORE POP POP POP JUMP JUMPDEST PUSH2 0xD10 PUSH2 0xE00 JUMP JUMPDEST PUSH20 0xFFFFFFFFFFFFFFFFFFFFFFFFFFFFFFFFFFFFFFFF AND PUSH2 0xD2E PUSH2 0x316 JUMP JUMPDEST PUSH20 0xFFFFFFFFFFFFFFFFFFFFFFFFFFFFFFFFFFFFFFFF AND EQ PUSH2 0xD84 JUMPI PUSH1 0x40 MLOAD PUSH32 0x8C379A000000000000000000000000000000000000000000000000000000000 DUP2 MSTORE PUSH1 0x4 ADD PUSH2 0xD7B SWAP1 PUSH2 0x13DE JUMP JUMPDEST PUSH1 0x40 MLOAD DUP1 SWAP2 SUB SWAP1 REVERT JUMPDEST PUSH1 0x0 PUSH20 0xFFFFFFFFFFFFFFFFFFFFFFFFFFFFFFFFFFFFFFFF AND DUP2 PUSH20 0xFFFFFFFFFFFFFFFFFFFFFFFFFFFFFFFFFFFFFFFF AND EQ ISZERO PUSH2 0xDF4 JUMPI PUSH1 0x40 MLOAD PUSH32 0x8C379A000000000000000000000000000000000000000000000000000000000 DUP2 MSTORE PUSH1 0x4 ADD PUSH2 0xDEB SWAP1 PUSH2 0x137E JUMP JUMPDEST PUSH1 0x40 MLOAD DUP1 SWAP2 SUB SWAP1 REVERT JUMPDEST PUSH2 0xDFD DUP2 PUSH2 0xE08 JUMP JUMPDEST POP JUMP JUMPDEST PUSH1 0x0 CALLER SWAP1 POP SWAP1 JUMP JUMPDEST PUSH1 0x0 DUP1 PUSH1 0x0 SWAP1 SLOAD SWAP1 PUSH2 0x100 EXP SWAP1 DIV PUSH20 0xFFFFFFFFFFFFFFFFFFFFFFFFFFFFFFFFFFFFFFFF AND SWAP1 POP DUP2 PUSH1 0x0 DUP1 PUSH2 0x100 EXP DUP2 SLOAD DUP2 PUSH20 0xFFFFFFFFFFFFFFFFFFFFFFFFFFFFFFFFFFFFFFFF MUL NOT AND SWAP1 DUP4 PUSH20 0xFFFFFFFFFFFFFFFFFFFFFFFFFFFFFFFFFFFFFFFF AND MUL OR SWAP1 SSTORE POP DUP2 PUSH20 0xFFFFFFFFFFFFFFFFFFFFFFFFFFFFFFFFFFFFFFFF AND DUP2 PUSH20 0xFFFFFFFFFFFFFFFFFFFFFFFFFFFFFFFFFFFFFFFF AND PUSH32 0x8BE0079C531659141344CD1FD0A4F28419497F9722A3DAAFE3B4186F6B6457E0 PUSH1 0x40 MLOAD PUSH1 0x40 MLOAD DUP1 SWAP2 SUB SWAP1 LOG3 POP POP JUMP JUMPDEST PUSH1 0x40 MLOAD DUP1 PUSH1 0x80 ADD PUSH1 0x40 MSTORE DUP1 PUSH1 0x0 PUSH20 0xFFFFFFFFFFFFFFFFFFFFFFFFFFFFFFFFFFFFFFFF AND DUP2 MSTORE PUSH1 0x20 ADD PUSH1 0x0 DUP2 MSTORE PUSH1 0x20 ADD PUSH1 0x0 DUP2 MSTORE PUSH1 0x20 ADD PUSH1 0x0 PUSH1 0xFF AND DUP2 MSTORE POP SWAP1 JUMP JUMPDEST PUSH1 0x0 DUP2 CALLDATALOAD SWAP1 POP PUSH2 0xF1C DUP2 PUSH2 0x1753 JUMP JUMPDEST SWAP3 SWAP2 POP POP JUMP JUMPDEST PUSH1 0x0 DUP2 MLOAD SWAP1 POP PUSH2 0xF31 DUP2 PUSH2 0x176A JUMP JUMPDEST SWAP3 SWAP2 POP POP JUMP JUMPDEST PUSH1 0x0 DUP2 CALLDATALOAD SWAP1 POP PUSH2 0xF46 DUP2 PUSH2 0x1781 JUMP JUMPDEST SWAP3 SWAP2 POP POP JUMP JUMPDEST PUSH1 0x0 DUP2 MLOAD SWAP1 POP PUSH2 0xF5B DUP2 PUSH2 0x1781 JUMP JUMPDEST SWAP3 SWAP2 POP POP JUMP JUMPDEST PUSH1 0x0 PUSH1 0x20 DUP3 DUP5 SUB SLT ISZERO PUSH2 0xF77 JUMPI PUSH2 0xF76 PUSH2 0x1632 JUMP JUMPDEST JUMPDEST PUSH1 0x0 PUSH2 0xF85 DUP5 DUP3 DUP6 ADD PUSH2 0xF0D JUMP JUMPDEST SWAP2 POP POP SWAP3 SWAP2 POP POP JUMP JUMPDEST PUSH1 0x0 PUSH1 0x20 DUP3 DUP5 SUB SLT ISZERO PUSH2 0xFA4 JUMPI PUSH2 0xFA3 PUSH2 0x1632 JUMP JUMPDEST JUMPDEST PUSH1 0x0 PUSH2 0xFB2 DUP5 DUP3 DUP6 ADD PUSH2 0xF22 JUMP JUMPDEST SWAP2 POP POP SWAP3 SWAP2 POP POP JUMP JUMPDEST PUSH1 0x0 PUSH1 0x20 DUP3 DUP5 SUB SLT ISZERO PUSH2 0xFD1 JUMPI PUSH2 0xFD0 PUSH2 0x1632 JUMP JUMPDEST JUMPDEST PUSH1 0x0 PUSH2 0xFDF DUP5 DUP3 DUP6 ADD PUSH2 0xF37 JUMP JUMPDEST SWAP2 POP POP SWAP3 SWAP2 POP POP JUMP JUMPDEST PUSH1 0x0 PUSH1 0x20 DUP3 DUP5 SUB SLT ISZERO PUSH2 0xFFE JUMPI PUSH2 0xFFD PUSH2 0x1632 JUMP JUMPDEST JUMPDEST PUSH1 0x0 PUSH2 0x100C DUP5 DUP3 DUP6 ADD PUSH2 0xF4C JUMP JUMPDEST SWAP2 POP POP SWAP3 SWAP2 POP POP JUMP JUMPDEST PUSH1 0x0 PUSH2 0x1021 DUP4 DUP4 PUSH2 0x118A JUMP JUMPDEST PUSH1 0x80 DUP4 ADD SWAP1 POP SWAP3 SWAP2 POP POP JUMP JUMPDEST PUSH2 0x1036 DUP2 PUSH2 0x1526 JUMP JUMPDEST DUP3 MSTORE POP POP JUMP JUMPDEST PUSH2 0x1045 DUP2 PUSH2 0x1526 JUMP JUMPDEST DUP3 MSTORE POP POP JUMP JUMPDEST PUSH1 0x0 PUSH2 0x1056 DUP3 PUSH2 0x142E JUMP JUMPDEST PUSH2 0x1060 DUP2 DUP6 PUSH2 0x1446 JUMP JUMPDEST SWAP4 POP PUSH2 0x106B DUP4 PUSH2 0x141E JUMP JUMPDEST DUP1 PUSH1 0x0 JUMPDEST DUP4 DUP2 LT ISZERO PUSH2 0x109C JUMPI DUP2 MLOAD PUSH2 0x1083 DUP9 DUP3 PUSH2 0x1015 JUMP JUMPDEST SWAP8 POP PUSH2 0x108E DUP4 PUSH2 0x1439 JUMP JUMPDEST SWAP3 POP POP PUSH1 0x1 DUP2 ADD SWAP1 POP PUSH2 0x106F JUMP JUMPDEST POP DUP6 SWAP4 POP POP POP POP SWAP3 SWAP2 POP POP JUMP JUMPDEST PUSH2 0x10B2 DUP2 PUSH2 0x1538 JUMP JUMPDEST DUP3 MSTORE POP POP JUMP JUMPDEST PUSH1 0x0 PUSH2 0x10C5 PUSH1 0x1B DUP4 PUSH2 0x1457 JUMP JUMPDEST SWAP2 POP PUSH2 0x10D0 DUP3 PUSH2 0x1637 JUMP JUMPDEST PUSH1 0x20 DUP3 ADD SWAP1 POP SWAP2 SWAP1 POP JUMP JUMPDEST PUSH1 0x0 PUSH2 0x10E8 PUSH1 0x26 DUP4 PUSH2 0x1457 JUMP JUMPDEST SWAP2 POP PUSH2 0x10F3 DUP3 PUSH2 0x1660 JUMP JUMPDEST PUSH1 0x40 DUP3 ADD SWAP1 POP SWAP2 SWAP1 POP JUMP JUMPDEST PUSH1 0x0 PUSH2 0x110B PUSH1 0x16 DUP4 PUSH2 0x1457 JUMP JUMPDEST SWAP2 POP PUSH2 0x1116 DUP3 PUSH2 0x16AF JUMP JUMPDEST PUSH1 0x20 DUP3 ADD SWAP1 POP SWAP2 SWAP1 POP JUMP JUMPDEST PUSH1 0x0 PUSH2 0x112E PUSH1 0x14 DUP4 PUSH2 0x1457 JUMP JUMPDEST SWAP2 POP PUSH2 0x1139 DUP3 PUSH2 0x16D8 JUMP JUMPDEST PUSH1 0x20 DUP3 ADD SWAP1 POP SWAP2 SWAP1 POP JUMP JUMPDEST PUSH1 0x0 PUSH2 0x1151 PUSH1 0x20 DUP4 PUSH2 0x1457 JUMP JUMPDEST SWAP2 POP PUSH2 0x115C DUP3 PUSH2 0x1701 JUMP JUMPDEST PUSH1 0x20 DUP3 ADD SWAP1 POP SWAP2 SWAP1 POP JUMP JUMPDEST PUSH1 0x0 PUSH2 0x1174 PUSH1 0x14 DUP4 PUSH2 0x1457 JUMP JUMPDEST SWAP2 POP PUSH2 0x117F DUP3 PUSH2 0x172A JUMP JUMPDEST PUSH1 0x20 DUP3 ADD SWAP1 POP SWAP2 SWAP1 POP JUMP JUMPDEST PUSH1 0x80 DUP3 ADD PUSH1 0x0 DUP3 ADD MLOAD PUSH2 0x11A0 PUSH1 0x0 DUP6 ADD DUP3 PUSH2 0x102D JUMP JUMPDEST POP PUSH1 0x20 DUP3 ADD MLOAD PUSH2 0x11B3 PUSH1 0x20 DUP6 ADD DUP3 PUSH2 0x1234 JUMP JUMPDEST POP PUSH1 0x40 DUP3 ADD MLOAD PUSH2 0x11C6 PUSH1 0x40 DUP6 ADD DUP3 PUSH2 0x1234 JUMP JUMPDEST POP PUSH1 0x60 DUP3 ADD MLOAD PUSH2 0x11D9 PUSH1 0x60 DUP6 ADD DUP3 PUSH2 0x1252 JUMP JUMPDEST POP POP POP POP JUMP JUMPDEST PUSH1 0x80 DUP3 ADD PUSH1 0x0 DUP3 ADD MLOAD PUSH2 0x11F5 PUSH1 0x0 DUP6 ADD DUP3 PUSH2 0x102D JUMP JUMPDEST POP PUSH1 0x20 DUP3 ADD MLOAD PUSH2 0x1208 PUSH1 0x20 DUP6 ADD DUP3 PUSH2 0x1234 JUMP JUMPDEST POP PUSH1 0x40 DUP3 ADD MLOAD PUSH2 0x121B PUSH1 0x40 DUP6 ADD DUP3 PUSH2 0x1234 JUMP JUMPDEST POP PUSH1 0x60 DUP3 ADD MLOAD PUSH2 0x122E PUSH1 0x60 DUP6 ADD DUP3 PUSH2 0x1252 JUMP JUMPDEST POP POP POP POP JUMP JUMPDEST PUSH2 0x123D DUP2 PUSH2 0x1564 JUMP JUMPDEST DUP3 MSTORE POP POP JUMP JUMPDEST PUSH2 0x124C DUP2 PUSH2 0x1564 JUMP JUMPDEST DUP3 MSTORE POP POP JUMP JUMPDEST PUSH2 0x125B DUP2 PUSH2 0x156E JUMP JUMPDEST DUP3 MSTORE POP POP JUMP JUMPDEST PUSH1 0x0 PUSH1 0x20 DUP3 ADD SWAP1 POP PUSH2 0x1276 PUSH1 0x0 DUP4 ADD DUP5 PUSH2 0x103C JUMP JUMPDEST SWAP3 SWAP2 POP POP JUMP JUMPDEST PUSH1 0x0 PUSH1 0x60 DUP3 ADD SWAP1 POP PUSH2 0x1291 PUSH1 0x0 DUP4 ADD DUP7 PUSH2 0x103C JUMP JUMPDEST PUSH2 0x129E PUSH1 0x20 DUP4 ADD DUP6 PUSH2 0x103C JUMP JUMPDEST PUSH2 0x12AB PUSH1 0x40 DUP4 ADD DUP5 PUSH2 0x1243 JUMP JUMPDEST SWAP5 SWAP4 POP POP POP POP JUMP JUMPDEST PUSH1 0x0 PUSH1 0x40 DUP3 ADD SWAP1 POP PUSH2 0x12C8 PUSH1 0x0 DUP4 ADD DUP6 PUSH2 0x103C JUMP JUMPDEST PUSH2 0x12D5 PUSH1 0x20 DUP4 ADD DUP5 PUSH2 0x1243 JUMP JUMPDEST SWAP4 SWAP3 POP POP POP JUMP JUMPDEST PUSH1 0x0 PUSH1 0xE0 DUP3 ADD SWAP1 POP PUSH2 0x12F1 PUSH1 0x0 DUP4 ADD DUP8 PUSH2 0x103C JUMP JUMPDEST PUSH2 0x12FE PUSH1 0x20 DUP4 ADD DUP7 PUSH2 0x1243 JUMP JUMPDEST PUSH2 0x130B PUSH1 0x40 DUP4 ADD DUP6 PUSH2 0x11DF JUMP JUMPDEST PUSH2 0x1318 PUSH1 0xC0 DUP4 ADD DUP5 PUSH2 0x1243 JUMP JUMPDEST SWAP6 SWAP5 POP POP POP POP POP JUMP JUMPDEST PUSH1 0x0 PUSH1 0x20 DUP3 ADD SWAP1 POP DUP2 DUP2 SUB PUSH1 0x0 DUP4 ADD MSTORE PUSH2 0x133B DUP2 DUP5 PUSH2 0x104B JUMP JUMPDEST SWAP1 POP SWAP3 SWAP2 POP POP JUMP JUMPDEST PUSH1 0x0 PUSH1 0x20 DUP3 ADD SWAP1 POP PUSH2 0x1358 PUSH1 0x0 DUP4 ADD DUP5 PUSH2 0x10A9 JUMP JUMPDEST SWAP3 SWAP2 POP POP JUMP JUMPDEST PUSH1 0x0 PUSH1 0x20 DUP3 ADD SWAP1 POP DUP2 DUP2 SUB PUSH1 0x0 DUP4 ADD MSTORE PUSH2 0x1377 DUP2 PUSH2 0x10B8 JUMP JUMPDEST SWAP1 POP SWAP2 SWAP1 POP JUMP JUMPDEST PUSH1 0x0 PUSH1 0x20 DUP3 ADD SWAP1 POP DUP2 DUP2 SUB PUSH1 0x0 DUP4 ADD MSTORE PUSH2 0x1397 DUP2 PUSH2 0x10DB JUMP JUMPDEST SWAP1 POP SWAP2 SWAP1 POP JUMP JUMPDEST PUSH1 0x0 PUSH1 0x20 DUP3 ADD SWAP1 POP DUP2 DUP2 SUB PUSH1 0x0 DUP4 ADD MSTORE PUSH2 0x13B7 DUP2 PUSH2 0x10FE JUMP JUMPDEST SWAP1 POP SWAP2 SWAP1 POP JUMP JUMPDEST PUSH1 0x0 PUSH1 0x20 DUP3 ADD SWAP1 POP DUP2 DUP2 SUB PUSH1 0x0 DUP4 ADD MSTORE PUSH2 0x13D7 DUP2 PUSH2 0x1121 JUMP JUMPDEST SWAP1 POP SWAP2 SWAP1 POP JUMP JUMPDEST PUSH1 0x0 PUSH1 0x20 DUP3 ADD SWAP1 POP DUP2 DUP2 SUB PUSH1 0x0 DUP4 ADD MSTORE PUSH2 0x13F7 DUP2 PUSH2 0x1144 JUMP JUMPDEST SWAP1 POP SWAP2 SWAP1 POP JUMP JUMPDEST PUSH1 0x0 PUSH1 0x20 DUP3 ADD SWAP1 POP DUP2 DUP2 SUB PUSH1 0x0 DUP4 ADD MSTORE PUSH2 0x1417 DUP2 PUSH2 0x1167 JUMP JUMPDEST SWAP1 POP SWAP2 SWAP1 POP JUMP JUMPDEST PUSH1 0x0 DUP2 SWAP1 POP PUSH1 0x20 DUP3 ADD SWAP1 POP SWAP2 SWAP1 POP JUMP JUMPDEST PUSH1 0x0 DUP2 MLOAD SWAP1 POP SWAP2 SWAP1 POP JUMP JUMPDEST PUSH1 0x0 PUSH1 0x20 DUP3 ADD SWAP1 POP SWAP2 SWAP1 POP JUMP JUMPDEST PUSH1 0x0 DUP3 DUP3 MSTORE PUSH1 0x20 DUP3 ADD SWAP1 POP SWAP3 SWAP2 POP POP JUMP JUMPDEST PUSH1 0x0 DUP3 DUP3 MSTORE PUSH1 0x20 DUP3 ADD SWAP1 POP SWAP3 SWAP2 POP POP JUMP JUMPDEST PUSH1 0x0 PUSH2 0x1473 DUP3 PUSH2 0x1564 JUMP JUMPDEST SWAP2 POP PUSH2 0x147E DUP4 PUSH2 0x1564 JUMP JUMPDEST SWAP3 POP DUP3 PUSH32 0xFFFFFFFFFFFFFFFFFFFFFFFFFFFFFFFFFFFFFFFFFFFFFFFFFFFFFFFFFFFFFFFF SUB DUP3 GT ISZERO PUSH2 0x14B3 JUMPI PUSH2 0x14B2 PUSH2 0x15A5 JUMP JUMPDEST JUMPDEST DUP3 DUP3 ADD SWAP1 POP SWAP3 SWAP2 POP POP JUMP JUMPDEST PUSH1 0x0 PUSH2 0x14C9 DUP3 PUSH2 0x1564 JUMP JUMPDEST SWAP2 POP PUSH2 0x14D4 DUP4 PUSH2 0x1564 JUMP JUMPDEST SWAP3 POP DUP3 DUP3 LT ISZERO PUSH2 0x14E7 JUMPI PUSH2 0x14E6 PUSH2 0x15A5 JUMP JUMPDEST JUMPDEST DUP3 DUP3 SUB SWAP1 POP SWAP3 SWAP2 POP POP JUMP JUMPDEST PUSH1 0x0 PUSH2 0x14FD DUP3 PUSH2 0x156E JUMP JUMPDEST SWAP2 POP PUSH2 0x1508 DUP4 PUSH2 0x156E JUMP JUMPDEST SWAP3 POP DUP3 DUP3 LT ISZERO PUSH2 0x151B JUMPI PUSH2 0x151A PUSH2 0x15A5 JUMP JUMPDEST JUMPDEST DUP3 DUP3 SUB SWAP1 POP SWAP3 SWAP2 POP POP JUMP JUMPDEST PUSH1 0x0 PUSH2 0x1531 DUP3 PUSH2 0x1544 JUMP JUMPDEST SWAP1 POP SWAP2 SWAP1 POP JUMP JUMPDEST PUSH1 0x0 DUP2 ISZERO ISZERO SWAP1 POP SWAP2 SWAP1 POP JUMP JUMPDEST PUSH1 0x0 PUSH20 0xFFFFFFFFFFFFFFFFFFFFFFFFFFFFFFFFFFFFFFFF DUP3 AND SWAP1 POP SWAP2 SWAP1 POP JUMP JUMPDEST PUSH1 0x0 DUP2 SWAP1 POP SWAP2 SWAP1 POP JUMP JUMPDEST PUSH1 0x0 PUSH1 0xFF DUP3 AND SWAP1 POP SWAP2 SWAP1 POP JUMP JUMPDEST PUSH1 0x0 PUSH2 0x1586 DUP3 PUSH2 0x156E JUMP JUMPDEST SWAP2 POP PUSH1 0xFF DUP3 EQ ISZERO PUSH2 0x159A JUMPI PUSH2 0x1599 PUSH2 0x15A5 JUMP JUMPDEST JUMPDEST PUSH1 0x1 DUP3 ADD SWAP1 POP SWAP2 SWAP1 POP JUMP JUMPDEST PUSH32 0x4E487B7100000000000000000000000000000000000000000000000000000000 PUSH1 0x0 MSTORE PUSH1 0x11 PUSH1 0x4 MSTORE PUSH1 0x24 PUSH1 0x0 REVERT JUMPDEST PUSH32 0x4E487B7100000000000000000000000000000000000000000000000000000000 PUSH1 0x0 MSTORE PUSH1 0x32 PUSH1 0x4 MSTORE PUSH1 0x24 PUSH1 0x0 REVERT JUMPDEST PUSH32 0x4E487B7100000000000000000000000000000000000000000000000000000000 PUSH1 0x0 MSTORE PUSH1 0x41 PUSH1 0x4 MSTORE PUSH1 0x24 PUSH1 0x0 REVERT JUMPDEST PUSH1 0x0 DUP1 REVERT JUMPDEST PUSH32 0x4552524F523A20494E53554646494349454E542042414C414E43450000000000 PUSH1 0x0 DUP3 ADD MSTORE POP JUMP JUMPDEST PUSH32 0x4F776E61626C653A206E6577206F776E657220697320746865207A65726F2061 PUSH1 0x0 DUP3 ADD MSTORE PUSH32 0x6464726573730000000000000000000000000000000000000000000000000000 PUSH1 0x20 DUP3 ADD MSTORE POP JUMP JUMPDEST PUSH32 0x5374616B696E67204973204E6F7420456E61626C656400000000000000000000 PUSH1 0x0 DUP3 ADD MSTORE POP JUMP JUMPDEST PUSH32 0x4552524F523A204D4158494D554D205354414B45000000000000000000000000 PUSH1 0x0 DUP3 ADD MSTORE POP JUMP JUMPDEST PUSH32 0x4F776E61626C653A2063616C6C6572206973206E6F7420746865206F776E6572 PUSH1 0x0 DUP3 ADD MSTORE POP JUMP JUMPDEST PUSH32 0x4552524F523A204D494E494D554D205354414B45000000000000000000000000 PUSH1 0x0 DUP3 ADD MSTORE POP JUMP JUMPDEST PUSH2 0x175C DUP2 PUSH2 0x1526 JUMP JUMPDEST DUP2 EQ PUSH2 0x1767 JUMPI PUSH1 0x0 DUP1 REVERT JUMPDEST POP JUMP JUMPDEST PUSH2 0x1773 DUP2 PUSH2 0x1538 JUMP JUMPDEST DUP2 EQ PUSH2 0x177E JUMPI PUSH1 0x0 DUP1 REVERT JUMPDEST POP JUMP JUMPDEST PUSH2 0x178A DUP2 PUSH2 0x1564 JUMP JUMPDEST DUP2 EQ PUSH2 0x1795 JUMPI PUSH1 0x0 DUP1 REVERT JUMPDEST POP JUMP INVALID LOG2 PUSH5 0x6970667358 0x22 SLT KECCAK256 PUSH11 0xD391C68E294B83DE539958 MOD 0xB5 0x22 PUSH14 0xA70238B63A5D6DC976FAB378F98E 0xA5 SWAP4 PUSH5 0x736F6C6343 STOP ADDMOD SMOD STOP CALLER "
				},
				"gasEstimates": {
					"creation": {
						"codeDepositCost": "1218800",
						"executionCost": "infinite",
						"totalCost": "infinite"
					},
					"external": {
						"": "174",
						"GetStakingHistory()": "infinite",
						"SetStakingToken(address)": "27006",
						"StakeToken(uint256)": "infinite",
						"StakingEnabled()": "2493",
						"ToggleStaking()": "28791",
						"UnstakeToken(uint256)": "infinite",
						"owner()": "2567",
						"renounceOwnership()": "30397",
						"transferOwnership(address)": "30811"
					}
				},
				"methodIdentifiers": {
					"GetStakingHistory()": "b0adfa09",
					"SetStakingToken(address)": "db568922",
					"StakeToken(uint256)": "ad95b1c6",
					"StakingEnabled()": "da917aea",
					"ToggleStaking()": "64cb560c",
					"UnstakeToken(uint256)": "df6a8a15",
					"owner()": "8da5cb5b",
					"renounceOwnership()": "715018a6",
					"transferOwnership(address)": "f2fde38b"
				}
			},
			"storageLayout": {
				"storage": [
					{
						"astId": 7,
						"contract": "Solidity Part/contracts/staking.sol:StakingContract",
						"label": "_owner",
						"offset": 0,
						"slot": "0",
						"type": "t_address"
					},
					{
						"astId": 161,
						"contract": "Solidity Part/contracts/staking.sol:StakingContract",
						"label": "StakingToken",
						"offset": 0,
						"slot": "1",
						"type": "t_address"
					},
					{
						"astId": 164,
						"contract": "Solidity Part/contracts/staking.sol:StakingContract",
						"label": "currentID",
						"offset": 0,
						"slot": "2",
						"type": "t_uint256"
					},
					{
						"astId": 167,
						"contract": "Solidity Part/contracts/staking.sol:StakingContract",
						"label": "StakingEnabled",
						"offset": 0,
						"slot": "3",
						"type": "t_bool"
					},
					{
						"astId": 181,
						"contract": "Solidity Part/contracts/staking.sol:StakingContract",
						"label": "StakingHistory",
						"offset": 0,
						"slot": "4",
						"type": "t_mapping(t_uint256,t_struct(Stake)176_storage)"
					},
					{
						"astId": 185,
						"contract": "Solidity Part/contracts/staking.sol:StakingContract",
						"label": "StakingBalances",
						"offset": 0,
						"slot": "5",
						"type": "t_mapping(t_address,t_uint256)"
					}
				],
				"types": {
					"t_address": {
						"encoding": "inplace",
						"label": "address",
						"numberOfBytes": "20"
					},
					"t_bool": {
						"encoding": "inplace",
						"label": "bool",
						"numberOfBytes": "1"
					},
					"t_mapping(t_address,t_uint256)": {
						"encoding": "mapping",
						"key": "t_address",
						"label": "mapping(address => uint256)",
						"numberOfBytes": "32",
						"value": "t_uint256"
					},
					"t_mapping(t_uint256,t_struct(Stake)176_storage)": {
						"encoding": "mapping",
						"key": "t_uint256",
						"label": "mapping(uint256 => struct StakingContract.Stake)",
						"numberOfBytes": "32",
						"value": "t_struct(Stake)176_storage"
					},
					"t_struct(Stake)176_storage": {
						"encoding": "inplace",
						"label": "struct StakingContract.Stake",
						"members": [
							{
								"astId": 169,
								"contract": "Solidity Part/contracts/staking.sol:StakingContract",
								"label": "owner",
								"offset": 0,
								"slot": "0",
								"type": "t_address"
							},
							{
								"astId": 171,
								"contract": "Solidity Part/contracts/staking.sol:StakingContract",
								"label": "amount",
								"offset": 0,
								"slot": "1",
								"type": "t_uint256"
							},
							{
								"astId": 173,
								"contract": "Solidity Part/contracts/staking.sol:StakingContract",
								"label": "EventTime",
								"offset": 0,
								"slot": "2",
								"type": "t_uint256"
							},
							{
								"astId": 175,
								"contract": "Solidity Part/contracts/staking.sol:StakingContract",
								"label": "eventType",
								"offset": 0,
								"slot": "3",
								"type": "t_uint8"
							}
						],
						"numberOfBytes": "128"
					},
					"t_uint256": {
						"encoding": "inplace",
						"label": "uint256",
						"numberOfBytes": "32"
					},
					"t_uint8": {
						"encoding": "inplace",
						"label": "uint8",
						"numberOfBytes": "1"
					}
				}
			},
			"userdoc": {
				"kind": "user",
				"methods": {},
				"version": 1
			}
		}
	}
}