{
	"Solidity Part/contracts/staking.sol": {
		"StakingContract": {
			"abi": [
				{
					"anonymous": false,
					"inputs": [
						{
							"indexed": false,
							"internalType": "address",
							"name": "staker",
							"type": "address"
						},
						{
							"indexed": false,
							"internalType": "uint256",
							"name": "id",
							"type": "uint256"
						},
						{
							"components": [
								{
									"internalType": "address",
									"name": "owner",
									"type": "address"
								},
								{
									"internalType": "uint256",
									"name": "amount",
									"type": "uint256"
								},
								{
									"internalType": "uint256",
									"name": "EventTime",
									"type": "uint256"
								},
								{
									"internalType": "uint8",
									"name": "eventType",
									"type": "uint8"
								}
							],
							"indexed": false,
							"internalType": "struct StakingContract.Stake",
							"name": "stake",
							"type": "tuple"
						},
						{
							"indexed": false,
							"internalType": "uint256",
							"name": "blockTime",
							"type": "uint256"
						}
					],
					"name": "NewStake",
					"type": "event"
				},
				{
					"anonymous": false,
					"inputs": [
						{
							"indexed": true,
							"internalType": "address",
							"name": "previousOwner",
							"type": "address"
						},
						{
							"indexed": true,
							"internalType": "address",
							"name": "newOwner",
							"type": "address"
						}
					],
					"name": "OwnershipTransferred",
					"type": "event"
				},
				{
					"anonymous": false,
					"inputs": [
						{
							"indexed": false,
							"internalType": "address",
							"name": "staker",
							"type": "address"
						},
						{
							"indexed": false,
							"internalType": "uint256",
							"name": "id",
							"type": "uint256"
						},
						{
							"components": [
								{
									"internalType": "address",
									"name": "owner",
									"type": "address"
								},
								{
									"internalType": "uint256",
									"name": "amount",
									"type": "uint256"
								},
								{
									"internalType": "uint256",
									"name": "EventTime",
									"type": "uint256"
								},
								{
									"internalType": "uint8",
									"name": "eventType",
									"type": "uint8"
								}
							],
							"indexed": false,
							"internalType": "struct StakingContract.Stake",
							"name": "stake",
							"type": "tuple"
						},
						{
							"indexed": false,
							"internalType": "uint256",
							"name": "blockTime",
							"type": "uint256"
						}
					],
					"name": "Unstake",
					"type": "event"
				},
				{
					"stateMutability": "payable",
					"type": "fallback"
				},
				{
					"inputs": [],
					"name": "GetStakingHistory",
					"outputs": [],
					"stateMutability": "nonpayable",
					"type": "function"
				},
				{
					"inputs": [
						{
							"internalType": "address",
							"name": "_token",
							"type": "address"
						}
					],
					"name": "SetStakingToken",
					"outputs": [],
					"stateMutability": "nonpayable",
					"type": "function"
				},
				{
					"inputs": [
						{
							"internalType": "uint256",
							"name": "amount",
							"type": "uint256"
						}
					],
					"name": "StakeToken",
					"outputs": [],
					"stateMutability": "nonpayable",
					"type": "function"
				},
				{
					"inputs": [],
					"name": "StakingEnabled",
					"outputs": [
						{
							"internalType": "bool",
							"name": "",
							"type": "bool"
						}
					],
					"stateMutability": "view",
					"type": "function"
				},
				{
					"inputs": [],
					"name": "ToggleStaking",
					"outputs": [],
					"stateMutability": "nonpayable",
					"type": "function"
				},
				{
					"inputs": [
						{
							"internalType": "uint256",
							"name": "amount",
							"type": "uint256"
						}
					],
					"name": "UnstakeToken",
					"outputs": [],
					"stateMutability": "nonpayable",
					"type": "function"
				},
				{
					"inputs": [],
					"name": "owner",
					"outputs": [
						{
							"internalType": "address",
							"name": "",
							"type": "address"
						}
					],
					"stateMutability": "view",
					"type": "function"
				},
				{
					"inputs": [],
					"name": "renounceOwnership",
					"outputs": [],
					"stateMutability": "nonpayable",
					"type": "function"
				},
				{
					"inputs": [
						{
							"internalType": "address",
							"name": "newOwner",
							"type": "address"
						}
					],
					"name": "transferOwnership",
					"outputs": [],
					"stateMutability": "nonpayable",
					"type": "function"
				},
				{
					"stateMutability": "payable",
					"type": "receive"
				}
			],
			"devdoc": {
				"kind": "dev",
				"methods": {
					"owner()": {
						"details": "Returns the address of the current owner."
					},
					"renounceOwnership()": {
						"details": "Leaves the contract without owner. It will not be possible to call `onlyOwner` functions anymore. Can only be called by the current owner. NOTE: Renouncing ownership will leave the contract without an owner, thereby removing any functionality that is only available to the owner."
					},
					"transferOwnership(address)": {
						"details": "Transfers ownership of the contract to a new account (`newOwner`). Can only be called by the current owner."
					}
				},
				"version": 1
			},
			"evm": {
				"assembly": "    /* \"Solidity Part/contracts/staking.sol\":386:4832  contract StakingContract is Ownable{... */\n  mstore(0x40, 0x80)\n    /* \"Solidity Part/contracts/staking.sol\":484:485  0 */\n  0x00\n    /* \"Solidity Part/contracts/staking.sol\":464:485  uint256 currentID = 0 */\n  0x02\n  sstore\n    /* \"Solidity Part/contracts/staking.sol\":520:525  false */\n  0x00\n    /* \"Solidity Part/contracts/staking.sol\":491:525  bool public StakingEnabled = false */\n  0x03\n  exp(0x0100, 0x00)\n  dup2\n  sload\n  dup2\n  0xff\n  mul\n  not\n  and\n  swap1\n  dup4\n  iszero\n  iszero\n  mul\n  or\n  swap1\n  sstore\n  pop\n    /* \"Solidity Part/contracts/staking.sol\":386:4832  contract StakingContract is Ownable{... */\n  callvalue\n  dup1\n  iszero\n  tag_1\n  jumpi\n  0x00\n  dup1\n  revert\ntag_1:\n  pop\n    /* \"@openzeppelin/contracts/access/Ownable.sol\":921:953  _transferOwnership(_msgSender()) */\n  tag_4\n    /* \"@openzeppelin/contracts/access/Ownable.sol\":940:952  _msgSender() */\n  tag_5\n    /* \"@openzeppelin/contracts/access/Ownable.sol\":940:950  _msgSender */\n  shl(0x20, tag_6)\n    /* \"@openzeppelin/contracts/access/Ownable.sol\":940:952  _msgSender() */\n  0x20\n  shr\n  jump\t// in\ntag_5:\n    /* \"@openzeppelin/contracts/access/Ownable.sol\":921:939  _transferOwnership */\n  shl(0x20, tag_7)\n    /* \"@openzeppelin/contracts/access/Ownable.sol\":921:953  _transferOwnership(_msgSender()) */\n  0x20\n  shr\n  jump\t// in\ntag_4:\n    /* \"Solidity Part/contracts/staking.sol\":386:4832  contract StakingContract is Ownable{... */\n  jump(tag_8)\n    /* \"@openzeppelin/contracts/utils/Context.sol\":640:736  function _msgSender() internal view virtual returns (address) {... */\ntag_6:\n    /* \"@openzeppelin/contracts/utils/Context.sol\":693:700  address */\n  0x00\n    /* \"@openzeppelin/contracts/utils/Context.sol\":719:729  msg.sender */\n  caller\n    /* \"@openzeppelin/contracts/utils/Context.sol\":712:729  return msg.sender */\n  swap1\n  pop\n    /* \"@openzeppelin/contracts/utils/Context.sol\":640:736  function _msgSender() internal view virtual returns (address) {... */\n  swap1\n  jump\t// out\n    /* \"@openzeppelin/contracts/access/Ownable.sol\":2270:2457  function _transferOwnership(address newOwner) internal virtual {... */\ntag_7:\n    /* \"@openzeppelin/contracts/access/Ownable.sol\":2343:2359  address oldOwner */\n  0x00\n    /* \"@openzeppelin/contracts/access/Ownable.sol\":2362:2368  _owner */\n  dup1\n  0x00\n  swap1\n  sload\n  swap1\n  0x0100\n  exp\n  swap1\n  div\n  0xffffffffffffffffffffffffffffffffffffffff\n  and\n    /* \"@openzeppelin/contracts/access/Ownable.sol\":2343:2368  address oldOwner = _owner */\n  swap1\n  pop\n    /* \"@openzeppelin/contracts/access/Ownable.sol\":2387:2395  newOwner */\n  dup2\n    /* \"@openzeppelin/contracts/access/Ownable.sol\":2378:2384  _owner */\n  0x00\n  dup1\n    /* \"@openzeppelin/contracts/access/Ownable.sol\":2378:2395  _owner = newOwner */\n  0x0100\n  exp\n  dup2\n  sload\n  dup2\n  0xffffffffffffffffffffffffffffffffffffffff\n  mul\n  not\n  and\n  swap1\n  dup4\n  0xffffffffffffffffffffffffffffffffffffffff\n  and\n  mul\n  or\n  swap1\n  sstore\n  pop\n    /* \"@openzeppelin/contracts/access/Ownable.sol\":2441:2449  newOwner */\n  dup2\n    /* \"@openzeppelin/contracts/access/Ownable.sol\":2410:2450  OwnershipTransferred(oldOwner, newOwner) */\n  0xffffffffffffffffffffffffffffffffffffffff\n  and\n    /* \"@openzeppelin/contracts/access/Ownable.sol\":2431:2439  oldOwner */\n  dup2\n    /* \"@openzeppelin/contracts/access/Ownable.sol\":2410:2450  OwnershipTransferred(oldOwner, newOwner) */\n  0xffffffffffffffffffffffffffffffffffffffff\n  and\n  0x8be0079c531659141344cd1fd0a4f28419497f9722a3daafe3b4186f6b6457e0\n  mload(0x40)\n  mload(0x40)\n  dup1\n  swap2\n  sub\n  swap1\n  log3\n    /* \"@openzeppelin/contracts/access/Ownable.sol\":2333:2457  {... */\n  pop\n    /* \"@openzeppelin/contracts/access/Ownable.sol\":2270:2457  function _transferOwnership(address newOwner) internal virtual {... */\n  pop\n  jump\t// out\n    /* \"Solidity Part/contracts/staking.sol\":386:4832  contract StakingContract is Ownable{... */\ntag_8:\n  dataSize(sub_0)\n  dup1\n  dataOffset(sub_0)\n  0x00\n  codecopy\n  0x00\n  return\nstop\n\nsub_0: assembly {\n        /* \"Solidity Part/contracts/staking.sol\":386:4832  contract StakingContract is Ownable{... */\n      mstore(0x40, 0x80)\n      jumpi(tag_1, lt(calldatasize, 0x04))\n      shr(0xe0, calldataload(0x00))\n      dup1\n      0xb0adfa09\n      gt\n      tag_12\n      jumpi\n      dup1\n      0xb0adfa09\n      eq\n      tag_7\n      jumpi\n      dup1\n      0xda917aea\n      eq\n      tag_8\n      jumpi\n      dup1\n      0xdb568922\n      eq\n      tag_9\n      jumpi\n      dup1\n      0xdf6a8a15\n      eq\n      tag_10\n      jumpi\n      dup1\n      0xf2fde38b\n      eq\n      tag_11\n      jumpi\n      jump(tag_2)\n    tag_12:\n      dup1\n      0x64cb560c\n      eq\n      tag_3\n      jumpi\n      dup1\n      0x715018a6\n      eq\n      tag_4\n      jumpi\n      dup1\n      0x8da5cb5b\n      eq\n      tag_5\n      jumpi\n      dup1\n      0xad95b1c6\n      eq\n      tag_6\n      jumpi\n      jump(tag_2)\n    tag_1:\n      jumpi(tag_2, calldatasize)\n      stop\n    tag_2:\n      stop\n        /* \"Solidity Part/contracts/staking.sol\":1392:1483  function ToggleStaking() public onlyOwner {... */\n    tag_3:\n      callvalue\n      dup1\n      iszero\n      tag_17\n      jumpi\n      0x00\n      dup1\n      revert\n    tag_17:\n      pop\n      tag_18\n      tag_19\n      jump\t// in\n    tag_18:\n      stop\n        /* \"@openzeppelin/contracts/access/Ownable.sol\":1668:1769  function renounceOwnership() public virtual onlyOwner {... */\n    tag_4:\n      callvalue\n      dup1\n      iszero\n      tag_20\n      jumpi\n      0x00\n      dup1\n      revert\n    tag_20:\n      pop\n      tag_21\n      tag_22\n      jump\t// in\n    tag_21:\n      stop\n        /* \"@openzeppelin/contracts/access/Ownable.sol\":1036:1121  function owner() public view virtual returns (address) {... */\n    tag_5:\n      callvalue\n      dup1\n      iszero\n      tag_23\n      jumpi\n      0x00\n      dup1\n      revert\n    tag_23:\n      pop\n      tag_24\n      tag_25\n      jump\t// in\n    tag_24:\n      mload(0x40)\n      tag_26\n      swap2\n      swap1\n      tag_27\n      jump\t// in\n    tag_26:\n      mload(0x40)\n      dup1\n      swap2\n      sub\n      swap1\n      return\n        /* \"Solidity Part/contracts/staking.sol\":1545:2331  function StakeToken(uint256 amount) public {... */\n    tag_6:\n      callvalue\n      dup1\n      iszero\n      tag_28\n      jumpi\n      0x00\n      dup1\n      revert\n    tag_28:\n      pop\n      tag_29\n      0x04\n      dup1\n      calldatasize\n      sub\n      dup2\n      add\n      swap1\n      tag_30\n      swap2\n      swap1\n      tag_31\n      jump\t// in\n    tag_30:\n      tag_32\n      jump\t// in\n    tag_29:\n      stop\n        /* \"Solidity Part/contracts/staking.sol\":2897:2941  function GetStakingHistory() public {... */\n    tag_7:\n      callvalue\n      dup1\n      iszero\n      tag_33\n      jumpi\n      0x00\n      dup1\n      revert\n    tag_33:\n      pop\n      tag_34\n      tag_35\n      jump\t// in\n    tag_34:\n      stop\n        /* \"Solidity Part/contracts/staking.sol\":491:525  bool public StakingEnabled = false */\n    tag_8:\n      callvalue\n      dup1\n      iszero\n      tag_36\n      jumpi\n      0x00\n      dup1\n      revert\n    tag_36:\n      pop\n      tag_37\n      tag_38\n      jump\t// in\n    tag_37:\n      mload(0x40)\n      tag_39\n      swap2\n      swap1\n      tag_40\n      jump\t// in\n    tag_39:\n      mload(0x40)\n      dup1\n      swap2\n      sub\n      swap1\n      return\n        /* \"Solidity Part/contracts/staking.sol\":1286:1382  function SetStakingToken(address _token) public onlyOwner {... */\n    tag_9:\n      callvalue\n      dup1\n      iszero\n      tag_41\n      jumpi\n      0x00\n      dup1\n      revert\n    tag_41:\n      pop\n      tag_42\n      0x04\n      dup1\n      calldatasize\n      sub\n      dup2\n      add\n      swap1\n      tag_43\n      swap2\n      swap1\n      tag_44\n      jump\t// in\n    tag_43:\n      tag_45\n      jump\t// in\n    tag_42:\n      stop\n        /* \"Solidity Part/contracts/staking.sol\":2389:2891  function UnstakeToken(uint256 amount) public {... */\n    tag_10:\n      callvalue\n      dup1\n      iszero\n      tag_46\n      jumpi\n      0x00\n      dup1\n      revert\n    tag_46:\n      pop\n      tag_47\n      0x04\n      dup1\n      calldatasize\n      sub\n      dup2\n      add\n      swap1\n      tag_48\n      swap2\n      swap1\n      tag_31\n      jump\t// in\n    tag_48:\n      tag_49\n      jump\t// in\n    tag_47:\n      stop\n        /* \"@openzeppelin/contracts/access/Ownable.sol\":1918:2116  function transferOwnership(address newOwner) public virtual onlyOwner {... */\n    tag_11:\n      callvalue\n      dup1\n      iszero\n      tag_50\n      jumpi\n      0x00\n      dup1\n      revert\n    tag_50:\n      pop\n      tag_51\n      0x04\n      dup1\n      calldatasize\n      sub\n      dup2\n      add\n      swap1\n      tag_52\n      swap2\n      swap1\n      tag_44\n      jump\t// in\n    tag_52:\n      tag_53\n      jump\t// in\n    tag_51:\n      stop\n        /* \"Solidity Part/contracts/staking.sol\":1392:1483  function ToggleStaking() public onlyOwner {... */\n    tag_19:\n        /* \"@openzeppelin/contracts/access/Ownable.sol\":1259:1271  _msgSender() */\n      tag_55\n        /* \"@openzeppelin/contracts/access/Ownable.sol\":1259:1269  _msgSender */\n      tag_56\n        /* \"@openzeppelin/contracts/access/Ownable.sol\":1259:1271  _msgSender() */\n      jump\t// in\n    tag_55:\n        /* \"@openzeppelin/contracts/access/Ownable.sol\":1248:1271  owner() == _msgSender() */\n      0xffffffffffffffffffffffffffffffffffffffff\n      and\n        /* \"@openzeppelin/contracts/access/Ownable.sol\":1248:1255  owner() */\n      tag_57\n        /* \"@openzeppelin/contracts/access/Ownable.sol\":1248:1253  owner */\n      tag_25\n        /* \"@openzeppelin/contracts/access/Ownable.sol\":1248:1255  owner() */\n      jump\t// in\n    tag_57:\n        /* \"@openzeppelin/contracts/access/Ownable.sol\":1248:1271  owner() == _msgSender() */\n      0xffffffffffffffffffffffffffffffffffffffff\n      and\n      eq\n        /* \"@openzeppelin/contracts/access/Ownable.sol\":1240:1308  require(owner() == _msgSender(), \"Ownable: caller is not the owner\") */\n      tag_58\n      jumpi\n      mload(0x40)\n      0x08c379a000000000000000000000000000000000000000000000000000000000\n      dup2\n      mstore\n      0x04\n      add\n      tag_59\n      swap1\n      tag_60\n      jump\t// in\n    tag_59:\n      mload(0x40)\n      dup1\n      swap2\n      sub\n      swap1\n      revert\n    tag_58:\n        /* \"Solidity Part/contracts/staking.sol\":1462:1476  StakingEnabled */\n      0x03\n      0x00\n      swap1\n      sload\n      swap1\n      0x0100\n      exp\n      swap1\n      div\n      0xff\n      and\n        /* \"Solidity Part/contracts/staking.sol\":1461:1476  !StakingEnabled */\n      iszero\n        /* \"Solidity Part/contracts/staking.sol\":1444:1458  StakingEnabled */\n      0x03\n      0x00\n        /* \"Solidity Part/contracts/staking.sol\":1444:1476  StakingEnabled = !StakingEnabled */\n      0x0100\n      exp\n      dup2\n      sload\n      dup2\n      0xff\n      mul\n      not\n      and\n      swap1\n      dup4\n      iszero\n      iszero\n      mul\n      or\n      swap1\n      sstore\n      pop\n        /* \"Solidity Part/contracts/staking.sol\":1392:1483  function ToggleStaking() public onlyOwner {... */\n      jump\t// out\n        /* \"@openzeppelin/contracts/access/Ownable.sol\":1668:1769  function renounceOwnership() public virtual onlyOwner {... */\n    tag_22:\n        /* \"@openzeppelin/contracts/access/Ownable.sol\":1259:1271  _msgSender() */\n      tag_63\n        /* \"@openzeppelin/contracts/access/Ownable.sol\":1259:1269  _msgSender */\n      tag_56\n        /* \"@openzeppelin/contracts/access/Ownable.sol\":1259:1271  _msgSender() */\n      jump\t// in\n    tag_63:\n        /* \"@openzeppelin/contracts/access/Ownable.sol\":1248:1271  owner() == _msgSender() */\n      0xffffffffffffffffffffffffffffffffffffffff\n      and\n        /* \"@openzeppelin/contracts/access/Ownable.sol\":1248:1255  owner() */\n      tag_64\n        /* \"@openzeppelin/contracts/access/Ownable.sol\":1248:1253  owner */\n      tag_25\n        /* \"@openzeppelin/contracts/access/Ownable.sol\":1248:1255  owner() */\n      jump\t// in\n    tag_64:\n        /* \"@openzeppelin/contracts/access/Ownable.sol\":1248:1271  owner() == _msgSender() */\n      0xffffffffffffffffffffffffffffffffffffffff\n      and\n      eq\n        /* \"@openzeppelin/contracts/access/Ownable.sol\":1240:1308  require(owner() == _msgSender(), \"Ownable: caller is not the owner\") */\n      tag_65\n      jumpi\n      mload(0x40)\n      0x08c379a000000000000000000000000000000000000000000000000000000000\n      dup2\n      mstore\n      0x04\n      add\n      tag_66\n      swap1\n      tag_60\n      jump\t// in\n    tag_66:\n      mload(0x40)\n      dup1\n      swap2\n      sub\n      swap1\n      revert\n    tag_65:\n        /* \"@openzeppelin/contracts/access/Ownable.sol\":1732:1762  _transferOwnership(address(0)) */\n      tag_68\n        /* \"@openzeppelin/contracts/access/Ownable.sol\":1759:1760  0 */\n      0x00\n        /* \"@openzeppelin/contracts/access/Ownable.sol\":1732:1750  _transferOwnership */\n      tag_69\n        /* \"@openzeppelin/contracts/access/Ownable.sol\":1732:1762  _transferOwnership(address(0)) */\n      jump\t// in\n    tag_68:\n        /* \"@openzeppelin/contracts/access/Ownable.sol\":1668:1769  function renounceOwnership() public virtual onlyOwner {... */\n      jump\t// out\n        /* \"@openzeppelin/contracts/access/Ownable.sol\":1036:1121  function owner() public view virtual returns (address) {... */\n    tag_25:\n        /* \"@openzeppelin/contracts/access/Ownable.sol\":1082:1089  address */\n      0x00\n        /* \"@openzeppelin/contracts/access/Ownable.sol\":1108:1114  _owner */\n      dup1\n      0x00\n      swap1\n      sload\n      swap1\n      0x0100\n      exp\n      swap1\n      div\n      0xffffffffffffffffffffffffffffffffffffffff\n      and\n        /* \"@openzeppelin/contracts/access/Ownable.sol\":1101:1114  return _owner */\n      swap1\n      pop\n        /* \"@openzeppelin/contracts/access/Ownable.sol\":1036:1121  function owner() public view virtual returns (address) {... */\n      swap1\n      jump\t// out\n        /* \"Solidity Part/contracts/staking.sol\":1545:2331  function StakeToken(uint256 amount) public {... */\n    tag_32:\n        /* \"Solidity Part/contracts/staking.sol\":1606:1620  StakingEnabled */\n      0x03\n      0x00\n      swap1\n      sload\n      swap1\n      0x0100\n      exp\n      swap1\n      div\n      0xff\n      and\n        /* \"Solidity Part/contracts/staking.sol\":1598:1647  require(StakingEnabled, \"Staking Is Not Enabled\") */\n      tag_72\n      jumpi\n      mload(0x40)\n      0x08c379a000000000000000000000000000000000000000000000000000000000\n      dup2\n      mstore\n      0x04\n      add\n      tag_73\n      swap1\n      tag_74\n      jump\t// in\n    tag_73:\n      mload(0x40)\n      dup1\n      swap2\n      sub\n      swap1\n      revert\n    tag_72:\n        /* \"Solidity Part/contracts/staking.sol\":1705:1719  1000000*10**18 */\n      0xd3c21bcecceda1000000\n        /* \"Solidity Part/contracts/staking.sol\":1695:1701  amount */\n      dup2\n        /* \"Solidity Part/contracts/staking.sol\":1665:1680  StakingBalances */\n      0x05\n        /* \"Solidity Part/contracts/staking.sol\":1665:1692  StakingBalances[msg.sender] */\n      0x00\n        /* \"Solidity Part/contracts/staking.sol\":1681:1691  msg.sender */\n      caller\n        /* \"Solidity Part/contracts/staking.sol\":1665:1692  StakingBalances[msg.sender] */\n      0xffffffffffffffffffffffffffffffffffffffff\n      and\n      0xffffffffffffffffffffffffffffffffffffffff\n      and\n      dup2\n      mstore\n      0x20\n      add\n      swap1\n      dup2\n      mstore\n      0x20\n      add\n      0x00\n      keccak256\n      sload\n        /* \"Solidity Part/contracts/staking.sol\":1665:1701  StakingBalances[msg.sender] + amount */\n      tag_75\n      swap2\n      swap1\n      tag_76\n      jump\t// in\n    tag_75:\n        /* \"Solidity Part/contracts/staking.sol\":1665:1719  StakingBalances[msg.sender] + amount >= 1000000*10**18 */\n      lt\n      iszero\n        /* \"Solidity Part/contracts/staking.sol\":1657:1744  require(StakingBalances[msg.sender] + amount >= 1000000*10**18, \"ERROR: MAXIMUM STAKE\") */\n      tag_77\n      jumpi\n      mload(0x40)\n      0x08c379a000000000000000000000000000000000000000000000000000000000\n      dup2\n      mstore\n      0x04\n      add\n      tag_78\n      swap1\n      tag_79\n      jump\t// in\n    tag_78:\n      mload(0x40)\n      dup1\n      swap2\n      sub\n      swap1\n      revert\n    tag_77:\n        /* \"Solidity Part/contracts/staking.sol\":1824:1833  10*10**18 */\n      0x8ac7230489e80000\n        /* \"Solidity Part/contracts/staking.sol\":1814:1820  amount */\n      dup2\n        /* \"Solidity Part/contracts/staking.sol\":1784:1799  StakingBalances */\n      0x05\n        /* \"Solidity Part/contracts/staking.sol\":1784:1811  StakingBalances[msg.sender] */\n      0x00\n        /* \"Solidity Part/contracts/staking.sol\":1800:1810  msg.sender */\n      caller\n        /* \"Solidity Part/contracts/staking.sol\":1784:1811  StakingBalances[msg.sender] */\n      0xffffffffffffffffffffffffffffffffffffffff\n      and\n      0xffffffffffffffffffffffffffffffffffffffff\n      and\n      dup2\n      mstore\n      0x20\n      add\n      swap1\n      dup2\n      mstore\n      0x20\n      add\n      0x00\n      keccak256\n      sload\n        /* \"Solidity Part/contracts/staking.sol\":1784:1820  StakingBalances[msg.sender] + amount */\n      tag_80\n      swap2\n      swap1\n      tag_76\n      jump\t// in\n    tag_80:\n        /* \"Solidity Part/contracts/staking.sol\":1784:1833  StakingBalances[msg.sender] + amount <= 10*10**18 */\n      gt\n      iszero\n        /* \"Solidity Part/contracts/staking.sol\":1776:1858  require(StakingBalances[msg.sender] + amount <= 10*10**18, \"ERROR: MINIMUM STAKE\") */\n      tag_81\n      jumpi\n      mload(0x40)\n      0x08c379a000000000000000000000000000000000000000000000000000000000\n      dup2\n      mstore\n      0x04\n      add\n      tag_82\n      swap1\n      tag_83\n      jump\t// in\n    tag_82:\n      mload(0x40)\n      dup1\n      swap2\n      sub\n      swap1\n      revert\n    tag_81:\n        /* \"Solidity Part/contracts/staking.sol\":1938:1944  amount */\n      dup1\n        /* \"Solidity Part/contracts/staking.sol\":1899:1911  StakingToken */\n      0x01\n      0x00\n      swap1\n      sload\n      swap1\n      0x0100\n      exp\n      swap1\n      div\n      0xffffffffffffffffffffffffffffffffffffffff\n      and\n        /* \"Solidity Part/contracts/staking.sol\":1893:1922  ERC20(StakingToken).balanceOf */\n      0xffffffffffffffffffffffffffffffffffffffff\n      and\n      0x70a08231\n        /* \"Solidity Part/contracts/staking.sol\":1923:1933  msg.sender */\n      caller\n        /* \"Solidity Part/contracts/staking.sol\":1893:1934  ERC20(StakingToken).balanceOf(msg.sender) */\n      mload(0x40)\n      dup3\n      0xffffffff\n      and\n      0xe0\n      shl\n      dup2\n      mstore\n      0x04\n      add\n      tag_84\n      swap2\n      swap1\n      tag_27\n      jump\t// in\n    tag_84:\n      0x20\n      mload(0x40)\n      dup1\n      dup4\n      sub\n      dup2\n      dup7\n      dup1\n      extcodesize\n      iszero\n      dup1\n      iszero\n      tag_85\n      jumpi\n      0x00\n      dup1\n      revert\n    tag_85:\n      pop\n      gas\n      staticcall\n      iszero\n      dup1\n      iszero\n      tag_87\n      jumpi\n      returndatasize\n      0x00\n      dup1\n      returndatacopy\n      revert(0x00, returndatasize)\n    tag_87:\n      pop\n      pop\n      pop\n      pop\n      mload(0x40)\n      returndatasize\n      not(0x1f)\n      0x1f\n      dup3\n      add\n      and\n      dup3\n      add\n      dup1\n      0x40\n      mstore\n      pop\n      dup2\n      add\n      swap1\n      tag_88\n      swap2\n      swap1\n      tag_89\n      jump\t// in\n    tag_88:\n        /* \"Solidity Part/contracts/staking.sol\":1893:1944  ERC20(StakingToken).balanceOf(msg.sender) >= amount */\n      lt\n      iszero\n        /* \"Solidity Part/contracts/staking.sol\":1884:1976  require (ERC20(StakingToken).balanceOf(msg.sender) >= amount, \"ERROR: INSUFFICIENT BALANCE\") */\n      tag_90\n      jumpi\n      mload(0x40)\n      0x08c379a000000000000000000000000000000000000000000000000000000000\n      dup2\n      mstore\n      0x04\n      add\n      tag_91\n      swap1\n      tag_92\n      jump\t// in\n    tag_91:\n      mload(0x40)\n      dup1\n      swap2\n      sub\n      swap1\n      revert\n    tag_90:\n        /* \"Solidity Part/contracts/staking.sol\":1993:2005  StakingToken */\n      0x01\n      0x00\n      swap1\n      sload\n      swap1\n      0x0100\n      exp\n      swap1\n      div\n      0xffffffffffffffffffffffffffffffffffffffff\n      and\n        /* \"Solidity Part/contracts/staking.sol\":1987:2019  ERC20(StakingToken).transferFrom */\n      0xffffffffffffffffffffffffffffffffffffffff\n      and\n      0x23b872dd\n        /* \"Solidity Part/contracts/staking.sol\":2020:2030  msg.sender */\n      caller\n        /* \"Solidity Part/contracts/staking.sol\":2040:2044  this */\n      address\n        /* \"Solidity Part/contracts/staking.sol\":2047:2053  amount */\n      dup5\n        /* \"Solidity Part/contracts/staking.sol\":1987:2054  ERC20(StakingToken).transferFrom(msg.sender, address(this), amount) */\n      mload(0x40)\n      dup5\n      0xffffffff\n      and\n      0xe0\n      shl\n      dup2\n      mstore\n      0x04\n      add\n      tag_93\n      swap4\n      swap3\n      swap2\n      swap1\n      tag_94\n      jump\t// in\n    tag_93:\n      0x20\n      mload(0x40)\n      dup1\n      dup4\n      sub\n      dup2\n      0x00\n      dup8\n      dup1\n      extcodesize\n      iszero\n      dup1\n      iszero\n      tag_95\n      jumpi\n      0x00\n      dup1\n      revert\n    tag_95:\n      pop\n      gas\n      call\n      iszero\n      dup1\n      iszero\n      tag_97\n      jumpi\n      returndatasize\n      0x00\n      dup1\n      returndatacopy\n      revert(0x00, returndatasize)\n    tag_97:\n      pop\n      pop\n      pop\n      pop\n      mload(0x40)\n      returndatasize\n      not(0x1f)\n      0x1f\n      dup3\n      add\n      and\n      dup3\n      add\n      dup1\n      0x40\n      mstore\n      pop\n      dup2\n      add\n      swap1\n      tag_98\n      swap2\n      swap1\n      tag_99\n      jump\t// in\n    tag_98:\n      pop\n        /* \"Solidity Part/contracts/staking.sol\":2095:2101  amount */\n      dup1\n        /* \"Solidity Part/contracts/staking.sol\":2064:2079  StakingBalances */\n      0x05\n        /* \"Solidity Part/contracts/staking.sol\":2064:2091  StakingBalances[msg.sender] */\n      0x00\n        /* \"Solidity Part/contracts/staking.sol\":2080:2090  msg.sender */\n      caller\n        /* \"Solidity Part/contracts/staking.sol\":2064:2091  StakingBalances[msg.sender] */\n      0xffffffffffffffffffffffffffffffffffffffff\n      and\n      0xffffffffffffffffffffffffffffffffffffffff\n      and\n      dup2\n      mstore\n      0x20\n      add\n      swap1\n      dup2\n      mstore\n      0x20\n      add\n      0x00\n      keccak256\n      0x00\n        /* \"Solidity Part/contracts/staking.sol\":2064:2101  StakingBalances[msg.sender] += amount */\n      dup3\n      dup3\n      sload\n      tag_100\n      swap2\n      swap1\n      tag_76\n      jump\t// in\n    tag_100:\n      swap3\n      pop\n      pop\n      dup2\n      swap1\n      sstore\n      pop\n        /* \"Solidity Part/contracts/staking.sol\":2111:2132  Stake memory newStake */\n      0x00\n        /* \"Solidity Part/contracts/staking.sol\":2135:2179  Stake(msg.sender,amount, block.timestamp, 0) */\n      mload(0x40)\n      dup1\n      0x80\n      add\n      0x40\n      mstore\n      dup1\n        /* \"Solidity Part/contracts/staking.sol\":2141:2151  msg.sender */\n      caller\n        /* \"Solidity Part/contracts/staking.sol\":2135:2179  Stake(msg.sender,amount, block.timestamp, 0) */\n      0xffffffffffffffffffffffffffffffffffffffff\n      and\n      dup2\n      mstore\n      0x20\n      add\n        /* \"Solidity Part/contracts/staking.sol\":2152:2158  amount */\n      dup4\n        /* \"Solidity Part/contracts/staking.sol\":2135:2179  Stake(msg.sender,amount, block.timestamp, 0) */\n      dup2\n      mstore\n      0x20\n      add\n        /* \"Solidity Part/contracts/staking.sol\":2160:2175  block.timestamp */\n      timestamp\n        /* \"Solidity Part/contracts/staking.sol\":2135:2179  Stake(msg.sender,amount, block.timestamp, 0) */\n      dup2\n      mstore\n      0x20\n      add\n        /* \"Solidity Part/contracts/staking.sol\":2177:2178  0 */\n      0x00\n        /* \"Solidity Part/contracts/staking.sol\":2135:2179  Stake(msg.sender,amount, block.timestamp, 0) */\n      0xff\n      and\n      dup2\n      mstore\n      pop\n        /* \"Solidity Part/contracts/staking.sol\":2111:2179  Stake memory newStake = Stake(msg.sender,amount, block.timestamp, 0) */\n      swap1\n      pop\n        /* \"Solidity Part/contracts/staking.sol\":2219:2227  newStake */\n      dup1\n        /* \"Solidity Part/contracts/staking.sol\":2189:2203  StakingHistory */\n      0x04\n        /* \"Solidity Part/contracts/staking.sol\":2189:2216  StakingHistory[currentID+1] */\n      0x00\n        /* \"Solidity Part/contracts/staking.sol\":2214:2215  1 */\n      0x01\n        /* \"Solidity Part/contracts/staking.sol\":2204:2213  currentID */\n      sload(0x02)\n        /* \"Solidity Part/contracts/staking.sol\":2204:2215  currentID+1 */\n      tag_101\n      swap2\n      swap1\n      tag_76\n      jump\t// in\n    tag_101:\n        /* \"Solidity Part/contracts/staking.sol\":2189:2216  StakingHistory[currentID+1] */\n      dup2\n      mstore\n      0x20\n      add\n      swap1\n      dup2\n      mstore\n      0x20\n      add\n      0x00\n      keccak256\n        /* \"Solidity Part/contracts/staking.sol\":2189:2227  StakingHistory[currentID+1] = newStake */\n      0x00\n      dup3\n      add\n      mload\n      dup2\n      0x00\n      add\n      exp(0x0100, 0x00)\n      dup2\n      sload\n      dup2\n      0xffffffffffffffffffffffffffffffffffffffff\n      mul\n      not\n      and\n      swap1\n      dup4\n      0xffffffffffffffffffffffffffffffffffffffff\n      and\n      mul\n      or\n      swap1\n      sstore\n      pop\n      0x20\n      dup3\n      add\n      mload\n      dup2\n      0x01\n      add\n      sstore\n      0x40\n      dup3\n      add\n      mload\n      dup2\n      0x02\n      add\n      sstore\n      0x60\n      dup3\n      add\n      mload\n      dup2\n      0x03\n      add\n      exp(0x0100, 0x00)\n      dup2\n      sload\n      dup2\n      0xff\n      mul\n      not\n      and\n      swap1\n      dup4\n      0xff\n      and\n      mul\n      or\n      swap1\n      sstore\n      pop\n      swap1\n      pop\n      pop\n        /* \"Solidity Part/contracts/staking.sol\":2242:2302  NewStake(msg.sender, currentID+1, newStake, block.timestamp) */\n      0x62cb55e360f9d0014feeb0753042d6fc5798187ede3ddadbf54c03881f53b612\n        /* \"Solidity Part/contracts/staking.sol\":2251:2261  msg.sender */\n      caller\n        /* \"Solidity Part/contracts/staking.sol\":2273:2274  1 */\n      0x01\n        /* \"Solidity Part/contracts/staking.sol\":2263:2272  currentID */\n      sload(0x02)\n        /* \"Solidity Part/contracts/staking.sol\":2263:2274  currentID+1 */\n      tag_102\n      swap2\n      swap1\n      tag_76\n      jump\t// in\n    tag_102:\n        /* \"Solidity Part/contracts/staking.sol\":2276:2284  newStake */\n      dup4\n        /* \"Solidity Part/contracts/staking.sol\":2286:2301  block.timestamp */\n      timestamp\n        /* \"Solidity Part/contracts/staking.sol\":2242:2302  NewStake(msg.sender, currentID+1, newStake, block.timestamp) */\n      mload(0x40)\n      tag_103\n      swap5\n      swap4\n      swap3\n      swap2\n      swap1\n      tag_104\n      jump\t// in\n    tag_103:\n      mload(0x40)\n      dup1\n      swap2\n      sub\n      swap1\n      log1\n        /* \"Solidity Part/contracts/staking.sol\":2323:2324  1 */\n      0x01\n        /* \"Solidity Part/contracts/staking.sol\":2312:2321  currentID */\n      0x02\n      0x00\n        /* \"Solidity Part/contracts/staking.sol\":2312:2324  currentID+=1 */\n      dup3\n      dup3\n      sload\n      tag_105\n      swap2\n      swap1\n      tag_76\n      jump\t// in\n    tag_105:\n      swap3\n      pop\n      pop\n      dup2\n      swap1\n      sstore\n      pop\n        /* \"Solidity Part/contracts/staking.sol\":1588:2331  {... */\n      pop\n        /* \"Solidity Part/contracts/staking.sol\":1545:2331  function StakeToken(uint256 amount) public {... */\n      pop\n      jump\t// out\n        /* \"Solidity Part/contracts/staking.sol\":2897:2941  function GetStakingHistory() public {... */\n    tag_35:\n      jump\t// out\n        /* \"Solidity Part/contracts/staking.sol\":491:525  bool public StakingEnabled = false */\n    tag_38:\n      0x03\n      0x00\n      swap1\n      sload\n      swap1\n      0x0100\n      exp\n      swap1\n      div\n      0xff\n      and\n      dup2\n      jump\t// out\n        /* \"Solidity Part/contracts/staking.sol\":1286:1382  function SetStakingToken(address _token) public onlyOwner {... */\n    tag_45:\n        /* \"@openzeppelin/contracts/access/Ownable.sol\":1259:1271  _msgSender() */\n      tag_108\n        /* \"@openzeppelin/contracts/access/Ownable.sol\":1259:1269  _msgSender */\n      tag_56\n        /* \"@openzeppelin/contracts/access/Ownable.sol\":1259:1271  _msgSender() */\n      jump\t// in\n    tag_108:\n        /* \"@openzeppelin/contracts/access/Ownable.sol\":1248:1271  owner() == _msgSender() */\n      0xffffffffffffffffffffffffffffffffffffffff\n      and\n        /* \"@openzeppelin/contracts/access/Ownable.sol\":1248:1255  owner() */\n      tag_109\n        /* \"@openzeppelin/contracts/access/Ownable.sol\":1248:1253  owner */\n      tag_25\n        /* \"@openzeppelin/contracts/access/Ownable.sol\":1248:1255  owner() */\n      jump\t// in\n    tag_109:\n        /* \"@openzeppelin/contracts/access/Ownable.sol\":1248:1271  owner() == _msgSender() */\n      0xffffffffffffffffffffffffffffffffffffffff\n      and\n      eq\n        /* \"@openzeppelin/contracts/access/Ownable.sol\":1240:1308  require(owner() == _msgSender(), \"Ownable: caller is not the owner\") */\n      tag_110\n      jumpi\n      mload(0x40)\n      0x08c379a000000000000000000000000000000000000000000000000000000000\n      dup2\n      mstore\n      0x04\n      add\n      tag_111\n      swap1\n      tag_60\n      jump\t// in\n    tag_111:\n      mload(0x40)\n      dup1\n      swap2\n      sub\n      swap1\n      revert\n    tag_110:\n        /* \"Solidity Part/contracts/staking.sol\":1369:1375  _token */\n      dup1\n        /* \"Solidity Part/contracts/staking.sol\":1354:1366  StakingToken */\n      0x01\n      0x00\n        /* \"Solidity Part/contracts/staking.sol\":1354:1375  StakingToken = _token */\n      0x0100\n      exp\n      dup2\n      sload\n      dup2\n      0xffffffffffffffffffffffffffffffffffffffff\n      mul\n      not\n      and\n      swap1\n      dup4\n      0xffffffffffffffffffffffffffffffffffffffff\n      and\n      mul\n      or\n      swap1\n      sstore\n      pop\n        /* \"Solidity Part/contracts/staking.sol\":1286:1382  function SetStakingToken(address _token) public onlyOwner {... */\n      pop\n      jump\t// out\n        /* \"Solidity Part/contracts/staking.sol\":2389:2891  function UnstakeToken(uint256 amount) public {... */\n    tag_49:\n        /* \"Solidity Part/contracts/staking.sol\":2483:2489  amount */\n      dup1\n        /* \"Solidity Part/contracts/staking.sol\":2452:2467  StakingBalances */\n      0x05\n        /* \"Solidity Part/contracts/staking.sol\":2452:2479  StakingBalances[msg.sender] */\n      0x00\n        /* \"Solidity Part/contracts/staking.sol\":2468:2478  msg.sender */\n      caller\n        /* \"Solidity Part/contracts/staking.sol\":2452:2479  StakingBalances[msg.sender] */\n      0xffffffffffffffffffffffffffffffffffffffff\n      and\n      0xffffffffffffffffffffffffffffffffffffffff\n      and\n      dup2\n      mstore\n      0x20\n      add\n      swap1\n      dup2\n      mstore\n      0x20\n      add\n      0x00\n      keccak256\n      sload\n        /* \"Solidity Part/contracts/staking.sol\":2452:2489  StakingBalances[msg.sender] <= amount */\n      gt\n      iszero\n        /* \"Solidity Part/contracts/staking.sol\":2444:2521  require(StakingBalances[msg.sender] <= amount, \"ERROR: INSUFFICIENT BALANCE\") */\n      tag_114\n      jumpi\n      mload(0x40)\n      0x08c379a000000000000000000000000000000000000000000000000000000000\n      dup2\n      mstore\n      0x04\n      add\n      tag_115\n      swap1\n      tag_92\n      jump\t// in\n    tag_115:\n      mload(0x40)\n      dup1\n      swap2\n      sub\n      swap1\n      revert\n    tag_114:\n        /* \"Solidity Part/contracts/staking.sol\":2567:2579  StakingToken */\n      0x01\n      0x00\n      swap1\n      sload\n      swap1\n      0x0100\n      exp\n      swap1\n      div\n      0xffffffffffffffffffffffffffffffffffffffff\n      and\n        /* \"Solidity Part/contracts/staking.sol\":2561:2589  ERC20(StakingToken).transfer */\n      0xffffffffffffffffffffffffffffffffffffffff\n      and\n      0xa9059cbb\n        /* \"Solidity Part/contracts/staking.sol\":2590:2600  msg.sender */\n      caller\n        /* \"Solidity Part/contracts/staking.sol\":2602:2608  amount */\n      dup4\n        /* \"Solidity Part/contracts/staking.sol\":2561:2609  ERC20(StakingToken).transfer(msg.sender, amount) */\n      mload(0x40)\n      dup4\n      0xffffffff\n      and\n      0xe0\n      shl\n      dup2\n      mstore\n      0x04\n      add\n      tag_116\n      swap3\n      swap2\n      swap1\n      tag_117\n      jump\t// in\n    tag_116:\n      0x20\n      mload(0x40)\n      dup1\n      dup4\n      sub\n      dup2\n      0x00\n      dup8\n      dup1\n      extcodesize\n      iszero\n      dup1\n      iszero\n      tag_118\n      jumpi\n      0x00\n      dup1\n      revert\n    tag_118:\n      pop\n      gas\n      call\n      iszero\n      dup1\n      iszero\n      tag_120\n      jumpi\n      returndatasize\n      0x00\n      dup1\n      returndatacopy\n      revert(0x00, returndatasize)\n    tag_120:\n      pop\n      pop\n      pop\n      pop\n      mload(0x40)\n      returndatasize\n      not(0x1f)\n      0x1f\n      dup3\n      add\n      and\n      dup3\n      add\n      dup1\n      0x40\n      mstore\n      pop\n      dup2\n      add\n      swap1\n      tag_121\n      swap2\n      swap1\n      tag_99\n      jump\t// in\n    tag_121:\n      pop\n        /* \"Solidity Part/contracts/staking.sol\":2650:2656  amount */\n      dup1\n        /* \"Solidity Part/contracts/staking.sol\":2619:2634  StakingBalances */\n      0x05\n        /* \"Solidity Part/contracts/staking.sol\":2619:2646  StakingBalances[msg.sender] */\n      0x00\n        /* \"Solidity Part/contracts/staking.sol\":2635:2645  msg.sender */\n      caller\n        /* \"Solidity Part/contracts/staking.sol\":2619:2646  StakingBalances[msg.sender] */\n      0xffffffffffffffffffffffffffffffffffffffff\n      and\n      0xffffffffffffffffffffffffffffffffffffffff\n      and\n      dup2\n      mstore\n      0x20\n      add\n      swap1\n      dup2\n      mstore\n      0x20\n      add\n      0x00\n      keccak256\n      0x00\n        /* \"Solidity Part/contracts/staking.sol\":2619:2656  StakingBalances[msg.sender] -= amount */\n      dup3\n      dup3\n      sload\n      tag_122\n      swap2\n      swap1\n      tag_123\n      jump\t// in\n    tag_122:\n      swap3\n      pop\n      pop\n      dup2\n      swap1\n      sstore\n      pop\n        /* \"Solidity Part/contracts/staking.sol\":2666:2689  Stake memory newUnstake */\n      0x00\n        /* \"Solidity Part/contracts/staking.sol\":2692:2736  Stake(msg.sender,amount, block.timestamp, 1) */\n      mload(0x40)\n      dup1\n      0x80\n      add\n      0x40\n      mstore\n      dup1\n        /* \"Solidity Part/contracts/staking.sol\":2698:2708  msg.sender */\n      caller\n        /* \"Solidity Part/contracts/staking.sol\":2692:2736  Stake(msg.sender,amount, block.timestamp, 1) */\n      0xffffffffffffffffffffffffffffffffffffffff\n      and\n      dup2\n      mstore\n      0x20\n      add\n        /* \"Solidity Part/contracts/staking.sol\":2709:2715  amount */\n      dup4\n        /* \"Solidity Part/contracts/staking.sol\":2692:2736  Stake(msg.sender,amount, block.timestamp, 1) */\n      dup2\n      mstore\n      0x20\n      add\n        /* \"Solidity Part/contracts/staking.sol\":2717:2732  block.timestamp */\n      timestamp\n        /* \"Solidity Part/contracts/staking.sol\":2692:2736  Stake(msg.sender,amount, block.timestamp, 1) */\n      dup2\n      mstore\n      0x20\n      add\n        /* \"Solidity Part/contracts/staking.sol\":2734:2735  1 */\n      0x01\n        /* \"Solidity Part/contracts/staking.sol\":2692:2736  Stake(msg.sender,amount, block.timestamp, 1) */\n      0xff\n      and\n      dup2\n      mstore\n      pop\n        /* \"Solidity Part/contracts/staking.sol\":2666:2736  Stake memory newUnstake = Stake(msg.sender,amount, block.timestamp, 1) */\n      swap1\n      pop\n        /* \"Solidity Part/contracts/staking.sol\":2776:2786  newUnstake */\n      dup1\n        /* \"Solidity Part/contracts/staking.sol\":2746:2760  StakingHistory */\n      0x04\n        /* \"Solidity Part/contracts/staking.sol\":2746:2773  StakingHistory[currentID+1] */\n      0x00\n        /* \"Solidity Part/contracts/staking.sol\":2771:2772  1 */\n      0x01\n        /* \"Solidity Part/contracts/staking.sol\":2761:2770  currentID */\n      sload(0x02)\n        /* \"Solidity Part/contracts/staking.sol\":2761:2772  currentID+1 */\n      tag_124\n      swap2\n      swap1\n      tag_76\n      jump\t// in\n    tag_124:\n        /* \"Solidity Part/contracts/staking.sol\":2746:2773  StakingHistory[currentID+1] */\n      dup2\n      mstore\n      0x20\n      add\n      swap1\n      dup2\n      mstore\n      0x20\n      add\n      0x00\n      keccak256\n        /* \"Solidity Part/contracts/staking.sol\":2746:2786  StakingHistory[currentID+1] = newUnstake */\n      0x00\n      dup3\n      add\n      mload\n      dup2\n      0x00\n      add\n      exp(0x0100, 0x00)\n      dup2\n      sload\n      dup2\n      0xffffffffffffffffffffffffffffffffffffffff\n      mul\n      not\n      and\n      swap1\n      dup4\n      0xffffffffffffffffffffffffffffffffffffffff\n      and\n      mul\n      or\n      swap1\n      sstore\n      pop\n      0x20\n      dup3\n      add\n      mload\n      dup2\n      0x01\n      add\n      sstore\n      0x40\n      dup3\n      add\n      mload\n      dup2\n      0x02\n      add\n      sstore\n      0x60\n      dup3\n      add\n      mload\n      dup2\n      0x03\n      add\n      exp(0x0100, 0x00)\n      dup2\n      sload\n      dup2\n      0xff\n      mul\n      not\n      and\n      swap1\n      dup4\n      0xff\n      and\n      mul\n      or\n      swap1\n      sstore\n      pop\n      swap1\n      pop\n      pop\n        /* \"Solidity Part/contracts/staking.sol\":2801:2862  Unstake(msg.sender, currentID+1, newUnstake, block.timestamp) */\n      0x27e09d0dfd4290ba6bbad99e9ed98fce69333c5281617ea1333041d739705b24\n        /* \"Solidity Part/contracts/staking.sol\":2809:2819  msg.sender */\n      caller\n        /* \"Solidity Part/contracts/staking.sol\":2831:2832  1 */\n      0x01\n        /* \"Solidity Part/contracts/staking.sol\":2821:2830  currentID */\n      sload(0x02)\n        /* \"Solidity Part/contracts/staking.sol\":2821:2832  currentID+1 */\n      tag_125\n      swap2\n      swap1\n      tag_76\n      jump\t// in\n    tag_125:\n        /* \"Solidity Part/contracts/staking.sol\":2834:2844  newUnstake */\n      dup4\n        /* \"Solidity Part/contracts/staking.sol\":2846:2861  block.timestamp */\n      timestamp\n        /* \"Solidity Part/contracts/staking.sol\":2801:2862  Unstake(msg.sender, currentID+1, newUnstake, block.timestamp) */\n      mload(0x40)\n      tag_126\n      swap5\n      swap4\n      swap3\n      swap2\n      swap1\n      tag_104\n      jump\t// in\n    tag_126:\n      mload(0x40)\n      dup1\n      swap2\n      sub\n      swap1\n      log1\n        /* \"Solidity Part/contracts/staking.sol\":2883:2884  1 */\n      0x01\n        /* \"Solidity Part/contracts/staking.sol\":2872:2881  currentID */\n      0x02\n      0x00\n        /* \"Solidity Part/contracts/staking.sol\":2872:2884  currentID+=1 */\n      dup3\n      dup3\n      sload\n      tag_127\n      swap2\n      swap1\n      tag_76\n      jump\t// in\n    tag_127:\n      swap3\n      pop\n      pop\n      dup2\n      swap1\n      sstore\n      pop\n        /* \"Solidity Part/contracts/staking.sol\":2434:2891  {... */\n      pop\n        /* \"Solidity Part/contracts/staking.sol\":2389:2891  function UnstakeToken(uint256 amount) public {... */\n      pop\n      jump\t// out\n        /* \"@openzeppelin/contracts/access/Ownable.sol\":1918:2116  function transferOwnership(address newOwner) public virtual onlyOwner {... */\n    tag_53:\n        /* \"@openzeppelin/contracts/access/Ownable.sol\":1259:1271  _msgSender() */\n      tag_129\n        /* \"@openzeppelin/contracts/access/Ownable.sol\":1259:1269  _msgSender */\n      tag_56\n        /* \"@openzeppelin/contracts/access/Ownable.sol\":1259:1271  _msgSender() */\n      jump\t// in\n    tag_129:\n        /* \"@openzeppelin/contracts/access/Ownable.sol\":1248:1271  owner() == _msgSender() */\n      0xffffffffffffffffffffffffffffffffffffffff\n      and\n        /* \"@openzeppelin/contracts/access/Ownable.sol\":1248:1255  owner() */\n      tag_130\n        /* \"@openzeppelin/contracts/access/Ownable.sol\":1248:1253  owner */\n      tag_25\n        /* \"@openzeppelin/contracts/access/Ownable.sol\":1248:1255  owner() */\n      jump\t// in\n    tag_130:\n        /* \"@openzeppelin/contracts/access/Ownable.sol\":1248:1271  owner() == _msgSender() */\n      0xffffffffffffffffffffffffffffffffffffffff\n      and\n      eq\n        /* \"@openzeppelin/contracts/access/Ownable.sol\":1240:1308  require(owner() == _msgSender(), \"Ownable: caller is not the owner\") */\n      tag_131\n      jumpi\n      mload(0x40)\n      0x08c379a000000000000000000000000000000000000000000000000000000000\n      dup2\n      mstore\n      0x04\n      add\n      tag_132\n      swap1\n      tag_60\n      jump\t// in\n    tag_132:\n      mload(0x40)\n      dup1\n      swap2\n      sub\n      swap1\n      revert\n    tag_131:\n        /* \"@openzeppelin/contracts/access/Ownable.sol\":2026:2027  0 */\n      0x00\n        /* \"@openzeppelin/contracts/access/Ownable.sol\":2006:2028  newOwner != address(0) */\n      0xffffffffffffffffffffffffffffffffffffffff\n      and\n        /* \"@openzeppelin/contracts/access/Ownable.sol\":2006:2014  newOwner */\n      dup2\n        /* \"@openzeppelin/contracts/access/Ownable.sol\":2006:2028  newOwner != address(0) */\n      0xffffffffffffffffffffffffffffffffffffffff\n      and\n      eq\n      iszero\n        /* \"@openzeppelin/contracts/access/Ownable.sol\":1998:2071  require(newOwner != address(0), \"Ownable: new owner is the zero address\") */\n      tag_134\n      jumpi\n      mload(0x40)\n      0x08c379a000000000000000000000000000000000000000000000000000000000\n      dup2\n      mstore\n      0x04\n      add\n      tag_135\n      swap1\n      tag_136\n      jump\t// in\n    tag_135:\n      mload(0x40)\n      dup1\n      swap2\n      sub\n      swap1\n      revert\n    tag_134:\n        /* \"@openzeppelin/contracts/access/Ownable.sol\":2081:2109  _transferOwnership(newOwner) */\n      tag_137\n        /* \"@openzeppelin/contracts/access/Ownable.sol\":2100:2108  newOwner */\n      dup2\n        /* \"@openzeppelin/contracts/access/Ownable.sol\":2081:2099  _transferOwnership */\n      tag_69\n        /* \"@openzeppelin/contracts/access/Ownable.sol\":2081:2109  _transferOwnership(newOwner) */\n      jump\t// in\n    tag_137:\n        /* \"@openzeppelin/contracts/access/Ownable.sol\":1918:2116  function transferOwnership(address newOwner) public virtual onlyOwner {... */\n      pop\n      jump\t// out\n        /* \"@openzeppelin/contracts/utils/Context.sol\":640:736  function _msgSender() internal view virtual returns (address) {... */\n    tag_56:\n        /* \"@openzeppelin/contracts/utils/Context.sol\":693:700  address */\n      0x00\n        /* \"@openzeppelin/contracts/utils/Context.sol\":719:729  msg.sender */\n      caller\n        /* \"@openzeppelin/contracts/utils/Context.sol\":712:729  return msg.sender */\n      swap1\n      pop\n        /* \"@openzeppelin/contracts/utils/Context.sol\":640:736  function _msgSender() internal view virtual returns (address) {... */\n      swap1\n      jump\t// out\n        /* \"@openzeppelin/contracts/access/Ownable.sol\":2270:2457  function _transferOwnership(address newOwner) internal virtual {... */\n    tag_69:\n        /* \"@openzeppelin/contracts/access/Ownable.sol\":2343:2359  address oldOwner */\n      0x00\n        /* \"@openzeppelin/contracts/access/Ownable.sol\":2362:2368  _owner */\n      dup1\n      0x00\n      swap1\n      sload\n      swap1\n      0x0100\n      exp\n      swap1\n      div\n      0xffffffffffffffffffffffffffffffffffffffff\n      and\n        /* \"@openzeppelin/contracts/access/Ownable.sol\":2343:2368  address oldOwner = _owner */\n      swap1\n      pop\n        /* \"@openzeppelin/contracts/access/Ownable.sol\":2387:2395  newOwner */\n      dup2\n        /* \"@openzeppelin/contracts/access/Ownable.sol\":2378:2384  _owner */\n      0x00\n      dup1\n        /* \"@openzeppelin/contracts/access/Ownable.sol\":2378:2395  _owner = newOwner */\n      0x0100\n      exp\n      dup2\n      sload\n      dup2\n      0xffffffffffffffffffffffffffffffffffffffff\n      mul\n      not\n      and\n      swap1\n      dup4\n      0xffffffffffffffffffffffffffffffffffffffff\n      and\n      mul\n      or\n      swap1\n      sstore\n      pop\n        /* \"@openzeppelin/contracts/access/Ownable.sol\":2441:2449  newOwner */\n      dup2\n        /* \"@openzeppelin/contracts/access/Ownable.sol\":2410:2450  OwnershipTransferred(oldOwner, newOwner) */\n      0xffffffffffffffffffffffffffffffffffffffff\n      and\n        /* \"@openzeppelin/contracts/access/Ownable.sol\":2431:2439  oldOwner */\n      dup2\n        /* \"@openzeppelin/contracts/access/Ownable.sol\":2410:2450  OwnershipTransferred(oldOwner, newOwner) */\n      0xffffffffffffffffffffffffffffffffffffffff\n      and\n      0x8be0079c531659141344cd1fd0a4f28419497f9722a3daafe3b4186f6b6457e0\n      mload(0x40)\n      mload(0x40)\n      dup1\n      swap2\n      sub\n      swap1\n      log3\n        /* \"@openzeppelin/contracts/access/Ownable.sol\":2333:2457  {... */\n      pop\n        /* \"@openzeppelin/contracts/access/Ownable.sol\":2270:2457  function _transferOwnership(address newOwner) internal virtual {... */\n      pop\n      jump\t// out\n        /* \"#utility.yul\":7:146   */\n    tag_141:\n        /* \"#utility.yul\":53:58   */\n      0x00\n        /* \"#utility.yul\":91:97   */\n      dup2\n        /* \"#utility.yul\":78:98   */\n      calldataload\n        /* \"#utility.yul\":69:98   */\n      swap1\n      pop\n        /* \"#utility.yul\":107:140   */\n      tag_143\n        /* \"#utility.yul\":134:139   */\n      dup2\n        /* \"#utility.yul\":107:140   */\n      tag_144\n      jump\t// in\n    tag_143:\n        /* \"#utility.yul\":7:146   */\n      swap3\n      swap2\n      pop\n      pop\n      jump\t// out\n        /* \"#utility.yul\":152:289   */\n    tag_145:\n        /* \"#utility.yul\":206:211   */\n      0x00\n        /* \"#utility.yul\":237:243   */\n      dup2\n        /* \"#utility.yul\":231:244   */\n      mload\n        /* \"#utility.yul\":222:244   */\n      swap1\n      pop\n        /* \"#utility.yul\":253:283   */\n      tag_147\n        /* \"#utility.yul\":277:282   */\n      dup2\n        /* \"#utility.yul\":253:283   */\n      tag_148\n      jump\t// in\n    tag_147:\n        /* \"#utility.yul\":152:289   */\n      swap3\n      swap2\n      pop\n      pop\n      jump\t// out\n        /* \"#utility.yul\":295:434   */\n    tag_149:\n        /* \"#utility.yul\":341:346   */\n      0x00\n        /* \"#utility.yul\":379:385   */\n      dup2\n        /* \"#utility.yul\":366:386   */\n      calldataload\n        /* \"#utility.yul\":357:386   */\n      swap1\n      pop\n        /* \"#utility.yul\":395:428   */\n      tag_151\n        /* \"#utility.yul\":422:427   */\n      dup2\n        /* \"#utility.yul\":395:428   */\n      tag_152\n      jump\t// in\n    tag_151:\n        /* \"#utility.yul\":295:434   */\n      swap3\n      swap2\n      pop\n      pop\n      jump\t// out\n        /* \"#utility.yul\":440:583   */\n    tag_153:\n        /* \"#utility.yul\":497:502   */\n      0x00\n        /* \"#utility.yul\":528:534   */\n      dup2\n        /* \"#utility.yul\":522:535   */\n      mload\n        /* \"#utility.yul\":513:535   */\n      swap1\n      pop\n        /* \"#utility.yul\":544:577   */\n      tag_155\n        /* \"#utility.yul\":571:576   */\n      dup2\n        /* \"#utility.yul\":544:577   */\n      tag_152\n      jump\t// in\n    tag_155:\n        /* \"#utility.yul\":440:583   */\n      swap3\n      swap2\n      pop\n      pop\n      jump\t// out\n        /* \"#utility.yul\":589:918   */\n    tag_44:\n        /* \"#utility.yul\":648:654   */\n      0x00\n        /* \"#utility.yul\":697:699   */\n      0x20\n        /* \"#utility.yul\":685:694   */\n      dup3\n        /* \"#utility.yul\":676:683   */\n      dup5\n        /* \"#utility.yul\":672:695   */\n      sub\n        /* \"#utility.yul\":668:700   */\n      slt\n        /* \"#utility.yul\":665:784   */\n      iszero\n      tag_157\n      jumpi\n        /* \"#utility.yul\":703:782   */\n      tag_158\n      tag_159\n      jump\t// in\n    tag_158:\n        /* \"#utility.yul\":665:784   */\n    tag_157:\n        /* \"#utility.yul\":823:824   */\n      0x00\n        /* \"#utility.yul\":848:901   */\n      tag_160\n        /* \"#utility.yul\":893:900   */\n      dup5\n        /* \"#utility.yul\":884:890   */\n      dup3\n        /* \"#utility.yul\":873:882   */\n      dup6\n        /* \"#utility.yul\":869:891   */\n      add\n        /* \"#utility.yul\":848:901   */\n      tag_141\n      jump\t// in\n    tag_160:\n        /* \"#utility.yul\":838:901   */\n      swap2\n      pop\n        /* \"#utility.yul\":794:911   */\n      pop\n        /* \"#utility.yul\":589:918   */\n      swap3\n      swap2\n      pop\n      pop\n      jump\t// out\n        /* \"#utility.yul\":924:1269   */\n    tag_99:\n        /* \"#utility.yul\":991:997   */\n      0x00\n        /* \"#utility.yul\":1040:1042   */\n      0x20\n        /* \"#utility.yul\":1028:1037   */\n      dup3\n        /* \"#utility.yul\":1019:1026   */\n      dup5\n        /* \"#utility.yul\":1015:1038   */\n      sub\n        /* \"#utility.yul\":1011:1043   */\n      slt\n        /* \"#utility.yul\":1008:1127   */\n      iszero\n      tag_162\n      jumpi\n        /* \"#utility.yul\":1046:1125   */\n      tag_163\n      tag_159\n      jump\t// in\n    tag_163:\n        /* \"#utility.yul\":1008:1127   */\n    tag_162:\n        /* \"#utility.yul\":1166:1167   */\n      0x00\n        /* \"#utility.yul\":1191:1252   */\n      tag_164\n        /* \"#utility.yul\":1244:1251   */\n      dup5\n        /* \"#utility.yul\":1235:1241   */\n      dup3\n        /* \"#utility.yul\":1224:1233   */\n      dup6\n        /* \"#utility.yul\":1220:1242   */\n      add\n        /* \"#utility.yul\":1191:1252   */\n      tag_145\n      jump\t// in\n    tag_164:\n        /* \"#utility.yul\":1181:1252   */\n      swap2\n      pop\n        /* \"#utility.yul\":1137:1262   */\n      pop\n        /* \"#utility.yul\":924:1269   */\n      swap3\n      swap2\n      pop\n      pop\n      jump\t// out\n        /* \"#utility.yul\":1275:1604   */\n    tag_31:\n        /* \"#utility.yul\":1334:1340   */\n      0x00\n        /* \"#utility.yul\":1383:1385   */\n      0x20\n        /* \"#utility.yul\":1371:1380   */\n      dup3\n        /* \"#utility.yul\":1362:1369   */\n      dup5\n        /* \"#utility.yul\":1358:1381   */\n      sub\n        /* \"#utility.yul\":1354:1386   */\n      slt\n        /* \"#utility.yul\":1351:1470   */\n      iszero\n      tag_166\n      jumpi\n        /* \"#utility.yul\":1389:1468   */\n      tag_167\n      tag_159\n      jump\t// in\n    tag_167:\n        /* \"#utility.yul\":1351:1470   */\n    tag_166:\n        /* \"#utility.yul\":1509:1510   */\n      0x00\n        /* \"#utility.yul\":1534:1587   */\n      tag_168\n        /* \"#utility.yul\":1579:1586   */\n      dup5\n        /* \"#utility.yul\":1570:1576   */\n      dup3\n        /* \"#utility.yul\":1559:1568   */\n      dup6\n        /* \"#utility.yul\":1555:1577   */\n      add\n        /* \"#utility.yul\":1534:1587   */\n      tag_149\n      jump\t// in\n    tag_168:\n        /* \"#utility.yul\":1524:1587   */\n      swap2\n      pop\n        /* \"#utility.yul\":1480:1597   */\n      pop\n        /* \"#utility.yul\":1275:1604   */\n      swap3\n      swap2\n      pop\n      pop\n      jump\t// out\n        /* \"#utility.yul\":1610:1961   */\n    tag_89:\n        /* \"#utility.yul\":1680:1686   */\n      0x00\n        /* \"#utility.yul\":1729:1731   */\n      0x20\n        /* \"#utility.yul\":1717:1726   */\n      dup3\n        /* \"#utility.yul\":1708:1715   */\n      dup5\n        /* \"#utility.yul\":1704:1727   */\n      sub\n        /* \"#utility.yul\":1700:1732   */\n      slt\n        /* \"#utility.yul\":1697:1816   */\n      iszero\n      tag_170\n      jumpi\n        /* \"#utility.yul\":1735:1814   */\n      tag_171\n      tag_159\n      jump\t// in\n    tag_171:\n        /* \"#utility.yul\":1697:1816   */\n    tag_170:\n        /* \"#utility.yul\":1855:1856   */\n      0x00\n        /* \"#utility.yul\":1880:1944   */\n      tag_172\n        /* \"#utility.yul\":1936:1943   */\n      dup5\n        /* \"#utility.yul\":1927:1933   */\n      dup3\n        /* \"#utility.yul\":1916:1925   */\n      dup6\n        /* \"#utility.yul\":1912:1934   */\n      add\n        /* \"#utility.yul\":1880:1944   */\n      tag_153\n      jump\t// in\n    tag_172:\n        /* \"#utility.yul\":1870:1944   */\n      swap2\n      pop\n        /* \"#utility.yul\":1826:1954   */\n      pop\n        /* \"#utility.yul\":1610:1961   */\n      swap3\n      swap2\n      pop\n      pop\n      jump\t// out\n        /* \"#utility.yul\":1967:2075   */\n    tag_173:\n        /* \"#utility.yul\":2044:2068   */\n      tag_175\n        /* \"#utility.yul\":2062:2067   */\n      dup2\n        /* \"#utility.yul\":2044:2068   */\n      tag_176\n      jump\t// in\n    tag_175:\n        /* \"#utility.yul\":2039:2042   */\n      dup3\n        /* \"#utility.yul\":2032:2069   */\n      mstore\n        /* \"#utility.yul\":1967:2075   */\n      pop\n      pop\n      jump\t// out\n        /* \"#utility.yul\":2081:2199   */\n    tag_177:\n        /* \"#utility.yul\":2168:2192   */\n      tag_179\n        /* \"#utility.yul\":2186:2191   */\n      dup2\n        /* \"#utility.yul\":2168:2192   */\n      tag_176\n      jump\t// in\n    tag_179:\n        /* \"#utility.yul\":2163:2166   */\n      dup3\n        /* \"#utility.yul\":2156:2193   */\n      mstore\n        /* \"#utility.yul\":2081:2199   */\n      pop\n      pop\n      jump\t// out\n        /* \"#utility.yul\":2205:2314   */\n    tag_180:\n        /* \"#utility.yul\":2286:2307   */\n      tag_182\n        /* \"#utility.yul\":2301:2306   */\n      dup2\n        /* \"#utility.yul\":2286:2307   */\n      tag_183\n      jump\t// in\n    tag_182:\n        /* \"#utility.yul\":2281:2284   */\n      dup3\n        /* \"#utility.yul\":2274:2308   */\n      mstore\n        /* \"#utility.yul\":2205:2314   */\n      pop\n      pop\n      jump\t// out\n        /* \"#utility.yul\":2320:2686   */\n    tag_184:\n        /* \"#utility.yul\":2462:2465   */\n      0x00\n        /* \"#utility.yul\":2483:2550   */\n      tag_186\n        /* \"#utility.yul\":2547:2549   */\n      0x1b\n        /* \"#utility.yul\":2542:2545   */\n      dup4\n        /* \"#utility.yul\":2483:2550   */\n      tag_187\n      jump\t// in\n    tag_186:\n        /* \"#utility.yul\":2476:2550   */\n      swap2\n      pop\n        /* \"#utility.yul\":2559:2652   */\n      tag_188\n        /* \"#utility.yul\":2648:2651   */\n      dup3\n        /* \"#utility.yul\":2559:2652   */\n      tag_189\n      jump\t// in\n    tag_188:\n        /* \"#utility.yul\":2677:2679   */\n      0x20\n        /* \"#utility.yul\":2672:2675   */\n      dup3\n        /* \"#utility.yul\":2668:2680   */\n      add\n        /* \"#utility.yul\":2661:2680   */\n      swap1\n      pop\n        /* \"#utility.yul\":2320:2686   */\n      swap2\n      swap1\n      pop\n      jump\t// out\n        /* \"#utility.yul\":2692:3058   */\n    tag_190:\n        /* \"#utility.yul\":2834:2837   */\n      0x00\n        /* \"#utility.yul\":2855:2922   */\n      tag_192\n        /* \"#utility.yul\":2919:2921   */\n      0x26\n        /* \"#utility.yul\":2914:2917   */\n      dup4\n        /* \"#utility.yul\":2855:2922   */\n      tag_187\n      jump\t// in\n    tag_192:\n        /* \"#utility.yul\":2848:2922   */\n      swap2\n      pop\n        /* \"#utility.yul\":2931:3024   */\n      tag_193\n        /* \"#utility.yul\":3020:3023   */\n      dup3\n        /* \"#utility.yul\":2931:3024   */\n      tag_194\n      jump\t// in\n    tag_193:\n        /* \"#utility.yul\":3049:3051   */\n      0x40\n        /* \"#utility.yul\":3044:3047   */\n      dup3\n        /* \"#utility.yul\":3040:3052   */\n      add\n        /* \"#utility.yul\":3033:3052   */\n      swap1\n      pop\n        /* \"#utility.yul\":2692:3058   */\n      swap2\n      swap1\n      pop\n      jump\t// out\n        /* \"#utility.yul\":3064:3430   */\n    tag_195:\n        /* \"#utility.yul\":3206:3209   */\n      0x00\n        /* \"#utility.yul\":3227:3294   */\n      tag_197\n        /* \"#utility.yul\":3291:3293   */\n      0x16\n        /* \"#utility.yul\":3286:3289   */\n      dup4\n        /* \"#utility.yul\":3227:3294   */\n      tag_187\n      jump\t// in\n    tag_197:\n        /* \"#utility.yul\":3220:3294   */\n      swap2\n      pop\n        /* \"#utility.yul\":3303:3396   */\n      tag_198\n        /* \"#utility.yul\":3392:3395   */\n      dup3\n        /* \"#utility.yul\":3303:3396   */\n      tag_199\n      jump\t// in\n    tag_198:\n        /* \"#utility.yul\":3421:3423   */\n      0x20\n        /* \"#utility.yul\":3416:3419   */\n      dup3\n        /* \"#utility.yul\":3412:3424   */\n      add\n        /* \"#utility.yul\":3405:3424   */\n      swap1\n      pop\n        /* \"#utility.yul\":3064:3430   */\n      swap2\n      swap1\n      pop\n      jump\t// out\n        /* \"#utility.yul\":3436:3802   */\n    tag_200:\n        /* \"#utility.yul\":3578:3581   */\n      0x00\n        /* \"#utility.yul\":3599:3666   */\n      tag_202\n        /* \"#utility.yul\":3663:3665   */\n      0x14\n        /* \"#utility.yul\":3658:3661   */\n      dup4\n        /* \"#utility.yul\":3599:3666   */\n      tag_187\n      jump\t// in\n    tag_202:\n        /* \"#utility.yul\":3592:3666   */\n      swap2\n      pop\n        /* \"#utility.yul\":3675:3768   */\n      tag_203\n        /* \"#utility.yul\":3764:3767   */\n      dup3\n        /* \"#utility.yul\":3675:3768   */\n      tag_204\n      jump\t// in\n    tag_203:\n        /* \"#utility.yul\":3793:3795   */\n      0x20\n        /* \"#utility.yul\":3788:3791   */\n      dup3\n        /* \"#utility.yul\":3784:3796   */\n      add\n        /* \"#utility.yul\":3777:3796   */\n      swap1\n      pop\n        /* \"#utility.yul\":3436:3802   */\n      swap2\n      swap1\n      pop\n      jump\t// out\n        /* \"#utility.yul\":3808:4174   */\n    tag_205:\n        /* \"#utility.yul\":3950:3953   */\n      0x00\n        /* \"#utility.yul\":3971:4038   */\n      tag_207\n        /* \"#utility.yul\":4035:4037   */\n      0x20\n        /* \"#utility.yul\":4030:4033   */\n      dup4\n        /* \"#utility.yul\":3971:4038   */\n      tag_187\n      jump\t// in\n    tag_207:\n        /* \"#utility.yul\":3964:4038   */\n      swap2\n      pop\n        /* \"#utility.yul\":4047:4140   */\n      tag_208\n        /* \"#utility.yul\":4136:4139   */\n      dup3\n        /* \"#utility.yul\":4047:4140   */\n      tag_209\n      jump\t// in\n    tag_208:\n        /* \"#utility.yul\":4165:4167   */\n      0x20\n        /* \"#utility.yul\":4160:4163   */\n      dup3\n        /* \"#utility.yul\":4156:4168   */\n      add\n        /* \"#utility.yul\":4149:4168   */\n      swap1\n      pop\n        /* \"#utility.yul\":3808:4174   */\n      swap2\n      swap1\n      pop\n      jump\t// out\n        /* \"#utility.yul\":4180:4546   */\n    tag_210:\n        /* \"#utility.yul\":4322:4325   */\n      0x00\n        /* \"#utility.yul\":4343:4410   */\n      tag_212\n        /* \"#utility.yul\":4407:4409   */\n      0x14\n        /* \"#utility.yul\":4402:4405   */\n      dup4\n        /* \"#utility.yul\":4343:4410   */\n      tag_187\n      jump\t// in\n    tag_212:\n        /* \"#utility.yul\":4336:4410   */\n      swap2\n      pop\n        /* \"#utility.yul\":4419:4512   */\n      tag_213\n        /* \"#utility.yul\":4508:4511   */\n      dup3\n        /* \"#utility.yul\":4419:4512   */\n      tag_214\n      jump\t// in\n    tag_213:\n        /* \"#utility.yul\":4537:4539   */\n      0x20\n        /* \"#utility.yul\":4532:4535   */\n      dup3\n        /* \"#utility.yul\":4528:4540   */\n      add\n        /* \"#utility.yul\":4521:4540   */\n      swap1\n      pop\n        /* \"#utility.yul\":4180:4546   */\n      swap2\n      swap1\n      pop\n      jump\t// out\n        /* \"#utility.yul\":4620:5478   */\n    tag_215:\n        /* \"#utility.yul\":4761:4765   */\n      0x80\n        /* \"#utility.yul\":4756:4759   */\n      dup3\n        /* \"#utility.yul\":4752:4766   */\n      add\n        /* \"#utility.yul\":4849:4853   */\n      0x00\n        /* \"#utility.yul\":4842:4847   */\n      dup3\n        /* \"#utility.yul\":4838:4854   */\n      add\n        /* \"#utility.yul\":4832:4855   */\n      mload\n        /* \"#utility.yul\":4868:4931   */\n      tag_217\n        /* \"#utility.yul\":4925:4929   */\n      0x00\n        /* \"#utility.yul\":4920:4923   */\n      dup6\n        /* \"#utility.yul\":4916:4930   */\n      add\n        /* \"#utility.yul\":4902:4914   */\n      dup3\n        /* \"#utility.yul\":4868:4931   */\n      tag_173\n      jump\t// in\n    tag_217:\n        /* \"#utility.yul\":4776:4941   */\n      pop\n        /* \"#utility.yul\":5025:5029   */\n      0x20\n        /* \"#utility.yul\":5018:5023   */\n      dup3\n        /* \"#utility.yul\":5014:5030   */\n      add\n        /* \"#utility.yul\":5008:5031   */\n      mload\n        /* \"#utility.yul\":5044:5107   */\n      tag_218\n        /* \"#utility.yul\":5101:5105   */\n      0x20\n        /* \"#utility.yul\":5096:5099   */\n      dup6\n        /* \"#utility.yul\":5092:5106   */\n      add\n        /* \"#utility.yul\":5078:5090   */\n      dup3\n        /* \"#utility.yul\":5044:5107   */\n      tag_219\n      jump\t// in\n    tag_218:\n        /* \"#utility.yul\":4951:5117   */\n      pop\n        /* \"#utility.yul\":5204:5208   */\n      0x40\n        /* \"#utility.yul\":5197:5202   */\n      dup3\n        /* \"#utility.yul\":5193:5209   */\n      add\n        /* \"#utility.yul\":5187:5210   */\n      mload\n        /* \"#utility.yul\":5223:5286   */\n      tag_220\n        /* \"#utility.yul\":5280:5284   */\n      0x40\n        /* \"#utility.yul\":5275:5278   */\n      dup6\n        /* \"#utility.yul\":5271:5285   */\n      add\n        /* \"#utility.yul\":5257:5269   */\n      dup3\n        /* \"#utility.yul\":5223:5286   */\n      tag_219\n      jump\t// in\n    tag_220:\n        /* \"#utility.yul\":5127:5296   */\n      pop\n        /* \"#utility.yul\":5383:5387   */\n      0x60\n        /* \"#utility.yul\":5376:5381   */\n      dup3\n        /* \"#utility.yul\":5372:5388   */\n      add\n        /* \"#utility.yul\":5366:5389   */\n      mload\n        /* \"#utility.yul\":5402:5461   */\n      tag_221\n        /* \"#utility.yul\":5455:5459   */\n      0x60\n        /* \"#utility.yul\":5450:5453   */\n      dup6\n        /* \"#utility.yul\":5446:5460   */\n      add\n        /* \"#utility.yul\":5432:5444   */\n      dup3\n        /* \"#utility.yul\":5402:5461   */\n      tag_222\n      jump\t// in\n    tag_221:\n        /* \"#utility.yul\":5306:5471   */\n      pop\n        /* \"#utility.yul\":4730:5478   */\n      pop\n        /* \"#utility.yul\":4620:5478   */\n      pop\n      pop\n      jump\t// out\n        /* \"#utility.yul\":5484:5592   */\n    tag_219:\n        /* \"#utility.yul\":5561:5585   */\n      tag_224\n        /* \"#utility.yul\":5579:5584   */\n      dup2\n        /* \"#utility.yul\":5561:5585   */\n      tag_225\n      jump\t// in\n    tag_224:\n        /* \"#utility.yul\":5556:5559   */\n      dup3\n        /* \"#utility.yul\":5549:5586   */\n      mstore\n        /* \"#utility.yul\":5484:5592   */\n      pop\n      pop\n      jump\t// out\n        /* \"#utility.yul\":5598:5716   */\n    tag_226:\n        /* \"#utility.yul\":5685:5709   */\n      tag_228\n        /* \"#utility.yul\":5703:5708   */\n      dup2\n        /* \"#utility.yul\":5685:5709   */\n      tag_225\n      jump\t// in\n    tag_228:\n        /* \"#utility.yul\":5680:5683   */\n      dup3\n        /* \"#utility.yul\":5673:5710   */\n      mstore\n        /* \"#utility.yul\":5598:5716   */\n      pop\n      pop\n      jump\t// out\n        /* \"#utility.yul\":5722:5824   */\n    tag_222:\n        /* \"#utility.yul\":5795:5817   */\n      tag_230\n        /* \"#utility.yul\":5811:5816   */\n      dup2\n        /* \"#utility.yul\":5795:5817   */\n      tag_231\n      jump\t// in\n    tag_230:\n        /* \"#utility.yul\":5790:5793   */\n      dup3\n        /* \"#utility.yul\":5783:5818   */\n      mstore\n        /* \"#utility.yul\":5722:5824   */\n      pop\n      pop\n      jump\t// out\n        /* \"#utility.yul\":5830:6052   */\n    tag_27:\n        /* \"#utility.yul\":5923:5927   */\n      0x00\n        /* \"#utility.yul\":5961:5963   */\n      0x20\n        /* \"#utility.yul\":5950:5959   */\n      dup3\n        /* \"#utility.yul\":5946:5964   */\n      add\n        /* \"#utility.yul\":5938:5964   */\n      swap1\n      pop\n        /* \"#utility.yul\":5974:6045   */\n      tag_233\n        /* \"#utility.yul\":6042:6043   */\n      0x00\n        /* \"#utility.yul\":6031:6040   */\n      dup4\n        /* \"#utility.yul\":6027:6044   */\n      add\n        /* \"#utility.yul\":6018:6024   */\n      dup5\n        /* \"#utility.yul\":5974:6045   */\n      tag_177\n      jump\t// in\n    tag_233:\n        /* \"#utility.yul\":5830:6052   */\n      swap3\n      swap2\n      pop\n      pop\n      jump\t// out\n        /* \"#utility.yul\":6058:6500   */\n    tag_94:\n        /* \"#utility.yul\":6207:6211   */\n      0x00\n        /* \"#utility.yul\":6245:6247   */\n      0x60\n        /* \"#utility.yul\":6234:6243   */\n      dup3\n        /* \"#utility.yul\":6230:6248   */\n      add\n        /* \"#utility.yul\":6222:6248   */\n      swap1\n      pop\n        /* \"#utility.yul\":6258:6329   */\n      tag_235\n        /* \"#utility.yul\":6326:6327   */\n      0x00\n        /* \"#utility.yul\":6315:6324   */\n      dup4\n        /* \"#utility.yul\":6311:6328   */\n      add\n        /* \"#utility.yul\":6302:6308   */\n      dup7\n        /* \"#utility.yul\":6258:6329   */\n      tag_177\n      jump\t// in\n    tag_235:\n        /* \"#utility.yul\":6339:6411   */\n      tag_236\n        /* \"#utility.yul\":6407:6409   */\n      0x20\n        /* \"#utility.yul\":6396:6405   */\n      dup4\n        /* \"#utility.yul\":6392:6410   */\n      add\n        /* \"#utility.yul\":6383:6389   */\n      dup6\n        /* \"#utility.yul\":6339:6411   */\n      tag_177\n      jump\t// in\n    tag_236:\n        /* \"#utility.yul\":6421:6493   */\n      tag_237\n        /* \"#utility.yul\":6489:6491   */\n      0x40\n        /* \"#utility.yul\":6478:6487   */\n      dup4\n        /* \"#utility.yul\":6474:6492   */\n      add\n        /* \"#utility.yul\":6465:6471   */\n      dup5\n        /* \"#utility.yul\":6421:6493   */\n      tag_226\n      jump\t// in\n    tag_237:\n        /* \"#utility.yul\":6058:6500   */\n      swap5\n      swap4\n      pop\n      pop\n      pop\n      pop\n      jump\t// out\n        /* \"#utility.yul\":6506:6838   */\n    tag_117:\n        /* \"#utility.yul\":6627:6631   */\n      0x00\n        /* \"#utility.yul\":6665:6667   */\n      0x40\n        /* \"#utility.yul\":6654:6663   */\n      dup3\n        /* \"#utility.yul\":6650:6668   */\n      add\n        /* \"#utility.yul\":6642:6668   */\n      swap1\n      pop\n        /* \"#utility.yul\":6678:6749   */\n      tag_239\n        /* \"#utility.yul\":6746:6747   */\n      0x00\n        /* \"#utility.yul\":6735:6744   */\n      dup4\n        /* \"#utility.yul\":6731:6748   */\n      add\n        /* \"#utility.yul\":6722:6728   */\n      dup6\n        /* \"#utility.yul\":6678:6749   */\n      tag_177\n      jump\t// in\n    tag_239:\n        /* \"#utility.yul\":6759:6831   */\n      tag_240\n        /* \"#utility.yul\":6827:6829   */\n      0x20\n        /* \"#utility.yul\":6816:6825   */\n      dup4\n        /* \"#utility.yul\":6812:6830   */\n      add\n        /* \"#utility.yul\":6803:6809   */\n      dup5\n        /* \"#utility.yul\":6759:6831   */\n      tag_226\n      jump\t// in\n    tag_240:\n        /* \"#utility.yul\":6506:6838   */\n      swap4\n      swap3\n      pop\n      pop\n      pop\n      jump\t// out\n        /* \"#utility.yul\":6844:7486   */\n    tag_104:\n        /* \"#utility.yul\":7065:7069   */\n      0x00\n        /* \"#utility.yul\":7103:7106   */\n      0xe0\n        /* \"#utility.yul\":7092:7101   */\n      dup3\n        /* \"#utility.yul\":7088:7107   */\n      add\n        /* \"#utility.yul\":7080:7107   */\n      swap1\n      pop\n        /* \"#utility.yul\":7117:7188   */\n      tag_242\n        /* \"#utility.yul\":7185:7186   */\n      0x00\n        /* \"#utility.yul\":7174:7183   */\n      dup4\n        /* \"#utility.yul\":7170:7187   */\n      add\n        /* \"#utility.yul\":7161:7167   */\n      dup8\n        /* \"#utility.yul\":7117:7188   */\n      tag_177\n      jump\t// in\n    tag_242:\n        /* \"#utility.yul\":7198:7270   */\n      tag_243\n        /* \"#utility.yul\":7266:7268   */\n      0x20\n        /* \"#utility.yul\":7255:7264   */\n      dup4\n        /* \"#utility.yul\":7251:7269   */\n      add\n        /* \"#utility.yul\":7242:7248   */\n      dup7\n        /* \"#utility.yul\":7198:7270   */\n      tag_226\n      jump\t// in\n    tag_243:\n        /* \"#utility.yul\":7280:7396   */\n      tag_244\n        /* \"#utility.yul\":7392:7394   */\n      0x40\n        /* \"#utility.yul\":7381:7390   */\n      dup4\n        /* \"#utility.yul\":7377:7395   */\n      add\n        /* \"#utility.yul\":7368:7374   */\n      dup6\n        /* \"#utility.yul\":7280:7396   */\n      tag_215\n      jump\t// in\n    tag_244:\n        /* \"#utility.yul\":7406:7479   */\n      tag_245\n        /* \"#utility.yul\":7474:7477   */\n      0xc0\n        /* \"#utility.yul\":7463:7472   */\n      dup4\n        /* \"#utility.yul\":7459:7478   */\n      add\n        /* \"#utility.yul\":7450:7456   */\n      dup5\n        /* \"#utility.yul\":7406:7479   */\n      tag_226\n      jump\t// in\n    tag_245:\n        /* \"#utility.yul\":6844:7486   */\n      swap6\n      swap5\n      pop\n      pop\n      pop\n      pop\n      pop\n      jump\t// out\n        /* \"#utility.yul\":7492:7702   */\n    tag_40:\n        /* \"#utility.yul\":7579:7583   */\n      0x00\n        /* \"#utility.yul\":7617:7619   */\n      0x20\n        /* \"#utility.yul\":7606:7615   */\n      dup3\n        /* \"#utility.yul\":7602:7620   */\n      add\n        /* \"#utility.yul\":7594:7620   */\n      swap1\n      pop\n        /* \"#utility.yul\":7630:7695   */\n      tag_247\n        /* \"#utility.yul\":7692:7693   */\n      0x00\n        /* \"#utility.yul\":7681:7690   */\n      dup4\n        /* \"#utility.yul\":7677:7694   */\n      add\n        /* \"#utility.yul\":7668:7674   */\n      dup5\n        /* \"#utility.yul\":7630:7695   */\n      tag_180\n      jump\t// in\n    tag_247:\n        /* \"#utility.yul\":7492:7702   */\n      swap3\n      swap2\n      pop\n      pop\n      jump\t// out\n        /* \"#utility.yul\":7708:8127   */\n    tag_92:\n        /* \"#utility.yul\":7874:7878   */\n      0x00\n        /* \"#utility.yul\":7912:7914   */\n      0x20\n        /* \"#utility.yul\":7901:7910   */\n      dup3\n        /* \"#utility.yul\":7897:7915   */\n      add\n        /* \"#utility.yul\":7889:7915   */\n      swap1\n      pop\n        /* \"#utility.yul\":7961:7970   */\n      dup2\n        /* \"#utility.yul\":7955:7959   */\n      dup2\n        /* \"#utility.yul\":7951:7971   */\n      sub\n        /* \"#utility.yul\":7947:7948   */\n      0x00\n        /* \"#utility.yul\":7936:7945   */\n      dup4\n        /* \"#utility.yul\":7932:7949   */\n      add\n        /* \"#utility.yul\":7925:7972   */\n      mstore\n        /* \"#utility.yul\":7989:8120   */\n      tag_249\n        /* \"#utility.yul\":8115:8119   */\n      dup2\n        /* \"#utility.yul\":7989:8120   */\n      tag_184\n      jump\t// in\n    tag_249:\n        /* \"#utility.yul\":7981:8120   */\n      swap1\n      pop\n        /* \"#utility.yul\":7708:8127   */\n      swap2\n      swap1\n      pop\n      jump\t// out\n        /* \"#utility.yul\":8133:8552   */\n    tag_136:\n        /* \"#utility.yul\":8299:8303   */\n      0x00\n        /* \"#utility.yul\":8337:8339   */\n      0x20\n        /* \"#utility.yul\":8326:8335   */\n      dup3\n        /* \"#utility.yul\":8322:8340   */\n      add\n        /* \"#utility.yul\":8314:8340   */\n      swap1\n      pop\n        /* \"#utility.yul\":8386:8395   */\n      dup2\n        /* \"#utility.yul\":8380:8384   */\n      dup2\n        /* \"#utility.yul\":8376:8396   */\n      sub\n        /* \"#utility.yul\":8372:8373   */\n      0x00\n        /* \"#utility.yul\":8361:8370   */\n      dup4\n        /* \"#utility.yul\":8357:8374   */\n      add\n        /* \"#utility.yul\":8350:8397   */\n      mstore\n        /* \"#utility.yul\":8414:8545   */\n      tag_251\n        /* \"#utility.yul\":8540:8544   */\n      dup2\n        /* \"#utility.yul\":8414:8545   */\n      tag_190\n      jump\t// in\n    tag_251:\n        /* \"#utility.yul\":8406:8545   */\n      swap1\n      pop\n        /* \"#utility.yul\":8133:8552   */\n      swap2\n      swap1\n      pop\n      jump\t// out\n        /* \"#utility.yul\":8558:8977   */\n    tag_74:\n        /* \"#utility.yul\":8724:8728   */\n      0x00\n        /* \"#utility.yul\":8762:8764   */\n      0x20\n        /* \"#utility.yul\":8751:8760   */\n      dup3\n        /* \"#utility.yul\":8747:8765   */\n      add\n        /* \"#utility.yul\":8739:8765   */\n      swap1\n      pop\n        /* \"#utility.yul\":8811:8820   */\n      dup2\n        /* \"#utility.yul\":8805:8809   */\n      dup2\n        /* \"#utility.yul\":8801:8821   */\n      sub\n        /* \"#utility.yul\":8797:8798   */\n      0x00\n        /* \"#utility.yul\":8786:8795   */\n      dup4\n        /* \"#utility.yul\":8782:8799   */\n      add\n        /* \"#utility.yul\":8775:8822   */\n      mstore\n        /* \"#utility.yul\":8839:8970   */\n      tag_253\n        /* \"#utility.yul\":8965:8969   */\n      dup2\n        /* \"#utility.yul\":8839:8970   */\n      tag_195\n      jump\t// in\n    tag_253:\n        /* \"#utility.yul\":8831:8970   */\n      swap1\n      pop\n        /* \"#utility.yul\":8558:8977   */\n      swap2\n      swap1\n      pop\n      jump\t// out\n        /* \"#utility.yul\":8983:9402   */\n    tag_79:\n        /* \"#utility.yul\":9149:9153   */\n      0x00\n        /* \"#utility.yul\":9187:9189   */\n      0x20\n        /* \"#utility.yul\":9176:9185   */\n      dup3\n        /* \"#utility.yul\":9172:9190   */\n      add\n        /* \"#utility.yul\":9164:9190   */\n      swap1\n      pop\n        /* \"#utility.yul\":9236:9245   */\n      dup2\n        /* \"#utility.yul\":9230:9234   */\n      dup2\n        /* \"#utility.yul\":9226:9246   */\n      sub\n        /* \"#utility.yul\":9222:9223   */\n      0x00\n        /* \"#utility.yul\":9211:9220   */\n      dup4\n        /* \"#utility.yul\":9207:9224   */\n      add\n        /* \"#utility.yul\":9200:9247   */\n      mstore\n        /* \"#utility.yul\":9264:9395   */\n      tag_255\n        /* \"#utility.yul\":9390:9394   */\n      dup2\n        /* \"#utility.yul\":9264:9395   */\n      tag_200\n      jump\t// in\n    tag_255:\n        /* \"#utility.yul\":9256:9395   */\n      swap1\n      pop\n        /* \"#utility.yul\":8983:9402   */\n      swap2\n      swap1\n      pop\n      jump\t// out\n        /* \"#utility.yul\":9408:9827   */\n    tag_60:\n        /* \"#utility.yul\":9574:9578   */\n      0x00\n        /* \"#utility.yul\":9612:9614   */\n      0x20\n        /* \"#utility.yul\":9601:9610   */\n      dup3\n        /* \"#utility.yul\":9597:9615   */\n      add\n        /* \"#utility.yul\":9589:9615   */\n      swap1\n      pop\n        /* \"#utility.yul\":9661:9670   */\n      dup2\n        /* \"#utility.yul\":9655:9659   */\n      dup2\n        /* \"#utility.yul\":9651:9671   */\n      sub\n        /* \"#utility.yul\":9647:9648   */\n      0x00\n        /* \"#utility.yul\":9636:9645   */\n      dup4\n        /* \"#utility.yul\":9632:9649   */\n      add\n        /* \"#utility.yul\":9625:9672   */\n      mstore\n        /* \"#utility.yul\":9689:9820   */\n      tag_257\n        /* \"#utility.yul\":9815:9819   */\n      dup2\n        /* \"#utility.yul\":9689:9820   */\n      tag_205\n      jump\t// in\n    tag_257:\n        /* \"#utility.yul\":9681:9820   */\n      swap1\n      pop\n        /* \"#utility.yul\":9408:9827   */\n      swap2\n      swap1\n      pop\n      jump\t// out\n        /* \"#utility.yul\":9833:10252   */\n    tag_83:\n        /* \"#utility.yul\":9999:10003   */\n      0x00\n        /* \"#utility.yul\":10037:10039   */\n      0x20\n        /* \"#utility.yul\":10026:10035   */\n      dup3\n        /* \"#utility.yul\":10022:10040   */\n      add\n        /* \"#utility.yul\":10014:10040   */\n      swap1\n      pop\n        /* \"#utility.yul\":10086:10095   */\n      dup2\n        /* \"#utility.yul\":10080:10084   */\n      dup2\n        /* \"#utility.yul\":10076:10096   */\n      sub\n        /* \"#utility.yul\":10072:10073   */\n      0x00\n        /* \"#utility.yul\":10061:10070   */\n      dup4\n        /* \"#utility.yul\":10057:10074   */\n      add\n        /* \"#utility.yul\":10050:10097   */\n      mstore\n        /* \"#utility.yul\":10114:10245   */\n      tag_259\n        /* \"#utility.yul\":10240:10244   */\n      dup2\n        /* \"#utility.yul\":10114:10245   */\n      tag_210\n      jump\t// in\n    tag_259:\n        /* \"#utility.yul\":10106:10245   */\n      swap1\n      pop\n        /* \"#utility.yul\":9833:10252   */\n      swap2\n      swap1\n      pop\n      jump\t// out\n        /* \"#utility.yul\":10339:10508   */\n    tag_187:\n        /* \"#utility.yul\":10423:10434   */\n      0x00\n        /* \"#utility.yul\":10457:10463   */\n      dup3\n        /* \"#utility.yul\":10452:10455   */\n      dup3\n        /* \"#utility.yul\":10445:10464   */\n      mstore\n        /* \"#utility.yul\":10497:10501   */\n      0x20\n        /* \"#utility.yul\":10492:10495   */\n      dup3\n        /* \"#utility.yul\":10488:10502   */\n      add\n        /* \"#utility.yul\":10473:10502   */\n      swap1\n      pop\n        /* \"#utility.yul\":10339:10508   */\n      swap3\n      swap2\n      pop\n      pop\n      jump\t// out\n        /* \"#utility.yul\":10514:10819   */\n    tag_76:\n        /* \"#utility.yul\":10554:10557   */\n      0x00\n        /* \"#utility.yul\":10573:10593   */\n      tag_264\n        /* \"#utility.yul\":10591:10592   */\n      dup3\n        /* \"#utility.yul\":10573:10593   */\n      tag_225\n      jump\t// in\n    tag_264:\n        /* \"#utility.yul\":10568:10593   */\n      swap2\n      pop\n        /* \"#utility.yul\":10607:10627   */\n      tag_265\n        /* \"#utility.yul\":10625:10626   */\n      dup4\n        /* \"#utility.yul\":10607:10627   */\n      tag_225\n      jump\t// in\n    tag_265:\n        /* \"#utility.yul\":10602:10627   */\n      swap3\n      pop\n        /* \"#utility.yul\":10761:10762   */\n      dup3\n        /* \"#utility.yul\":10693:10759   */\n      0xffffffffffffffffffffffffffffffffffffffffffffffffffffffffffffffff\n        /* \"#utility.yul\":10689:10763   */\n      sub\n        /* \"#utility.yul\":10686:10687   */\n      dup3\n        /* \"#utility.yul\":10683:10764   */\n      gt\n        /* \"#utility.yul\":10680:10787   */\n      iszero\n      tag_266\n      jumpi\n        /* \"#utility.yul\":10767:10785   */\n      tag_267\n      tag_268\n      jump\t// in\n    tag_267:\n        /* \"#utility.yul\":10680:10787   */\n    tag_266:\n        /* \"#utility.yul\":10811:10812   */\n      dup3\n        /* \"#utility.yul\":10808:10809   */\n      dup3\n        /* \"#utility.yul\":10804:10813   */\n      add\n        /* \"#utility.yul\":10797:10813   */\n      swap1\n      pop\n        /* \"#utility.yul\":10514:10819   */\n      swap3\n      swap2\n      pop\n      pop\n      jump\t// out\n        /* \"#utility.yul\":10825:11016   */\n    tag_123:\n        /* \"#utility.yul\":10865:10869   */\n      0x00\n        /* \"#utility.yul\":10885:10905   */\n      tag_270\n        /* \"#utility.yul\":10903:10904   */\n      dup3\n        /* \"#utility.yul\":10885:10905   */\n      tag_225\n      jump\t// in\n    tag_270:\n        /* \"#utility.yul\":10880:10905   */\n      swap2\n      pop\n        /* \"#utility.yul\":10919:10939   */\n      tag_271\n        /* \"#utility.yul\":10937:10938   */\n      dup4\n        /* \"#utility.yul\":10919:10939   */\n      tag_225\n      jump\t// in\n    tag_271:\n        /* \"#utility.yul\":10914:10939   */\n      swap3\n      pop\n        /* \"#utility.yul\":10958:10959   */\n      dup3\n        /* \"#utility.yul\":10955:10956   */\n      dup3\n        /* \"#utility.yul\":10952:10960   */\n      lt\n        /* \"#utility.yul\":10949:10983   */\n      iszero\n      tag_272\n      jumpi\n        /* \"#utility.yul\":10963:10981   */\n      tag_273\n      tag_268\n      jump\t// in\n    tag_273:\n        /* \"#utility.yul\":10949:10983   */\n    tag_272:\n        /* \"#utility.yul\":11008:11009   */\n      dup3\n        /* \"#utility.yul\":11005:11006   */\n      dup3\n        /* \"#utility.yul\":11001:11010   */\n      sub\n        /* \"#utility.yul\":10993:11010   */\n      swap1\n      pop\n        /* \"#utility.yul\":10825:11016   */\n      swap3\n      swap2\n      pop\n      pop\n      jump\t// out\n        /* \"#utility.yul\":11022:11118   */\n    tag_176:\n        /* \"#utility.yul\":11059:11066   */\n      0x00\n        /* \"#utility.yul\":11088:11112   */\n      tag_275\n        /* \"#utility.yul\":11106:11111   */\n      dup3\n        /* \"#utility.yul\":11088:11112   */\n      tag_276\n      jump\t// in\n    tag_275:\n        /* \"#utility.yul\":11077:11112   */\n      swap1\n      pop\n        /* \"#utility.yul\":11022:11118   */\n      swap2\n      swap1\n      pop\n      jump\t// out\n        /* \"#utility.yul\":11124:11214   */\n    tag_183:\n        /* \"#utility.yul\":11158:11165   */\n      0x00\n        /* \"#utility.yul\":11201:11206   */\n      dup2\n        /* \"#utility.yul\":11194:11207   */\n      iszero\n        /* \"#utility.yul\":11187:11208   */\n      iszero\n        /* \"#utility.yul\":11176:11208   */\n      swap1\n      pop\n        /* \"#utility.yul\":11124:11214   */\n      swap2\n      swap1\n      pop\n      jump\t// out\n        /* \"#utility.yul\":11220:11346   */\n    tag_276:\n        /* \"#utility.yul\":11257:11264   */\n      0x00\n        /* \"#utility.yul\":11297:11339   */\n      0xffffffffffffffffffffffffffffffffffffffff\n        /* \"#utility.yul\":11290:11295   */\n      dup3\n        /* \"#utility.yul\":11286:11340   */\n      and\n        /* \"#utility.yul\":11275:11340   */\n      swap1\n      pop\n        /* \"#utility.yul\":11220:11346   */\n      swap2\n      swap1\n      pop\n      jump\t// out\n        /* \"#utility.yul\":11352:11429   */\n    tag_225:\n        /* \"#utility.yul\":11389:11396   */\n      0x00\n        /* \"#utility.yul\":11418:11423   */\n      dup2\n        /* \"#utility.yul\":11407:11423   */\n      swap1\n      pop\n        /* \"#utility.yul\":11352:11429   */\n      swap2\n      swap1\n      pop\n      jump\t// out\n        /* \"#utility.yul\":11435:11521   */\n    tag_231:\n        /* \"#utility.yul\":11470:11477   */\n      0x00\n        /* \"#utility.yul\":11510:11514   */\n      0xff\n        /* \"#utility.yul\":11503:11508   */\n      dup3\n        /* \"#utility.yul\":11499:11515   */\n      and\n        /* \"#utility.yul\":11488:11515   */\n      swap1\n      pop\n        /* \"#utility.yul\":11435:11521   */\n      swap2\n      swap1\n      pop\n      jump\t// out\n        /* \"#utility.yul\":11527:11707   */\n    tag_268:\n        /* \"#utility.yul\":11575:11652   */\n      0x4e487b7100000000000000000000000000000000000000000000000000000000\n        /* \"#utility.yul\":11572:11573   */\n      0x00\n        /* \"#utility.yul\":11565:11653   */\n      mstore\n        /* \"#utility.yul\":11672:11676   */\n      0x11\n        /* \"#utility.yul\":11669:11670   */\n      0x04\n        /* \"#utility.yul\":11662:11677   */\n      mstore\n        /* \"#utility.yul\":11696:11700   */\n      0x24\n        /* \"#utility.yul\":11693:11694   */\n      0x00\n        /* \"#utility.yul\":11686:11701   */\n      revert\n        /* \"#utility.yul\":11836:11953   */\n    tag_159:\n        /* \"#utility.yul\":11945:11946   */\n      0x00\n        /* \"#utility.yul\":11942:11943   */\n      dup1\n        /* \"#utility.yul\":11935:11947   */\n      revert\n        /* \"#utility.yul\":11959:12136   */\n    tag_189:\n        /* \"#utility.yul\":12099:12128   */\n      0x4552524f523a20494e53554646494349454e542042414c414e43450000000000\n        /* \"#utility.yul\":12095:12096   */\n      0x00\n        /* \"#utility.yul\":12087:12093   */\n      dup3\n        /* \"#utility.yul\":12083:12097   */\n      add\n        /* \"#utility.yul\":12076:12129   */\n      mstore\n        /* \"#utility.yul\":11959:12136   */\n      pop\n      jump\t// out\n        /* \"#utility.yul\":12142:12367   */\n    tag_194:\n        /* \"#utility.yul\":12282:12316   */\n      0x4f776e61626c653a206e6577206f776e657220697320746865207a65726f2061\n        /* \"#utility.yul\":12278:12279   */\n      0x00\n        /* \"#utility.yul\":12270:12276   */\n      dup3\n        /* \"#utility.yul\":12266:12280   */\n      add\n        /* \"#utility.yul\":12259:12317   */\n      mstore\n        /* \"#utility.yul\":12351:12359   */\n      0x6464726573730000000000000000000000000000000000000000000000000000\n        /* \"#utility.yul\":12346:12348   */\n      0x20\n        /* \"#utility.yul\":12338:12344   */\n      dup3\n        /* \"#utility.yul\":12334:12349   */\n      add\n        /* \"#utility.yul\":12327:12360   */\n      mstore\n        /* \"#utility.yul\":12142:12367   */\n      pop\n      jump\t// out\n        /* \"#utility.yul\":12373:12545   */\n    tag_199:\n        /* \"#utility.yul\":12513:12537   */\n      0x5374616b696e67204973204e6f7420456e61626c656400000000000000000000\n        /* \"#utility.yul\":12509:12510   */\n      0x00\n        /* \"#utility.yul\":12501:12507   */\n      dup3\n        /* \"#utility.yul\":12497:12511   */\n      add\n        /* \"#utility.yul\":12490:12538   */\n      mstore\n        /* \"#utility.yul\":12373:12545   */\n      pop\n      jump\t// out\n        /* \"#utility.yul\":12551:12721   */\n    tag_204:\n        /* \"#utility.yul\":12691:12713   */\n      0x4552524f523a204d4158494d554d205354414b45000000000000000000000000\n        /* \"#utility.yul\":12687:12688   */\n      0x00\n        /* \"#utility.yul\":12679:12685   */\n      dup3\n        /* \"#utility.yul\":12675:12689   */\n      add\n        /* \"#utility.yul\":12668:12714   */\n      mstore\n        /* \"#utility.yul\":12551:12721   */\n      pop\n      jump\t// out\n        /* \"#utility.yul\":12727:12909   */\n    tag_209:\n        /* \"#utility.yul\":12867:12901   */\n      0x4f776e61626c653a2063616c6c6572206973206e6f7420746865206f776e6572\n        /* \"#utility.yul\":12863:12864   */\n      0x00\n        /* \"#utility.yul\":12855:12861   */\n      dup3\n        /* \"#utility.yul\":12851:12865   */\n      add\n        /* \"#utility.yul\":12844:12902   */\n      mstore\n        /* \"#utility.yul\":12727:12909   */\n      pop\n      jump\t// out\n        /* \"#utility.yul\":12915:13085   */\n    tag_214:\n        /* \"#utility.yul\":13055:13077   */\n      0x4552524f523a204d494e494d554d205354414b45000000000000000000000000\n        /* \"#utility.yul\":13051:13052   */\n      0x00\n        /* \"#utility.yul\":13043:13049   */\n      dup3\n        /* \"#utility.yul\":13039:13053   */\n      add\n        /* \"#utility.yul\":13032:13078   */\n      mstore\n        /* \"#utility.yul\":12915:13085   */\n      pop\n      jump\t// out\n        /* \"#utility.yul\":13091:13213   */\n    tag_144:\n        /* \"#utility.yul\":13164:13188   */\n      tag_292\n        /* \"#utility.yul\":13182:13187   */\n      dup2\n        /* \"#utility.yul\":13164:13188   */\n      tag_176\n      jump\t// in\n    tag_292:\n        /* \"#utility.yul\":13157:13162   */\n      dup2\n        /* \"#utility.yul\":13154:13189   */\n      eq\n        /* \"#utility.yul\":13144:13207   */\n      tag_293\n      jumpi\n        /* \"#utility.yul\":13203:13204   */\n      0x00\n        /* \"#utility.yul\":13200:13201   */\n      dup1\n        /* \"#utility.yul\":13193:13205   */\n      revert\n        /* \"#utility.yul\":13144:13207   */\n    tag_293:\n        /* \"#utility.yul\":13091:13213   */\n      pop\n      jump\t// out\n        /* \"#utility.yul\":13219:13335   */\n    tag_148:\n        /* \"#utility.yul\":13289:13310   */\n      tag_295\n        /* \"#utility.yul\":13304:13309   */\n      dup2\n        /* \"#utility.yul\":13289:13310   */\n      tag_183\n      jump\t// in\n    tag_295:\n        /* \"#utility.yul\":13282:13287   */\n      dup2\n        /* \"#utility.yul\":13279:13311   */\n      eq\n        /* \"#utility.yul\":13269:13329   */\n      tag_296\n      jumpi\n        /* \"#utility.yul\":13325:13326   */\n      0x00\n        /* \"#utility.yul\":13322:13323   */\n      dup1\n        /* \"#utility.yul\":13315:13327   */\n      revert\n        /* \"#utility.yul\":13269:13329   */\n    tag_296:\n        /* \"#utility.yul\":13219:13335   */\n      pop\n      jump\t// out\n        /* \"#utility.yul\":13341:13463   */\n    tag_152:\n        /* \"#utility.yul\":13414:13438   */\n      tag_298\n        /* \"#utility.yul\":13432:13437   */\n      dup2\n        /* \"#utility.yul\":13414:13438   */\n      tag_225\n      jump\t// in\n    tag_298:\n        /* \"#utility.yul\":13407:13412   */\n      dup2\n        /* \"#utility.yul\":13404:13439   */\n      eq\n        /* \"#utility.yul\":13394:13457   */\n      tag_299\n      jumpi\n        /* \"#utility.yul\":13453:13454   */\n      0x00\n        /* \"#utility.yul\":13450:13451   */\n      dup1\n        /* \"#utility.yul\":13443:13455   */\n      revert\n        /* \"#utility.yul\":13394:13457   */\n    tag_299:\n        /* \"#utility.yul\":13341:13463   */\n      pop\n      jump\t// out\n\n    auxdata: 0xa2646970667358221220f10101de1595803208a2c9cfb32426595da62f72a53383147deab3a93689bdd464736f6c63430008070033\n}\n",
				"bytecode": {
					"linkReferences": {},
					"object": "608060405260006002556000600360006101000a81548160ff02191690831515021790555034801561003057600080fd5b5061004d61004261005260201b60201c565b61005a60201b60201c565b61011e565b600033905090565b60008060009054906101000a900473ffffffffffffffffffffffffffffffffffffffff169050816000806101000a81548173ffffffffffffffffffffffffffffffffffffffff021916908373ffffffffffffffffffffffffffffffffffffffff1602179055508173ffffffffffffffffffffffffffffffffffffffff168173ffffffffffffffffffffffffffffffffffffffff167f8be0079c531659141344cd1fd0a4f28419497f9722a3daafe3b4186f6b6457e060405160405180910390a35050565b61142d8061012d6000396000f3fe60806040526004361061008a5760003560e01c8063b0adfa0911610059578063b0adfa0914610115578063da917aea1461012c578063db56892214610157578063df6a8a1514610180578063f2fde38b146101a957610091565b806364cb560c14610093578063715018a6146100aa5780638da5cb5b146100c1578063ad95b1c6146100ec57610091565b3661009157005b005b34801561009f57600080fd5b506100a86101d2565b005b3480156100b657600080fd5b506100bf61027a565b005b3480156100cd57600080fd5b506100d6610302565b6040516100e39190610fd7565b60405180910390f35b3480156100f857600080fd5b50610113600480360381019061010e9190610dfc565b61032b565b005b34801561012157600080fd5b5061012a6107e4565b005b34801561013857600080fd5b506101416107e6565b60405161014e9190611097565b60405180910390f35b34801561016357600080fd5b5061017e60048036038101906101799190610da2565b6107f9565b005b34801561018c57600080fd5b506101a760048036038101906101a29190610dfc565b6108b9565b005b3480156101b557600080fd5b506101d060048036038101906101cb9190610da2565b610b8a565b005b6101da610c82565b73ffffffffffffffffffffffffffffffffffffffff166101f8610302565b73ffffffffffffffffffffffffffffffffffffffff161461024e576040517f08c379a000000000000000000000000000000000000000000000000000000000815260040161024590611132565b60405180910390fd5b600360009054906101000a900460ff1615600360006101000a81548160ff021916908315150217905550565b610282610c82565b73ffffffffffffffffffffffffffffffffffffffff166102a0610302565b73ffffffffffffffffffffffffffffffffffffffff16146102f6576040517f08c379a00000000000000000000000000000000000000000000000000000000081526004016102ed90611132565b60405180910390fd5b6103006000610c8a565b565b60008060009054906101000a900473ffffffffffffffffffffffffffffffffffffffff16905090565b600360009054906101000a900460ff1661037a576040517f08c379a0000000000000000000000000000000000000000000000000000000008152600401610371906110f2565b60405180910390fd5b69d3c21bcecceda100000081600560003373ffffffffffffffffffffffffffffffffffffffff1673ffffffffffffffffffffffffffffffffffffffff168152602001908152602001600020546103d09190611183565b1015610411576040517f08c379a000000000000000000000000000000000000000000000000000000000815260040161040890611112565b60405180910390fd5b678ac7230489e8000081600560003373ffffffffffffffffffffffffffffffffffffffff1673ffffffffffffffffffffffffffffffffffffffff168152602001908152602001600020546104659190611183565b11156104a6576040517f08c379a000000000000000000000000000000000000000000000000000000000815260040161049d90611152565b60405180910390fd5b80600160009054906101000a900473ffffffffffffffffffffffffffffffffffffffff1673ffffffffffffffffffffffffffffffffffffffff166370a08231336040518263ffffffff1660e01b81526004016105029190610fd7565b60206040518083038186803b15801561051a57600080fd5b505afa15801561052e573d6000803e3d6000fd5b505050506040513d601f19601f820116820180604052508101906105529190610e29565b1015610593576040517f08c379a000000000000000000000000000000000000000000000000000000000815260040161058a906110b2565b60405180910390fd5b600160009054906101000a900473ffffffffffffffffffffffffffffffffffffffff1673ffffffffffffffffffffffffffffffffffffffff166323b872dd3330846040518463ffffffff1660e01b81526004016105f293929190610ff2565b602060405180830381600087803b15801561060c57600080fd5b505af1158015610620573d6000803e3d6000fd5b505050506040513d601f19601f820116820180604052508101906106449190610dcf565b5080600560003373ffffffffffffffffffffffffffffffffffffffff1673ffffffffffffffffffffffffffffffffffffffff16815260200190815260200160002060008282546106949190611183565b92505081905550600060405180608001604052803373ffffffffffffffffffffffffffffffffffffffff168152602001838152602001428152602001600060ff168152509050806004600060016002546106ee9190611183565b815260200190815260200160002060008201518160000160006101000a81548173ffffffffffffffffffffffffffffffffffffffff021916908373ffffffffffffffffffffffffffffffffffffffff160217905550602082015181600101556040820151816002015560608201518160030160006101000a81548160ff021916908360ff1602179055509050507f62cb55e360f9d0014feeb0753042d6fc5798187ede3ddadbf54c03881f53b6123360016002546107ac9190611183565b83426040516107be9493929190611052565b60405180910390a16001600260008282546107d99190611183565b925050819055505050565b565b600360009054906101000a900460ff1681565b610801610c82565b73ffffffffffffffffffffffffffffffffffffffff1661081f610302565b73ffffffffffffffffffffffffffffffffffffffff1614610875576040517f08c379a000000000000000000000000000000000000000000000000000000000815260040161086c90611132565b60405180910390fd5b80600160006101000a81548173ffffffffffffffffffffffffffffffffffffffff021916908373ffffffffffffffffffffffffffffffffffffffff16021790555050565b80600560003373ffffffffffffffffffffffffffffffffffffffff1673ffffffffffffffffffffffffffffffffffffffff16815260200190815260200160002054111561093b576040517f08c379a0000000000000000000000000000000000000000000000000000000008152600401610932906110b2565b60405180910390fd5b600160009054906101000a900473ffffffffffffffffffffffffffffffffffffffff1673ffffffffffffffffffffffffffffffffffffffff1663a9059cbb33836040518363ffffffff1660e01b8152600401610998929190611029565b602060405180830381600087803b1580156109b257600080fd5b505af11580156109c6573d6000803e3d6000fd5b505050506040513d601f19601f820116820180604052508101906109ea9190610dcf565b5080600560003373ffffffffffffffffffffffffffffffffffffffff1673ffffffffffffffffffffffffffffffffffffffff1681526020019081526020016000206000828254610a3a91906111d9565b92505081905550600060405180608001604052803373ffffffffffffffffffffffffffffffffffffffff168152602001838152602001428152602001600160ff16815250905080600460006001600254610a949190611183565b815260200190815260200160002060008201518160000160006101000a81548173ffffffffffffffffffffffffffffffffffffffff021916908373ffffffffffffffffffffffffffffffffffffffff160217905550602082015181600101556040820151816002015560608201518160030160006101000a81548160ff021916908360ff1602179055509050507f27e09d0dfd4290ba6bbad99e9ed98fce69333c5281617ea1333041d739705b24336001600254610b529190611183565b8342604051610b649493929190611052565b60405180910390a1600160026000828254610b7f9190611183565b925050819055505050565b610b92610c82565b73ffffffffffffffffffffffffffffffffffffffff16610bb0610302565b73ffffffffffffffffffffffffffffffffffffffff1614610c06576040517f08c379a0000000000000000000000000000000000000000000000000000000008152600401610bfd90611132565b60405180910390fd5b600073ffffffffffffffffffffffffffffffffffffffff168173ffffffffffffffffffffffffffffffffffffffff161415610c76576040517f08c379a0000000000000000000000000000000000000000000000000000000008152600401610c6d906110d2565b60405180910390fd5b610c7f81610c8a565b50565b600033905090565b60008060009054906101000a900473ffffffffffffffffffffffffffffffffffffffff169050816000806101000a81548173ffffffffffffffffffffffffffffffffffffffff021916908373ffffffffffffffffffffffffffffffffffffffff1602179055508173ffffffffffffffffffffffffffffffffffffffff168173ffffffffffffffffffffffffffffffffffffffff167f8be0079c531659141344cd1fd0a4f28419497f9722a3daafe3b4186f6b6457e060405160405180910390a35050565b600081359050610d5d816113b2565b92915050565b600081519050610d72816113c9565b92915050565b600081359050610d87816113e0565b92915050565b600081519050610d9c816113e0565b92915050565b600060208284031215610db857610db7611291565b5b6000610dc684828501610d4e565b91505092915050565b600060208284031215610de557610de4611291565b5b6000610df384828501610d63565b91505092915050565b600060208284031215610e1257610e11611291565b5b6000610e2084828501610d78565b91505092915050565b600060208284031215610e3f57610e3e611291565b5b6000610e4d84828501610d8d565b91505092915050565b610e5f8161120d565b82525050565b610e6e8161120d565b82525050565b610e7d8161121f565b82525050565b6000610e90601b83611172565b9150610e9b82611296565b602082019050919050565b6000610eb3602683611172565b9150610ebe826112bf565b604082019050919050565b6000610ed6601683611172565b9150610ee18261130e565b602082019050919050565b6000610ef9601483611172565b9150610f0482611337565b602082019050919050565b6000610f1c602083611172565b9150610f2782611360565b602082019050919050565b6000610f3f601483611172565b9150610f4a82611389565b602082019050919050565b608082016000820151610f6b6000850182610e56565b506020820151610f7e6020850182610faa565b506040820151610f916040850182610faa565b506060820151610fa46060850182610fc8565b50505050565b610fb38161124b565b82525050565b610fc28161124b565b82525050565b610fd181611255565b82525050565b6000602082019050610fec6000830184610e65565b92915050565b60006060820190506110076000830186610e65565b6110146020830185610e65565b6110216040830184610fb9565b949350505050565b600060408201905061103e6000830185610e65565b61104b6020830184610fb9565b9392505050565b600060e0820190506110676000830187610e65565b6110746020830186610fb9565b6110816040830185610f55565b61108e60c0830184610fb9565b95945050505050565b60006020820190506110ac6000830184610e74565b92915050565b600060208201905081810360008301526110cb81610e83565b9050919050565b600060208201905081810360008301526110eb81610ea6565b9050919050565b6000602082019050818103600083015261110b81610ec9565b9050919050565b6000602082019050818103600083015261112b81610eec565b9050919050565b6000602082019050818103600083015261114b81610f0f565b9050919050565b6000602082019050818103600083015261116b81610f32565b9050919050565b600082825260208201905092915050565b600061118e8261124b565b91506111998361124b565b9250827fffffffffffffffffffffffffffffffffffffffffffffffffffffffffffffffff038211156111ce576111cd611262565b5b828201905092915050565b60006111e48261124b565b91506111ef8361124b565b92508282101561120257611201611262565b5b828203905092915050565b60006112188261122b565b9050919050565b60008115159050919050565b600073ffffffffffffffffffffffffffffffffffffffff82169050919050565b6000819050919050565b600060ff82169050919050565b7f4e487b7100000000000000000000000000000000000000000000000000000000600052601160045260246000fd5b600080fd5b7f4552524f523a20494e53554646494349454e542042414c414e43450000000000600082015250565b7f4f776e61626c653a206e6577206f776e657220697320746865207a65726f206160008201527f6464726573730000000000000000000000000000000000000000000000000000602082015250565b7f5374616b696e67204973204e6f7420456e61626c656400000000000000000000600082015250565b7f4552524f523a204d4158494d554d205354414b45000000000000000000000000600082015250565b7f4f776e61626c653a2063616c6c6572206973206e6f7420746865206f776e6572600082015250565b7f4552524f523a204d494e494d554d205354414b45000000000000000000000000600082015250565b6113bb8161120d565b81146113c657600080fd5b50565b6113d28161121f565b81146113dd57600080fd5b50565b6113e98161124b565b81146113f457600080fd5b5056fea2646970667358221220f10101de1595803208a2c9cfb32426595da62f72a53383147deab3a93689bdd464736f6c63430008070033",
					"opcodes": "PUSH1 0x80 PUSH1 0x40 MSTORE PUSH1 0x0 PUSH1 0x2 SSTORE PUSH1 0x0 PUSH1 0x3 PUSH1 0x0 PUSH2 0x100 EXP DUP2 SLOAD DUP2 PUSH1 0xFF MUL NOT AND SWAP1 DUP4 ISZERO ISZERO MUL OR SWAP1 SSTORE POP CALLVALUE DUP1 ISZERO PUSH2 0x30 JUMPI PUSH1 0x0 DUP1 REVERT JUMPDEST POP PUSH2 0x4D PUSH2 0x42 PUSH2 0x52 PUSH1 0x20 SHL PUSH1 0x20 SHR JUMP JUMPDEST PUSH2 0x5A PUSH1 0x20 SHL PUSH1 0x20 SHR JUMP JUMPDEST PUSH2 0x11E JUMP JUMPDEST PUSH1 0x0 CALLER SWAP1 POP SWAP1 JUMP JUMPDEST PUSH1 0x0 DUP1 PUSH1 0x0 SWAP1 SLOAD SWAP1 PUSH2 0x100 EXP SWAP1 DIV PUSH20 0xFFFFFFFFFFFFFFFFFFFFFFFFFFFFFFFFFFFFFFFF AND SWAP1 POP DUP2 PUSH1 0x0 DUP1 PUSH2 0x100 EXP DUP2 SLOAD DUP2 PUSH20 0xFFFFFFFFFFFFFFFFFFFFFFFFFFFFFFFFFFFFFFFF MUL NOT AND SWAP1 DUP4 PUSH20 0xFFFFFFFFFFFFFFFFFFFFFFFFFFFFFFFFFFFFFFFF AND MUL OR SWAP1 SSTORE POP DUP2 PUSH20 0xFFFFFFFFFFFFFFFFFFFFFFFFFFFFFFFFFFFFFFFF AND DUP2 PUSH20 0xFFFFFFFFFFFFFFFFFFFFFFFFFFFFFFFFFFFFFFFF AND PUSH32 0x8BE0079C531659141344CD1FD0A4F28419497F9722A3DAAFE3B4186F6B6457E0 PUSH1 0x40 MLOAD PUSH1 0x40 MLOAD DUP1 SWAP2 SUB SWAP1 LOG3 POP POP JUMP JUMPDEST PUSH2 0x142D DUP1 PUSH2 0x12D PUSH1 0x0 CODECOPY PUSH1 0x0 RETURN INVALID PUSH1 0x80 PUSH1 0x40 MSTORE PUSH1 0x4 CALLDATASIZE LT PUSH2 0x8A JUMPI PUSH1 0x0 CALLDATALOAD PUSH1 0xE0 SHR DUP1 PUSH4 0xB0ADFA09 GT PUSH2 0x59 JUMPI DUP1 PUSH4 0xB0ADFA09 EQ PUSH2 0x115 JUMPI DUP1 PUSH4 0xDA917AEA EQ PUSH2 0x12C JUMPI DUP1 PUSH4 0xDB568922 EQ PUSH2 0x157 JUMPI DUP1 PUSH4 0xDF6A8A15 EQ PUSH2 0x180 JUMPI DUP1 PUSH4 0xF2FDE38B EQ PUSH2 0x1A9 JUMPI PUSH2 0x91 JUMP JUMPDEST DUP1 PUSH4 0x64CB560C EQ PUSH2 0x93 JUMPI DUP1 PUSH4 0x715018A6 EQ PUSH2 0xAA JUMPI DUP1 PUSH4 0x8DA5CB5B EQ PUSH2 0xC1 JUMPI DUP1 PUSH4 0xAD95B1C6 EQ PUSH2 0xEC JUMPI PUSH2 0x91 JUMP JUMPDEST CALLDATASIZE PUSH2 0x91 JUMPI STOP JUMPDEST STOP JUMPDEST CALLVALUE DUP1 ISZERO PUSH2 0x9F JUMPI PUSH1 0x0 DUP1 REVERT JUMPDEST POP PUSH2 0xA8 PUSH2 0x1D2 JUMP JUMPDEST STOP JUMPDEST CALLVALUE DUP1 ISZERO PUSH2 0xB6 JUMPI PUSH1 0x0 DUP1 REVERT JUMPDEST POP PUSH2 0xBF PUSH2 0x27A JUMP JUMPDEST STOP JUMPDEST CALLVALUE DUP1 ISZERO PUSH2 0xCD JUMPI PUSH1 0x0 DUP1 REVERT JUMPDEST POP PUSH2 0xD6 PUSH2 0x302 JUMP JUMPDEST PUSH1 0x40 MLOAD PUSH2 0xE3 SWAP2 SWAP1 PUSH2 0xFD7 JUMP JUMPDEST PUSH1 0x40 MLOAD DUP1 SWAP2 SUB SWAP1 RETURN JUMPDEST CALLVALUE DUP1 ISZERO PUSH2 0xF8 JUMPI PUSH1 0x0 DUP1 REVERT JUMPDEST POP PUSH2 0x113 PUSH1 0x4 DUP1 CALLDATASIZE SUB DUP2 ADD SWAP1 PUSH2 0x10E SWAP2 SWAP1 PUSH2 0xDFC JUMP JUMPDEST PUSH2 0x32B JUMP JUMPDEST STOP JUMPDEST CALLVALUE DUP1 ISZERO PUSH2 0x121 JUMPI PUSH1 0x0 DUP1 REVERT JUMPDEST POP PUSH2 0x12A PUSH2 0x7E4 JUMP JUMPDEST STOP JUMPDEST CALLVALUE DUP1 ISZERO PUSH2 0x138 JUMPI PUSH1 0x0 DUP1 REVERT JUMPDEST POP PUSH2 0x141 PUSH2 0x7E6 JUMP JUMPDEST PUSH1 0x40 MLOAD PUSH2 0x14E SWAP2 SWAP1 PUSH2 0x1097 JUMP JUMPDEST PUSH1 0x40 MLOAD DUP1 SWAP2 SUB SWAP1 RETURN JUMPDEST CALLVALUE DUP1 ISZERO PUSH2 0x163 JUMPI PUSH1 0x0 DUP1 REVERT JUMPDEST POP PUSH2 0x17E PUSH1 0x4 DUP1 CALLDATASIZE SUB DUP2 ADD SWAP1 PUSH2 0x179 SWAP2 SWAP1 PUSH2 0xDA2 JUMP JUMPDEST PUSH2 0x7F9 JUMP JUMPDEST STOP JUMPDEST CALLVALUE DUP1 ISZERO PUSH2 0x18C JUMPI PUSH1 0x0 DUP1 REVERT JUMPDEST POP PUSH2 0x1A7 PUSH1 0x4 DUP1 CALLDATASIZE SUB DUP2 ADD SWAP1 PUSH2 0x1A2 SWAP2 SWAP1 PUSH2 0xDFC JUMP JUMPDEST PUSH2 0x8B9 JUMP JUMPDEST STOP JUMPDEST CALLVALUE DUP1 ISZERO PUSH2 0x1B5 JUMPI PUSH1 0x0 DUP1 REVERT JUMPDEST POP PUSH2 0x1D0 PUSH1 0x4 DUP1 CALLDATASIZE SUB DUP2 ADD SWAP1 PUSH2 0x1CB SWAP2 SWAP1 PUSH2 0xDA2 JUMP JUMPDEST PUSH2 0xB8A JUMP JUMPDEST STOP JUMPDEST PUSH2 0x1DA PUSH2 0xC82 JUMP JUMPDEST PUSH20 0xFFFFFFFFFFFFFFFFFFFFFFFFFFFFFFFFFFFFFFFF AND PUSH2 0x1F8 PUSH2 0x302 JUMP JUMPDEST PUSH20 0xFFFFFFFFFFFFFFFFFFFFFFFFFFFFFFFFFFFFFFFF AND EQ PUSH2 0x24E JUMPI PUSH1 0x40 MLOAD PUSH32 0x8C379A000000000000000000000000000000000000000000000000000000000 DUP2 MSTORE PUSH1 0x4 ADD PUSH2 0x245 SWAP1 PUSH2 0x1132 JUMP JUMPDEST PUSH1 0x40 MLOAD DUP1 SWAP2 SUB SWAP1 REVERT JUMPDEST PUSH1 0x3 PUSH1 0x0 SWAP1 SLOAD SWAP1 PUSH2 0x100 EXP SWAP1 DIV PUSH1 0xFF AND ISZERO PUSH1 0x3 PUSH1 0x0 PUSH2 0x100 EXP DUP2 SLOAD DUP2 PUSH1 0xFF MUL NOT AND SWAP1 DUP4 ISZERO ISZERO MUL OR SWAP1 SSTORE POP JUMP JUMPDEST PUSH2 0x282 PUSH2 0xC82 JUMP JUMPDEST PUSH20 0xFFFFFFFFFFFFFFFFFFFFFFFFFFFFFFFFFFFFFFFF AND PUSH2 0x2A0 PUSH2 0x302 JUMP JUMPDEST PUSH20 0xFFFFFFFFFFFFFFFFFFFFFFFFFFFFFFFFFFFFFFFF AND EQ PUSH2 0x2F6 JUMPI PUSH1 0x40 MLOAD PUSH32 0x8C379A000000000000000000000000000000000000000000000000000000000 DUP2 MSTORE PUSH1 0x4 ADD PUSH2 0x2ED SWAP1 PUSH2 0x1132 JUMP JUMPDEST PUSH1 0x40 MLOAD DUP1 SWAP2 SUB SWAP1 REVERT JUMPDEST PUSH2 0x300 PUSH1 0x0 PUSH2 0xC8A JUMP JUMPDEST JUMP JUMPDEST PUSH1 0x0 DUP1 PUSH1 0x0 SWAP1 SLOAD SWAP1 PUSH2 0x100 EXP SWAP1 DIV PUSH20 0xFFFFFFFFFFFFFFFFFFFFFFFFFFFFFFFFFFFFFFFF AND SWAP1 POP SWAP1 JUMP JUMPDEST PUSH1 0x3 PUSH1 0x0 SWAP1 SLOAD SWAP1 PUSH2 0x100 EXP SWAP1 DIV PUSH1 0xFF AND PUSH2 0x37A JUMPI PUSH1 0x40 MLOAD PUSH32 0x8C379A000000000000000000000000000000000000000000000000000000000 DUP2 MSTORE PUSH1 0x4 ADD PUSH2 0x371 SWAP1 PUSH2 0x10F2 JUMP JUMPDEST PUSH1 0x40 MLOAD DUP1 SWAP2 SUB SWAP1 REVERT JUMPDEST PUSH10 0xD3C21BCECCEDA1000000 DUP2 PUSH1 0x5 PUSH1 0x0 CALLER PUSH20 0xFFFFFFFFFFFFFFFFFFFFFFFFFFFFFFFFFFFFFFFF AND PUSH20 0xFFFFFFFFFFFFFFFFFFFFFFFFFFFFFFFFFFFFFFFF AND DUP2 MSTORE PUSH1 0x20 ADD SWAP1 DUP2 MSTORE PUSH1 0x20 ADD PUSH1 0x0 KECCAK256 SLOAD PUSH2 0x3D0 SWAP2 SWAP1 PUSH2 0x1183 JUMP JUMPDEST LT ISZERO PUSH2 0x411 JUMPI PUSH1 0x40 MLOAD PUSH32 0x8C379A000000000000000000000000000000000000000000000000000000000 DUP2 MSTORE PUSH1 0x4 ADD PUSH2 0x408 SWAP1 PUSH2 0x1112 JUMP JUMPDEST PUSH1 0x40 MLOAD DUP1 SWAP2 SUB SWAP1 REVERT JUMPDEST PUSH8 0x8AC7230489E80000 DUP2 PUSH1 0x5 PUSH1 0x0 CALLER PUSH20 0xFFFFFFFFFFFFFFFFFFFFFFFFFFFFFFFFFFFFFFFF AND PUSH20 0xFFFFFFFFFFFFFFFFFFFFFFFFFFFFFFFFFFFFFFFF AND DUP2 MSTORE PUSH1 0x20 ADD SWAP1 DUP2 MSTORE PUSH1 0x20 ADD PUSH1 0x0 KECCAK256 SLOAD PUSH2 0x465 SWAP2 SWAP1 PUSH2 0x1183 JUMP JUMPDEST GT ISZERO PUSH2 0x4A6 JUMPI PUSH1 0x40 MLOAD PUSH32 0x8C379A000000000000000000000000000000000000000000000000000000000 DUP2 MSTORE PUSH1 0x4 ADD PUSH2 0x49D SWAP1 PUSH2 0x1152 JUMP JUMPDEST PUSH1 0x40 MLOAD DUP1 SWAP2 SUB SWAP1 REVERT JUMPDEST DUP1 PUSH1 0x1 PUSH1 0x0 SWAP1 SLOAD SWAP1 PUSH2 0x100 EXP SWAP1 DIV PUSH20 0xFFFFFFFFFFFFFFFFFFFFFFFFFFFFFFFFFFFFFFFF AND PUSH20 0xFFFFFFFFFFFFFFFFFFFFFFFFFFFFFFFFFFFFFFFF AND PUSH4 0x70A08231 CALLER PUSH1 0x40 MLOAD DUP3 PUSH4 0xFFFFFFFF AND PUSH1 0xE0 SHL DUP2 MSTORE PUSH1 0x4 ADD PUSH2 0x502 SWAP2 SWAP1 PUSH2 0xFD7 JUMP JUMPDEST PUSH1 0x20 PUSH1 0x40 MLOAD DUP1 DUP4 SUB DUP2 DUP7 DUP1 EXTCODESIZE ISZERO DUP1 ISZERO PUSH2 0x51A JUMPI PUSH1 0x0 DUP1 REVERT JUMPDEST POP GAS STATICCALL ISZERO DUP1 ISZERO PUSH2 0x52E JUMPI RETURNDATASIZE PUSH1 0x0 DUP1 RETURNDATACOPY RETURNDATASIZE PUSH1 0x0 REVERT JUMPDEST POP POP POP POP PUSH1 0x40 MLOAD RETURNDATASIZE PUSH1 0x1F NOT PUSH1 0x1F DUP3 ADD AND DUP3 ADD DUP1 PUSH1 0x40 MSTORE POP DUP2 ADD SWAP1 PUSH2 0x552 SWAP2 SWAP1 PUSH2 0xE29 JUMP JUMPDEST LT ISZERO PUSH2 0x593 JUMPI PUSH1 0x40 MLOAD PUSH32 0x8C379A000000000000000000000000000000000000000000000000000000000 DUP2 MSTORE PUSH1 0x4 ADD PUSH2 0x58A SWAP1 PUSH2 0x10B2 JUMP JUMPDEST PUSH1 0x40 MLOAD DUP1 SWAP2 SUB SWAP1 REVERT JUMPDEST PUSH1 0x1 PUSH1 0x0 SWAP1 SLOAD SWAP1 PUSH2 0x100 EXP SWAP1 DIV PUSH20 0xFFFFFFFFFFFFFFFFFFFFFFFFFFFFFFFFFFFFFFFF AND PUSH20 0xFFFFFFFFFFFFFFFFFFFFFFFFFFFFFFFFFFFFFFFF AND PUSH4 0x23B872DD CALLER ADDRESS DUP5 PUSH1 0x40 MLOAD DUP5 PUSH4 0xFFFFFFFF AND PUSH1 0xE0 SHL DUP2 MSTORE PUSH1 0x4 ADD PUSH2 0x5F2 SWAP4 SWAP3 SWAP2 SWAP1 PUSH2 0xFF2 JUMP JUMPDEST PUSH1 0x20 PUSH1 0x40 MLOAD DUP1 DUP4 SUB DUP2 PUSH1 0x0 DUP8 DUP1 EXTCODESIZE ISZERO DUP1 ISZERO PUSH2 0x60C JUMPI PUSH1 0x0 DUP1 REVERT JUMPDEST POP GAS CALL ISZERO DUP1 ISZERO PUSH2 0x620 JUMPI RETURNDATASIZE PUSH1 0x0 DUP1 RETURNDATACOPY RETURNDATASIZE PUSH1 0x0 REVERT JUMPDEST POP POP POP POP PUSH1 0x40 MLOAD RETURNDATASIZE PUSH1 0x1F NOT PUSH1 0x1F DUP3 ADD AND DUP3 ADD DUP1 PUSH1 0x40 MSTORE POP DUP2 ADD SWAP1 PUSH2 0x644 SWAP2 SWAP1 PUSH2 0xDCF JUMP JUMPDEST POP DUP1 PUSH1 0x5 PUSH1 0x0 CALLER PUSH20 0xFFFFFFFFFFFFFFFFFFFFFFFFFFFFFFFFFFFFFFFF AND PUSH20 0xFFFFFFFFFFFFFFFFFFFFFFFFFFFFFFFFFFFFFFFF AND DUP2 MSTORE PUSH1 0x20 ADD SWAP1 DUP2 MSTORE PUSH1 0x20 ADD PUSH1 0x0 KECCAK256 PUSH1 0x0 DUP3 DUP3 SLOAD PUSH2 0x694 SWAP2 SWAP1 PUSH2 0x1183 JUMP JUMPDEST SWAP3 POP POP DUP2 SWAP1 SSTORE POP PUSH1 0x0 PUSH1 0x40 MLOAD DUP1 PUSH1 0x80 ADD PUSH1 0x40 MSTORE DUP1 CALLER PUSH20 0xFFFFFFFFFFFFFFFFFFFFFFFFFFFFFFFFFFFFFFFF AND DUP2 MSTORE PUSH1 0x20 ADD DUP4 DUP2 MSTORE PUSH1 0x20 ADD TIMESTAMP DUP2 MSTORE PUSH1 0x20 ADD PUSH1 0x0 PUSH1 0xFF AND DUP2 MSTORE POP SWAP1 POP DUP1 PUSH1 0x4 PUSH1 0x0 PUSH1 0x1 PUSH1 0x2 SLOAD PUSH2 0x6EE SWAP2 SWAP1 PUSH2 0x1183 JUMP JUMPDEST DUP2 MSTORE PUSH1 0x20 ADD SWAP1 DUP2 MSTORE PUSH1 0x20 ADD PUSH1 0x0 KECCAK256 PUSH1 0x0 DUP3 ADD MLOAD DUP2 PUSH1 0x0 ADD PUSH1 0x0 PUSH2 0x100 EXP DUP2 SLOAD DUP2 PUSH20 0xFFFFFFFFFFFFFFFFFFFFFFFFFFFFFFFFFFFFFFFF MUL NOT AND SWAP1 DUP4 PUSH20 0xFFFFFFFFFFFFFFFFFFFFFFFFFFFFFFFFFFFFFFFF AND MUL OR SWAP1 SSTORE POP PUSH1 0x20 DUP3 ADD MLOAD DUP2 PUSH1 0x1 ADD SSTORE PUSH1 0x40 DUP3 ADD MLOAD DUP2 PUSH1 0x2 ADD SSTORE PUSH1 0x60 DUP3 ADD MLOAD DUP2 PUSH1 0x3 ADD PUSH1 0x0 PUSH2 0x100 EXP DUP2 SLOAD DUP2 PUSH1 0xFF MUL NOT AND SWAP1 DUP4 PUSH1 0xFF AND MUL OR SWAP1 SSTORE POP SWAP1 POP POP PUSH32 0x62CB55E360F9D0014FEEB0753042D6FC5798187EDE3DDADBF54C03881F53B612 CALLER PUSH1 0x1 PUSH1 0x2 SLOAD PUSH2 0x7AC SWAP2 SWAP1 PUSH2 0x1183 JUMP JUMPDEST DUP4 TIMESTAMP PUSH1 0x40 MLOAD PUSH2 0x7BE SWAP5 SWAP4 SWAP3 SWAP2 SWAP1 PUSH2 0x1052 JUMP JUMPDEST PUSH1 0x40 MLOAD DUP1 SWAP2 SUB SWAP1 LOG1 PUSH1 0x1 PUSH1 0x2 PUSH1 0x0 DUP3 DUP3 SLOAD PUSH2 0x7D9 SWAP2 SWAP1 PUSH2 0x1183 JUMP JUMPDEST SWAP3 POP POP DUP2 SWAP1 SSTORE POP POP POP JUMP JUMPDEST JUMP JUMPDEST PUSH1 0x3 PUSH1 0x0 SWAP1 SLOAD SWAP1 PUSH2 0x100 EXP SWAP1 DIV PUSH1 0xFF AND DUP2 JUMP JUMPDEST PUSH2 0x801 PUSH2 0xC82 JUMP JUMPDEST PUSH20 0xFFFFFFFFFFFFFFFFFFFFFFFFFFFFFFFFFFFFFFFF AND PUSH2 0x81F PUSH2 0x302 JUMP JUMPDEST PUSH20 0xFFFFFFFFFFFFFFFFFFFFFFFFFFFFFFFFFFFFFFFF AND EQ PUSH2 0x875 JUMPI PUSH1 0x40 MLOAD PUSH32 0x8C379A000000000000000000000000000000000000000000000000000000000 DUP2 MSTORE PUSH1 0x4 ADD PUSH2 0x86C SWAP1 PUSH2 0x1132 JUMP JUMPDEST PUSH1 0x40 MLOAD DUP1 SWAP2 SUB SWAP1 REVERT JUMPDEST DUP1 PUSH1 0x1 PUSH1 0x0 PUSH2 0x100 EXP DUP2 SLOAD DUP2 PUSH20 0xFFFFFFFFFFFFFFFFFFFFFFFFFFFFFFFFFFFFFFFF MUL NOT AND SWAP1 DUP4 PUSH20 0xFFFFFFFFFFFFFFFFFFFFFFFFFFFFFFFFFFFFFFFF AND MUL OR SWAP1 SSTORE POP POP JUMP JUMPDEST DUP1 PUSH1 0x5 PUSH1 0x0 CALLER PUSH20 0xFFFFFFFFFFFFFFFFFFFFFFFFFFFFFFFFFFFFFFFF AND PUSH20 0xFFFFFFFFFFFFFFFFFFFFFFFFFFFFFFFFFFFFFFFF AND DUP2 MSTORE PUSH1 0x20 ADD SWAP1 DUP2 MSTORE PUSH1 0x20 ADD PUSH1 0x0 KECCAK256 SLOAD GT ISZERO PUSH2 0x93B JUMPI PUSH1 0x40 MLOAD PUSH32 0x8C379A000000000000000000000000000000000000000000000000000000000 DUP2 MSTORE PUSH1 0x4 ADD PUSH2 0x932 SWAP1 PUSH2 0x10B2 JUMP JUMPDEST PUSH1 0x40 MLOAD DUP1 SWAP2 SUB SWAP1 REVERT JUMPDEST PUSH1 0x1 PUSH1 0x0 SWAP1 SLOAD SWAP1 PUSH2 0x100 EXP SWAP1 DIV PUSH20 0xFFFFFFFFFFFFFFFFFFFFFFFFFFFFFFFFFFFFFFFF AND PUSH20 0xFFFFFFFFFFFFFFFFFFFFFFFFFFFFFFFFFFFFFFFF AND PUSH4 0xA9059CBB CALLER DUP4 PUSH1 0x40 MLOAD DUP4 PUSH4 0xFFFFFFFF AND PUSH1 0xE0 SHL DUP2 MSTORE PUSH1 0x4 ADD PUSH2 0x998 SWAP3 SWAP2 SWAP1 PUSH2 0x1029 JUMP JUMPDEST PUSH1 0x20 PUSH1 0x40 MLOAD DUP1 DUP4 SUB DUP2 PUSH1 0x0 DUP8 DUP1 EXTCODESIZE ISZERO DUP1 ISZERO PUSH2 0x9B2 JUMPI PUSH1 0x0 DUP1 REVERT JUMPDEST POP GAS CALL ISZERO DUP1 ISZERO PUSH2 0x9C6 JUMPI RETURNDATASIZE PUSH1 0x0 DUP1 RETURNDATACOPY RETURNDATASIZE PUSH1 0x0 REVERT JUMPDEST POP POP POP POP PUSH1 0x40 MLOAD RETURNDATASIZE PUSH1 0x1F NOT PUSH1 0x1F DUP3 ADD AND DUP3 ADD DUP1 PUSH1 0x40 MSTORE POP DUP2 ADD SWAP1 PUSH2 0x9EA SWAP2 SWAP1 PUSH2 0xDCF JUMP JUMPDEST POP DUP1 PUSH1 0x5 PUSH1 0x0 CALLER PUSH20 0xFFFFFFFFFFFFFFFFFFFFFFFFFFFFFFFFFFFFFFFF AND PUSH20 0xFFFFFFFFFFFFFFFFFFFFFFFFFFFFFFFFFFFFFFFF AND DUP2 MSTORE PUSH1 0x20 ADD SWAP1 DUP2 MSTORE PUSH1 0x20 ADD PUSH1 0x0 KECCAK256 PUSH1 0x0 DUP3 DUP3 SLOAD PUSH2 0xA3A SWAP2 SWAP1 PUSH2 0x11D9 JUMP JUMPDEST SWAP3 POP POP DUP2 SWAP1 SSTORE POP PUSH1 0x0 PUSH1 0x40 MLOAD DUP1 PUSH1 0x80 ADD PUSH1 0x40 MSTORE DUP1 CALLER PUSH20 0xFFFFFFFFFFFFFFFFFFFFFFFFFFFFFFFFFFFFFFFF AND DUP2 MSTORE PUSH1 0x20 ADD DUP4 DUP2 MSTORE PUSH1 0x20 ADD TIMESTAMP DUP2 MSTORE PUSH1 0x20 ADD PUSH1 0x1 PUSH1 0xFF AND DUP2 MSTORE POP SWAP1 POP DUP1 PUSH1 0x4 PUSH1 0x0 PUSH1 0x1 PUSH1 0x2 SLOAD PUSH2 0xA94 SWAP2 SWAP1 PUSH2 0x1183 JUMP JUMPDEST DUP2 MSTORE PUSH1 0x20 ADD SWAP1 DUP2 MSTORE PUSH1 0x20 ADD PUSH1 0x0 KECCAK256 PUSH1 0x0 DUP3 ADD MLOAD DUP2 PUSH1 0x0 ADD PUSH1 0x0 PUSH2 0x100 EXP DUP2 SLOAD DUP2 PUSH20 0xFFFFFFFFFFFFFFFFFFFFFFFFFFFFFFFFFFFFFFFF MUL NOT AND SWAP1 DUP4 PUSH20 0xFFFFFFFFFFFFFFFFFFFFFFFFFFFFFFFFFFFFFFFF AND MUL OR SWAP1 SSTORE POP PUSH1 0x20 DUP3 ADD MLOAD DUP2 PUSH1 0x1 ADD SSTORE PUSH1 0x40 DUP3 ADD MLOAD DUP2 PUSH1 0x2 ADD SSTORE PUSH1 0x60 DUP3 ADD MLOAD DUP2 PUSH1 0x3 ADD PUSH1 0x0 PUSH2 0x100 EXP DUP2 SLOAD DUP2 PUSH1 0xFF MUL NOT AND SWAP1 DUP4 PUSH1 0xFF AND MUL OR SWAP1 SSTORE POP SWAP1 POP POP PUSH32 0x27E09D0DFD4290BA6BBAD99E9ED98FCE69333C5281617EA1333041D739705B24 CALLER PUSH1 0x1 PUSH1 0x2 SLOAD PUSH2 0xB52 SWAP2 SWAP1 PUSH2 0x1183 JUMP JUMPDEST DUP4 TIMESTAMP PUSH1 0x40 MLOAD PUSH2 0xB64 SWAP5 SWAP4 SWAP3 SWAP2 SWAP1 PUSH2 0x1052 JUMP JUMPDEST PUSH1 0x40 MLOAD DUP1 SWAP2 SUB SWAP1 LOG1 PUSH1 0x1 PUSH1 0x2 PUSH1 0x0 DUP3 DUP3 SLOAD PUSH2 0xB7F SWAP2 SWAP1 PUSH2 0x1183 JUMP JUMPDEST SWAP3 POP POP DUP2 SWAP1 SSTORE POP POP POP JUMP JUMPDEST PUSH2 0xB92 PUSH2 0xC82 JUMP JUMPDEST PUSH20 0xFFFFFFFFFFFFFFFFFFFFFFFFFFFFFFFFFFFFFFFF AND PUSH2 0xBB0 PUSH2 0x302 JUMP JUMPDEST PUSH20 0xFFFFFFFFFFFFFFFFFFFFFFFFFFFFFFFFFFFFFFFF AND EQ PUSH2 0xC06 JUMPI PUSH1 0x40 MLOAD PUSH32 0x8C379A000000000000000000000000000000000000000000000000000000000 DUP2 MSTORE PUSH1 0x4 ADD PUSH2 0xBFD SWAP1 PUSH2 0x1132 JUMP JUMPDEST PUSH1 0x40 MLOAD DUP1 SWAP2 SUB SWAP1 REVERT JUMPDEST PUSH1 0x0 PUSH20 0xFFFFFFFFFFFFFFFFFFFFFFFFFFFFFFFFFFFFFFFF AND DUP2 PUSH20 0xFFFFFFFFFFFFFFFFFFFFFFFFFFFFFFFFFFFFFFFF AND EQ ISZERO PUSH2 0xC76 JUMPI PUSH1 0x40 MLOAD PUSH32 0x8C379A000000000000000000000000000000000000000000000000000000000 DUP2 MSTORE PUSH1 0x4 ADD PUSH2 0xC6D SWAP1 PUSH2 0x10D2 JUMP JUMPDEST PUSH1 0x40 MLOAD DUP1 SWAP2 SUB SWAP1 REVERT JUMPDEST PUSH2 0xC7F DUP2 PUSH2 0xC8A JUMP JUMPDEST POP JUMP JUMPDEST PUSH1 0x0 CALLER SWAP1 POP SWAP1 JUMP JUMPDEST PUSH1 0x0 DUP1 PUSH1 0x0 SWAP1 SLOAD SWAP1 PUSH2 0x100 EXP SWAP1 DIV PUSH20 0xFFFFFFFFFFFFFFFFFFFFFFFFFFFFFFFFFFFFFFFF AND SWAP1 POP DUP2 PUSH1 0x0 DUP1 PUSH2 0x100 EXP DUP2 SLOAD DUP2 PUSH20 0xFFFFFFFFFFFFFFFFFFFFFFFFFFFFFFFFFFFFFFFF MUL NOT AND SWAP1 DUP4 PUSH20 0xFFFFFFFFFFFFFFFFFFFFFFFFFFFFFFFFFFFFFFFF AND MUL OR SWAP1 SSTORE POP DUP2 PUSH20 0xFFFFFFFFFFFFFFFFFFFFFFFFFFFFFFFFFFFFFFFF AND DUP2 PUSH20 0xFFFFFFFFFFFFFFFFFFFFFFFFFFFFFFFFFFFFFFFF AND PUSH32 0x8BE0079C531659141344CD1FD0A4F28419497F9722A3DAAFE3B4186F6B6457E0 PUSH1 0x40 MLOAD PUSH1 0x40 MLOAD DUP1 SWAP2 SUB SWAP1 LOG3 POP POP JUMP JUMPDEST PUSH1 0x0 DUP2 CALLDATALOAD SWAP1 POP PUSH2 0xD5D DUP2 PUSH2 0x13B2 JUMP JUMPDEST SWAP3 SWAP2 POP POP JUMP JUMPDEST PUSH1 0x0 DUP2 MLOAD SWAP1 POP PUSH2 0xD72 DUP2 PUSH2 0x13C9 JUMP JUMPDEST SWAP3 SWAP2 POP POP JUMP JUMPDEST PUSH1 0x0 DUP2 CALLDATALOAD SWAP1 POP PUSH2 0xD87 DUP2 PUSH2 0x13E0 JUMP JUMPDEST SWAP3 SWAP2 POP POP JUMP JUMPDEST PUSH1 0x0 DUP2 MLOAD SWAP1 POP PUSH2 0xD9C DUP2 PUSH2 0x13E0 JUMP JUMPDEST SWAP3 SWAP2 POP POP JUMP JUMPDEST PUSH1 0x0 PUSH1 0x20 DUP3 DUP5 SUB SLT ISZERO PUSH2 0xDB8 JUMPI PUSH2 0xDB7 PUSH2 0x1291 JUMP JUMPDEST JUMPDEST PUSH1 0x0 PUSH2 0xDC6 DUP5 DUP3 DUP6 ADD PUSH2 0xD4E JUMP JUMPDEST SWAP2 POP POP SWAP3 SWAP2 POP POP JUMP JUMPDEST PUSH1 0x0 PUSH1 0x20 DUP3 DUP5 SUB SLT ISZERO PUSH2 0xDE5 JUMPI PUSH2 0xDE4 PUSH2 0x1291 JUMP JUMPDEST JUMPDEST PUSH1 0x0 PUSH2 0xDF3 DUP5 DUP3 DUP6 ADD PUSH2 0xD63 JUMP JUMPDEST SWAP2 POP POP SWAP3 SWAP2 POP POP JUMP JUMPDEST PUSH1 0x0 PUSH1 0x20 DUP3 DUP5 SUB SLT ISZERO PUSH2 0xE12 JUMPI PUSH2 0xE11 PUSH2 0x1291 JUMP JUMPDEST JUMPDEST PUSH1 0x0 PUSH2 0xE20 DUP5 DUP3 DUP6 ADD PUSH2 0xD78 JUMP JUMPDEST SWAP2 POP POP SWAP3 SWAP2 POP POP JUMP JUMPDEST PUSH1 0x0 PUSH1 0x20 DUP3 DUP5 SUB SLT ISZERO PUSH2 0xE3F JUMPI PUSH2 0xE3E PUSH2 0x1291 JUMP JUMPDEST JUMPDEST PUSH1 0x0 PUSH2 0xE4D DUP5 DUP3 DUP6 ADD PUSH2 0xD8D JUMP JUMPDEST SWAP2 POP POP SWAP3 SWAP2 POP POP JUMP JUMPDEST PUSH2 0xE5F DUP2 PUSH2 0x120D JUMP JUMPDEST DUP3 MSTORE POP POP JUMP JUMPDEST PUSH2 0xE6E DUP2 PUSH2 0x120D JUMP JUMPDEST DUP3 MSTORE POP POP JUMP JUMPDEST PUSH2 0xE7D DUP2 PUSH2 0x121F JUMP JUMPDEST DUP3 MSTORE POP POP JUMP JUMPDEST PUSH1 0x0 PUSH2 0xE90 PUSH1 0x1B DUP4 PUSH2 0x1172 JUMP JUMPDEST SWAP2 POP PUSH2 0xE9B DUP3 PUSH2 0x1296 JUMP JUMPDEST PUSH1 0x20 DUP3 ADD SWAP1 POP SWAP2 SWAP1 POP JUMP JUMPDEST PUSH1 0x0 PUSH2 0xEB3 PUSH1 0x26 DUP4 PUSH2 0x1172 JUMP JUMPDEST SWAP2 POP PUSH2 0xEBE DUP3 PUSH2 0x12BF JUMP JUMPDEST PUSH1 0x40 DUP3 ADD SWAP1 POP SWAP2 SWAP1 POP JUMP JUMPDEST PUSH1 0x0 PUSH2 0xED6 PUSH1 0x16 DUP4 PUSH2 0x1172 JUMP JUMPDEST SWAP2 POP PUSH2 0xEE1 DUP3 PUSH2 0x130E JUMP JUMPDEST PUSH1 0x20 DUP3 ADD SWAP1 POP SWAP2 SWAP1 POP JUMP JUMPDEST PUSH1 0x0 PUSH2 0xEF9 PUSH1 0x14 DUP4 PUSH2 0x1172 JUMP JUMPDEST SWAP2 POP PUSH2 0xF04 DUP3 PUSH2 0x1337 JUMP JUMPDEST PUSH1 0x20 DUP3 ADD SWAP1 POP SWAP2 SWAP1 POP JUMP JUMPDEST PUSH1 0x0 PUSH2 0xF1C PUSH1 0x20 DUP4 PUSH2 0x1172 JUMP JUMPDEST SWAP2 POP PUSH2 0xF27 DUP3 PUSH2 0x1360 JUMP JUMPDEST PUSH1 0x20 DUP3 ADD SWAP1 POP SWAP2 SWAP1 POP JUMP JUMPDEST PUSH1 0x0 PUSH2 0xF3F PUSH1 0x14 DUP4 PUSH2 0x1172 JUMP JUMPDEST SWAP2 POP PUSH2 0xF4A DUP3 PUSH2 0x1389 JUMP JUMPDEST PUSH1 0x20 DUP3 ADD SWAP1 POP SWAP2 SWAP1 POP JUMP JUMPDEST PUSH1 0x80 DUP3 ADD PUSH1 0x0 DUP3 ADD MLOAD PUSH2 0xF6B PUSH1 0x0 DUP6 ADD DUP3 PUSH2 0xE56 JUMP JUMPDEST POP PUSH1 0x20 DUP3 ADD MLOAD PUSH2 0xF7E PUSH1 0x20 DUP6 ADD DUP3 PUSH2 0xFAA JUMP JUMPDEST POP PUSH1 0x40 DUP3 ADD MLOAD PUSH2 0xF91 PUSH1 0x40 DUP6 ADD DUP3 PUSH2 0xFAA JUMP JUMPDEST POP PUSH1 0x60 DUP3 ADD MLOAD PUSH2 0xFA4 PUSH1 0x60 DUP6 ADD DUP3 PUSH2 0xFC8 JUMP JUMPDEST POP POP POP POP JUMP JUMPDEST PUSH2 0xFB3 DUP2 PUSH2 0x124B JUMP JUMPDEST DUP3 MSTORE POP POP JUMP JUMPDEST PUSH2 0xFC2 DUP2 PUSH2 0x124B JUMP JUMPDEST DUP3 MSTORE POP POP JUMP JUMPDEST PUSH2 0xFD1 DUP2 PUSH2 0x1255 JUMP JUMPDEST DUP3 MSTORE POP POP JUMP JUMPDEST PUSH1 0x0 PUSH1 0x20 DUP3 ADD SWAP1 POP PUSH2 0xFEC PUSH1 0x0 DUP4 ADD DUP5 PUSH2 0xE65 JUMP JUMPDEST SWAP3 SWAP2 POP POP JUMP JUMPDEST PUSH1 0x0 PUSH1 0x60 DUP3 ADD SWAP1 POP PUSH2 0x1007 PUSH1 0x0 DUP4 ADD DUP7 PUSH2 0xE65 JUMP JUMPDEST PUSH2 0x1014 PUSH1 0x20 DUP4 ADD DUP6 PUSH2 0xE65 JUMP JUMPDEST PUSH2 0x1021 PUSH1 0x40 DUP4 ADD DUP5 PUSH2 0xFB9 JUMP JUMPDEST SWAP5 SWAP4 POP POP POP POP JUMP JUMPDEST PUSH1 0x0 PUSH1 0x40 DUP3 ADD SWAP1 POP PUSH2 0x103E PUSH1 0x0 DUP4 ADD DUP6 PUSH2 0xE65 JUMP JUMPDEST PUSH2 0x104B PUSH1 0x20 DUP4 ADD DUP5 PUSH2 0xFB9 JUMP JUMPDEST SWAP4 SWAP3 POP POP POP JUMP JUMPDEST PUSH1 0x0 PUSH1 0xE0 DUP3 ADD SWAP1 POP PUSH2 0x1067 PUSH1 0x0 DUP4 ADD DUP8 PUSH2 0xE65 JUMP JUMPDEST PUSH2 0x1074 PUSH1 0x20 DUP4 ADD DUP7 PUSH2 0xFB9 JUMP JUMPDEST PUSH2 0x1081 PUSH1 0x40 DUP4 ADD DUP6 PUSH2 0xF55 JUMP JUMPDEST PUSH2 0x108E PUSH1 0xC0 DUP4 ADD DUP5 PUSH2 0xFB9 JUMP JUMPDEST SWAP6 SWAP5 POP POP POP POP POP JUMP JUMPDEST PUSH1 0x0 PUSH1 0x20 DUP3 ADD SWAP1 POP PUSH2 0x10AC PUSH1 0x0 DUP4 ADD DUP5 PUSH2 0xE74 JUMP JUMPDEST SWAP3 SWAP2 POP POP JUMP JUMPDEST PUSH1 0x0 PUSH1 0x20 DUP3 ADD SWAP1 POP DUP2 DUP2 SUB PUSH1 0x0 DUP4 ADD MSTORE PUSH2 0x10CB DUP2 PUSH2 0xE83 JUMP JUMPDEST SWAP1 POP SWAP2 SWAP1 POP JUMP JUMPDEST PUSH1 0x0 PUSH1 0x20 DUP3 ADD SWAP1 POP DUP2 DUP2 SUB PUSH1 0x0 DUP4 ADD MSTORE PUSH2 0x10EB DUP2 PUSH2 0xEA6 JUMP JUMPDEST SWAP1 POP SWAP2 SWAP1 POP JUMP JUMPDEST PUSH1 0x0 PUSH1 0x20 DUP3 ADD SWAP1 POP DUP2 DUP2 SUB PUSH1 0x0 DUP4 ADD MSTORE PUSH2 0x110B DUP2 PUSH2 0xEC9 JUMP JUMPDEST SWAP1 POP SWAP2 SWAP1 POP JUMP JUMPDEST PUSH1 0x0 PUSH1 0x20 DUP3 ADD SWAP1 POP DUP2 DUP2 SUB PUSH1 0x0 DUP4 ADD MSTORE PUSH2 0x112B DUP2 PUSH2 0xEEC JUMP JUMPDEST SWAP1 POP SWAP2 SWAP1 POP JUMP JUMPDEST PUSH1 0x0 PUSH1 0x20 DUP3 ADD SWAP1 POP DUP2 DUP2 SUB PUSH1 0x0 DUP4 ADD MSTORE PUSH2 0x114B DUP2 PUSH2 0xF0F JUMP JUMPDEST SWAP1 POP SWAP2 SWAP1 POP JUMP JUMPDEST PUSH1 0x0 PUSH1 0x20 DUP3 ADD SWAP1 POP DUP2 DUP2 SUB PUSH1 0x0 DUP4 ADD MSTORE PUSH2 0x116B DUP2 PUSH2 0xF32 JUMP JUMPDEST SWAP1 POP SWAP2 SWAP1 POP JUMP JUMPDEST PUSH1 0x0 DUP3 DUP3 MSTORE PUSH1 0x20 DUP3 ADD SWAP1 POP SWAP3 SWAP2 POP POP JUMP JUMPDEST PUSH1 0x0 PUSH2 0x118E DUP3 PUSH2 0x124B JUMP JUMPDEST SWAP2 POP PUSH2 0x1199 DUP4 PUSH2 0x124B JUMP JUMPDEST SWAP3 POP DUP3 PUSH32 0xFFFFFFFFFFFFFFFFFFFFFFFFFFFFFFFFFFFFFFFFFFFFFFFFFFFFFFFFFFFFFFFF SUB DUP3 GT ISZERO PUSH2 0x11CE JUMPI PUSH2 0x11CD PUSH2 0x1262 JUMP JUMPDEST JUMPDEST DUP3 DUP3 ADD SWAP1 POP SWAP3 SWAP2 POP POP JUMP JUMPDEST PUSH1 0x0 PUSH2 0x11E4 DUP3 PUSH2 0x124B JUMP JUMPDEST SWAP2 POP PUSH2 0x11EF DUP4 PUSH2 0x124B JUMP JUMPDEST SWAP3 POP DUP3 DUP3 LT ISZERO PUSH2 0x1202 JUMPI PUSH2 0x1201 PUSH2 0x1262 JUMP JUMPDEST JUMPDEST DUP3 DUP3 SUB SWAP1 POP SWAP3 SWAP2 POP POP JUMP JUMPDEST PUSH1 0x0 PUSH2 0x1218 DUP3 PUSH2 0x122B JUMP JUMPDEST SWAP1 POP SWAP2 SWAP1 POP JUMP JUMPDEST PUSH1 0x0 DUP2 ISZERO ISZERO SWAP1 POP SWAP2 SWAP1 POP JUMP JUMPDEST PUSH1 0x0 PUSH20 0xFFFFFFFFFFFFFFFFFFFFFFFFFFFFFFFFFFFFFFFF DUP3 AND SWAP1 POP SWAP2 SWAP1 POP JUMP JUMPDEST PUSH1 0x0 DUP2 SWAP1 POP SWAP2 SWAP1 POP JUMP JUMPDEST PUSH1 0x0 PUSH1 0xFF DUP3 AND SWAP1 POP SWAP2 SWAP1 POP JUMP JUMPDEST PUSH32 0x4E487B7100000000000000000000000000000000000000000000000000000000 PUSH1 0x0 MSTORE PUSH1 0x11 PUSH1 0x4 MSTORE PUSH1 0x24 PUSH1 0x0 REVERT JUMPDEST PUSH1 0x0 DUP1 REVERT JUMPDEST PUSH32 0x4552524F523A20494E53554646494349454E542042414C414E43450000000000 PUSH1 0x0 DUP3 ADD MSTORE POP JUMP JUMPDEST PUSH32 0x4F776E61626C653A206E6577206F776E657220697320746865207A65726F2061 PUSH1 0x0 DUP3 ADD MSTORE PUSH32 0x6464726573730000000000000000000000000000000000000000000000000000 PUSH1 0x20 DUP3 ADD MSTORE POP JUMP JUMPDEST PUSH32 0x5374616B696E67204973204E6F7420456E61626C656400000000000000000000 PUSH1 0x0 DUP3 ADD MSTORE POP JUMP JUMPDEST PUSH32 0x4552524F523A204D4158494D554D205354414B45000000000000000000000000 PUSH1 0x0 DUP3 ADD MSTORE POP JUMP JUMPDEST PUSH32 0x4F776E61626C653A2063616C6C6572206973206E6F7420746865206F776E6572 PUSH1 0x0 DUP3 ADD MSTORE POP JUMP JUMPDEST PUSH32 0x4552524F523A204D494E494D554D205354414B45000000000000000000000000 PUSH1 0x0 DUP3 ADD MSTORE POP JUMP JUMPDEST PUSH2 0x13BB DUP2 PUSH2 0x120D JUMP JUMPDEST DUP2 EQ PUSH2 0x13C6 JUMPI PUSH1 0x0 DUP1 REVERT JUMPDEST POP JUMP JUMPDEST PUSH2 0x13D2 DUP2 PUSH2 0x121F JUMP JUMPDEST DUP2 EQ PUSH2 0x13DD JUMPI PUSH1 0x0 DUP1 REVERT JUMPDEST POP JUMP JUMPDEST PUSH2 0x13E9 DUP2 PUSH2 0x124B JUMP JUMPDEST DUP2 EQ PUSH2 0x13F4 JUMPI PUSH1 0x0 DUP1 REVERT JUMPDEST POP JUMP INVALID LOG2 PUSH5 0x6970667358 0x22 SLT KECCAK256 CALL ADD ADD 0xDE ISZERO SWAP6 DUP1 ORIGIN ADDMOD LOG2 0xC9 0xCF 0xB3 0x24 0x26 MSIZE 0x5D 0xA6 0x2F PUSH19 0xA53383147DEAB3A93689BDD464736F6C634300 ADDMOD SMOD STOP CALLER "
				},
				"gasEstimates": {
					"creation": {
						"codeDepositCost": "1033000",
						"executionCost": "infinite",
						"totalCost": "infinite"
					},
					"external": {
						"": "174",
						"GetStakingHistory()": "144",
						"SetStakingToken(address)": "27006",
						"StakeToken(uint256)": "infinite",
						"StakingEnabled()": "2493",
						"ToggleStaking()": "28791",
						"UnstakeToken(uint256)": "infinite",
						"owner()": "2567",
						"renounceOwnership()": "30397",
						"transferOwnership(address)": "30811"
					}
				},
				"methodIdentifiers": {
					"GetStakingHistory()": "b0adfa09",
					"SetStakingToken(address)": "db568922",
					"StakeToken(uint256)": "ad95b1c6",
					"StakingEnabled()": "da917aea",
					"ToggleStaking()": "64cb560c",
					"UnstakeToken(uint256)": "df6a8a15",
					"owner()": "8da5cb5b",
					"renounceOwnership()": "715018a6",
					"transferOwnership(address)": "f2fde38b"
				}
			},
			"storageLayout": {
				"storage": [
					{
						"astId": 7,
						"contract": "Solidity Part/contracts/staking.sol:StakingContract",
						"label": "_owner",
						"offset": 0,
						"slot": "0",
						"type": "t_address"
					},
					{
						"astId": 161,
						"contract": "Solidity Part/contracts/staking.sol:StakingContract",
						"label": "StakingToken",
						"offset": 0,
						"slot": "1",
						"type": "t_address"
					},
					{
						"astId": 164,
						"contract": "Solidity Part/contracts/staking.sol:StakingContract",
						"label": "currentID",
						"offset": 0,
						"slot": "2",
						"type": "t_uint256"
					},
					{
						"astId": 167,
						"contract": "Solidity Part/contracts/staking.sol:StakingContract",
						"label": "StakingEnabled",
						"offset": 0,
						"slot": "3",
						"type": "t_bool"
					},
					{
						"astId": 181,
						"contract": "Solidity Part/contracts/staking.sol:StakingContract",
						"label": "StakingHistory",
						"offset": 0,
						"slot": "4",
						"type": "t_mapping(t_uint256,t_struct(Stake)176_storage)"
					},
					{
						"astId": 185,
						"contract": "Solidity Part/contracts/staking.sol:StakingContract",
						"label": "StakingBalances",
						"offset": 0,
						"slot": "5",
						"type": "t_mapping(t_address,t_uint256)"
					}
				],
				"types": {
					"t_address": {
						"encoding": "inplace",
						"label": "address",
						"numberOfBytes": "20"
					},
					"t_bool": {
						"encoding": "inplace",
						"label": "bool",
						"numberOfBytes": "1"
					},
					"t_mapping(t_address,t_uint256)": {
						"encoding": "mapping",
						"key": "t_address",
						"label": "mapping(address => uint256)",
						"numberOfBytes": "32",
						"value": "t_uint256"
					},
					"t_mapping(t_uint256,t_struct(Stake)176_storage)": {
						"encoding": "mapping",
						"key": "t_uint256",
						"label": "mapping(uint256 => struct StakingContract.Stake)",
						"numberOfBytes": "32",
						"value": "t_struct(Stake)176_storage"
					},
					"t_struct(Stake)176_storage": {
						"encoding": "inplace",
						"label": "struct StakingContract.Stake",
						"members": [
							{
								"astId": 169,
								"contract": "Solidity Part/contracts/staking.sol:StakingContract",
								"label": "owner",
								"offset": 0,
								"slot": "0",
								"type": "t_address"
							},
							{
								"astId": 171,
								"contract": "Solidity Part/contracts/staking.sol:StakingContract",
								"label": "amount",
								"offset": 0,
								"slot": "1",
								"type": "t_uint256"
							},
							{
								"astId": 173,
								"contract": "Solidity Part/contracts/staking.sol:StakingContract",
								"label": "EventTime",
								"offset": 0,
								"slot": "2",
								"type": "t_uint256"
							},
							{
								"astId": 175,
								"contract": "Solidity Part/contracts/staking.sol:StakingContract",
								"label": "eventType",
								"offset": 0,
								"slot": "3",
								"type": "t_uint8"
							}
						],
						"numberOfBytes": "128"
					},
					"t_uint256": {
						"encoding": "inplace",
						"label": "uint256",
						"numberOfBytes": "32"
					},
					"t_uint8": {
						"encoding": "inplace",
						"label": "uint8",
						"numberOfBytes": "1"
					}
				}
			},
			"userdoc": {
				"kind": "user",
				"methods": {},
				"version": 1
			}
		}
	}
}