{
	"Solidity Part/contracts/staking.sol": {
		"StakingContract": {
			"abi": [
				{
					"anonymous": false,
					"inputs": [
						{
							"indexed": false,
							"internalType": "address",
							"name": "staker",
							"type": "address"
						},
						{
							"indexed": false,
							"internalType": "uint256",
							"name": "id",
							"type": "uint256"
						},
						{
							"components": [
								{
									"internalType": "address",
									"name": "owner",
									"type": "address"
								},
								{
									"internalType": "uint256",
									"name": "amount",
									"type": "uint256"
								},
								{
									"internalType": "uint256",
									"name": "StakeTime",
									"type": "uint256"
								},
								{
									"internalType": "uint256",
									"name": "UnstakeTime",
									"type": "uint256"
								}
							],
							"indexed": false,
							"internalType": "struct StakingContract.Stake",
							"name": "stake",
							"type": "tuple"
						},
						{
							"indexed": false,
							"internalType": "uint256",
							"name": "blockTime",
							"type": "uint256"
						}
					],
					"name": "NewStake",
					"type": "event"
				},
				{
					"anonymous": false,
					"inputs": [
						{
							"indexed": true,
							"internalType": "address",
							"name": "previousOwner",
							"type": "address"
						},
						{
							"indexed": true,
							"internalType": "address",
							"name": "newOwner",
							"type": "address"
						}
					],
					"name": "OwnershipTransferred",
					"type": "event"
				},
				{
					"anonymous": false,
					"inputs": [
						{
							"indexed": false,
							"internalType": "address",
							"name": "staker",
							"type": "address"
						},
						{
							"indexed": false,
							"internalType": "uint256",
							"name": "id",
							"type": "uint256"
						},
						{
							"components": [
								{
									"internalType": "address",
									"name": "owner",
									"type": "address"
								},
								{
									"internalType": "uint256",
									"name": "amount",
									"type": "uint256"
								},
								{
									"internalType": "uint256",
									"name": "StakeTime",
									"type": "uint256"
								},
								{
									"internalType": "uint256",
									"name": "UnstakeTime",
									"type": "uint256"
								}
							],
							"indexed": false,
							"internalType": "struct StakingContract.Stake",
							"name": "stake",
							"type": "tuple"
						},
						{
							"indexed": false,
							"internalType": "uint256",
							"name": "blockTime",
							"type": "uint256"
						}
					],
					"name": "Unstake",
					"type": "event"
				},
				{
					"stateMutability": "payable",
					"type": "fallback"
				},
				{
					"inputs": [
						{
							"internalType": "address",
							"name": "_token",
							"type": "address"
						}
					],
					"name": "SetStakingToken",
					"outputs": [],
					"stateMutability": "nonpayable",
					"type": "function"
				},
				{
					"inputs": [
						{
							"internalType": "uint256",
							"name": "amount",
							"type": "uint256"
						}
					],
					"name": "StakeToken",
					"outputs": [],
					"stateMutability": "nonpayable",
					"type": "function"
				},
				{
					"inputs": [],
					"name": "StakingEnabled",
					"outputs": [
						{
							"internalType": "bool",
							"name": "",
							"type": "bool"
						}
					],
					"stateMutability": "view",
					"type": "function"
				},
				{
					"inputs": [],
					"name": "ToggleStaking",
					"outputs": [],
					"stateMutability": "nonpayable",
					"type": "function"
				},
				{
					"inputs": [
						{
							"internalType": "uint256",
							"name": "amount",
							"type": "uint256"
						}
					],
					"name": "UnstakeToken",
					"outputs": [],
					"stateMutability": "nonpayable",
					"type": "function"
				},
				{
					"inputs": [],
					"name": "owner",
					"outputs": [
						{
							"internalType": "address",
							"name": "",
							"type": "address"
						}
					],
					"stateMutability": "view",
					"type": "function"
				},
				{
					"inputs": [],
					"name": "renounceOwnership",
					"outputs": [],
					"stateMutability": "nonpayable",
					"type": "function"
				},
				{
					"inputs": [
						{
							"internalType": "address",
							"name": "newOwner",
							"type": "address"
						}
					],
					"name": "transferOwnership",
					"outputs": [],
					"stateMutability": "nonpayable",
					"type": "function"
				},
				{
					"stateMutability": "payable",
					"type": "receive"
				}
			],
			"devdoc": {
				"kind": "dev",
				"methods": {
					"owner()": {
						"details": "Returns the address of the current owner."
					},
					"renounceOwnership()": {
						"details": "Leaves the contract without owner. It will not be possible to call `onlyOwner` functions anymore. Can only be called by the current owner. NOTE: Renouncing ownership will leave the contract without an owner, thereby removing any functionality that is only available to the owner."
					},
					"transferOwnership(address)": {
						"details": "Transfers ownership of the contract to a new account (`newOwner`). Can only be called by the current owner."
					}
				},
				"version": 1
			},
			"evm": {
				"assembly": "    /* \"Solidity Part/contracts/staking.sol\":386:4720  contract StakingContract is Ownable{... */\n  mstore(0x40, 0x80)\n    /* \"Solidity Part/contracts/staking.sol\":484:485  0 */\n  0x00\n    /* \"Solidity Part/contracts/staking.sol\":464:485  uint256 currentID = 0 */\n  0x02\n  sstore\n    /* \"Solidity Part/contracts/staking.sol\":520:525  false */\n  0x00\n    /* \"Solidity Part/contracts/staking.sol\":491:525  bool public StakingEnabled = false */\n  0x03\n  exp(0x0100, 0x00)\n  dup2\n  sload\n  dup2\n  0xff\n  mul\n  not\n  and\n  swap1\n  dup4\n  iszero\n  iszero\n  mul\n  or\n  swap1\n  sstore\n  pop\n    /* \"Solidity Part/contracts/staking.sol\":386:4720  contract StakingContract is Ownable{... */\n  callvalue\n  dup1\n  iszero\n  tag_1\n  jumpi\n  0x00\n  dup1\n  revert\ntag_1:\n  pop\n    /* \"@openzeppelin/contracts/access/Ownable.sol\":921:953  _transferOwnership(_msgSender()) */\n  tag_4\n    /* \"@openzeppelin/contracts/access/Ownable.sol\":940:952  _msgSender() */\n  tag_5\n    /* \"@openzeppelin/contracts/access/Ownable.sol\":940:950  _msgSender */\n  shl(0x20, tag_6)\n    /* \"@openzeppelin/contracts/access/Ownable.sol\":940:952  _msgSender() */\n  0x20\n  shr\n  jump\t// in\ntag_5:\n    /* \"@openzeppelin/contracts/access/Ownable.sol\":921:939  _transferOwnership */\n  shl(0x20, tag_7)\n    /* \"@openzeppelin/contracts/access/Ownable.sol\":921:953  _transferOwnership(_msgSender()) */\n  0x20\n  shr\n  jump\t// in\ntag_4:\n    /* \"Solidity Part/contracts/staking.sol\":386:4720  contract StakingContract is Ownable{... */\n  jump(tag_8)\n    /* \"@openzeppelin/contracts/utils/Context.sol\":640:736  function _msgSender() internal view virtual returns (address) {... */\ntag_6:\n    /* \"@openzeppelin/contracts/utils/Context.sol\":693:700  address */\n  0x00\n    /* \"@openzeppelin/contracts/utils/Context.sol\":719:729  msg.sender */\n  caller\n    /* \"@openzeppelin/contracts/utils/Context.sol\":712:729  return msg.sender */\n  swap1\n  pop\n    /* \"@openzeppelin/contracts/utils/Context.sol\":640:736  function _msgSender() internal view virtual returns (address) {... */\n  swap1\n  jump\t// out\n    /* \"@openzeppelin/contracts/access/Ownable.sol\":2270:2457  function _transferOwnership(address newOwner) internal virtual {... */\ntag_7:\n    /* \"@openzeppelin/contracts/access/Ownable.sol\":2343:2359  address oldOwner */\n  0x00\n    /* \"@openzeppelin/contracts/access/Ownable.sol\":2362:2368  _owner */\n  dup1\n  0x00\n  swap1\n  sload\n  swap1\n  0x0100\n  exp\n  swap1\n  div\n  0xffffffffffffffffffffffffffffffffffffffff\n  and\n    /* \"@openzeppelin/contracts/access/Ownable.sol\":2343:2368  address oldOwner = _owner */\n  swap1\n  pop\n    /* \"@openzeppelin/contracts/access/Ownable.sol\":2387:2395  newOwner */\n  dup2\n    /* \"@openzeppelin/contracts/access/Ownable.sol\":2378:2384  _owner */\n  0x00\n  dup1\n    /* \"@openzeppelin/contracts/access/Ownable.sol\":2378:2395  _owner = newOwner */\n  0x0100\n  exp\n  dup2\n  sload\n  dup2\n  0xffffffffffffffffffffffffffffffffffffffff\n  mul\n  not\n  and\n  swap1\n  dup4\n  0xffffffffffffffffffffffffffffffffffffffff\n  and\n  mul\n  or\n  swap1\n  sstore\n  pop\n    /* \"@openzeppelin/contracts/access/Ownable.sol\":2441:2449  newOwner */\n  dup2\n    /* \"@openzeppelin/contracts/access/Ownable.sol\":2410:2450  OwnershipTransferred(oldOwner, newOwner) */\n  0xffffffffffffffffffffffffffffffffffffffff\n  and\n    /* \"@openzeppelin/contracts/access/Ownable.sol\":2431:2439  oldOwner */\n  dup2\n    /* \"@openzeppelin/contracts/access/Ownable.sol\":2410:2450  OwnershipTransferred(oldOwner, newOwner) */\n  0xffffffffffffffffffffffffffffffffffffffff\n  and\n  0x8be0079c531659141344cd1fd0a4f28419497f9722a3daafe3b4186f6b6457e0\n  mload(0x40)\n  mload(0x40)\n  dup1\n  swap2\n  sub\n  swap1\n  log3\n    /* \"@openzeppelin/contracts/access/Ownable.sol\":2333:2457  {... */\n  pop\n    /* \"@openzeppelin/contracts/access/Ownable.sol\":2270:2457  function _transferOwnership(address newOwner) internal virtual {... */\n  pop\n  jump\t// out\n    /* \"Solidity Part/contracts/staking.sol\":386:4720  contract StakingContract is Ownable{... */\ntag_8:\n  dataSize(sub_0)\n  dup1\n  dataOffset(sub_0)\n  0x00\n  codecopy\n  0x00\n  return\nstop\n\nsub_0: assembly {\n        /* \"Solidity Part/contracts/staking.sol\":386:4720  contract StakingContract is Ownable{... */\n      mstore(0x40, 0x80)\n      jumpi(tag_1, lt(calldatasize, 0x04))\n      shr(0xe0, calldataload(0x00))\n      dup1\n      0xda917aea\n      gt\n      tag_11\n      jumpi\n      dup1\n      0xda917aea\n      eq\n      tag_7\n      jumpi\n      dup1\n      0xdb568922\n      eq\n      tag_8\n      jumpi\n      dup1\n      0xdf6a8a15\n      eq\n      tag_9\n      jumpi\n      dup1\n      0xf2fde38b\n      eq\n      tag_10\n      jumpi\n      jump(tag_2)\n    tag_11:\n      dup1\n      0x64cb560c\n      eq\n      tag_3\n      jumpi\n      dup1\n      0x715018a6\n      eq\n      tag_4\n      jumpi\n      dup1\n      0x8da5cb5b\n      eq\n      tag_5\n      jumpi\n      dup1\n      0xad95b1c6\n      eq\n      tag_6\n      jumpi\n      jump(tag_2)\n    tag_1:\n      jumpi(tag_2, calldatasize)\n      stop\n    tag_2:\n      stop\n        /* \"Solidity Part/contracts/staking.sol\":1343:1433  function ToggleStaking() public onlyOwner{... */\n    tag_3:\n      callvalue\n      dup1\n      iszero\n      tag_16\n      jumpi\n      0x00\n      dup1\n      revert\n    tag_16:\n      pop\n      tag_17\n      tag_18\n      jump\t// in\n    tag_17:\n      stop\n        /* \"@openzeppelin/contracts/access/Ownable.sol\":1668:1769  function renounceOwnership() public virtual onlyOwner {... */\n    tag_4:\n      callvalue\n      dup1\n      iszero\n      tag_19\n      jumpi\n      0x00\n      dup1\n      revert\n    tag_19:\n      pop\n      tag_20\n      tag_21\n      jump\t// in\n    tag_20:\n      stop\n        /* \"@openzeppelin/contracts/access/Ownable.sol\":1036:1121  function owner() public view virtual returns (address) {... */\n    tag_5:\n      callvalue\n      dup1\n      iszero\n      tag_22\n      jumpi\n      0x00\n      dup1\n      revert\n    tag_22:\n      pop\n      tag_23\n      tag_24\n      jump\t// in\n    tag_23:\n      mload(0x40)\n      tag_25\n      swap2\n      swap1\n      tag_26\n      jump\t// in\n    tag_25:\n      mload(0x40)\n      dup1\n      swap2\n      sub\n      swap1\n      return\n        /* \"Solidity Part/contracts/staking.sol\":1495:2281  function StakeToken(uint256 amount) public {... */\n    tag_6:\n      callvalue\n      dup1\n      iszero\n      tag_27\n      jumpi\n      0x00\n      dup1\n      revert\n    tag_27:\n      pop\n      tag_28\n      0x04\n      dup1\n      calldatasize\n      sub\n      dup2\n      add\n      swap1\n      tag_29\n      swap2\n      swap1\n      tag_30\n      jump\t// in\n    tag_29:\n      tag_31\n      jump\t// in\n    tag_28:\n      stop\n        /* \"Solidity Part/contracts/staking.sol\":491:525  bool public StakingEnabled = false */\n    tag_7:\n      callvalue\n      dup1\n      iszero\n      tag_32\n      jumpi\n      0x00\n      dup1\n      revert\n    tag_32:\n      pop\n      tag_33\n      tag_34\n      jump\t// in\n    tag_33:\n      mload(0x40)\n      tag_35\n      swap2\n      swap1\n      tag_36\n      jump\t// in\n    tag_35:\n      mload(0x40)\n      dup1\n      swap2\n      sub\n      swap1\n      return\n        /* \"Solidity Part/contracts/staking.sol\":1237:1333  function SetStakingToken(address _token) public onlyOwner {... */\n    tag_8:\n      callvalue\n      dup1\n      iszero\n      tag_37\n      jumpi\n      0x00\n      dup1\n      revert\n    tag_37:\n      pop\n      tag_38\n      0x04\n      dup1\n      calldatasize\n      sub\n      dup2\n      add\n      swap1\n      tag_39\n      swap2\n      swap1\n      tag_40\n      jump\t// in\n    tag_39:\n      tag_41\n      jump\t// in\n    tag_38:\n      stop\n        /* \"Solidity Part/contracts/staking.sol\":2339:2829  function UnstakeToken(uint256 amount) public {... */\n    tag_9:\n      callvalue\n      dup1\n      iszero\n      tag_42\n      jumpi\n      0x00\n      dup1\n      revert\n    tag_42:\n      pop\n      tag_43\n      0x04\n      dup1\n      calldatasize\n      sub\n      dup2\n      add\n      swap1\n      tag_44\n      swap2\n      swap1\n      tag_30\n      jump\t// in\n    tag_44:\n      tag_45\n      jump\t// in\n    tag_43:\n      stop\n        /* \"@openzeppelin/contracts/access/Ownable.sol\":1918:2116  function transferOwnership(address newOwner) public virtual onlyOwner {... */\n    tag_10:\n      callvalue\n      dup1\n      iszero\n      tag_46\n      jumpi\n      0x00\n      dup1\n      revert\n    tag_46:\n      pop\n      tag_47\n      0x04\n      dup1\n      calldatasize\n      sub\n      dup2\n      add\n      swap1\n      tag_48\n      swap2\n      swap1\n      tag_40\n      jump\t// in\n    tag_48:\n      tag_49\n      jump\t// in\n    tag_47:\n      stop\n        /* \"Solidity Part/contracts/staking.sol\":1343:1433  function ToggleStaking() public onlyOwner{... */\n    tag_18:\n        /* \"@openzeppelin/contracts/access/Ownable.sol\":1259:1271  _msgSender() */\n      tag_51\n        /* \"@openzeppelin/contracts/access/Ownable.sol\":1259:1269  _msgSender */\n      tag_52\n        /* \"@openzeppelin/contracts/access/Ownable.sol\":1259:1271  _msgSender() */\n      jump\t// in\n    tag_51:\n        /* \"@openzeppelin/contracts/access/Ownable.sol\":1248:1271  owner() == _msgSender() */\n      0xffffffffffffffffffffffffffffffffffffffff\n      and\n        /* \"@openzeppelin/contracts/access/Ownable.sol\":1248:1255  owner() */\n      tag_53\n        /* \"@openzeppelin/contracts/access/Ownable.sol\":1248:1253  owner */\n      tag_24\n        /* \"@openzeppelin/contracts/access/Ownable.sol\":1248:1255  owner() */\n      jump\t// in\n    tag_53:\n        /* \"@openzeppelin/contracts/access/Ownable.sol\":1248:1271  owner() == _msgSender() */\n      0xffffffffffffffffffffffffffffffffffffffff\n      and\n      eq\n        /* \"@openzeppelin/contracts/access/Ownable.sol\":1240:1308  require(owner() == _msgSender(), \"Ownable: caller is not the owner\") */\n      tag_54\n      jumpi\n      mload(0x40)\n      0x08c379a000000000000000000000000000000000000000000000000000000000\n      dup2\n      mstore\n      0x04\n      add\n      tag_55\n      swap1\n      tag_56\n      jump\t// in\n    tag_55:\n      mload(0x40)\n      dup1\n      swap2\n      sub\n      swap1\n      revert\n    tag_54:\n        /* \"Solidity Part/contracts/staking.sol\":1412:1426  StakingEnabled */\n      0x03\n      0x00\n      swap1\n      sload\n      swap1\n      0x0100\n      exp\n      swap1\n      div\n      0xff\n      and\n        /* \"Solidity Part/contracts/staking.sol\":1411:1426  !StakingEnabled */\n      iszero\n        /* \"Solidity Part/contracts/staking.sol\":1394:1408  StakingEnabled */\n      0x03\n      0x00\n        /* \"Solidity Part/contracts/staking.sol\":1394:1426  StakingEnabled = !StakingEnabled */\n      0x0100\n      exp\n      dup2\n      sload\n      dup2\n      0xff\n      mul\n      not\n      and\n      swap1\n      dup4\n      iszero\n      iszero\n      mul\n      or\n      swap1\n      sstore\n      pop\n        /* \"Solidity Part/contracts/staking.sol\":1343:1433  function ToggleStaking() public onlyOwner{... */\n      jump\t// out\n        /* \"@openzeppelin/contracts/access/Ownable.sol\":1668:1769  function renounceOwnership() public virtual onlyOwner {... */\n    tag_21:\n        /* \"@openzeppelin/contracts/access/Ownable.sol\":1259:1271  _msgSender() */\n      tag_59\n        /* \"@openzeppelin/contracts/access/Ownable.sol\":1259:1269  _msgSender */\n      tag_52\n        /* \"@openzeppelin/contracts/access/Ownable.sol\":1259:1271  _msgSender() */\n      jump\t// in\n    tag_59:\n        /* \"@openzeppelin/contracts/access/Ownable.sol\":1248:1271  owner() == _msgSender() */\n      0xffffffffffffffffffffffffffffffffffffffff\n      and\n        /* \"@openzeppelin/contracts/access/Ownable.sol\":1248:1255  owner() */\n      tag_60\n        /* \"@openzeppelin/contracts/access/Ownable.sol\":1248:1253  owner */\n      tag_24\n        /* \"@openzeppelin/contracts/access/Ownable.sol\":1248:1255  owner() */\n      jump\t// in\n    tag_60:\n        /* \"@openzeppelin/contracts/access/Ownable.sol\":1248:1271  owner() == _msgSender() */\n      0xffffffffffffffffffffffffffffffffffffffff\n      and\n      eq\n        /* \"@openzeppelin/contracts/access/Ownable.sol\":1240:1308  require(owner() == _msgSender(), \"Ownable: caller is not the owner\") */\n      tag_61\n      jumpi\n      mload(0x40)\n      0x08c379a000000000000000000000000000000000000000000000000000000000\n      dup2\n      mstore\n      0x04\n      add\n      tag_62\n      swap1\n      tag_56\n      jump\t// in\n    tag_62:\n      mload(0x40)\n      dup1\n      swap2\n      sub\n      swap1\n      revert\n    tag_61:\n        /* \"@openzeppelin/contracts/access/Ownable.sol\":1732:1762  _transferOwnership(address(0)) */\n      tag_64\n        /* \"@openzeppelin/contracts/access/Ownable.sol\":1759:1760  0 */\n      0x00\n        /* \"@openzeppelin/contracts/access/Ownable.sol\":1732:1750  _transferOwnership */\n      tag_65\n        /* \"@openzeppelin/contracts/access/Ownable.sol\":1732:1762  _transferOwnership(address(0)) */\n      jump\t// in\n    tag_64:\n        /* \"@openzeppelin/contracts/access/Ownable.sol\":1668:1769  function renounceOwnership() public virtual onlyOwner {... */\n      jump\t// out\n        /* \"@openzeppelin/contracts/access/Ownable.sol\":1036:1121  function owner() public view virtual returns (address) {... */\n    tag_24:\n        /* \"@openzeppelin/contracts/access/Ownable.sol\":1082:1089  address */\n      0x00\n        /* \"@openzeppelin/contracts/access/Ownable.sol\":1108:1114  _owner */\n      dup1\n      0x00\n      swap1\n      sload\n      swap1\n      0x0100\n      exp\n      swap1\n      div\n      0xffffffffffffffffffffffffffffffffffffffff\n      and\n        /* \"@openzeppelin/contracts/access/Ownable.sol\":1101:1114  return _owner */\n      swap1\n      pop\n        /* \"@openzeppelin/contracts/access/Ownable.sol\":1036:1121  function owner() public view virtual returns (address) {... */\n      swap1\n      jump\t// out\n        /* \"Solidity Part/contracts/staking.sol\":1495:2281  function StakeToken(uint256 amount) public {... */\n    tag_31:\n        /* \"Solidity Part/contracts/staking.sol\":1556:1570  StakingEnabled */\n      0x03\n      0x00\n      swap1\n      sload\n      swap1\n      0x0100\n      exp\n      swap1\n      div\n      0xff\n      and\n        /* \"Solidity Part/contracts/staking.sol\":1548:1597  require(StakingEnabled, \"Staking Is Not Enabled\") */\n      tag_68\n      jumpi\n      mload(0x40)\n      0x08c379a000000000000000000000000000000000000000000000000000000000\n      dup2\n      mstore\n      0x04\n      add\n      tag_69\n      swap1\n      tag_70\n      jump\t// in\n    tag_69:\n      mload(0x40)\n      dup1\n      swap2\n      sub\n      swap1\n      revert\n    tag_68:\n        /* \"Solidity Part/contracts/staking.sol\":1655:1669  1000000*10**18 */\n      0xd3c21bcecceda1000000\n        /* \"Solidity Part/contracts/staking.sol\":1645:1651  amount */\n      dup2\n        /* \"Solidity Part/contracts/staking.sol\":1615:1630  StakingBalances */\n      0x05\n        /* \"Solidity Part/contracts/staking.sol\":1615:1642  StakingBalances[msg.sender] */\n      0x00\n        /* \"Solidity Part/contracts/staking.sol\":1631:1641  msg.sender */\n      caller\n        /* \"Solidity Part/contracts/staking.sol\":1615:1642  StakingBalances[msg.sender] */\n      0xffffffffffffffffffffffffffffffffffffffff\n      and\n      0xffffffffffffffffffffffffffffffffffffffff\n      and\n      dup2\n      mstore\n      0x20\n      add\n      swap1\n      dup2\n      mstore\n      0x20\n      add\n      0x00\n      keccak256\n      sload\n        /* \"Solidity Part/contracts/staking.sol\":1615:1651  StakingBalances[msg.sender] + amount */\n      tag_71\n      swap2\n      swap1\n      tag_72\n      jump\t// in\n    tag_71:\n        /* \"Solidity Part/contracts/staking.sol\":1615:1669  StakingBalances[msg.sender] + amount >= 1000000*10**18 */\n      lt\n      iszero\n        /* \"Solidity Part/contracts/staking.sol\":1607:1694  require(StakingBalances[msg.sender] + amount >= 1000000*10**18, \"ERROR: MAXIMUM STAKE\") */\n      tag_73\n      jumpi\n      mload(0x40)\n      0x08c379a000000000000000000000000000000000000000000000000000000000\n      dup2\n      mstore\n      0x04\n      add\n      tag_74\n      swap1\n      tag_75\n      jump\t// in\n    tag_74:\n      mload(0x40)\n      dup1\n      swap2\n      sub\n      swap1\n      revert\n    tag_73:\n        /* \"Solidity Part/contracts/staking.sol\":1774:1783  10*10**18 */\n      0x8ac7230489e80000\n        /* \"Solidity Part/contracts/staking.sol\":1764:1770  amount */\n      dup2\n        /* \"Solidity Part/contracts/staking.sol\":1734:1749  StakingBalances */\n      0x05\n        /* \"Solidity Part/contracts/staking.sol\":1734:1761  StakingBalances[msg.sender] */\n      0x00\n        /* \"Solidity Part/contracts/staking.sol\":1750:1760  msg.sender */\n      caller\n        /* \"Solidity Part/contracts/staking.sol\":1734:1761  StakingBalances[msg.sender] */\n      0xffffffffffffffffffffffffffffffffffffffff\n      and\n      0xffffffffffffffffffffffffffffffffffffffff\n      and\n      dup2\n      mstore\n      0x20\n      add\n      swap1\n      dup2\n      mstore\n      0x20\n      add\n      0x00\n      keccak256\n      sload\n        /* \"Solidity Part/contracts/staking.sol\":1734:1770  StakingBalances[msg.sender] + amount */\n      tag_76\n      swap2\n      swap1\n      tag_72\n      jump\t// in\n    tag_76:\n        /* \"Solidity Part/contracts/staking.sol\":1734:1783  StakingBalances[msg.sender] + amount <= 10*10**18 */\n      gt\n      iszero\n        /* \"Solidity Part/contracts/staking.sol\":1726:1808  require(StakingBalances[msg.sender] + amount <= 10*10**18, \"ERROR: MINIMUM STAKE\") */\n      tag_77\n      jumpi\n      mload(0x40)\n      0x08c379a000000000000000000000000000000000000000000000000000000000\n      dup2\n      mstore\n      0x04\n      add\n      tag_78\n      swap1\n      tag_79\n      jump\t// in\n    tag_78:\n      mload(0x40)\n      dup1\n      swap2\n      sub\n      swap1\n      revert\n    tag_77:\n        /* \"Solidity Part/contracts/staking.sol\":1888:1894  amount */\n      dup1\n        /* \"Solidity Part/contracts/staking.sol\":1849:1861  StakingToken */\n      0x01\n      0x00\n      swap1\n      sload\n      swap1\n      0x0100\n      exp\n      swap1\n      div\n      0xffffffffffffffffffffffffffffffffffffffff\n      and\n        /* \"Solidity Part/contracts/staking.sol\":1843:1872  ERC20(StakingToken).balanceOf */\n      0xffffffffffffffffffffffffffffffffffffffff\n      and\n      0x70a08231\n        /* \"Solidity Part/contracts/staking.sol\":1873:1883  msg.sender */\n      caller\n        /* \"Solidity Part/contracts/staking.sol\":1843:1884  ERC20(StakingToken).balanceOf(msg.sender) */\n      mload(0x40)\n      dup3\n      0xffffffff\n      and\n      0xe0\n      shl\n      dup2\n      mstore\n      0x04\n      add\n      tag_80\n      swap2\n      swap1\n      tag_26\n      jump\t// in\n    tag_80:\n      0x20\n      mload(0x40)\n      dup1\n      dup4\n      sub\n      dup2\n      dup7\n      dup1\n      extcodesize\n      iszero\n      dup1\n      iszero\n      tag_81\n      jumpi\n      0x00\n      dup1\n      revert\n    tag_81:\n      pop\n      gas\n      staticcall\n      iszero\n      dup1\n      iszero\n      tag_83\n      jumpi\n      returndatasize\n      0x00\n      dup1\n      returndatacopy\n      revert(0x00, returndatasize)\n    tag_83:\n      pop\n      pop\n      pop\n      pop\n      mload(0x40)\n      returndatasize\n      not(0x1f)\n      0x1f\n      dup3\n      add\n      and\n      dup3\n      add\n      dup1\n      0x40\n      mstore\n      pop\n      dup2\n      add\n      swap1\n      tag_84\n      swap2\n      swap1\n      tag_85\n      jump\t// in\n    tag_84:\n        /* \"Solidity Part/contracts/staking.sol\":1843:1894  ERC20(StakingToken).balanceOf(msg.sender) >= amount */\n      lt\n      iszero\n        /* \"Solidity Part/contracts/staking.sol\":1834:1926  require (ERC20(StakingToken).balanceOf(msg.sender) >= amount, \"ERROR: INSUFFICIENT BALANCE\") */\n      tag_86\n      jumpi\n      mload(0x40)\n      0x08c379a000000000000000000000000000000000000000000000000000000000\n      dup2\n      mstore\n      0x04\n      add\n      tag_87\n      swap1\n      tag_88\n      jump\t// in\n    tag_87:\n      mload(0x40)\n      dup1\n      swap2\n      sub\n      swap1\n      revert\n    tag_86:\n        /* \"Solidity Part/contracts/staking.sol\":1943:1955  StakingToken */\n      0x01\n      0x00\n      swap1\n      sload\n      swap1\n      0x0100\n      exp\n      swap1\n      div\n      0xffffffffffffffffffffffffffffffffffffffff\n      and\n        /* \"Solidity Part/contracts/staking.sol\":1937:1969  ERC20(StakingToken).transferFrom */\n      0xffffffffffffffffffffffffffffffffffffffff\n      and\n      0x23b872dd\n        /* \"Solidity Part/contracts/staking.sol\":1970:1980  msg.sender */\n      caller\n        /* \"Solidity Part/contracts/staking.sol\":1990:1994  this */\n      address\n        /* \"Solidity Part/contracts/staking.sol\":1997:2003  amount */\n      dup5\n        /* \"Solidity Part/contracts/staking.sol\":1937:2004  ERC20(StakingToken).transferFrom(msg.sender, address(this), amount) */\n      mload(0x40)\n      dup5\n      0xffffffff\n      and\n      0xe0\n      shl\n      dup2\n      mstore\n      0x04\n      add\n      tag_89\n      swap4\n      swap3\n      swap2\n      swap1\n      tag_90\n      jump\t// in\n    tag_89:\n      0x20\n      mload(0x40)\n      dup1\n      dup4\n      sub\n      dup2\n      0x00\n      dup8\n      dup1\n      extcodesize\n      iszero\n      dup1\n      iszero\n      tag_91\n      jumpi\n      0x00\n      dup1\n      revert\n    tag_91:\n      pop\n      gas\n      call\n      iszero\n      dup1\n      iszero\n      tag_93\n      jumpi\n      returndatasize\n      0x00\n      dup1\n      returndatacopy\n      revert(0x00, returndatasize)\n    tag_93:\n      pop\n      pop\n      pop\n      pop\n      mload(0x40)\n      returndatasize\n      not(0x1f)\n      0x1f\n      dup3\n      add\n      and\n      dup3\n      add\n      dup1\n      0x40\n      mstore\n      pop\n      dup2\n      add\n      swap1\n      tag_94\n      swap2\n      swap1\n      tag_95\n      jump\t// in\n    tag_94:\n      pop\n        /* \"Solidity Part/contracts/staking.sol\":2045:2051  amount */\n      dup1\n        /* \"Solidity Part/contracts/staking.sol\":2014:2029  StakingBalances */\n      0x05\n        /* \"Solidity Part/contracts/staking.sol\":2014:2041  StakingBalances[msg.sender] */\n      0x00\n        /* \"Solidity Part/contracts/staking.sol\":2030:2040  msg.sender */\n      caller\n        /* \"Solidity Part/contracts/staking.sol\":2014:2041  StakingBalances[msg.sender] */\n      0xffffffffffffffffffffffffffffffffffffffff\n      and\n      0xffffffffffffffffffffffffffffffffffffffff\n      and\n      dup2\n      mstore\n      0x20\n      add\n      swap1\n      dup2\n      mstore\n      0x20\n      add\n      0x00\n      keccak256\n      0x00\n        /* \"Solidity Part/contracts/staking.sol\":2014:2051  StakingBalances[msg.sender] += amount */\n      dup3\n      dup3\n      sload\n      tag_96\n      swap2\n      swap1\n      tag_72\n      jump\t// in\n    tag_96:\n      swap3\n      pop\n      pop\n      dup2\n      swap1\n      sstore\n      pop\n        /* \"Solidity Part/contracts/staking.sol\":2061:2082  Stake memory newStake */\n      0x00\n        /* \"Solidity Part/contracts/staking.sol\":2085:2129  Stake(msg.sender,amount, block.timestamp, 0) */\n      mload(0x40)\n      dup1\n      0x80\n      add\n      0x40\n      mstore\n      dup1\n        /* \"Solidity Part/contracts/staking.sol\":2091:2101  msg.sender */\n      caller\n        /* \"Solidity Part/contracts/staking.sol\":2085:2129  Stake(msg.sender,amount, block.timestamp, 0) */\n      0xffffffffffffffffffffffffffffffffffffffff\n      and\n      dup2\n      mstore\n      0x20\n      add\n        /* \"Solidity Part/contracts/staking.sol\":2102:2108  amount */\n      dup4\n        /* \"Solidity Part/contracts/staking.sol\":2085:2129  Stake(msg.sender,amount, block.timestamp, 0) */\n      dup2\n      mstore\n      0x20\n      add\n        /* \"Solidity Part/contracts/staking.sol\":2110:2125  block.timestamp */\n      timestamp\n        /* \"Solidity Part/contracts/staking.sol\":2085:2129  Stake(msg.sender,amount, block.timestamp, 0) */\n      dup2\n      mstore\n      0x20\n      add\n        /* \"Solidity Part/contracts/staking.sol\":2127:2128  0 */\n      0x00\n        /* \"Solidity Part/contracts/staking.sol\":2085:2129  Stake(msg.sender,amount, block.timestamp, 0) */\n      dup2\n      mstore\n      pop\n        /* \"Solidity Part/contracts/staking.sol\":2061:2129  Stake memory newStake = Stake(msg.sender,amount, block.timestamp, 0) */\n      swap1\n      pop\n        /* \"Solidity Part/contracts/staking.sol\":2169:2177  newStake */\n      dup1\n        /* \"Solidity Part/contracts/staking.sol\":2139:2153  StakingHistory */\n      0x04\n        /* \"Solidity Part/contracts/staking.sol\":2139:2166  StakingHistory[currentID+1] */\n      0x00\n        /* \"Solidity Part/contracts/staking.sol\":2164:2165  1 */\n      0x01\n        /* \"Solidity Part/contracts/staking.sol\":2154:2163  currentID */\n      sload(0x02)\n        /* \"Solidity Part/contracts/staking.sol\":2154:2165  currentID+1 */\n      tag_97\n      swap2\n      swap1\n      tag_72\n      jump\t// in\n    tag_97:\n        /* \"Solidity Part/contracts/staking.sol\":2139:2166  StakingHistory[currentID+1] */\n      dup2\n      mstore\n      0x20\n      add\n      swap1\n      dup2\n      mstore\n      0x20\n      add\n      0x00\n      keccak256\n        /* \"Solidity Part/contracts/staking.sol\":2139:2177  StakingHistory[currentID+1] = newStake */\n      0x00\n      dup3\n      add\n      mload\n      dup2\n      0x00\n      add\n      exp(0x0100, 0x00)\n      dup2\n      sload\n      dup2\n      0xffffffffffffffffffffffffffffffffffffffff\n      mul\n      not\n      and\n      swap1\n      dup4\n      0xffffffffffffffffffffffffffffffffffffffff\n      and\n      mul\n      or\n      swap1\n      sstore\n      pop\n      0x20\n      dup3\n      add\n      mload\n      dup2\n      0x01\n      add\n      sstore\n      0x40\n      dup3\n      add\n      mload\n      dup2\n      0x02\n      add\n      sstore\n      0x60\n      dup3\n      add\n      mload\n      dup2\n      0x03\n      add\n      sstore\n      swap1\n      pop\n      pop\n        /* \"Solidity Part/contracts/staking.sol\":2192:2252  NewStake(msg.sender, currentID+1, newStake, block.timestamp) */\n      0x4893ba24a61962c26d899bdc2f219eb2486292d793493c0cc5be1d3bebe9bba6\n        /* \"Solidity Part/contracts/staking.sol\":2201:2211  msg.sender */\n      caller\n        /* \"Solidity Part/contracts/staking.sol\":2223:2224  1 */\n      0x01\n        /* \"Solidity Part/contracts/staking.sol\":2213:2222  currentID */\n      sload(0x02)\n        /* \"Solidity Part/contracts/staking.sol\":2213:2224  currentID+1 */\n      tag_98\n      swap2\n      swap1\n      tag_72\n      jump\t// in\n    tag_98:\n        /* \"Solidity Part/contracts/staking.sol\":2226:2234  newStake */\n      dup4\n        /* \"Solidity Part/contracts/staking.sol\":2236:2251  block.timestamp */\n      timestamp\n        /* \"Solidity Part/contracts/staking.sol\":2192:2252  NewStake(msg.sender, currentID+1, newStake, block.timestamp) */\n      mload(0x40)\n      tag_99\n      swap5\n      swap4\n      swap3\n      swap2\n      swap1\n      tag_100\n      jump\t// in\n    tag_99:\n      mload(0x40)\n      dup1\n      swap2\n      sub\n      swap1\n      log1\n        /* \"Solidity Part/contracts/staking.sol\":2273:2274  1 */\n      0x01\n        /* \"Solidity Part/contracts/staking.sol\":2262:2271  currentID */\n      0x02\n      0x00\n        /* \"Solidity Part/contracts/staking.sol\":2262:2274  currentID+=1 */\n      dup3\n      dup3\n      sload\n      tag_101\n      swap2\n      swap1\n      tag_72\n      jump\t// in\n    tag_101:\n      swap3\n      pop\n      pop\n      dup2\n      swap1\n      sstore\n      pop\n        /* \"Solidity Part/contracts/staking.sol\":1538:2281  {... */\n      pop\n        /* \"Solidity Part/contracts/staking.sol\":1495:2281  function StakeToken(uint256 amount) public {... */\n      pop\n      jump\t// out\n        /* \"Solidity Part/contracts/staking.sol\":491:525  bool public StakingEnabled = false */\n    tag_34:\n      0x03\n      0x00\n      swap1\n      sload\n      swap1\n      0x0100\n      exp\n      swap1\n      div\n      0xff\n      and\n      dup2\n      jump\t// out\n        /* \"Solidity Part/contracts/staking.sol\":1237:1333  function SetStakingToken(address _token) public onlyOwner {... */\n    tag_41:\n        /* \"@openzeppelin/contracts/access/Ownable.sol\":1259:1271  _msgSender() */\n      tag_103\n        /* \"@openzeppelin/contracts/access/Ownable.sol\":1259:1269  _msgSender */\n      tag_52\n        /* \"@openzeppelin/contracts/access/Ownable.sol\":1259:1271  _msgSender() */\n      jump\t// in\n    tag_103:\n        /* \"@openzeppelin/contracts/access/Ownable.sol\":1248:1271  owner() == _msgSender() */\n      0xffffffffffffffffffffffffffffffffffffffff\n      and\n        /* \"@openzeppelin/contracts/access/Ownable.sol\":1248:1255  owner() */\n      tag_104\n        /* \"@openzeppelin/contracts/access/Ownable.sol\":1248:1253  owner */\n      tag_24\n        /* \"@openzeppelin/contracts/access/Ownable.sol\":1248:1255  owner() */\n      jump\t// in\n    tag_104:\n        /* \"@openzeppelin/contracts/access/Ownable.sol\":1248:1271  owner() == _msgSender() */\n      0xffffffffffffffffffffffffffffffffffffffff\n      and\n      eq\n        /* \"@openzeppelin/contracts/access/Ownable.sol\":1240:1308  require(owner() == _msgSender(), \"Ownable: caller is not the owner\") */\n      tag_105\n      jumpi\n      mload(0x40)\n      0x08c379a000000000000000000000000000000000000000000000000000000000\n      dup2\n      mstore\n      0x04\n      add\n      tag_106\n      swap1\n      tag_56\n      jump\t// in\n    tag_106:\n      mload(0x40)\n      dup1\n      swap2\n      sub\n      swap1\n      revert\n    tag_105:\n        /* \"Solidity Part/contracts/staking.sol\":1320:1326  _token */\n      dup1\n        /* \"Solidity Part/contracts/staking.sol\":1305:1317  StakingToken */\n      0x01\n      0x00\n        /* \"Solidity Part/contracts/staking.sol\":1305:1326  StakingToken = _token */\n      0x0100\n      exp\n      dup2\n      sload\n      dup2\n      0xffffffffffffffffffffffffffffffffffffffff\n      mul\n      not\n      and\n      swap1\n      dup4\n      0xffffffffffffffffffffffffffffffffffffffff\n      and\n      mul\n      or\n      swap1\n      sstore\n      pop\n        /* \"Solidity Part/contracts/staking.sol\":1237:1333  function SetStakingToken(address _token) public onlyOwner {... */\n      pop\n      jump\t// out\n        /* \"Solidity Part/contracts/staking.sol\":2339:2829  function UnstakeToken(uint256 amount) public {... */\n    tag_45:\n        /* \"Solidity Part/contracts/staking.sol\":2433:2439  amount */\n      dup1\n        /* \"Solidity Part/contracts/staking.sol\":2402:2417  StakingBalances */\n      0x05\n        /* \"Solidity Part/contracts/staking.sol\":2402:2429  StakingBalances[msg.sender] */\n      0x00\n        /* \"Solidity Part/contracts/staking.sol\":2418:2428  msg.sender */\n      caller\n        /* \"Solidity Part/contracts/staking.sol\":2402:2429  StakingBalances[msg.sender] */\n      0xffffffffffffffffffffffffffffffffffffffff\n      and\n      0xffffffffffffffffffffffffffffffffffffffff\n      and\n      dup2\n      mstore\n      0x20\n      add\n      swap1\n      dup2\n      mstore\n      0x20\n      add\n      0x00\n      keccak256\n      sload\n        /* \"Solidity Part/contracts/staking.sol\":2402:2439  StakingBalances[msg.sender] <= amount */\n      gt\n      iszero\n        /* \"Solidity Part/contracts/staking.sol\":2394:2471  require(StakingBalances[msg.sender] <= amount, \"ERROR: INSUFFICIENT BALANCE\") */\n      tag_109\n      jumpi\n      mload(0x40)\n      0x08c379a000000000000000000000000000000000000000000000000000000000\n      dup2\n      mstore\n      0x04\n      add\n      tag_110\n      swap1\n      tag_88\n      jump\t// in\n    tag_110:\n      mload(0x40)\n      dup1\n      swap2\n      sub\n      swap1\n      revert\n    tag_109:\n        /* \"Solidity Part/contracts/staking.sol\":2510:2522  StakingToken */\n      0x01\n      0x00\n      swap1\n      sload\n      swap1\n      0x0100\n      exp\n      swap1\n      div\n      0xffffffffffffffffffffffffffffffffffffffff\n      and\n        /* \"Solidity Part/contracts/staking.sol\":2504:2532  ERC20(StakingToken).transfer */\n      0xffffffffffffffffffffffffffffffffffffffff\n      and\n      0xa9059cbb\n        /* \"Solidity Part/contracts/staking.sol\":2533:2543  msg.sender */\n      caller\n        /* \"Solidity Part/contracts/staking.sol\":2545:2551  amount */\n      dup4\n        /* \"Solidity Part/contracts/staking.sol\":2504:2552  ERC20(StakingToken).transfer(msg.sender, amount) */\n      mload(0x40)\n      dup4\n      0xffffffff\n      and\n      0xe0\n      shl\n      dup2\n      mstore\n      0x04\n      add\n      tag_111\n      swap3\n      swap2\n      swap1\n      tag_112\n      jump\t// in\n    tag_111:\n      0x20\n      mload(0x40)\n      dup1\n      dup4\n      sub\n      dup2\n      0x00\n      dup8\n      dup1\n      extcodesize\n      iszero\n      dup1\n      iszero\n      tag_113\n      jumpi\n      0x00\n      dup1\n      revert\n    tag_113:\n      pop\n      gas\n      call\n      iszero\n      dup1\n      iszero\n      tag_115\n      jumpi\n      returndatasize\n      0x00\n      dup1\n      returndatacopy\n      revert(0x00, returndatasize)\n    tag_115:\n      pop\n      pop\n      pop\n      pop\n      mload(0x40)\n      returndatasize\n      not(0x1f)\n      0x1f\n      dup3\n      add\n      and\n      dup3\n      add\n      dup1\n      0x40\n      mstore\n      pop\n      dup2\n      add\n      swap1\n      tag_116\n      swap2\n      swap1\n      tag_95\n      jump\t// in\n    tag_116:\n      pop\n        /* \"Solidity Part/contracts/staking.sol\":2593:2599  amount */\n      dup1\n        /* \"Solidity Part/contracts/staking.sol\":2562:2577  StakingBalances */\n      0x05\n        /* \"Solidity Part/contracts/staking.sol\":2562:2589  StakingBalances[msg.sender] */\n      0x00\n        /* \"Solidity Part/contracts/staking.sol\":2578:2588  msg.sender */\n      caller\n        /* \"Solidity Part/contracts/staking.sol\":2562:2589  StakingBalances[msg.sender] */\n      0xffffffffffffffffffffffffffffffffffffffff\n      and\n      0xffffffffffffffffffffffffffffffffffffffff\n      and\n      dup2\n      mstore\n      0x20\n      add\n      swap1\n      dup2\n      mstore\n      0x20\n      add\n      0x00\n      keccak256\n      0x00\n        /* \"Solidity Part/contracts/staking.sol\":2562:2599  StakingBalances[msg.sender] -= amount */\n      dup3\n      dup3\n      sload\n      tag_117\n      swap2\n      swap1\n      tag_118\n      jump\t// in\n    tag_117:\n      swap3\n      pop\n      pop\n      dup2\n      swap1\n      sstore\n      pop\n        /* \"Solidity Part/contracts/staking.sol\":2609:2630  Stake memory newStake */\n      0x00\n        /* \"Solidity Part/contracts/staking.sol\":2633:2677  Stake(msg.sender,amount, block.timestamp, 0) */\n      mload(0x40)\n      dup1\n      0x80\n      add\n      0x40\n      mstore\n      dup1\n        /* \"Solidity Part/contracts/staking.sol\":2639:2649  msg.sender */\n      caller\n        /* \"Solidity Part/contracts/staking.sol\":2633:2677  Stake(msg.sender,amount, block.timestamp, 0) */\n      0xffffffffffffffffffffffffffffffffffffffff\n      and\n      dup2\n      mstore\n      0x20\n      add\n        /* \"Solidity Part/contracts/staking.sol\":2650:2656  amount */\n      dup4\n        /* \"Solidity Part/contracts/staking.sol\":2633:2677  Stake(msg.sender,amount, block.timestamp, 0) */\n      dup2\n      mstore\n      0x20\n      add\n        /* \"Solidity Part/contracts/staking.sol\":2658:2673  block.timestamp */\n      timestamp\n        /* \"Solidity Part/contracts/staking.sol\":2633:2677  Stake(msg.sender,amount, block.timestamp, 0) */\n      dup2\n      mstore\n      0x20\n      add\n        /* \"Solidity Part/contracts/staking.sol\":2675:2676  0 */\n      0x00\n        /* \"Solidity Part/contracts/staking.sol\":2633:2677  Stake(msg.sender,amount, block.timestamp, 0) */\n      dup2\n      mstore\n      pop\n        /* \"Solidity Part/contracts/staking.sol\":2609:2677  Stake memory newStake = Stake(msg.sender,amount, block.timestamp, 0) */\n      swap1\n      pop\n        /* \"Solidity Part/contracts/staking.sol\":2717:2725  newStake */\n      dup1\n        /* \"Solidity Part/contracts/staking.sol\":2687:2701  StakingHistory */\n      0x04\n        /* \"Solidity Part/contracts/staking.sol\":2687:2714  StakingHistory[currentID+1] */\n      0x00\n        /* \"Solidity Part/contracts/staking.sol\":2712:2713  1 */\n      0x01\n        /* \"Solidity Part/contracts/staking.sol\":2702:2711  currentID */\n      sload(0x02)\n        /* \"Solidity Part/contracts/staking.sol\":2702:2713  currentID+1 */\n      tag_119\n      swap2\n      swap1\n      tag_72\n      jump\t// in\n    tag_119:\n        /* \"Solidity Part/contracts/staking.sol\":2687:2714  StakingHistory[currentID+1] */\n      dup2\n      mstore\n      0x20\n      add\n      swap1\n      dup2\n      mstore\n      0x20\n      add\n      0x00\n      keccak256\n        /* \"Solidity Part/contracts/staking.sol\":2687:2725  StakingHistory[currentID+1] = newStake */\n      0x00\n      dup3\n      add\n      mload\n      dup2\n      0x00\n      add\n      exp(0x0100, 0x00)\n      dup2\n      sload\n      dup2\n      0xffffffffffffffffffffffffffffffffffffffff\n      mul\n      not\n      and\n      swap1\n      dup4\n      0xffffffffffffffffffffffffffffffffffffffff\n      and\n      mul\n      or\n      swap1\n      sstore\n      pop\n      0x20\n      dup3\n      add\n      mload\n      dup2\n      0x01\n      add\n      sstore\n      0x40\n      dup3\n      add\n      mload\n      dup2\n      0x02\n      add\n      sstore\n      0x60\n      dup3\n      add\n      mload\n      dup2\n      0x03\n      add\n      sstore\n      swap1\n      pop\n      pop\n        /* \"Solidity Part/contracts/staking.sol\":2740:2800  NewStake(msg.sender, currentID+1, newStake, block.timestamp) */\n      0x4893ba24a61962c26d899bdc2f219eb2486292d793493c0cc5be1d3bebe9bba6\n        /* \"Solidity Part/contracts/staking.sol\":2749:2759  msg.sender */\n      caller\n        /* \"Solidity Part/contracts/staking.sol\":2771:2772  1 */\n      0x01\n        /* \"Solidity Part/contracts/staking.sol\":2761:2770  currentID */\n      sload(0x02)\n        /* \"Solidity Part/contracts/staking.sol\":2761:2772  currentID+1 */\n      tag_120\n      swap2\n      swap1\n      tag_72\n      jump\t// in\n    tag_120:\n        /* \"Solidity Part/contracts/staking.sol\":2774:2782  newStake */\n      dup4\n        /* \"Solidity Part/contracts/staking.sol\":2784:2799  block.timestamp */\n      timestamp\n        /* \"Solidity Part/contracts/staking.sol\":2740:2800  NewStake(msg.sender, currentID+1, newStake, block.timestamp) */\n      mload(0x40)\n      tag_121\n      swap5\n      swap4\n      swap3\n      swap2\n      swap1\n      tag_100\n      jump\t// in\n    tag_121:\n      mload(0x40)\n      dup1\n      swap2\n      sub\n      swap1\n      log1\n        /* \"Solidity Part/contracts/staking.sol\":2821:2822  1 */\n      0x01\n        /* \"Solidity Part/contracts/staking.sol\":2810:2819  currentID */\n      0x02\n      0x00\n        /* \"Solidity Part/contracts/staking.sol\":2810:2822  currentID+=1 */\n      dup3\n      dup3\n      sload\n      tag_122\n      swap2\n      swap1\n      tag_72\n      jump\t// in\n    tag_122:\n      swap3\n      pop\n      pop\n      dup2\n      swap1\n      sstore\n      pop\n        /* \"Solidity Part/contracts/staking.sol\":2384:2829  {... */\n      pop\n        /* \"Solidity Part/contracts/staking.sol\":2339:2829  function UnstakeToken(uint256 amount) public {... */\n      pop\n      jump\t// out\n        /* \"@openzeppelin/contracts/access/Ownable.sol\":1918:2116  function transferOwnership(address newOwner) public virtual onlyOwner {... */\n    tag_49:\n        /* \"@openzeppelin/contracts/access/Ownable.sol\":1259:1271  _msgSender() */\n      tag_124\n        /* \"@openzeppelin/contracts/access/Ownable.sol\":1259:1269  _msgSender */\n      tag_52\n        /* \"@openzeppelin/contracts/access/Ownable.sol\":1259:1271  _msgSender() */\n      jump\t// in\n    tag_124:\n        /* \"@openzeppelin/contracts/access/Ownable.sol\":1248:1271  owner() == _msgSender() */\n      0xffffffffffffffffffffffffffffffffffffffff\n      and\n        /* \"@openzeppelin/contracts/access/Ownable.sol\":1248:1255  owner() */\n      tag_125\n        /* \"@openzeppelin/contracts/access/Ownable.sol\":1248:1253  owner */\n      tag_24\n        /* \"@openzeppelin/contracts/access/Ownable.sol\":1248:1255  owner() */\n      jump\t// in\n    tag_125:\n        /* \"@openzeppelin/contracts/access/Ownable.sol\":1248:1271  owner() == _msgSender() */\n      0xffffffffffffffffffffffffffffffffffffffff\n      and\n      eq\n        /* \"@openzeppelin/contracts/access/Ownable.sol\":1240:1308  require(owner() == _msgSender(), \"Ownable: caller is not the owner\") */\n      tag_126\n      jumpi\n      mload(0x40)\n      0x08c379a000000000000000000000000000000000000000000000000000000000\n      dup2\n      mstore\n      0x04\n      add\n      tag_127\n      swap1\n      tag_56\n      jump\t// in\n    tag_127:\n      mload(0x40)\n      dup1\n      swap2\n      sub\n      swap1\n      revert\n    tag_126:\n        /* \"@openzeppelin/contracts/access/Ownable.sol\":2026:2027  0 */\n      0x00\n        /* \"@openzeppelin/contracts/access/Ownable.sol\":2006:2028  newOwner != address(0) */\n      0xffffffffffffffffffffffffffffffffffffffff\n      and\n        /* \"@openzeppelin/contracts/access/Ownable.sol\":2006:2014  newOwner */\n      dup2\n        /* \"@openzeppelin/contracts/access/Ownable.sol\":2006:2028  newOwner != address(0) */\n      0xffffffffffffffffffffffffffffffffffffffff\n      and\n      eq\n      iszero\n        /* \"@openzeppelin/contracts/access/Ownable.sol\":1998:2071  require(newOwner != address(0), \"Ownable: new owner is the zero address\") */\n      tag_129\n      jumpi\n      mload(0x40)\n      0x08c379a000000000000000000000000000000000000000000000000000000000\n      dup2\n      mstore\n      0x04\n      add\n      tag_130\n      swap1\n      tag_131\n      jump\t// in\n    tag_130:\n      mload(0x40)\n      dup1\n      swap2\n      sub\n      swap1\n      revert\n    tag_129:\n        /* \"@openzeppelin/contracts/access/Ownable.sol\":2081:2109  _transferOwnership(newOwner) */\n      tag_132\n        /* \"@openzeppelin/contracts/access/Ownable.sol\":2100:2108  newOwner */\n      dup2\n        /* \"@openzeppelin/contracts/access/Ownable.sol\":2081:2099  _transferOwnership */\n      tag_65\n        /* \"@openzeppelin/contracts/access/Ownable.sol\":2081:2109  _transferOwnership(newOwner) */\n      jump\t// in\n    tag_132:\n        /* \"@openzeppelin/contracts/access/Ownable.sol\":1918:2116  function transferOwnership(address newOwner) public virtual onlyOwner {... */\n      pop\n      jump\t// out\n        /* \"@openzeppelin/contracts/utils/Context.sol\":640:736  function _msgSender() internal view virtual returns (address) {... */\n    tag_52:\n        /* \"@openzeppelin/contracts/utils/Context.sol\":693:700  address */\n      0x00\n        /* \"@openzeppelin/contracts/utils/Context.sol\":719:729  msg.sender */\n      caller\n        /* \"@openzeppelin/contracts/utils/Context.sol\":712:729  return msg.sender */\n      swap1\n      pop\n        /* \"@openzeppelin/contracts/utils/Context.sol\":640:736  function _msgSender() internal view virtual returns (address) {... */\n      swap1\n      jump\t// out\n        /* \"@openzeppelin/contracts/access/Ownable.sol\":2270:2457  function _transferOwnership(address newOwner) internal virtual {... */\n    tag_65:\n        /* \"@openzeppelin/contracts/access/Ownable.sol\":2343:2359  address oldOwner */\n      0x00\n        /* \"@openzeppelin/contracts/access/Ownable.sol\":2362:2368  _owner */\n      dup1\n      0x00\n      swap1\n      sload\n      swap1\n      0x0100\n      exp\n      swap1\n      div\n      0xffffffffffffffffffffffffffffffffffffffff\n      and\n        /* \"@openzeppelin/contracts/access/Ownable.sol\":2343:2368  address oldOwner = _owner */\n      swap1\n      pop\n        /* \"@openzeppelin/contracts/access/Ownable.sol\":2387:2395  newOwner */\n      dup2\n        /* \"@openzeppelin/contracts/access/Ownable.sol\":2378:2384  _owner */\n      0x00\n      dup1\n        /* \"@openzeppelin/contracts/access/Ownable.sol\":2378:2395  _owner = newOwner */\n      0x0100\n      exp\n      dup2\n      sload\n      dup2\n      0xffffffffffffffffffffffffffffffffffffffff\n      mul\n      not\n      and\n      swap1\n      dup4\n      0xffffffffffffffffffffffffffffffffffffffff\n      and\n      mul\n      or\n      swap1\n      sstore\n      pop\n        /* \"@openzeppelin/contracts/access/Ownable.sol\":2441:2449  newOwner */\n      dup2\n        /* \"@openzeppelin/contracts/access/Ownable.sol\":2410:2450  OwnershipTransferred(oldOwner, newOwner) */\n      0xffffffffffffffffffffffffffffffffffffffff\n      and\n        /* \"@openzeppelin/contracts/access/Ownable.sol\":2431:2439  oldOwner */\n      dup2\n        /* \"@openzeppelin/contracts/access/Ownable.sol\":2410:2450  OwnershipTransferred(oldOwner, newOwner) */\n      0xffffffffffffffffffffffffffffffffffffffff\n      and\n      0x8be0079c531659141344cd1fd0a4f28419497f9722a3daafe3b4186f6b6457e0\n      mload(0x40)\n      mload(0x40)\n      dup1\n      swap2\n      sub\n      swap1\n      log3\n        /* \"@openzeppelin/contracts/access/Ownable.sol\":2333:2457  {... */\n      pop\n        /* \"@openzeppelin/contracts/access/Ownable.sol\":2270:2457  function _transferOwnership(address newOwner) internal virtual {... */\n      pop\n      jump\t// out\n        /* \"#utility.yul\":7:146   */\n    tag_136:\n        /* \"#utility.yul\":53:58   */\n      0x00\n        /* \"#utility.yul\":91:97   */\n      dup2\n        /* \"#utility.yul\":78:98   */\n      calldataload\n        /* \"#utility.yul\":69:98   */\n      swap1\n      pop\n        /* \"#utility.yul\":107:140   */\n      tag_138\n        /* \"#utility.yul\":134:139   */\n      dup2\n        /* \"#utility.yul\":107:140   */\n      tag_139\n      jump\t// in\n    tag_138:\n        /* \"#utility.yul\":7:146   */\n      swap3\n      swap2\n      pop\n      pop\n      jump\t// out\n        /* \"#utility.yul\":152:289   */\n    tag_140:\n        /* \"#utility.yul\":206:211   */\n      0x00\n        /* \"#utility.yul\":237:243   */\n      dup2\n        /* \"#utility.yul\":231:244   */\n      mload\n        /* \"#utility.yul\":222:244   */\n      swap1\n      pop\n        /* \"#utility.yul\":253:283   */\n      tag_142\n        /* \"#utility.yul\":277:282   */\n      dup2\n        /* \"#utility.yul\":253:283   */\n      tag_143\n      jump\t// in\n    tag_142:\n        /* \"#utility.yul\":152:289   */\n      swap3\n      swap2\n      pop\n      pop\n      jump\t// out\n        /* \"#utility.yul\":295:434   */\n    tag_144:\n        /* \"#utility.yul\":341:346   */\n      0x00\n        /* \"#utility.yul\":379:385   */\n      dup2\n        /* \"#utility.yul\":366:386   */\n      calldataload\n        /* \"#utility.yul\":357:386   */\n      swap1\n      pop\n        /* \"#utility.yul\":395:428   */\n      tag_146\n        /* \"#utility.yul\":422:427   */\n      dup2\n        /* \"#utility.yul\":395:428   */\n      tag_147\n      jump\t// in\n    tag_146:\n        /* \"#utility.yul\":295:434   */\n      swap3\n      swap2\n      pop\n      pop\n      jump\t// out\n        /* \"#utility.yul\":440:583   */\n    tag_148:\n        /* \"#utility.yul\":497:502   */\n      0x00\n        /* \"#utility.yul\":528:534   */\n      dup2\n        /* \"#utility.yul\":522:535   */\n      mload\n        /* \"#utility.yul\":513:535   */\n      swap1\n      pop\n        /* \"#utility.yul\":544:577   */\n      tag_150\n        /* \"#utility.yul\":571:576   */\n      dup2\n        /* \"#utility.yul\":544:577   */\n      tag_147\n      jump\t// in\n    tag_150:\n        /* \"#utility.yul\":440:583   */\n      swap3\n      swap2\n      pop\n      pop\n      jump\t// out\n        /* \"#utility.yul\":589:918   */\n    tag_40:\n        /* \"#utility.yul\":648:654   */\n      0x00\n        /* \"#utility.yul\":697:699   */\n      0x20\n        /* \"#utility.yul\":685:694   */\n      dup3\n        /* \"#utility.yul\":676:683   */\n      dup5\n        /* \"#utility.yul\":672:695   */\n      sub\n        /* \"#utility.yul\":668:700   */\n      slt\n        /* \"#utility.yul\":665:784   */\n      iszero\n      tag_152\n      jumpi\n        /* \"#utility.yul\":703:782   */\n      tag_153\n      tag_154\n      jump\t// in\n    tag_153:\n        /* \"#utility.yul\":665:784   */\n    tag_152:\n        /* \"#utility.yul\":823:824   */\n      0x00\n        /* \"#utility.yul\":848:901   */\n      tag_155\n        /* \"#utility.yul\":893:900   */\n      dup5\n        /* \"#utility.yul\":884:890   */\n      dup3\n        /* \"#utility.yul\":873:882   */\n      dup6\n        /* \"#utility.yul\":869:891   */\n      add\n        /* \"#utility.yul\":848:901   */\n      tag_136\n      jump\t// in\n    tag_155:\n        /* \"#utility.yul\":838:901   */\n      swap2\n      pop\n        /* \"#utility.yul\":794:911   */\n      pop\n        /* \"#utility.yul\":589:918   */\n      swap3\n      swap2\n      pop\n      pop\n      jump\t// out\n        /* \"#utility.yul\":924:1269   */\n    tag_95:\n        /* \"#utility.yul\":991:997   */\n      0x00\n        /* \"#utility.yul\":1040:1042   */\n      0x20\n        /* \"#utility.yul\":1028:1037   */\n      dup3\n        /* \"#utility.yul\":1019:1026   */\n      dup5\n        /* \"#utility.yul\":1015:1038   */\n      sub\n        /* \"#utility.yul\":1011:1043   */\n      slt\n        /* \"#utility.yul\":1008:1127   */\n      iszero\n      tag_157\n      jumpi\n        /* \"#utility.yul\":1046:1125   */\n      tag_158\n      tag_154\n      jump\t// in\n    tag_158:\n        /* \"#utility.yul\":1008:1127   */\n    tag_157:\n        /* \"#utility.yul\":1166:1167   */\n      0x00\n        /* \"#utility.yul\":1191:1252   */\n      tag_159\n        /* \"#utility.yul\":1244:1251   */\n      dup5\n        /* \"#utility.yul\":1235:1241   */\n      dup3\n        /* \"#utility.yul\":1224:1233   */\n      dup6\n        /* \"#utility.yul\":1220:1242   */\n      add\n        /* \"#utility.yul\":1191:1252   */\n      tag_140\n      jump\t// in\n    tag_159:\n        /* \"#utility.yul\":1181:1252   */\n      swap2\n      pop\n        /* \"#utility.yul\":1137:1262   */\n      pop\n        /* \"#utility.yul\":924:1269   */\n      swap3\n      swap2\n      pop\n      pop\n      jump\t// out\n        /* \"#utility.yul\":1275:1604   */\n    tag_30:\n        /* \"#utility.yul\":1334:1340   */\n      0x00\n        /* \"#utility.yul\":1383:1385   */\n      0x20\n        /* \"#utility.yul\":1371:1380   */\n      dup3\n        /* \"#utility.yul\":1362:1369   */\n      dup5\n        /* \"#utility.yul\":1358:1381   */\n      sub\n        /* \"#utility.yul\":1354:1386   */\n      slt\n        /* \"#utility.yul\":1351:1470   */\n      iszero\n      tag_161\n      jumpi\n        /* \"#utility.yul\":1389:1468   */\n      tag_162\n      tag_154\n      jump\t// in\n    tag_162:\n        /* \"#utility.yul\":1351:1470   */\n    tag_161:\n        /* \"#utility.yul\":1509:1510   */\n      0x00\n        /* \"#utility.yul\":1534:1587   */\n      tag_163\n        /* \"#utility.yul\":1579:1586   */\n      dup5\n        /* \"#utility.yul\":1570:1576   */\n      dup3\n        /* \"#utility.yul\":1559:1568   */\n      dup6\n        /* \"#utility.yul\":1555:1577   */\n      add\n        /* \"#utility.yul\":1534:1587   */\n      tag_144\n      jump\t// in\n    tag_163:\n        /* \"#utility.yul\":1524:1587   */\n      swap2\n      pop\n        /* \"#utility.yul\":1480:1597   */\n      pop\n        /* \"#utility.yul\":1275:1604   */\n      swap3\n      swap2\n      pop\n      pop\n      jump\t// out\n        /* \"#utility.yul\":1610:1961   */\n    tag_85:\n        /* \"#utility.yul\":1680:1686   */\n      0x00\n        /* \"#utility.yul\":1729:1731   */\n      0x20\n        /* \"#utility.yul\":1717:1726   */\n      dup3\n        /* \"#utility.yul\":1708:1715   */\n      dup5\n        /* \"#utility.yul\":1704:1727   */\n      sub\n        /* \"#utility.yul\":1700:1732   */\n      slt\n        /* \"#utility.yul\":1697:1816   */\n      iszero\n      tag_165\n      jumpi\n        /* \"#utility.yul\":1735:1814   */\n      tag_166\n      tag_154\n      jump\t// in\n    tag_166:\n        /* \"#utility.yul\":1697:1816   */\n    tag_165:\n        /* \"#utility.yul\":1855:1856   */\n      0x00\n        /* \"#utility.yul\":1880:1944   */\n      tag_167\n        /* \"#utility.yul\":1936:1943   */\n      dup5\n        /* \"#utility.yul\":1927:1933   */\n      dup3\n        /* \"#utility.yul\":1916:1925   */\n      dup6\n        /* \"#utility.yul\":1912:1934   */\n      add\n        /* \"#utility.yul\":1880:1944   */\n      tag_148\n      jump\t// in\n    tag_167:\n        /* \"#utility.yul\":1870:1944   */\n      swap2\n      pop\n        /* \"#utility.yul\":1826:1954   */\n      pop\n        /* \"#utility.yul\":1610:1961   */\n      swap3\n      swap2\n      pop\n      pop\n      jump\t// out\n        /* \"#utility.yul\":1967:2075   */\n    tag_168:\n        /* \"#utility.yul\":2044:2068   */\n      tag_170\n        /* \"#utility.yul\":2062:2067   */\n      dup2\n        /* \"#utility.yul\":2044:2068   */\n      tag_171\n      jump\t// in\n    tag_170:\n        /* \"#utility.yul\":2039:2042   */\n      dup3\n        /* \"#utility.yul\":2032:2069   */\n      mstore\n        /* \"#utility.yul\":1967:2075   */\n      pop\n      pop\n      jump\t// out\n        /* \"#utility.yul\":2081:2199   */\n    tag_172:\n        /* \"#utility.yul\":2168:2192   */\n      tag_174\n        /* \"#utility.yul\":2186:2191   */\n      dup2\n        /* \"#utility.yul\":2168:2192   */\n      tag_171\n      jump\t// in\n    tag_174:\n        /* \"#utility.yul\":2163:2166   */\n      dup3\n        /* \"#utility.yul\":2156:2193   */\n      mstore\n        /* \"#utility.yul\":2081:2199   */\n      pop\n      pop\n      jump\t// out\n        /* \"#utility.yul\":2205:2314   */\n    tag_175:\n        /* \"#utility.yul\":2286:2307   */\n      tag_177\n        /* \"#utility.yul\":2301:2306   */\n      dup2\n        /* \"#utility.yul\":2286:2307   */\n      tag_178\n      jump\t// in\n    tag_177:\n        /* \"#utility.yul\":2281:2284   */\n      dup3\n        /* \"#utility.yul\":2274:2308   */\n      mstore\n        /* \"#utility.yul\":2205:2314   */\n      pop\n      pop\n      jump\t// out\n        /* \"#utility.yul\":2320:2686   */\n    tag_179:\n        /* \"#utility.yul\":2462:2465   */\n      0x00\n        /* \"#utility.yul\":2483:2550   */\n      tag_181\n        /* \"#utility.yul\":2547:2549   */\n      0x1b\n        /* \"#utility.yul\":2542:2545   */\n      dup4\n        /* \"#utility.yul\":2483:2550   */\n      tag_182\n      jump\t// in\n    tag_181:\n        /* \"#utility.yul\":2476:2550   */\n      swap2\n      pop\n        /* \"#utility.yul\":2559:2652   */\n      tag_183\n        /* \"#utility.yul\":2648:2651   */\n      dup3\n        /* \"#utility.yul\":2559:2652   */\n      tag_184\n      jump\t// in\n    tag_183:\n        /* \"#utility.yul\":2677:2679   */\n      0x20\n        /* \"#utility.yul\":2672:2675   */\n      dup3\n        /* \"#utility.yul\":2668:2680   */\n      add\n        /* \"#utility.yul\":2661:2680   */\n      swap1\n      pop\n        /* \"#utility.yul\":2320:2686   */\n      swap2\n      swap1\n      pop\n      jump\t// out\n        /* \"#utility.yul\":2692:3058   */\n    tag_185:\n        /* \"#utility.yul\":2834:2837   */\n      0x00\n        /* \"#utility.yul\":2855:2922   */\n      tag_187\n        /* \"#utility.yul\":2919:2921   */\n      0x26\n        /* \"#utility.yul\":2914:2917   */\n      dup4\n        /* \"#utility.yul\":2855:2922   */\n      tag_182\n      jump\t// in\n    tag_187:\n        /* \"#utility.yul\":2848:2922   */\n      swap2\n      pop\n        /* \"#utility.yul\":2931:3024   */\n      tag_188\n        /* \"#utility.yul\":3020:3023   */\n      dup3\n        /* \"#utility.yul\":2931:3024   */\n      tag_189\n      jump\t// in\n    tag_188:\n        /* \"#utility.yul\":3049:3051   */\n      0x40\n        /* \"#utility.yul\":3044:3047   */\n      dup3\n        /* \"#utility.yul\":3040:3052   */\n      add\n        /* \"#utility.yul\":3033:3052   */\n      swap1\n      pop\n        /* \"#utility.yul\":2692:3058   */\n      swap2\n      swap1\n      pop\n      jump\t// out\n        /* \"#utility.yul\":3064:3430   */\n    tag_190:\n        /* \"#utility.yul\":3206:3209   */\n      0x00\n        /* \"#utility.yul\":3227:3294   */\n      tag_192\n        /* \"#utility.yul\":3291:3293   */\n      0x16\n        /* \"#utility.yul\":3286:3289   */\n      dup4\n        /* \"#utility.yul\":3227:3294   */\n      tag_182\n      jump\t// in\n    tag_192:\n        /* \"#utility.yul\":3220:3294   */\n      swap2\n      pop\n        /* \"#utility.yul\":3303:3396   */\n      tag_193\n        /* \"#utility.yul\":3392:3395   */\n      dup3\n        /* \"#utility.yul\":3303:3396   */\n      tag_194\n      jump\t// in\n    tag_193:\n        /* \"#utility.yul\":3421:3423   */\n      0x20\n        /* \"#utility.yul\":3416:3419   */\n      dup3\n        /* \"#utility.yul\":3412:3424   */\n      add\n        /* \"#utility.yul\":3405:3424   */\n      swap1\n      pop\n        /* \"#utility.yul\":3064:3430   */\n      swap2\n      swap1\n      pop\n      jump\t// out\n        /* \"#utility.yul\":3436:3802   */\n    tag_195:\n        /* \"#utility.yul\":3578:3581   */\n      0x00\n        /* \"#utility.yul\":3599:3666   */\n      tag_197\n        /* \"#utility.yul\":3663:3665   */\n      0x14\n        /* \"#utility.yul\":3658:3661   */\n      dup4\n        /* \"#utility.yul\":3599:3666   */\n      tag_182\n      jump\t// in\n    tag_197:\n        /* \"#utility.yul\":3592:3666   */\n      swap2\n      pop\n        /* \"#utility.yul\":3675:3768   */\n      tag_198\n        /* \"#utility.yul\":3764:3767   */\n      dup3\n        /* \"#utility.yul\":3675:3768   */\n      tag_199\n      jump\t// in\n    tag_198:\n        /* \"#utility.yul\":3793:3795   */\n      0x20\n        /* \"#utility.yul\":3788:3791   */\n      dup3\n        /* \"#utility.yul\":3784:3796   */\n      add\n        /* \"#utility.yul\":3777:3796   */\n      swap1\n      pop\n        /* \"#utility.yul\":3436:3802   */\n      swap2\n      swap1\n      pop\n      jump\t// out\n        /* \"#utility.yul\":3808:4174   */\n    tag_200:\n        /* \"#utility.yul\":3950:3953   */\n      0x00\n        /* \"#utility.yul\":3971:4038   */\n      tag_202\n        /* \"#utility.yul\":4035:4037   */\n      0x20\n        /* \"#utility.yul\":4030:4033   */\n      dup4\n        /* \"#utility.yul\":3971:4038   */\n      tag_182\n      jump\t// in\n    tag_202:\n        /* \"#utility.yul\":3964:4038   */\n      swap2\n      pop\n        /* \"#utility.yul\":4047:4140   */\n      tag_203\n        /* \"#utility.yul\":4136:4139   */\n      dup3\n        /* \"#utility.yul\":4047:4140   */\n      tag_204\n      jump\t// in\n    tag_203:\n        /* \"#utility.yul\":4165:4167   */\n      0x20\n        /* \"#utility.yul\":4160:4163   */\n      dup3\n        /* \"#utility.yul\":4156:4168   */\n      add\n        /* \"#utility.yul\":4149:4168   */\n      swap1\n      pop\n        /* \"#utility.yul\":3808:4174   */\n      swap2\n      swap1\n      pop\n      jump\t// out\n        /* \"#utility.yul\":4180:4546   */\n    tag_205:\n        /* \"#utility.yul\":4322:4325   */\n      0x00\n        /* \"#utility.yul\":4343:4410   */\n      tag_207\n        /* \"#utility.yul\":4407:4409   */\n      0x14\n        /* \"#utility.yul\":4402:4405   */\n      dup4\n        /* \"#utility.yul\":4343:4410   */\n      tag_182\n      jump\t// in\n    tag_207:\n        /* \"#utility.yul\":4336:4410   */\n      swap2\n      pop\n        /* \"#utility.yul\":4419:4512   */\n      tag_208\n        /* \"#utility.yul\":4508:4511   */\n      dup3\n        /* \"#utility.yul\":4419:4512   */\n      tag_209\n      jump\t// in\n    tag_208:\n        /* \"#utility.yul\":4537:4539   */\n      0x20\n        /* \"#utility.yul\":4532:4535   */\n      dup3\n        /* \"#utility.yul\":4528:4540   */\n      add\n        /* \"#utility.yul\":4521:4540   */\n      swap1\n      pop\n        /* \"#utility.yul\":4180:4546   */\n      swap2\n      swap1\n      pop\n      jump\t// out\n        /* \"#utility.yul\":4620:5484   */\n    tag_210:\n        /* \"#utility.yul\":4761:4765   */\n      0x80\n        /* \"#utility.yul\":4756:4759   */\n      dup3\n        /* \"#utility.yul\":4752:4766   */\n      add\n        /* \"#utility.yul\":4849:4853   */\n      0x00\n        /* \"#utility.yul\":4842:4847   */\n      dup3\n        /* \"#utility.yul\":4838:4854   */\n      add\n        /* \"#utility.yul\":4832:4855   */\n      mload\n        /* \"#utility.yul\":4868:4931   */\n      tag_212\n        /* \"#utility.yul\":4925:4929   */\n      0x00\n        /* \"#utility.yul\":4920:4923   */\n      dup6\n        /* \"#utility.yul\":4916:4930   */\n      add\n        /* \"#utility.yul\":4902:4914   */\n      dup3\n        /* \"#utility.yul\":4868:4931   */\n      tag_168\n      jump\t// in\n    tag_212:\n        /* \"#utility.yul\":4776:4941   */\n      pop\n        /* \"#utility.yul\":5025:5029   */\n      0x20\n        /* \"#utility.yul\":5018:5023   */\n      dup3\n        /* \"#utility.yul\":5014:5030   */\n      add\n        /* \"#utility.yul\":5008:5031   */\n      mload\n        /* \"#utility.yul\":5044:5107   */\n      tag_213\n        /* \"#utility.yul\":5101:5105   */\n      0x20\n        /* \"#utility.yul\":5096:5099   */\n      dup6\n        /* \"#utility.yul\":5092:5106   */\n      add\n        /* \"#utility.yul\":5078:5090   */\n      dup3\n        /* \"#utility.yul\":5044:5107   */\n      tag_214\n      jump\t// in\n    tag_213:\n        /* \"#utility.yul\":4951:5117   */\n      pop\n        /* \"#utility.yul\":5204:5208   */\n      0x40\n        /* \"#utility.yul\":5197:5202   */\n      dup3\n        /* \"#utility.yul\":5193:5209   */\n      add\n        /* \"#utility.yul\":5187:5210   */\n      mload\n        /* \"#utility.yul\":5223:5286   */\n      tag_215\n        /* \"#utility.yul\":5280:5284   */\n      0x40\n        /* \"#utility.yul\":5275:5278   */\n      dup6\n        /* \"#utility.yul\":5271:5285   */\n      add\n        /* \"#utility.yul\":5257:5269   */\n      dup3\n        /* \"#utility.yul\":5223:5286   */\n      tag_214\n      jump\t// in\n    tag_215:\n        /* \"#utility.yul\":5127:5296   */\n      pop\n        /* \"#utility.yul\":5385:5389   */\n      0x60\n        /* \"#utility.yul\":5378:5383   */\n      dup3\n        /* \"#utility.yul\":5374:5390   */\n      add\n        /* \"#utility.yul\":5368:5391   */\n      mload\n        /* \"#utility.yul\":5404:5467   */\n      tag_216\n        /* \"#utility.yul\":5461:5465   */\n      0x60\n        /* \"#utility.yul\":5456:5459   */\n      dup6\n        /* \"#utility.yul\":5452:5466   */\n      add\n        /* \"#utility.yul\":5438:5450   */\n      dup3\n        /* \"#utility.yul\":5404:5467   */\n      tag_214\n      jump\t// in\n    tag_216:\n        /* \"#utility.yul\":5306:5477   */\n      pop\n        /* \"#utility.yul\":4730:5484   */\n      pop\n        /* \"#utility.yul\":4620:5484   */\n      pop\n      pop\n      jump\t// out\n        /* \"#utility.yul\":5490:5598   */\n    tag_214:\n        /* \"#utility.yul\":5567:5591   */\n      tag_218\n        /* \"#utility.yul\":5585:5590   */\n      dup2\n        /* \"#utility.yul\":5567:5591   */\n      tag_219\n      jump\t// in\n    tag_218:\n        /* \"#utility.yul\":5562:5565   */\n      dup3\n        /* \"#utility.yul\":5555:5592   */\n      mstore\n        /* \"#utility.yul\":5490:5598   */\n      pop\n      pop\n      jump\t// out\n        /* \"#utility.yul\":5604:5722   */\n    tag_220:\n        /* \"#utility.yul\":5691:5715   */\n      tag_222\n        /* \"#utility.yul\":5709:5714   */\n      dup2\n        /* \"#utility.yul\":5691:5715   */\n      tag_219\n      jump\t// in\n    tag_222:\n        /* \"#utility.yul\":5686:5689   */\n      dup3\n        /* \"#utility.yul\":5679:5716   */\n      mstore\n        /* \"#utility.yul\":5604:5722   */\n      pop\n      pop\n      jump\t// out\n        /* \"#utility.yul\":5728:5950   */\n    tag_26:\n        /* \"#utility.yul\":5821:5825   */\n      0x00\n        /* \"#utility.yul\":5859:5861   */\n      0x20\n        /* \"#utility.yul\":5848:5857   */\n      dup3\n        /* \"#utility.yul\":5844:5862   */\n      add\n        /* \"#utility.yul\":5836:5862   */\n      swap1\n      pop\n        /* \"#utility.yul\":5872:5943   */\n      tag_224\n        /* \"#utility.yul\":5940:5941   */\n      0x00\n        /* \"#utility.yul\":5929:5938   */\n      dup4\n        /* \"#utility.yul\":5925:5942   */\n      add\n        /* \"#utility.yul\":5916:5922   */\n      dup5\n        /* \"#utility.yul\":5872:5943   */\n      tag_172\n      jump\t// in\n    tag_224:\n        /* \"#utility.yul\":5728:5950   */\n      swap3\n      swap2\n      pop\n      pop\n      jump\t// out\n        /* \"#utility.yul\":5956:6398   */\n    tag_90:\n        /* \"#utility.yul\":6105:6109   */\n      0x00\n        /* \"#utility.yul\":6143:6145   */\n      0x60\n        /* \"#utility.yul\":6132:6141   */\n      dup3\n        /* \"#utility.yul\":6128:6146   */\n      add\n        /* \"#utility.yul\":6120:6146   */\n      swap1\n      pop\n        /* \"#utility.yul\":6156:6227   */\n      tag_226\n        /* \"#utility.yul\":6224:6225   */\n      0x00\n        /* \"#utility.yul\":6213:6222   */\n      dup4\n        /* \"#utility.yul\":6209:6226   */\n      add\n        /* \"#utility.yul\":6200:6206   */\n      dup7\n        /* \"#utility.yul\":6156:6227   */\n      tag_172\n      jump\t// in\n    tag_226:\n        /* \"#utility.yul\":6237:6309   */\n      tag_227\n        /* \"#utility.yul\":6305:6307   */\n      0x20\n        /* \"#utility.yul\":6294:6303   */\n      dup4\n        /* \"#utility.yul\":6290:6308   */\n      add\n        /* \"#utility.yul\":6281:6287   */\n      dup6\n        /* \"#utility.yul\":6237:6309   */\n      tag_172\n      jump\t// in\n    tag_227:\n        /* \"#utility.yul\":6319:6391   */\n      tag_228\n        /* \"#utility.yul\":6387:6389   */\n      0x40\n        /* \"#utility.yul\":6376:6385   */\n      dup4\n        /* \"#utility.yul\":6372:6390   */\n      add\n        /* \"#utility.yul\":6363:6369   */\n      dup5\n        /* \"#utility.yul\":6319:6391   */\n      tag_220\n      jump\t// in\n    tag_228:\n        /* \"#utility.yul\":5956:6398   */\n      swap5\n      swap4\n      pop\n      pop\n      pop\n      pop\n      jump\t// out\n        /* \"#utility.yul\":6404:6736   */\n    tag_112:\n        /* \"#utility.yul\":6525:6529   */\n      0x00\n        /* \"#utility.yul\":6563:6565   */\n      0x40\n        /* \"#utility.yul\":6552:6561   */\n      dup3\n        /* \"#utility.yul\":6548:6566   */\n      add\n        /* \"#utility.yul\":6540:6566   */\n      swap1\n      pop\n        /* \"#utility.yul\":6576:6647   */\n      tag_230\n        /* \"#utility.yul\":6644:6645   */\n      0x00\n        /* \"#utility.yul\":6633:6642   */\n      dup4\n        /* \"#utility.yul\":6629:6646   */\n      add\n        /* \"#utility.yul\":6620:6626   */\n      dup6\n        /* \"#utility.yul\":6576:6647   */\n      tag_172\n      jump\t// in\n    tag_230:\n        /* \"#utility.yul\":6657:6729   */\n      tag_231\n        /* \"#utility.yul\":6725:6727   */\n      0x20\n        /* \"#utility.yul\":6714:6723   */\n      dup4\n        /* \"#utility.yul\":6710:6728   */\n      add\n        /* \"#utility.yul\":6701:6707   */\n      dup5\n        /* \"#utility.yul\":6657:6729   */\n      tag_220\n      jump\t// in\n    tag_231:\n        /* \"#utility.yul\":6404:6736   */\n      swap4\n      swap3\n      pop\n      pop\n      pop\n      jump\t// out\n        /* \"#utility.yul\":6742:7384   */\n    tag_100:\n        /* \"#utility.yul\":6963:6967   */\n      0x00\n        /* \"#utility.yul\":7001:7004   */\n      0xe0\n        /* \"#utility.yul\":6990:6999   */\n      dup3\n        /* \"#utility.yul\":6986:7005   */\n      add\n        /* \"#utility.yul\":6978:7005   */\n      swap1\n      pop\n        /* \"#utility.yul\":7015:7086   */\n      tag_233\n        /* \"#utility.yul\":7083:7084   */\n      0x00\n        /* \"#utility.yul\":7072:7081   */\n      dup4\n        /* \"#utility.yul\":7068:7085   */\n      add\n        /* \"#utility.yul\":7059:7065   */\n      dup8\n        /* \"#utility.yul\":7015:7086   */\n      tag_172\n      jump\t// in\n    tag_233:\n        /* \"#utility.yul\":7096:7168   */\n      tag_234\n        /* \"#utility.yul\":7164:7166   */\n      0x20\n        /* \"#utility.yul\":7153:7162   */\n      dup4\n        /* \"#utility.yul\":7149:7167   */\n      add\n        /* \"#utility.yul\":7140:7146   */\n      dup7\n        /* \"#utility.yul\":7096:7168   */\n      tag_220\n      jump\t// in\n    tag_234:\n        /* \"#utility.yul\":7178:7294   */\n      tag_235\n        /* \"#utility.yul\":7290:7292   */\n      0x40\n        /* \"#utility.yul\":7279:7288   */\n      dup4\n        /* \"#utility.yul\":7275:7293   */\n      add\n        /* \"#utility.yul\":7266:7272   */\n      dup6\n        /* \"#utility.yul\":7178:7294   */\n      tag_210\n      jump\t// in\n    tag_235:\n        /* \"#utility.yul\":7304:7377   */\n      tag_236\n        /* \"#utility.yul\":7372:7375   */\n      0xc0\n        /* \"#utility.yul\":7361:7370   */\n      dup4\n        /* \"#utility.yul\":7357:7376   */\n      add\n        /* \"#utility.yul\":7348:7354   */\n      dup5\n        /* \"#utility.yul\":7304:7377   */\n      tag_220\n      jump\t// in\n    tag_236:\n        /* \"#utility.yul\":6742:7384   */\n      swap6\n      swap5\n      pop\n      pop\n      pop\n      pop\n      pop\n      jump\t// out\n        /* \"#utility.yul\":7390:7600   */\n    tag_36:\n        /* \"#utility.yul\":7477:7481   */\n      0x00\n        /* \"#utility.yul\":7515:7517   */\n      0x20\n        /* \"#utility.yul\":7504:7513   */\n      dup3\n        /* \"#utility.yul\":7500:7518   */\n      add\n        /* \"#utility.yul\":7492:7518   */\n      swap1\n      pop\n        /* \"#utility.yul\":7528:7593   */\n      tag_238\n        /* \"#utility.yul\":7590:7591   */\n      0x00\n        /* \"#utility.yul\":7579:7588   */\n      dup4\n        /* \"#utility.yul\":7575:7592   */\n      add\n        /* \"#utility.yul\":7566:7572   */\n      dup5\n        /* \"#utility.yul\":7528:7593   */\n      tag_175\n      jump\t// in\n    tag_238:\n        /* \"#utility.yul\":7390:7600   */\n      swap3\n      swap2\n      pop\n      pop\n      jump\t// out\n        /* \"#utility.yul\":7606:8025   */\n    tag_88:\n        /* \"#utility.yul\":7772:7776   */\n      0x00\n        /* \"#utility.yul\":7810:7812   */\n      0x20\n        /* \"#utility.yul\":7799:7808   */\n      dup3\n        /* \"#utility.yul\":7795:7813   */\n      add\n        /* \"#utility.yul\":7787:7813   */\n      swap1\n      pop\n        /* \"#utility.yul\":7859:7868   */\n      dup2\n        /* \"#utility.yul\":7853:7857   */\n      dup2\n        /* \"#utility.yul\":7849:7869   */\n      sub\n        /* \"#utility.yul\":7845:7846   */\n      0x00\n        /* \"#utility.yul\":7834:7843   */\n      dup4\n        /* \"#utility.yul\":7830:7847   */\n      add\n        /* \"#utility.yul\":7823:7870   */\n      mstore\n        /* \"#utility.yul\":7887:8018   */\n      tag_240\n        /* \"#utility.yul\":8013:8017   */\n      dup2\n        /* \"#utility.yul\":7887:8018   */\n      tag_179\n      jump\t// in\n    tag_240:\n        /* \"#utility.yul\":7879:8018   */\n      swap1\n      pop\n        /* \"#utility.yul\":7606:8025   */\n      swap2\n      swap1\n      pop\n      jump\t// out\n        /* \"#utility.yul\":8031:8450   */\n    tag_131:\n        /* \"#utility.yul\":8197:8201   */\n      0x00\n        /* \"#utility.yul\":8235:8237   */\n      0x20\n        /* \"#utility.yul\":8224:8233   */\n      dup3\n        /* \"#utility.yul\":8220:8238   */\n      add\n        /* \"#utility.yul\":8212:8238   */\n      swap1\n      pop\n        /* \"#utility.yul\":8284:8293   */\n      dup2\n        /* \"#utility.yul\":8278:8282   */\n      dup2\n        /* \"#utility.yul\":8274:8294   */\n      sub\n        /* \"#utility.yul\":8270:8271   */\n      0x00\n        /* \"#utility.yul\":8259:8268   */\n      dup4\n        /* \"#utility.yul\":8255:8272   */\n      add\n        /* \"#utility.yul\":8248:8295   */\n      mstore\n        /* \"#utility.yul\":8312:8443   */\n      tag_242\n        /* \"#utility.yul\":8438:8442   */\n      dup2\n        /* \"#utility.yul\":8312:8443   */\n      tag_185\n      jump\t// in\n    tag_242:\n        /* \"#utility.yul\":8304:8443   */\n      swap1\n      pop\n        /* \"#utility.yul\":8031:8450   */\n      swap2\n      swap1\n      pop\n      jump\t// out\n        /* \"#utility.yul\":8456:8875   */\n    tag_70:\n        /* \"#utility.yul\":8622:8626   */\n      0x00\n        /* \"#utility.yul\":8660:8662   */\n      0x20\n        /* \"#utility.yul\":8649:8658   */\n      dup3\n        /* \"#utility.yul\":8645:8663   */\n      add\n        /* \"#utility.yul\":8637:8663   */\n      swap1\n      pop\n        /* \"#utility.yul\":8709:8718   */\n      dup2\n        /* \"#utility.yul\":8703:8707   */\n      dup2\n        /* \"#utility.yul\":8699:8719   */\n      sub\n        /* \"#utility.yul\":8695:8696   */\n      0x00\n        /* \"#utility.yul\":8684:8693   */\n      dup4\n        /* \"#utility.yul\":8680:8697   */\n      add\n        /* \"#utility.yul\":8673:8720   */\n      mstore\n        /* \"#utility.yul\":8737:8868   */\n      tag_244\n        /* \"#utility.yul\":8863:8867   */\n      dup2\n        /* \"#utility.yul\":8737:8868   */\n      tag_190\n      jump\t// in\n    tag_244:\n        /* \"#utility.yul\":8729:8868   */\n      swap1\n      pop\n        /* \"#utility.yul\":8456:8875   */\n      swap2\n      swap1\n      pop\n      jump\t// out\n        /* \"#utility.yul\":8881:9300   */\n    tag_75:\n        /* \"#utility.yul\":9047:9051   */\n      0x00\n        /* \"#utility.yul\":9085:9087   */\n      0x20\n        /* \"#utility.yul\":9074:9083   */\n      dup3\n        /* \"#utility.yul\":9070:9088   */\n      add\n        /* \"#utility.yul\":9062:9088   */\n      swap1\n      pop\n        /* \"#utility.yul\":9134:9143   */\n      dup2\n        /* \"#utility.yul\":9128:9132   */\n      dup2\n        /* \"#utility.yul\":9124:9144   */\n      sub\n        /* \"#utility.yul\":9120:9121   */\n      0x00\n        /* \"#utility.yul\":9109:9118   */\n      dup4\n        /* \"#utility.yul\":9105:9122   */\n      add\n        /* \"#utility.yul\":9098:9145   */\n      mstore\n        /* \"#utility.yul\":9162:9293   */\n      tag_246\n        /* \"#utility.yul\":9288:9292   */\n      dup2\n        /* \"#utility.yul\":9162:9293   */\n      tag_195\n      jump\t// in\n    tag_246:\n        /* \"#utility.yul\":9154:9293   */\n      swap1\n      pop\n        /* \"#utility.yul\":8881:9300   */\n      swap2\n      swap1\n      pop\n      jump\t// out\n        /* \"#utility.yul\":9306:9725   */\n    tag_56:\n        /* \"#utility.yul\":9472:9476   */\n      0x00\n        /* \"#utility.yul\":9510:9512   */\n      0x20\n        /* \"#utility.yul\":9499:9508   */\n      dup3\n        /* \"#utility.yul\":9495:9513   */\n      add\n        /* \"#utility.yul\":9487:9513   */\n      swap1\n      pop\n        /* \"#utility.yul\":9559:9568   */\n      dup2\n        /* \"#utility.yul\":9553:9557   */\n      dup2\n        /* \"#utility.yul\":9549:9569   */\n      sub\n        /* \"#utility.yul\":9545:9546   */\n      0x00\n        /* \"#utility.yul\":9534:9543   */\n      dup4\n        /* \"#utility.yul\":9530:9547   */\n      add\n        /* \"#utility.yul\":9523:9570   */\n      mstore\n        /* \"#utility.yul\":9587:9718   */\n      tag_248\n        /* \"#utility.yul\":9713:9717   */\n      dup2\n        /* \"#utility.yul\":9587:9718   */\n      tag_200\n      jump\t// in\n    tag_248:\n        /* \"#utility.yul\":9579:9718   */\n      swap1\n      pop\n        /* \"#utility.yul\":9306:9725   */\n      swap2\n      swap1\n      pop\n      jump\t// out\n        /* \"#utility.yul\":9731:10150   */\n    tag_79:\n        /* \"#utility.yul\":9897:9901   */\n      0x00\n        /* \"#utility.yul\":9935:9937   */\n      0x20\n        /* \"#utility.yul\":9924:9933   */\n      dup3\n        /* \"#utility.yul\":9920:9938   */\n      add\n        /* \"#utility.yul\":9912:9938   */\n      swap1\n      pop\n        /* \"#utility.yul\":9984:9993   */\n      dup2\n        /* \"#utility.yul\":9978:9982   */\n      dup2\n        /* \"#utility.yul\":9974:9994   */\n      sub\n        /* \"#utility.yul\":9970:9971   */\n      0x00\n        /* \"#utility.yul\":9959:9968   */\n      dup4\n        /* \"#utility.yul\":9955:9972   */\n      add\n        /* \"#utility.yul\":9948:9995   */\n      mstore\n        /* \"#utility.yul\":10012:10143   */\n      tag_250\n        /* \"#utility.yul\":10138:10142   */\n      dup2\n        /* \"#utility.yul\":10012:10143   */\n      tag_205\n      jump\t// in\n    tag_250:\n        /* \"#utility.yul\":10004:10143   */\n      swap1\n      pop\n        /* \"#utility.yul\":9731:10150   */\n      swap2\n      swap1\n      pop\n      jump\t// out\n        /* \"#utility.yul\":10237:10406   */\n    tag_182:\n        /* \"#utility.yul\":10321:10332   */\n      0x00\n        /* \"#utility.yul\":10355:10361   */\n      dup3\n        /* \"#utility.yul\":10350:10353   */\n      dup3\n        /* \"#utility.yul\":10343:10362   */\n      mstore\n        /* \"#utility.yul\":10395:10399   */\n      0x20\n        /* \"#utility.yul\":10390:10393   */\n      dup3\n        /* \"#utility.yul\":10386:10400   */\n      add\n        /* \"#utility.yul\":10371:10400   */\n      swap1\n      pop\n        /* \"#utility.yul\":10237:10406   */\n      swap3\n      swap2\n      pop\n      pop\n      jump\t// out\n        /* \"#utility.yul\":10412:10717   */\n    tag_72:\n        /* \"#utility.yul\":10452:10455   */\n      0x00\n        /* \"#utility.yul\":10471:10491   */\n      tag_255\n        /* \"#utility.yul\":10489:10490   */\n      dup3\n        /* \"#utility.yul\":10471:10491   */\n      tag_219\n      jump\t// in\n    tag_255:\n        /* \"#utility.yul\":10466:10491   */\n      swap2\n      pop\n        /* \"#utility.yul\":10505:10525   */\n      tag_256\n        /* \"#utility.yul\":10523:10524   */\n      dup4\n        /* \"#utility.yul\":10505:10525   */\n      tag_219\n      jump\t// in\n    tag_256:\n        /* \"#utility.yul\":10500:10525   */\n      swap3\n      pop\n        /* \"#utility.yul\":10659:10660   */\n      dup3\n        /* \"#utility.yul\":10591:10657   */\n      0xffffffffffffffffffffffffffffffffffffffffffffffffffffffffffffffff\n        /* \"#utility.yul\":10587:10661   */\n      sub\n        /* \"#utility.yul\":10584:10585   */\n      dup3\n        /* \"#utility.yul\":10581:10662   */\n      gt\n        /* \"#utility.yul\":10578:10685   */\n      iszero\n      tag_257\n      jumpi\n        /* \"#utility.yul\":10665:10683   */\n      tag_258\n      tag_259\n      jump\t// in\n    tag_258:\n        /* \"#utility.yul\":10578:10685   */\n    tag_257:\n        /* \"#utility.yul\":10709:10710   */\n      dup3\n        /* \"#utility.yul\":10706:10707   */\n      dup3\n        /* \"#utility.yul\":10702:10711   */\n      add\n        /* \"#utility.yul\":10695:10711   */\n      swap1\n      pop\n        /* \"#utility.yul\":10412:10717   */\n      swap3\n      swap2\n      pop\n      pop\n      jump\t// out\n        /* \"#utility.yul\":10723:10914   */\n    tag_118:\n        /* \"#utility.yul\":10763:10767   */\n      0x00\n        /* \"#utility.yul\":10783:10803   */\n      tag_261\n        /* \"#utility.yul\":10801:10802   */\n      dup3\n        /* \"#utility.yul\":10783:10803   */\n      tag_219\n      jump\t// in\n    tag_261:\n        /* \"#utility.yul\":10778:10803   */\n      swap2\n      pop\n        /* \"#utility.yul\":10817:10837   */\n      tag_262\n        /* \"#utility.yul\":10835:10836   */\n      dup4\n        /* \"#utility.yul\":10817:10837   */\n      tag_219\n      jump\t// in\n    tag_262:\n        /* \"#utility.yul\":10812:10837   */\n      swap3\n      pop\n        /* \"#utility.yul\":10856:10857   */\n      dup3\n        /* \"#utility.yul\":10853:10854   */\n      dup3\n        /* \"#utility.yul\":10850:10858   */\n      lt\n        /* \"#utility.yul\":10847:10881   */\n      iszero\n      tag_263\n      jumpi\n        /* \"#utility.yul\":10861:10879   */\n      tag_264\n      tag_259\n      jump\t// in\n    tag_264:\n        /* \"#utility.yul\":10847:10881   */\n    tag_263:\n        /* \"#utility.yul\":10906:10907   */\n      dup3\n        /* \"#utility.yul\":10903:10904   */\n      dup3\n        /* \"#utility.yul\":10899:10908   */\n      sub\n        /* \"#utility.yul\":10891:10908   */\n      swap1\n      pop\n        /* \"#utility.yul\":10723:10914   */\n      swap3\n      swap2\n      pop\n      pop\n      jump\t// out\n        /* \"#utility.yul\":10920:11016   */\n    tag_171:\n        /* \"#utility.yul\":10957:10964   */\n      0x00\n        /* \"#utility.yul\":10986:11010   */\n      tag_266\n        /* \"#utility.yul\":11004:11009   */\n      dup3\n        /* \"#utility.yul\":10986:11010   */\n      tag_267\n      jump\t// in\n    tag_266:\n        /* \"#utility.yul\":10975:11010   */\n      swap1\n      pop\n        /* \"#utility.yul\":10920:11016   */\n      swap2\n      swap1\n      pop\n      jump\t// out\n        /* \"#utility.yul\":11022:11112   */\n    tag_178:\n        /* \"#utility.yul\":11056:11063   */\n      0x00\n        /* \"#utility.yul\":11099:11104   */\n      dup2\n        /* \"#utility.yul\":11092:11105   */\n      iszero\n        /* \"#utility.yul\":11085:11106   */\n      iszero\n        /* \"#utility.yul\":11074:11106   */\n      swap1\n      pop\n        /* \"#utility.yul\":11022:11112   */\n      swap2\n      swap1\n      pop\n      jump\t// out\n        /* \"#utility.yul\":11118:11244   */\n    tag_267:\n        /* \"#utility.yul\":11155:11162   */\n      0x00\n        /* \"#utility.yul\":11195:11237   */\n      0xffffffffffffffffffffffffffffffffffffffff\n        /* \"#utility.yul\":11188:11193   */\n      dup3\n        /* \"#utility.yul\":11184:11238   */\n      and\n        /* \"#utility.yul\":11173:11238   */\n      swap1\n      pop\n        /* \"#utility.yul\":11118:11244   */\n      swap2\n      swap1\n      pop\n      jump\t// out\n        /* \"#utility.yul\":11250:11327   */\n    tag_219:\n        /* \"#utility.yul\":11287:11294   */\n      0x00\n        /* \"#utility.yul\":11316:11321   */\n      dup2\n        /* \"#utility.yul\":11305:11321   */\n      swap1\n      pop\n        /* \"#utility.yul\":11250:11327   */\n      swap2\n      swap1\n      pop\n      jump\t// out\n        /* \"#utility.yul\":11333:11513   */\n    tag_259:\n        /* \"#utility.yul\":11381:11458   */\n      0x4e487b7100000000000000000000000000000000000000000000000000000000\n        /* \"#utility.yul\":11378:11379   */\n      0x00\n        /* \"#utility.yul\":11371:11459   */\n      mstore\n        /* \"#utility.yul\":11478:11482   */\n      0x11\n        /* \"#utility.yul\":11475:11476   */\n      0x04\n        /* \"#utility.yul\":11468:11483   */\n      mstore\n        /* \"#utility.yul\":11502:11506   */\n      0x24\n        /* \"#utility.yul\":11499:11500   */\n      0x00\n        /* \"#utility.yul\":11492:11507   */\n      revert\n        /* \"#utility.yul\":11642:11759   */\n    tag_154:\n        /* \"#utility.yul\":11751:11752   */\n      0x00\n        /* \"#utility.yul\":11748:11749   */\n      dup1\n        /* \"#utility.yul\":11741:11753   */\n      revert\n        /* \"#utility.yul\":11765:11942   */\n    tag_184:\n        /* \"#utility.yul\":11905:11934   */\n      0x4552524f523a20494e53554646494349454e542042414c414e43450000000000\n        /* \"#utility.yul\":11901:11902   */\n      0x00\n        /* \"#utility.yul\":11893:11899   */\n      dup3\n        /* \"#utility.yul\":11889:11903   */\n      add\n        /* \"#utility.yul\":11882:11935   */\n      mstore\n        /* \"#utility.yul\":11765:11942   */\n      pop\n      jump\t// out\n        /* \"#utility.yul\":11948:12173   */\n    tag_189:\n        /* \"#utility.yul\":12088:12122   */\n      0x4f776e61626c653a206e6577206f776e657220697320746865207a65726f2061\n        /* \"#utility.yul\":12084:12085   */\n      0x00\n        /* \"#utility.yul\":12076:12082   */\n      dup3\n        /* \"#utility.yul\":12072:12086   */\n      add\n        /* \"#utility.yul\":12065:12123   */\n      mstore\n        /* \"#utility.yul\":12157:12165   */\n      0x6464726573730000000000000000000000000000000000000000000000000000\n        /* \"#utility.yul\":12152:12154   */\n      0x20\n        /* \"#utility.yul\":12144:12150   */\n      dup3\n        /* \"#utility.yul\":12140:12155   */\n      add\n        /* \"#utility.yul\":12133:12166   */\n      mstore\n        /* \"#utility.yul\":11948:12173   */\n      pop\n      jump\t// out\n        /* \"#utility.yul\":12179:12351   */\n    tag_194:\n        /* \"#utility.yul\":12319:12343   */\n      0x5374616b696e67204973204e6f7420456e61626c656400000000000000000000\n        /* \"#utility.yul\":12315:12316   */\n      0x00\n        /* \"#utility.yul\":12307:12313   */\n      dup3\n        /* \"#utility.yul\":12303:12317   */\n      add\n        /* \"#utility.yul\":12296:12344   */\n      mstore\n        /* \"#utility.yul\":12179:12351   */\n      pop\n      jump\t// out\n        /* \"#utility.yul\":12357:12527   */\n    tag_199:\n        /* \"#utility.yul\":12497:12519   */\n      0x4552524f523a204d4158494d554d205354414b45000000000000000000000000\n        /* \"#utility.yul\":12493:12494   */\n      0x00\n        /* \"#utility.yul\":12485:12491   */\n      dup3\n        /* \"#utility.yul\":12481:12495   */\n      add\n        /* \"#utility.yul\":12474:12520   */\n      mstore\n        /* \"#utility.yul\":12357:12527   */\n      pop\n      jump\t// out\n        /* \"#utility.yul\":12533:12715   */\n    tag_204:\n        /* \"#utility.yul\":12673:12707   */\n      0x4f776e61626c653a2063616c6c6572206973206e6f7420746865206f776e6572\n        /* \"#utility.yul\":12669:12670   */\n      0x00\n        /* \"#utility.yul\":12661:12667   */\n      dup3\n        /* \"#utility.yul\":12657:12671   */\n      add\n        /* \"#utility.yul\":12650:12708   */\n      mstore\n        /* \"#utility.yul\":12533:12715   */\n      pop\n      jump\t// out\n        /* \"#utility.yul\":12721:12891   */\n    tag_209:\n        /* \"#utility.yul\":12861:12883   */\n      0x4552524f523a204d494e494d554d205354414b45000000000000000000000000\n        /* \"#utility.yul\":12857:12858   */\n      0x00\n        /* \"#utility.yul\":12849:12855   */\n      dup3\n        /* \"#utility.yul\":12845:12859   */\n      add\n        /* \"#utility.yul\":12838:12884   */\n      mstore\n        /* \"#utility.yul\":12721:12891   */\n      pop\n      jump\t// out\n        /* \"#utility.yul\":12897:13019   */\n    tag_139:\n        /* \"#utility.yul\":12970:12994   */\n      tag_282\n        /* \"#utility.yul\":12988:12993   */\n      dup2\n        /* \"#utility.yul\":12970:12994   */\n      tag_171\n      jump\t// in\n    tag_282:\n        /* \"#utility.yul\":12963:12968   */\n      dup2\n        /* \"#utility.yul\":12960:12995   */\n      eq\n        /* \"#utility.yul\":12950:13013   */\n      tag_283\n      jumpi\n        /* \"#utility.yul\":13009:13010   */\n      0x00\n        /* \"#utility.yul\":13006:13007   */\n      dup1\n        /* \"#utility.yul\":12999:13011   */\n      revert\n        /* \"#utility.yul\":12950:13013   */\n    tag_283:\n        /* \"#utility.yul\":12897:13019   */\n      pop\n      jump\t// out\n        /* \"#utility.yul\":13025:13141   */\n    tag_143:\n        /* \"#utility.yul\":13095:13116   */\n      tag_285\n        /* \"#utility.yul\":13110:13115   */\n      dup2\n        /* \"#utility.yul\":13095:13116   */\n      tag_178\n      jump\t// in\n    tag_285:\n        /* \"#utility.yul\":13088:13093   */\n      dup2\n        /* \"#utility.yul\":13085:13117   */\n      eq\n        /* \"#utility.yul\":13075:13135   */\n      tag_286\n      jumpi\n        /* \"#utility.yul\":13131:13132   */\n      0x00\n        /* \"#utility.yul\":13128:13129   */\n      dup1\n        /* \"#utility.yul\":13121:13133   */\n      revert\n        /* \"#utility.yul\":13075:13135   */\n    tag_286:\n        /* \"#utility.yul\":13025:13141   */\n      pop\n      jump\t// out\n        /* \"#utility.yul\":13147:13269   */\n    tag_147:\n        /* \"#utility.yul\":13220:13244   */\n      tag_288\n        /* \"#utility.yul\":13238:13243   */\n      dup2\n        /* \"#utility.yul\":13220:13244   */\n      tag_219\n      jump\t// in\n    tag_288:\n        /* \"#utility.yul\":13213:13218   */\n      dup2\n        /* \"#utility.yul\":13210:13245   */\n      eq\n        /* \"#utility.yul\":13200:13263   */\n      tag_289\n      jumpi\n        /* \"#utility.yul\":13259:13260   */\n      0x00\n        /* \"#utility.yul\":13256:13257   */\n      dup1\n        /* \"#utility.yul\":13249:13261   */\n      revert\n        /* \"#utility.yul\":13200:13263   */\n    tag_289:\n        /* \"#utility.yul\":13147:13269   */\n      pop\n      jump\t// out\n\n    auxdata: 0xa26469706673582212209ed78c29c8fd10dd1ed41382332d7956aa18f9151b23a4a2707d03398caea85064736f6c63430008070033\n}\n",
				"bytecode": {
					"linkReferences": {},
					"object": "608060405260006002556000600360006101000a81548160ff02191690831515021790555034801561003057600080fd5b5061004d61004261005260201b60201c565b61005a60201b60201c565b61011e565b600033905090565b60008060009054906101000a900473ffffffffffffffffffffffffffffffffffffffff169050816000806101000a81548173ffffffffffffffffffffffffffffffffffffffff021916908373ffffffffffffffffffffffffffffffffffffffff1602179055508173ffffffffffffffffffffffffffffffffffffffff168173ffffffffffffffffffffffffffffffffffffffff167f8be0079c531659141344cd1fd0a4f28419497f9722a3daafe3b4186f6b6457e060405160405180910390a35050565b6113b98061012d6000396000f3fe60806040526004361061007f5760003560e01c8063da917aea1161004e578063da917aea1461010a578063db56892214610135578063df6a8a151461015e578063f2fde38b1461018757610086565b806364cb560c14610088578063715018a61461009f5780638da5cb5b146100b6578063ad95b1c6146100e157610086565b3661008657005b005b34801561009457600080fd5b5061009d6101b0565b005b3480156100ab57600080fd5b506100b4610258565b005b3480156100c257600080fd5b506100cb6102e0565b6040516100d89190610f70565b60405180910390f35b3480156100ed57600080fd5b5061010860048036038101906101039190610da4565b610309565b005b34801561011657600080fd5b5061011f6107a8565b60405161012c9190611030565b60405180910390f35b34801561014157600080fd5b5061015c60048036038101906101579190610d4a565b6107bb565b005b34801561016a57600080fd5b5061018560048036038101906101809190610da4565b61087b565b005b34801561019357600080fd5b506101ae60048036038101906101a99190610d4a565b610b32565b005b6101b8610c2a565b73ffffffffffffffffffffffffffffffffffffffff166101d66102e0565b73ffffffffffffffffffffffffffffffffffffffff161461022c576040517f08c379a0000000000000000000000000000000000000000000000000000000008152600401610223906110cb565b60405180910390fd5b600360009054906101000a900460ff1615600360006101000a81548160ff021916908315150217905550565b610260610c2a565b73ffffffffffffffffffffffffffffffffffffffff1661027e6102e0565b73ffffffffffffffffffffffffffffffffffffffff16146102d4576040517f08c379a00000000000000000000000000000000000000000000000000000000081526004016102cb906110cb565b60405180910390fd5b6102de6000610c32565b565b60008060009054906101000a900473ffffffffffffffffffffffffffffffffffffffff16905090565b600360009054906101000a900460ff16610358576040517f08c379a000000000000000000000000000000000000000000000000000000000815260040161034f9061108b565b60405180910390fd5b69d3c21bcecceda100000081600560003373ffffffffffffffffffffffffffffffffffffffff1673ffffffffffffffffffffffffffffffffffffffff168152602001908152602001600020546103ae919061111c565b10156103ef576040517f08c379a00000000000000000000000000000000000000000000000000000000081526004016103e6906110ab565b60405180910390fd5b678ac7230489e8000081600560003373ffffffffffffffffffffffffffffffffffffffff1673ffffffffffffffffffffffffffffffffffffffff16815260200190815260200160002054610443919061111c565b1115610484576040517f08c379a000000000000000000000000000000000000000000000000000000000815260040161047b906110eb565b60405180910390fd5b80600160009054906101000a900473ffffffffffffffffffffffffffffffffffffffff1673ffffffffffffffffffffffffffffffffffffffff166370a08231336040518263ffffffff1660e01b81526004016104e09190610f70565b60206040518083038186803b1580156104f857600080fd5b505afa15801561050c573d6000803e3d6000fd5b505050506040513d601f19601f820116820180604052508101906105309190610dd1565b1015610571576040517f08c379a00000000000000000000000000000000000000000000000000000000081526004016105689061104b565b60405180910390fd5b600160009054906101000a900473ffffffffffffffffffffffffffffffffffffffff1673ffffffffffffffffffffffffffffffffffffffff166323b872dd3330846040518463ffffffff1660e01b81526004016105d093929190610f8b565b602060405180830381600087803b1580156105ea57600080fd5b505af11580156105fe573d6000803e3d6000fd5b505050506040513d601f19601f820116820180604052508101906106229190610d77565b5080600560003373ffffffffffffffffffffffffffffffffffffffff1673ffffffffffffffffffffffffffffffffffffffff1681526020019081526020016000206000828254610672919061111c565b92505081905550600060405180608001604052803373ffffffffffffffffffffffffffffffffffffffff16815260200183815260200142815260200160008152509050806004600060016002546106c9919061111c565b815260200190815260200160002060008201518160000160006101000a81548173ffffffffffffffffffffffffffffffffffffffff021916908373ffffffffffffffffffffffffffffffffffffffff1602179055506020820151816001015560408201518160020155606082015181600301559050507f4893ba24a61962c26d899bdc2f219eb2486292d793493c0cc5be1d3bebe9bba6336001600254610770919061111c565b83426040516107829493929190610feb565b60405180910390a160016002600082825461079d919061111c565b925050819055505050565b600360009054906101000a900460ff1681565b6107c3610c2a565b73ffffffffffffffffffffffffffffffffffffffff166107e16102e0565b73ffffffffffffffffffffffffffffffffffffffff1614610837576040517f08c379a000000000000000000000000000000000000000000000000000000000815260040161082e906110cb565b60405180910390fd5b80600160006101000a81548173ffffffffffffffffffffffffffffffffffffffff021916908373ffffffffffffffffffffffffffffffffffffffff16021790555050565b80600560003373ffffffffffffffffffffffffffffffffffffffff1673ffffffffffffffffffffffffffffffffffffffff1681526020019081526020016000205411156108fd576040517f08c379a00000000000000000000000000000000000000000000000000000000081526004016108f49061104b565b60405180910390fd5b600160009054906101000a900473ffffffffffffffffffffffffffffffffffffffff1673ffffffffffffffffffffffffffffffffffffffff1663a9059cbb33836040518363ffffffff1660e01b815260040161095a929190610fc2565b602060405180830381600087803b15801561097457600080fd5b505af1158015610988573d6000803e3d6000fd5b505050506040513d601f19601f820116820180604052508101906109ac9190610d77565b5080600560003373ffffffffffffffffffffffffffffffffffffffff1673ffffffffffffffffffffffffffffffffffffffff16815260200190815260200160002060008282546109fc9190611172565b92505081905550600060405180608001604052803373ffffffffffffffffffffffffffffffffffffffff1681526020018381526020014281526020016000815250905080600460006001600254610a53919061111c565b815260200190815260200160002060008201518160000160006101000a81548173ffffffffffffffffffffffffffffffffffffffff021916908373ffffffffffffffffffffffffffffffffffffffff1602179055506020820151816001015560408201518160020155606082015181600301559050507f4893ba24a61962c26d899bdc2f219eb2486292d793493c0cc5be1d3bebe9bba6336001600254610afa919061111c565b8342604051610b0c9493929190610feb565b60405180910390a1600160026000828254610b27919061111c565b925050819055505050565b610b3a610c2a565b73ffffffffffffffffffffffffffffffffffffffff16610b586102e0565b73ffffffffffffffffffffffffffffffffffffffff1614610bae576040517f08c379a0000000000000000000000000000000000000000000000000000000008152600401610ba5906110cb565b60405180910390fd5b600073ffffffffffffffffffffffffffffffffffffffff168173ffffffffffffffffffffffffffffffffffffffff161415610c1e576040517f08c379a0000000000000000000000000000000000000000000000000000000008152600401610c159061106b565b60405180910390fd5b610c2781610c32565b50565b600033905090565b60008060009054906101000a900473ffffffffffffffffffffffffffffffffffffffff169050816000806101000a81548173ffffffffffffffffffffffffffffffffffffffff021916908373ffffffffffffffffffffffffffffffffffffffff1602179055508173ffffffffffffffffffffffffffffffffffffffff168173ffffffffffffffffffffffffffffffffffffffff167f8be0079c531659141344cd1fd0a4f28419497f9722a3daafe3b4186f6b6457e060405160405180910390a35050565b600081359050610d058161133e565b92915050565b600081519050610d1a81611355565b92915050565b600081359050610d2f8161136c565b92915050565b600081519050610d448161136c565b92915050565b600060208284031215610d6057610d5f61121d565b5b6000610d6e84828501610cf6565b91505092915050565b600060208284031215610d8d57610d8c61121d565b5b6000610d9b84828501610d0b565b91505092915050565b600060208284031215610dba57610db961121d565b5b6000610dc884828501610d20565b91505092915050565b600060208284031215610de757610de661121d565b5b6000610df584828501610d35565b91505092915050565b610e07816111a6565b82525050565b610e16816111a6565b82525050565b610e25816111b8565b82525050565b6000610e38601b8361110b565b9150610e4382611222565b602082019050919050565b6000610e5b60268361110b565b9150610e668261124b565b604082019050919050565b6000610e7e60168361110b565b9150610e898261129a565b602082019050919050565b6000610ea160148361110b565b9150610eac826112c3565b602082019050919050565b6000610ec460208361110b565b9150610ecf826112ec565b602082019050919050565b6000610ee760148361110b565b9150610ef282611315565b602082019050919050565b608082016000820151610f136000850182610dfe565b506020820151610f266020850182610f52565b506040820151610f396040850182610f52565b506060820151610f4c6060850182610f52565b50505050565b610f5b816111e4565b82525050565b610f6a816111e4565b82525050565b6000602082019050610f856000830184610e0d565b92915050565b6000606082019050610fa06000830186610e0d565b610fad6020830185610e0d565b610fba6040830184610f61565b949350505050565b6000604082019050610fd76000830185610e0d565b610fe46020830184610f61565b9392505050565b600060e0820190506110006000830187610e0d565b61100d6020830186610f61565b61101a6040830185610efd565b61102760c0830184610f61565b95945050505050565b60006020820190506110456000830184610e1c565b92915050565b6000602082019050818103600083015261106481610e2b565b9050919050565b6000602082019050818103600083015261108481610e4e565b9050919050565b600060208201905081810360008301526110a481610e71565b9050919050565b600060208201905081810360008301526110c481610e94565b9050919050565b600060208201905081810360008301526110e481610eb7565b9050919050565b6000602082019050818103600083015261110481610eda565b9050919050565b600082825260208201905092915050565b6000611127826111e4565b9150611132836111e4565b9250827fffffffffffffffffffffffffffffffffffffffffffffffffffffffffffffffff03821115611167576111666111ee565b5b828201905092915050565b600061117d826111e4565b9150611188836111e4565b92508282101561119b5761119a6111ee565b5b828203905092915050565b60006111b1826111c4565b9050919050565b60008115159050919050565b600073ffffffffffffffffffffffffffffffffffffffff82169050919050565b6000819050919050565b7f4e487b7100000000000000000000000000000000000000000000000000000000600052601160045260246000fd5b600080fd5b7f4552524f523a20494e53554646494349454e542042414c414e43450000000000600082015250565b7f4f776e61626c653a206e6577206f776e657220697320746865207a65726f206160008201527f6464726573730000000000000000000000000000000000000000000000000000602082015250565b7f5374616b696e67204973204e6f7420456e61626c656400000000000000000000600082015250565b7f4552524f523a204d4158494d554d205354414b45000000000000000000000000600082015250565b7f4f776e61626c653a2063616c6c6572206973206e6f7420746865206f776e6572600082015250565b7f4552524f523a204d494e494d554d205354414b45000000000000000000000000600082015250565b611347816111a6565b811461135257600080fd5b50565b61135e816111b8565b811461136957600080fd5b50565b611375816111e4565b811461138057600080fd5b5056fea26469706673582212209ed78c29c8fd10dd1ed41382332d7956aa18f9151b23a4a2707d03398caea85064736f6c63430008070033",
					"opcodes": "PUSH1 0x80 PUSH1 0x40 MSTORE PUSH1 0x0 PUSH1 0x2 SSTORE PUSH1 0x0 PUSH1 0x3 PUSH1 0x0 PUSH2 0x100 EXP DUP2 SLOAD DUP2 PUSH1 0xFF MUL NOT AND SWAP1 DUP4 ISZERO ISZERO MUL OR SWAP1 SSTORE POP CALLVALUE DUP1 ISZERO PUSH2 0x30 JUMPI PUSH1 0x0 DUP1 REVERT JUMPDEST POP PUSH2 0x4D PUSH2 0x42 PUSH2 0x52 PUSH1 0x20 SHL PUSH1 0x20 SHR JUMP JUMPDEST PUSH2 0x5A PUSH1 0x20 SHL PUSH1 0x20 SHR JUMP JUMPDEST PUSH2 0x11E JUMP JUMPDEST PUSH1 0x0 CALLER SWAP1 POP SWAP1 JUMP JUMPDEST PUSH1 0x0 DUP1 PUSH1 0x0 SWAP1 SLOAD SWAP1 PUSH2 0x100 EXP SWAP1 DIV PUSH20 0xFFFFFFFFFFFFFFFFFFFFFFFFFFFFFFFFFFFFFFFF AND SWAP1 POP DUP2 PUSH1 0x0 DUP1 PUSH2 0x100 EXP DUP2 SLOAD DUP2 PUSH20 0xFFFFFFFFFFFFFFFFFFFFFFFFFFFFFFFFFFFFFFFF MUL NOT AND SWAP1 DUP4 PUSH20 0xFFFFFFFFFFFFFFFFFFFFFFFFFFFFFFFFFFFFFFFF AND MUL OR SWAP1 SSTORE POP DUP2 PUSH20 0xFFFFFFFFFFFFFFFFFFFFFFFFFFFFFFFFFFFFFFFF AND DUP2 PUSH20 0xFFFFFFFFFFFFFFFFFFFFFFFFFFFFFFFFFFFFFFFF AND PUSH32 0x8BE0079C531659141344CD1FD0A4F28419497F9722A3DAAFE3B4186F6B6457E0 PUSH1 0x40 MLOAD PUSH1 0x40 MLOAD DUP1 SWAP2 SUB SWAP1 LOG3 POP POP JUMP JUMPDEST PUSH2 0x13B9 DUP1 PUSH2 0x12D PUSH1 0x0 CODECOPY PUSH1 0x0 RETURN INVALID PUSH1 0x80 PUSH1 0x40 MSTORE PUSH1 0x4 CALLDATASIZE LT PUSH2 0x7F JUMPI PUSH1 0x0 CALLDATALOAD PUSH1 0xE0 SHR DUP1 PUSH4 0xDA917AEA GT PUSH2 0x4E JUMPI DUP1 PUSH4 0xDA917AEA EQ PUSH2 0x10A JUMPI DUP1 PUSH4 0xDB568922 EQ PUSH2 0x135 JUMPI DUP1 PUSH4 0xDF6A8A15 EQ PUSH2 0x15E JUMPI DUP1 PUSH4 0xF2FDE38B EQ PUSH2 0x187 JUMPI PUSH2 0x86 JUMP JUMPDEST DUP1 PUSH4 0x64CB560C EQ PUSH2 0x88 JUMPI DUP1 PUSH4 0x715018A6 EQ PUSH2 0x9F JUMPI DUP1 PUSH4 0x8DA5CB5B EQ PUSH2 0xB6 JUMPI DUP1 PUSH4 0xAD95B1C6 EQ PUSH2 0xE1 JUMPI PUSH2 0x86 JUMP JUMPDEST CALLDATASIZE PUSH2 0x86 JUMPI STOP JUMPDEST STOP JUMPDEST CALLVALUE DUP1 ISZERO PUSH2 0x94 JUMPI PUSH1 0x0 DUP1 REVERT JUMPDEST POP PUSH2 0x9D PUSH2 0x1B0 JUMP JUMPDEST STOP JUMPDEST CALLVALUE DUP1 ISZERO PUSH2 0xAB JUMPI PUSH1 0x0 DUP1 REVERT JUMPDEST POP PUSH2 0xB4 PUSH2 0x258 JUMP JUMPDEST STOP JUMPDEST CALLVALUE DUP1 ISZERO PUSH2 0xC2 JUMPI PUSH1 0x0 DUP1 REVERT JUMPDEST POP PUSH2 0xCB PUSH2 0x2E0 JUMP JUMPDEST PUSH1 0x40 MLOAD PUSH2 0xD8 SWAP2 SWAP1 PUSH2 0xF70 JUMP JUMPDEST PUSH1 0x40 MLOAD DUP1 SWAP2 SUB SWAP1 RETURN JUMPDEST CALLVALUE DUP1 ISZERO PUSH2 0xED JUMPI PUSH1 0x0 DUP1 REVERT JUMPDEST POP PUSH2 0x108 PUSH1 0x4 DUP1 CALLDATASIZE SUB DUP2 ADD SWAP1 PUSH2 0x103 SWAP2 SWAP1 PUSH2 0xDA4 JUMP JUMPDEST PUSH2 0x309 JUMP JUMPDEST STOP JUMPDEST CALLVALUE DUP1 ISZERO PUSH2 0x116 JUMPI PUSH1 0x0 DUP1 REVERT JUMPDEST POP PUSH2 0x11F PUSH2 0x7A8 JUMP JUMPDEST PUSH1 0x40 MLOAD PUSH2 0x12C SWAP2 SWAP1 PUSH2 0x1030 JUMP JUMPDEST PUSH1 0x40 MLOAD DUP1 SWAP2 SUB SWAP1 RETURN JUMPDEST CALLVALUE DUP1 ISZERO PUSH2 0x141 JUMPI PUSH1 0x0 DUP1 REVERT JUMPDEST POP PUSH2 0x15C PUSH1 0x4 DUP1 CALLDATASIZE SUB DUP2 ADD SWAP1 PUSH2 0x157 SWAP2 SWAP1 PUSH2 0xD4A JUMP JUMPDEST PUSH2 0x7BB JUMP JUMPDEST STOP JUMPDEST CALLVALUE DUP1 ISZERO PUSH2 0x16A JUMPI PUSH1 0x0 DUP1 REVERT JUMPDEST POP PUSH2 0x185 PUSH1 0x4 DUP1 CALLDATASIZE SUB DUP2 ADD SWAP1 PUSH2 0x180 SWAP2 SWAP1 PUSH2 0xDA4 JUMP JUMPDEST PUSH2 0x87B JUMP JUMPDEST STOP JUMPDEST CALLVALUE DUP1 ISZERO PUSH2 0x193 JUMPI PUSH1 0x0 DUP1 REVERT JUMPDEST POP PUSH2 0x1AE PUSH1 0x4 DUP1 CALLDATASIZE SUB DUP2 ADD SWAP1 PUSH2 0x1A9 SWAP2 SWAP1 PUSH2 0xD4A JUMP JUMPDEST PUSH2 0xB32 JUMP JUMPDEST STOP JUMPDEST PUSH2 0x1B8 PUSH2 0xC2A JUMP JUMPDEST PUSH20 0xFFFFFFFFFFFFFFFFFFFFFFFFFFFFFFFFFFFFFFFF AND PUSH2 0x1D6 PUSH2 0x2E0 JUMP JUMPDEST PUSH20 0xFFFFFFFFFFFFFFFFFFFFFFFFFFFFFFFFFFFFFFFF AND EQ PUSH2 0x22C JUMPI PUSH1 0x40 MLOAD PUSH32 0x8C379A000000000000000000000000000000000000000000000000000000000 DUP2 MSTORE PUSH1 0x4 ADD PUSH2 0x223 SWAP1 PUSH2 0x10CB JUMP JUMPDEST PUSH1 0x40 MLOAD DUP1 SWAP2 SUB SWAP1 REVERT JUMPDEST PUSH1 0x3 PUSH1 0x0 SWAP1 SLOAD SWAP1 PUSH2 0x100 EXP SWAP1 DIV PUSH1 0xFF AND ISZERO PUSH1 0x3 PUSH1 0x0 PUSH2 0x100 EXP DUP2 SLOAD DUP2 PUSH1 0xFF MUL NOT AND SWAP1 DUP4 ISZERO ISZERO MUL OR SWAP1 SSTORE POP JUMP JUMPDEST PUSH2 0x260 PUSH2 0xC2A JUMP JUMPDEST PUSH20 0xFFFFFFFFFFFFFFFFFFFFFFFFFFFFFFFFFFFFFFFF AND PUSH2 0x27E PUSH2 0x2E0 JUMP JUMPDEST PUSH20 0xFFFFFFFFFFFFFFFFFFFFFFFFFFFFFFFFFFFFFFFF AND EQ PUSH2 0x2D4 JUMPI PUSH1 0x40 MLOAD PUSH32 0x8C379A000000000000000000000000000000000000000000000000000000000 DUP2 MSTORE PUSH1 0x4 ADD PUSH2 0x2CB SWAP1 PUSH2 0x10CB JUMP JUMPDEST PUSH1 0x40 MLOAD DUP1 SWAP2 SUB SWAP1 REVERT JUMPDEST PUSH2 0x2DE PUSH1 0x0 PUSH2 0xC32 JUMP JUMPDEST JUMP JUMPDEST PUSH1 0x0 DUP1 PUSH1 0x0 SWAP1 SLOAD SWAP1 PUSH2 0x100 EXP SWAP1 DIV PUSH20 0xFFFFFFFFFFFFFFFFFFFFFFFFFFFFFFFFFFFFFFFF AND SWAP1 POP SWAP1 JUMP JUMPDEST PUSH1 0x3 PUSH1 0x0 SWAP1 SLOAD SWAP1 PUSH2 0x100 EXP SWAP1 DIV PUSH1 0xFF AND PUSH2 0x358 JUMPI PUSH1 0x40 MLOAD PUSH32 0x8C379A000000000000000000000000000000000000000000000000000000000 DUP2 MSTORE PUSH1 0x4 ADD PUSH2 0x34F SWAP1 PUSH2 0x108B JUMP JUMPDEST PUSH1 0x40 MLOAD DUP1 SWAP2 SUB SWAP1 REVERT JUMPDEST PUSH10 0xD3C21BCECCEDA1000000 DUP2 PUSH1 0x5 PUSH1 0x0 CALLER PUSH20 0xFFFFFFFFFFFFFFFFFFFFFFFFFFFFFFFFFFFFFFFF AND PUSH20 0xFFFFFFFFFFFFFFFFFFFFFFFFFFFFFFFFFFFFFFFF AND DUP2 MSTORE PUSH1 0x20 ADD SWAP1 DUP2 MSTORE PUSH1 0x20 ADD PUSH1 0x0 KECCAK256 SLOAD PUSH2 0x3AE SWAP2 SWAP1 PUSH2 0x111C JUMP JUMPDEST LT ISZERO PUSH2 0x3EF JUMPI PUSH1 0x40 MLOAD PUSH32 0x8C379A000000000000000000000000000000000000000000000000000000000 DUP2 MSTORE PUSH1 0x4 ADD PUSH2 0x3E6 SWAP1 PUSH2 0x10AB JUMP JUMPDEST PUSH1 0x40 MLOAD DUP1 SWAP2 SUB SWAP1 REVERT JUMPDEST PUSH8 0x8AC7230489E80000 DUP2 PUSH1 0x5 PUSH1 0x0 CALLER PUSH20 0xFFFFFFFFFFFFFFFFFFFFFFFFFFFFFFFFFFFFFFFF AND PUSH20 0xFFFFFFFFFFFFFFFFFFFFFFFFFFFFFFFFFFFFFFFF AND DUP2 MSTORE PUSH1 0x20 ADD SWAP1 DUP2 MSTORE PUSH1 0x20 ADD PUSH1 0x0 KECCAK256 SLOAD PUSH2 0x443 SWAP2 SWAP1 PUSH2 0x111C JUMP JUMPDEST GT ISZERO PUSH2 0x484 JUMPI PUSH1 0x40 MLOAD PUSH32 0x8C379A000000000000000000000000000000000000000000000000000000000 DUP2 MSTORE PUSH1 0x4 ADD PUSH2 0x47B SWAP1 PUSH2 0x10EB JUMP JUMPDEST PUSH1 0x40 MLOAD DUP1 SWAP2 SUB SWAP1 REVERT JUMPDEST DUP1 PUSH1 0x1 PUSH1 0x0 SWAP1 SLOAD SWAP1 PUSH2 0x100 EXP SWAP1 DIV PUSH20 0xFFFFFFFFFFFFFFFFFFFFFFFFFFFFFFFFFFFFFFFF AND PUSH20 0xFFFFFFFFFFFFFFFFFFFFFFFFFFFFFFFFFFFFFFFF AND PUSH4 0x70A08231 CALLER PUSH1 0x40 MLOAD DUP3 PUSH4 0xFFFFFFFF AND PUSH1 0xE0 SHL DUP2 MSTORE PUSH1 0x4 ADD PUSH2 0x4E0 SWAP2 SWAP1 PUSH2 0xF70 JUMP JUMPDEST PUSH1 0x20 PUSH1 0x40 MLOAD DUP1 DUP4 SUB DUP2 DUP7 DUP1 EXTCODESIZE ISZERO DUP1 ISZERO PUSH2 0x4F8 JUMPI PUSH1 0x0 DUP1 REVERT JUMPDEST POP GAS STATICCALL ISZERO DUP1 ISZERO PUSH2 0x50C JUMPI RETURNDATASIZE PUSH1 0x0 DUP1 RETURNDATACOPY RETURNDATASIZE PUSH1 0x0 REVERT JUMPDEST POP POP POP POP PUSH1 0x40 MLOAD RETURNDATASIZE PUSH1 0x1F NOT PUSH1 0x1F DUP3 ADD AND DUP3 ADD DUP1 PUSH1 0x40 MSTORE POP DUP2 ADD SWAP1 PUSH2 0x530 SWAP2 SWAP1 PUSH2 0xDD1 JUMP JUMPDEST LT ISZERO PUSH2 0x571 JUMPI PUSH1 0x40 MLOAD PUSH32 0x8C379A000000000000000000000000000000000000000000000000000000000 DUP2 MSTORE PUSH1 0x4 ADD PUSH2 0x568 SWAP1 PUSH2 0x104B JUMP JUMPDEST PUSH1 0x40 MLOAD DUP1 SWAP2 SUB SWAP1 REVERT JUMPDEST PUSH1 0x1 PUSH1 0x0 SWAP1 SLOAD SWAP1 PUSH2 0x100 EXP SWAP1 DIV PUSH20 0xFFFFFFFFFFFFFFFFFFFFFFFFFFFFFFFFFFFFFFFF AND PUSH20 0xFFFFFFFFFFFFFFFFFFFFFFFFFFFFFFFFFFFFFFFF AND PUSH4 0x23B872DD CALLER ADDRESS DUP5 PUSH1 0x40 MLOAD DUP5 PUSH4 0xFFFFFFFF AND PUSH1 0xE0 SHL DUP2 MSTORE PUSH1 0x4 ADD PUSH2 0x5D0 SWAP4 SWAP3 SWAP2 SWAP1 PUSH2 0xF8B JUMP JUMPDEST PUSH1 0x20 PUSH1 0x40 MLOAD DUP1 DUP4 SUB DUP2 PUSH1 0x0 DUP8 DUP1 EXTCODESIZE ISZERO DUP1 ISZERO PUSH2 0x5EA JUMPI PUSH1 0x0 DUP1 REVERT JUMPDEST POP GAS CALL ISZERO DUP1 ISZERO PUSH2 0x5FE JUMPI RETURNDATASIZE PUSH1 0x0 DUP1 RETURNDATACOPY RETURNDATASIZE PUSH1 0x0 REVERT JUMPDEST POP POP POP POP PUSH1 0x40 MLOAD RETURNDATASIZE PUSH1 0x1F NOT PUSH1 0x1F DUP3 ADD AND DUP3 ADD DUP1 PUSH1 0x40 MSTORE POP DUP2 ADD SWAP1 PUSH2 0x622 SWAP2 SWAP1 PUSH2 0xD77 JUMP JUMPDEST POP DUP1 PUSH1 0x5 PUSH1 0x0 CALLER PUSH20 0xFFFFFFFFFFFFFFFFFFFFFFFFFFFFFFFFFFFFFFFF AND PUSH20 0xFFFFFFFFFFFFFFFFFFFFFFFFFFFFFFFFFFFFFFFF AND DUP2 MSTORE PUSH1 0x20 ADD SWAP1 DUP2 MSTORE PUSH1 0x20 ADD PUSH1 0x0 KECCAK256 PUSH1 0x0 DUP3 DUP3 SLOAD PUSH2 0x672 SWAP2 SWAP1 PUSH2 0x111C JUMP JUMPDEST SWAP3 POP POP DUP2 SWAP1 SSTORE POP PUSH1 0x0 PUSH1 0x40 MLOAD DUP1 PUSH1 0x80 ADD PUSH1 0x40 MSTORE DUP1 CALLER PUSH20 0xFFFFFFFFFFFFFFFFFFFFFFFFFFFFFFFFFFFFFFFF AND DUP2 MSTORE PUSH1 0x20 ADD DUP4 DUP2 MSTORE PUSH1 0x20 ADD TIMESTAMP DUP2 MSTORE PUSH1 0x20 ADD PUSH1 0x0 DUP2 MSTORE POP SWAP1 POP DUP1 PUSH1 0x4 PUSH1 0x0 PUSH1 0x1 PUSH1 0x2 SLOAD PUSH2 0x6C9 SWAP2 SWAP1 PUSH2 0x111C JUMP JUMPDEST DUP2 MSTORE PUSH1 0x20 ADD SWAP1 DUP2 MSTORE PUSH1 0x20 ADD PUSH1 0x0 KECCAK256 PUSH1 0x0 DUP3 ADD MLOAD DUP2 PUSH1 0x0 ADD PUSH1 0x0 PUSH2 0x100 EXP DUP2 SLOAD DUP2 PUSH20 0xFFFFFFFFFFFFFFFFFFFFFFFFFFFFFFFFFFFFFFFF MUL NOT AND SWAP1 DUP4 PUSH20 0xFFFFFFFFFFFFFFFFFFFFFFFFFFFFFFFFFFFFFFFF AND MUL OR SWAP1 SSTORE POP PUSH1 0x20 DUP3 ADD MLOAD DUP2 PUSH1 0x1 ADD SSTORE PUSH1 0x40 DUP3 ADD MLOAD DUP2 PUSH1 0x2 ADD SSTORE PUSH1 0x60 DUP3 ADD MLOAD DUP2 PUSH1 0x3 ADD SSTORE SWAP1 POP POP PUSH32 0x4893BA24A61962C26D899BDC2F219EB2486292D793493C0CC5BE1D3BEBE9BBA6 CALLER PUSH1 0x1 PUSH1 0x2 SLOAD PUSH2 0x770 SWAP2 SWAP1 PUSH2 0x111C JUMP JUMPDEST DUP4 TIMESTAMP PUSH1 0x40 MLOAD PUSH2 0x782 SWAP5 SWAP4 SWAP3 SWAP2 SWAP1 PUSH2 0xFEB JUMP JUMPDEST PUSH1 0x40 MLOAD DUP1 SWAP2 SUB SWAP1 LOG1 PUSH1 0x1 PUSH1 0x2 PUSH1 0x0 DUP3 DUP3 SLOAD PUSH2 0x79D SWAP2 SWAP1 PUSH2 0x111C JUMP JUMPDEST SWAP3 POP POP DUP2 SWAP1 SSTORE POP POP POP JUMP JUMPDEST PUSH1 0x3 PUSH1 0x0 SWAP1 SLOAD SWAP1 PUSH2 0x100 EXP SWAP1 DIV PUSH1 0xFF AND DUP2 JUMP JUMPDEST PUSH2 0x7C3 PUSH2 0xC2A JUMP JUMPDEST PUSH20 0xFFFFFFFFFFFFFFFFFFFFFFFFFFFFFFFFFFFFFFFF AND PUSH2 0x7E1 PUSH2 0x2E0 JUMP JUMPDEST PUSH20 0xFFFFFFFFFFFFFFFFFFFFFFFFFFFFFFFFFFFFFFFF AND EQ PUSH2 0x837 JUMPI PUSH1 0x40 MLOAD PUSH32 0x8C379A000000000000000000000000000000000000000000000000000000000 DUP2 MSTORE PUSH1 0x4 ADD PUSH2 0x82E SWAP1 PUSH2 0x10CB JUMP JUMPDEST PUSH1 0x40 MLOAD DUP1 SWAP2 SUB SWAP1 REVERT JUMPDEST DUP1 PUSH1 0x1 PUSH1 0x0 PUSH2 0x100 EXP DUP2 SLOAD DUP2 PUSH20 0xFFFFFFFFFFFFFFFFFFFFFFFFFFFFFFFFFFFFFFFF MUL NOT AND SWAP1 DUP4 PUSH20 0xFFFFFFFFFFFFFFFFFFFFFFFFFFFFFFFFFFFFFFFF AND MUL OR SWAP1 SSTORE POP POP JUMP JUMPDEST DUP1 PUSH1 0x5 PUSH1 0x0 CALLER PUSH20 0xFFFFFFFFFFFFFFFFFFFFFFFFFFFFFFFFFFFFFFFF AND PUSH20 0xFFFFFFFFFFFFFFFFFFFFFFFFFFFFFFFFFFFFFFFF AND DUP2 MSTORE PUSH1 0x20 ADD SWAP1 DUP2 MSTORE PUSH1 0x20 ADD PUSH1 0x0 KECCAK256 SLOAD GT ISZERO PUSH2 0x8FD JUMPI PUSH1 0x40 MLOAD PUSH32 0x8C379A000000000000000000000000000000000000000000000000000000000 DUP2 MSTORE PUSH1 0x4 ADD PUSH2 0x8F4 SWAP1 PUSH2 0x104B JUMP JUMPDEST PUSH1 0x40 MLOAD DUP1 SWAP2 SUB SWAP1 REVERT JUMPDEST PUSH1 0x1 PUSH1 0x0 SWAP1 SLOAD SWAP1 PUSH2 0x100 EXP SWAP1 DIV PUSH20 0xFFFFFFFFFFFFFFFFFFFFFFFFFFFFFFFFFFFFFFFF AND PUSH20 0xFFFFFFFFFFFFFFFFFFFFFFFFFFFFFFFFFFFFFFFF AND PUSH4 0xA9059CBB CALLER DUP4 PUSH1 0x40 MLOAD DUP4 PUSH4 0xFFFFFFFF AND PUSH1 0xE0 SHL DUP2 MSTORE PUSH1 0x4 ADD PUSH2 0x95A SWAP3 SWAP2 SWAP1 PUSH2 0xFC2 JUMP JUMPDEST PUSH1 0x20 PUSH1 0x40 MLOAD DUP1 DUP4 SUB DUP2 PUSH1 0x0 DUP8 DUP1 EXTCODESIZE ISZERO DUP1 ISZERO PUSH2 0x974 JUMPI PUSH1 0x0 DUP1 REVERT JUMPDEST POP GAS CALL ISZERO DUP1 ISZERO PUSH2 0x988 JUMPI RETURNDATASIZE PUSH1 0x0 DUP1 RETURNDATACOPY RETURNDATASIZE PUSH1 0x0 REVERT JUMPDEST POP POP POP POP PUSH1 0x40 MLOAD RETURNDATASIZE PUSH1 0x1F NOT PUSH1 0x1F DUP3 ADD AND DUP3 ADD DUP1 PUSH1 0x40 MSTORE POP DUP2 ADD SWAP1 PUSH2 0x9AC SWAP2 SWAP1 PUSH2 0xD77 JUMP JUMPDEST POP DUP1 PUSH1 0x5 PUSH1 0x0 CALLER PUSH20 0xFFFFFFFFFFFFFFFFFFFFFFFFFFFFFFFFFFFFFFFF AND PUSH20 0xFFFFFFFFFFFFFFFFFFFFFFFFFFFFFFFFFFFFFFFF AND DUP2 MSTORE PUSH1 0x20 ADD SWAP1 DUP2 MSTORE PUSH1 0x20 ADD PUSH1 0x0 KECCAK256 PUSH1 0x0 DUP3 DUP3 SLOAD PUSH2 0x9FC SWAP2 SWAP1 PUSH2 0x1172 JUMP JUMPDEST SWAP3 POP POP DUP2 SWAP1 SSTORE POP PUSH1 0x0 PUSH1 0x40 MLOAD DUP1 PUSH1 0x80 ADD PUSH1 0x40 MSTORE DUP1 CALLER PUSH20 0xFFFFFFFFFFFFFFFFFFFFFFFFFFFFFFFFFFFFFFFF AND DUP2 MSTORE PUSH1 0x20 ADD DUP4 DUP2 MSTORE PUSH1 0x20 ADD TIMESTAMP DUP2 MSTORE PUSH1 0x20 ADD PUSH1 0x0 DUP2 MSTORE POP SWAP1 POP DUP1 PUSH1 0x4 PUSH1 0x0 PUSH1 0x1 PUSH1 0x2 SLOAD PUSH2 0xA53 SWAP2 SWAP1 PUSH2 0x111C JUMP JUMPDEST DUP2 MSTORE PUSH1 0x20 ADD SWAP1 DUP2 MSTORE PUSH1 0x20 ADD PUSH1 0x0 KECCAK256 PUSH1 0x0 DUP3 ADD MLOAD DUP2 PUSH1 0x0 ADD PUSH1 0x0 PUSH2 0x100 EXP DUP2 SLOAD DUP2 PUSH20 0xFFFFFFFFFFFFFFFFFFFFFFFFFFFFFFFFFFFFFFFF MUL NOT AND SWAP1 DUP4 PUSH20 0xFFFFFFFFFFFFFFFFFFFFFFFFFFFFFFFFFFFFFFFF AND MUL OR SWAP1 SSTORE POP PUSH1 0x20 DUP3 ADD MLOAD DUP2 PUSH1 0x1 ADD SSTORE PUSH1 0x40 DUP3 ADD MLOAD DUP2 PUSH1 0x2 ADD SSTORE PUSH1 0x60 DUP3 ADD MLOAD DUP2 PUSH1 0x3 ADD SSTORE SWAP1 POP POP PUSH32 0x4893BA24A61962C26D899BDC2F219EB2486292D793493C0CC5BE1D3BEBE9BBA6 CALLER PUSH1 0x1 PUSH1 0x2 SLOAD PUSH2 0xAFA SWAP2 SWAP1 PUSH2 0x111C JUMP JUMPDEST DUP4 TIMESTAMP PUSH1 0x40 MLOAD PUSH2 0xB0C SWAP5 SWAP4 SWAP3 SWAP2 SWAP1 PUSH2 0xFEB JUMP JUMPDEST PUSH1 0x40 MLOAD DUP1 SWAP2 SUB SWAP1 LOG1 PUSH1 0x1 PUSH1 0x2 PUSH1 0x0 DUP3 DUP3 SLOAD PUSH2 0xB27 SWAP2 SWAP1 PUSH2 0x111C JUMP JUMPDEST SWAP3 POP POP DUP2 SWAP1 SSTORE POP POP POP JUMP JUMPDEST PUSH2 0xB3A PUSH2 0xC2A JUMP JUMPDEST PUSH20 0xFFFFFFFFFFFFFFFFFFFFFFFFFFFFFFFFFFFFFFFF AND PUSH2 0xB58 PUSH2 0x2E0 JUMP JUMPDEST PUSH20 0xFFFFFFFFFFFFFFFFFFFFFFFFFFFFFFFFFFFFFFFF AND EQ PUSH2 0xBAE JUMPI PUSH1 0x40 MLOAD PUSH32 0x8C379A000000000000000000000000000000000000000000000000000000000 DUP2 MSTORE PUSH1 0x4 ADD PUSH2 0xBA5 SWAP1 PUSH2 0x10CB JUMP JUMPDEST PUSH1 0x40 MLOAD DUP1 SWAP2 SUB SWAP1 REVERT JUMPDEST PUSH1 0x0 PUSH20 0xFFFFFFFFFFFFFFFFFFFFFFFFFFFFFFFFFFFFFFFF AND DUP2 PUSH20 0xFFFFFFFFFFFFFFFFFFFFFFFFFFFFFFFFFFFFFFFF AND EQ ISZERO PUSH2 0xC1E JUMPI PUSH1 0x40 MLOAD PUSH32 0x8C379A000000000000000000000000000000000000000000000000000000000 DUP2 MSTORE PUSH1 0x4 ADD PUSH2 0xC15 SWAP1 PUSH2 0x106B JUMP JUMPDEST PUSH1 0x40 MLOAD DUP1 SWAP2 SUB SWAP1 REVERT JUMPDEST PUSH2 0xC27 DUP2 PUSH2 0xC32 JUMP JUMPDEST POP JUMP JUMPDEST PUSH1 0x0 CALLER SWAP1 POP SWAP1 JUMP JUMPDEST PUSH1 0x0 DUP1 PUSH1 0x0 SWAP1 SLOAD SWAP1 PUSH2 0x100 EXP SWAP1 DIV PUSH20 0xFFFFFFFFFFFFFFFFFFFFFFFFFFFFFFFFFFFFFFFF AND SWAP1 POP DUP2 PUSH1 0x0 DUP1 PUSH2 0x100 EXP DUP2 SLOAD DUP2 PUSH20 0xFFFFFFFFFFFFFFFFFFFFFFFFFFFFFFFFFFFFFFFF MUL NOT AND SWAP1 DUP4 PUSH20 0xFFFFFFFFFFFFFFFFFFFFFFFFFFFFFFFFFFFFFFFF AND MUL OR SWAP1 SSTORE POP DUP2 PUSH20 0xFFFFFFFFFFFFFFFFFFFFFFFFFFFFFFFFFFFFFFFF AND DUP2 PUSH20 0xFFFFFFFFFFFFFFFFFFFFFFFFFFFFFFFFFFFFFFFF AND PUSH32 0x8BE0079C531659141344CD1FD0A4F28419497F9722A3DAAFE3B4186F6B6457E0 PUSH1 0x40 MLOAD PUSH1 0x40 MLOAD DUP1 SWAP2 SUB SWAP1 LOG3 POP POP JUMP JUMPDEST PUSH1 0x0 DUP2 CALLDATALOAD SWAP1 POP PUSH2 0xD05 DUP2 PUSH2 0x133E JUMP JUMPDEST SWAP3 SWAP2 POP POP JUMP JUMPDEST PUSH1 0x0 DUP2 MLOAD SWAP1 POP PUSH2 0xD1A DUP2 PUSH2 0x1355 JUMP JUMPDEST SWAP3 SWAP2 POP POP JUMP JUMPDEST PUSH1 0x0 DUP2 CALLDATALOAD SWAP1 POP PUSH2 0xD2F DUP2 PUSH2 0x136C JUMP JUMPDEST SWAP3 SWAP2 POP POP JUMP JUMPDEST PUSH1 0x0 DUP2 MLOAD SWAP1 POP PUSH2 0xD44 DUP2 PUSH2 0x136C JUMP JUMPDEST SWAP3 SWAP2 POP POP JUMP JUMPDEST PUSH1 0x0 PUSH1 0x20 DUP3 DUP5 SUB SLT ISZERO PUSH2 0xD60 JUMPI PUSH2 0xD5F PUSH2 0x121D JUMP JUMPDEST JUMPDEST PUSH1 0x0 PUSH2 0xD6E DUP5 DUP3 DUP6 ADD PUSH2 0xCF6 JUMP JUMPDEST SWAP2 POP POP SWAP3 SWAP2 POP POP JUMP JUMPDEST PUSH1 0x0 PUSH1 0x20 DUP3 DUP5 SUB SLT ISZERO PUSH2 0xD8D JUMPI PUSH2 0xD8C PUSH2 0x121D JUMP JUMPDEST JUMPDEST PUSH1 0x0 PUSH2 0xD9B DUP5 DUP3 DUP6 ADD PUSH2 0xD0B JUMP JUMPDEST SWAP2 POP POP SWAP3 SWAP2 POP POP JUMP JUMPDEST PUSH1 0x0 PUSH1 0x20 DUP3 DUP5 SUB SLT ISZERO PUSH2 0xDBA JUMPI PUSH2 0xDB9 PUSH2 0x121D JUMP JUMPDEST JUMPDEST PUSH1 0x0 PUSH2 0xDC8 DUP5 DUP3 DUP6 ADD PUSH2 0xD20 JUMP JUMPDEST SWAP2 POP POP SWAP3 SWAP2 POP POP JUMP JUMPDEST PUSH1 0x0 PUSH1 0x20 DUP3 DUP5 SUB SLT ISZERO PUSH2 0xDE7 JUMPI PUSH2 0xDE6 PUSH2 0x121D JUMP JUMPDEST JUMPDEST PUSH1 0x0 PUSH2 0xDF5 DUP5 DUP3 DUP6 ADD PUSH2 0xD35 JUMP JUMPDEST SWAP2 POP POP SWAP3 SWAP2 POP POP JUMP JUMPDEST PUSH2 0xE07 DUP2 PUSH2 0x11A6 JUMP JUMPDEST DUP3 MSTORE POP POP JUMP JUMPDEST PUSH2 0xE16 DUP2 PUSH2 0x11A6 JUMP JUMPDEST DUP3 MSTORE POP POP JUMP JUMPDEST PUSH2 0xE25 DUP2 PUSH2 0x11B8 JUMP JUMPDEST DUP3 MSTORE POP POP JUMP JUMPDEST PUSH1 0x0 PUSH2 0xE38 PUSH1 0x1B DUP4 PUSH2 0x110B JUMP JUMPDEST SWAP2 POP PUSH2 0xE43 DUP3 PUSH2 0x1222 JUMP JUMPDEST PUSH1 0x20 DUP3 ADD SWAP1 POP SWAP2 SWAP1 POP JUMP JUMPDEST PUSH1 0x0 PUSH2 0xE5B PUSH1 0x26 DUP4 PUSH2 0x110B JUMP JUMPDEST SWAP2 POP PUSH2 0xE66 DUP3 PUSH2 0x124B JUMP JUMPDEST PUSH1 0x40 DUP3 ADD SWAP1 POP SWAP2 SWAP1 POP JUMP JUMPDEST PUSH1 0x0 PUSH2 0xE7E PUSH1 0x16 DUP4 PUSH2 0x110B JUMP JUMPDEST SWAP2 POP PUSH2 0xE89 DUP3 PUSH2 0x129A JUMP JUMPDEST PUSH1 0x20 DUP3 ADD SWAP1 POP SWAP2 SWAP1 POP JUMP JUMPDEST PUSH1 0x0 PUSH2 0xEA1 PUSH1 0x14 DUP4 PUSH2 0x110B JUMP JUMPDEST SWAP2 POP PUSH2 0xEAC DUP3 PUSH2 0x12C3 JUMP JUMPDEST PUSH1 0x20 DUP3 ADD SWAP1 POP SWAP2 SWAP1 POP JUMP JUMPDEST PUSH1 0x0 PUSH2 0xEC4 PUSH1 0x20 DUP4 PUSH2 0x110B JUMP JUMPDEST SWAP2 POP PUSH2 0xECF DUP3 PUSH2 0x12EC JUMP JUMPDEST PUSH1 0x20 DUP3 ADD SWAP1 POP SWAP2 SWAP1 POP JUMP JUMPDEST PUSH1 0x0 PUSH2 0xEE7 PUSH1 0x14 DUP4 PUSH2 0x110B JUMP JUMPDEST SWAP2 POP PUSH2 0xEF2 DUP3 PUSH2 0x1315 JUMP JUMPDEST PUSH1 0x20 DUP3 ADD SWAP1 POP SWAP2 SWAP1 POP JUMP JUMPDEST PUSH1 0x80 DUP3 ADD PUSH1 0x0 DUP3 ADD MLOAD PUSH2 0xF13 PUSH1 0x0 DUP6 ADD DUP3 PUSH2 0xDFE JUMP JUMPDEST POP PUSH1 0x20 DUP3 ADD MLOAD PUSH2 0xF26 PUSH1 0x20 DUP6 ADD DUP3 PUSH2 0xF52 JUMP JUMPDEST POP PUSH1 0x40 DUP3 ADD MLOAD PUSH2 0xF39 PUSH1 0x40 DUP6 ADD DUP3 PUSH2 0xF52 JUMP JUMPDEST POP PUSH1 0x60 DUP3 ADD MLOAD PUSH2 0xF4C PUSH1 0x60 DUP6 ADD DUP3 PUSH2 0xF52 JUMP JUMPDEST POP POP POP POP JUMP JUMPDEST PUSH2 0xF5B DUP2 PUSH2 0x11E4 JUMP JUMPDEST DUP3 MSTORE POP POP JUMP JUMPDEST PUSH2 0xF6A DUP2 PUSH2 0x11E4 JUMP JUMPDEST DUP3 MSTORE POP POP JUMP JUMPDEST PUSH1 0x0 PUSH1 0x20 DUP3 ADD SWAP1 POP PUSH2 0xF85 PUSH1 0x0 DUP4 ADD DUP5 PUSH2 0xE0D JUMP JUMPDEST SWAP3 SWAP2 POP POP JUMP JUMPDEST PUSH1 0x0 PUSH1 0x60 DUP3 ADD SWAP1 POP PUSH2 0xFA0 PUSH1 0x0 DUP4 ADD DUP7 PUSH2 0xE0D JUMP JUMPDEST PUSH2 0xFAD PUSH1 0x20 DUP4 ADD DUP6 PUSH2 0xE0D JUMP JUMPDEST PUSH2 0xFBA PUSH1 0x40 DUP4 ADD DUP5 PUSH2 0xF61 JUMP JUMPDEST SWAP5 SWAP4 POP POP POP POP JUMP JUMPDEST PUSH1 0x0 PUSH1 0x40 DUP3 ADD SWAP1 POP PUSH2 0xFD7 PUSH1 0x0 DUP4 ADD DUP6 PUSH2 0xE0D JUMP JUMPDEST PUSH2 0xFE4 PUSH1 0x20 DUP4 ADD DUP5 PUSH2 0xF61 JUMP JUMPDEST SWAP4 SWAP3 POP POP POP JUMP JUMPDEST PUSH1 0x0 PUSH1 0xE0 DUP3 ADD SWAP1 POP PUSH2 0x1000 PUSH1 0x0 DUP4 ADD DUP8 PUSH2 0xE0D JUMP JUMPDEST PUSH2 0x100D PUSH1 0x20 DUP4 ADD DUP7 PUSH2 0xF61 JUMP JUMPDEST PUSH2 0x101A PUSH1 0x40 DUP4 ADD DUP6 PUSH2 0xEFD JUMP JUMPDEST PUSH2 0x1027 PUSH1 0xC0 DUP4 ADD DUP5 PUSH2 0xF61 JUMP JUMPDEST SWAP6 SWAP5 POP POP POP POP POP JUMP JUMPDEST PUSH1 0x0 PUSH1 0x20 DUP3 ADD SWAP1 POP PUSH2 0x1045 PUSH1 0x0 DUP4 ADD DUP5 PUSH2 0xE1C JUMP JUMPDEST SWAP3 SWAP2 POP POP JUMP JUMPDEST PUSH1 0x0 PUSH1 0x20 DUP3 ADD SWAP1 POP DUP2 DUP2 SUB PUSH1 0x0 DUP4 ADD MSTORE PUSH2 0x1064 DUP2 PUSH2 0xE2B JUMP JUMPDEST SWAP1 POP SWAP2 SWAP1 POP JUMP JUMPDEST PUSH1 0x0 PUSH1 0x20 DUP3 ADD SWAP1 POP DUP2 DUP2 SUB PUSH1 0x0 DUP4 ADD MSTORE PUSH2 0x1084 DUP2 PUSH2 0xE4E JUMP JUMPDEST SWAP1 POP SWAP2 SWAP1 POP JUMP JUMPDEST PUSH1 0x0 PUSH1 0x20 DUP3 ADD SWAP1 POP DUP2 DUP2 SUB PUSH1 0x0 DUP4 ADD MSTORE PUSH2 0x10A4 DUP2 PUSH2 0xE71 JUMP JUMPDEST SWAP1 POP SWAP2 SWAP1 POP JUMP JUMPDEST PUSH1 0x0 PUSH1 0x20 DUP3 ADD SWAP1 POP DUP2 DUP2 SUB PUSH1 0x0 DUP4 ADD MSTORE PUSH2 0x10C4 DUP2 PUSH2 0xE94 JUMP JUMPDEST SWAP1 POP SWAP2 SWAP1 POP JUMP JUMPDEST PUSH1 0x0 PUSH1 0x20 DUP3 ADD SWAP1 POP DUP2 DUP2 SUB PUSH1 0x0 DUP4 ADD MSTORE PUSH2 0x10E4 DUP2 PUSH2 0xEB7 JUMP JUMPDEST SWAP1 POP SWAP2 SWAP1 POP JUMP JUMPDEST PUSH1 0x0 PUSH1 0x20 DUP3 ADD SWAP1 POP DUP2 DUP2 SUB PUSH1 0x0 DUP4 ADD MSTORE PUSH2 0x1104 DUP2 PUSH2 0xEDA JUMP JUMPDEST SWAP1 POP SWAP2 SWAP1 POP JUMP JUMPDEST PUSH1 0x0 DUP3 DUP3 MSTORE PUSH1 0x20 DUP3 ADD SWAP1 POP SWAP3 SWAP2 POP POP JUMP JUMPDEST PUSH1 0x0 PUSH2 0x1127 DUP3 PUSH2 0x11E4 JUMP JUMPDEST SWAP2 POP PUSH2 0x1132 DUP4 PUSH2 0x11E4 JUMP JUMPDEST SWAP3 POP DUP3 PUSH32 0xFFFFFFFFFFFFFFFFFFFFFFFFFFFFFFFFFFFFFFFFFFFFFFFFFFFFFFFFFFFFFFFF SUB DUP3 GT ISZERO PUSH2 0x1167 JUMPI PUSH2 0x1166 PUSH2 0x11EE JUMP JUMPDEST JUMPDEST DUP3 DUP3 ADD SWAP1 POP SWAP3 SWAP2 POP POP JUMP JUMPDEST PUSH1 0x0 PUSH2 0x117D DUP3 PUSH2 0x11E4 JUMP JUMPDEST SWAP2 POP PUSH2 0x1188 DUP4 PUSH2 0x11E4 JUMP JUMPDEST SWAP3 POP DUP3 DUP3 LT ISZERO PUSH2 0x119B JUMPI PUSH2 0x119A PUSH2 0x11EE JUMP JUMPDEST JUMPDEST DUP3 DUP3 SUB SWAP1 POP SWAP3 SWAP2 POP POP JUMP JUMPDEST PUSH1 0x0 PUSH2 0x11B1 DUP3 PUSH2 0x11C4 JUMP JUMPDEST SWAP1 POP SWAP2 SWAP1 POP JUMP JUMPDEST PUSH1 0x0 DUP2 ISZERO ISZERO SWAP1 POP SWAP2 SWAP1 POP JUMP JUMPDEST PUSH1 0x0 PUSH20 0xFFFFFFFFFFFFFFFFFFFFFFFFFFFFFFFFFFFFFFFF DUP3 AND SWAP1 POP SWAP2 SWAP1 POP JUMP JUMPDEST PUSH1 0x0 DUP2 SWAP1 POP SWAP2 SWAP1 POP JUMP JUMPDEST PUSH32 0x4E487B7100000000000000000000000000000000000000000000000000000000 PUSH1 0x0 MSTORE PUSH1 0x11 PUSH1 0x4 MSTORE PUSH1 0x24 PUSH1 0x0 REVERT JUMPDEST PUSH1 0x0 DUP1 REVERT JUMPDEST PUSH32 0x4552524F523A20494E53554646494349454E542042414C414E43450000000000 PUSH1 0x0 DUP3 ADD MSTORE POP JUMP JUMPDEST PUSH32 0x4F776E61626C653A206E6577206F776E657220697320746865207A65726F2061 PUSH1 0x0 DUP3 ADD MSTORE PUSH32 0x6464726573730000000000000000000000000000000000000000000000000000 PUSH1 0x20 DUP3 ADD MSTORE POP JUMP JUMPDEST PUSH32 0x5374616B696E67204973204E6F7420456E61626C656400000000000000000000 PUSH1 0x0 DUP3 ADD MSTORE POP JUMP JUMPDEST PUSH32 0x4552524F523A204D4158494D554D205354414B45000000000000000000000000 PUSH1 0x0 DUP3 ADD MSTORE POP JUMP JUMPDEST PUSH32 0x4F776E61626C653A2063616C6C6572206973206E6F7420746865206F776E6572 PUSH1 0x0 DUP3 ADD MSTORE POP JUMP JUMPDEST PUSH32 0x4552524F523A204D494E494D554D205354414B45000000000000000000000000 PUSH1 0x0 DUP3 ADD MSTORE POP JUMP JUMPDEST PUSH2 0x1347 DUP2 PUSH2 0x11A6 JUMP JUMPDEST DUP2 EQ PUSH2 0x1352 JUMPI PUSH1 0x0 DUP1 REVERT JUMPDEST POP JUMP JUMPDEST PUSH2 0x135E DUP2 PUSH2 0x11B8 JUMP JUMPDEST DUP2 EQ PUSH2 0x1369 JUMPI PUSH1 0x0 DUP1 REVERT JUMPDEST POP JUMP JUMPDEST PUSH2 0x1375 DUP2 PUSH2 0x11E4 JUMP JUMPDEST DUP2 EQ PUSH2 0x1380 JUMPI PUSH1 0x0 DUP1 REVERT JUMPDEST POP JUMP INVALID LOG2 PUSH5 0x6970667358 0x22 SLT KECCAK256 SWAP15 0xD7 DUP13 0x29 0xC8 REVERT LT 0xDD 0x1E 0xD4 SGT DUP3 CALLER 0x2D PUSH26 0x56AA18F9151B23A4A2707D03398CAEA85064736F6C6343000807 STOP CALLER "
				},
				"gasEstimates": {
					"creation": {
						"codeDepositCost": "1009800",
						"executionCost": "infinite",
						"totalCost": "infinite"
					},
					"external": {
						"": "174",
						"SetStakingToken(address)": "26984",
						"StakeToken(uint256)": "infinite",
						"StakingEnabled()": "2471",
						"ToggleStaking()": "28791",
						"UnstakeToken(uint256)": "infinite",
						"owner()": "2567",
						"renounceOwnership()": "30397",
						"transferOwnership(address)": "30789"
					}
				},
				"methodIdentifiers": {
					"SetStakingToken(address)": "db568922",
					"StakeToken(uint256)": "ad95b1c6",
					"StakingEnabled()": "da917aea",
					"ToggleStaking()": "64cb560c",
					"UnstakeToken(uint256)": "df6a8a15",
					"owner()": "8da5cb5b",
					"renounceOwnership()": "715018a6",
					"transferOwnership(address)": "f2fde38b"
				}
			},
			"storageLayout": {
				"storage": [
					{
						"astId": 7,
						"contract": "Solidity Part/contracts/staking.sol:StakingContract",
						"label": "_owner",
						"offset": 0,
						"slot": "0",
						"type": "t_address"
					},
					{
						"astId": 161,
						"contract": "Solidity Part/contracts/staking.sol:StakingContract",
						"label": "StakingToken",
						"offset": 0,
						"slot": "1",
						"type": "t_address"
					},
					{
						"astId": 164,
						"contract": "Solidity Part/contracts/staking.sol:StakingContract",
						"label": "currentID",
						"offset": 0,
						"slot": "2",
						"type": "t_uint256"
					},
					{
						"astId": 167,
						"contract": "Solidity Part/contracts/staking.sol:StakingContract",
						"label": "StakingEnabled",
						"offset": 0,
						"slot": "3",
						"type": "t_bool"
					},
					{
						"astId": 181,
						"contract": "Solidity Part/contracts/staking.sol:StakingContract",
						"label": "StakingHistory",
						"offset": 0,
						"slot": "4",
						"type": "t_mapping(t_uint256,t_struct(Stake)176_storage)"
					},
					{
						"astId": 185,
						"contract": "Solidity Part/contracts/staking.sol:StakingContract",
						"label": "StakingBalances",
						"offset": 0,
						"slot": "5",
						"type": "t_mapping(t_address,t_uint256)"
					}
				],
				"types": {
					"t_address": {
						"encoding": "inplace",
						"label": "address",
						"numberOfBytes": "20"
					},
					"t_bool": {
						"encoding": "inplace",
						"label": "bool",
						"numberOfBytes": "1"
					},
					"t_mapping(t_address,t_uint256)": {
						"encoding": "mapping",
						"key": "t_address",
						"label": "mapping(address => uint256)",
						"numberOfBytes": "32",
						"value": "t_uint256"
					},
					"t_mapping(t_uint256,t_struct(Stake)176_storage)": {
						"encoding": "mapping",
						"key": "t_uint256",
						"label": "mapping(uint256 => struct StakingContract.Stake)",
						"numberOfBytes": "32",
						"value": "t_struct(Stake)176_storage"
					},
					"t_struct(Stake)176_storage": {
						"encoding": "inplace",
						"label": "struct StakingContract.Stake",
						"members": [
							{
								"astId": 169,
								"contract": "Solidity Part/contracts/staking.sol:StakingContract",
								"label": "owner",
								"offset": 0,
								"slot": "0",
								"type": "t_address"
							},
							{
								"astId": 171,
								"contract": "Solidity Part/contracts/staking.sol:StakingContract",
								"label": "amount",
								"offset": 0,
								"slot": "1",
								"type": "t_uint256"
							},
							{
								"astId": 173,
								"contract": "Solidity Part/contracts/staking.sol:StakingContract",
								"label": "StakeTime",
								"offset": 0,
								"slot": "2",
								"type": "t_uint256"
							},
							{
								"astId": 175,
								"contract": "Solidity Part/contracts/staking.sol:StakingContract",
								"label": "UnstakeTime",
								"offset": 0,
								"slot": "3",
								"type": "t_uint256"
							}
						],
						"numberOfBytes": "128"
					},
					"t_uint256": {
						"encoding": "inplace",
						"label": "uint256",
						"numberOfBytes": "32"
					}
				}
			},
			"userdoc": {
				"kind": "user",
				"methods": {},
				"version": 1
			}
		}
	}
}